{
  "contracts/EquityManager.sol": {
    "EquityManager": {
      "abi": [
        {
          "inputs": [
            {
              "internalType": "address",
              "name": "_i3Fund",
              "type": "address"
            },
            {
              "internalType": "uint256",
              "name": "_interval",
              "type": "uint256"
            },
            {
              "internalType": "uint256",
              "name": "_window",
              "type": "uint256"
            }
          ],
          "stateMutability": "nonpayable",
          "type": "constructor"
        },
        {
          "inputs": [],
          "name": "EquityManager__ContractUpdateWindowIsNotOpen",
          "type": "error"
        },
        {
          "inputs": [],
          "name": "EquityManager__ContractUpdateWindowIsOpen",
          "type": "error"
        },
        {
          "inputs": [],
          "name": "EquityManager__InsufficientBalance",
          "type": "error"
        },
        {
          "inputs": [],
          "name": "EquityManager__StakeHolderAlreadyExists",
          "type": "error"
        },
        {
          "inputs": [],
          "name": "EquityManager__StakeHolderDoesNotExist",
          "type": "error"
        },
        {
          "inputs": [],
          "name": "EquityManager__StakeIsZero",
          "type": "error"
        },
        {
          "inputs": [],
          "name": "EquityManager__TotalValueGreaterThan100",
          "type": "error"
        },
        {
          "inputs": [],
          "name": "EquityManager__TransactionFailed",
          "type": "error"
        },
        {
          "anonymous": false,
          "inputs": [
            {
              "indexed": false,
              "internalType": "address",
              "name": "stakeholder",
              "type": "address"
            },
            {
              "indexed": false,
              "internalType": "uint256",
              "name": "amount",
              "type": "uint256"
            },
            {
              "indexed": false,
              "internalType": "uint256",
              "name": "time_distributed",
              "type": "uint256"
            }
          ],
          "name": "FundsDistributed",
          "type": "event"
        },
        {
          "anonymous": false,
          "inputs": [
            {
              "indexed": true,
              "internalType": "address",
              "name": "addr",
              "type": "address"
            },
            {
              "indexed": false,
              "internalType": "uint256",
              "name": "amount",
              "type": "uint256"
            }
          ],
          "name": "FundsReceived",
          "type": "event"
        },
        {
          "anonymous": false,
          "inputs": [
            {
              "indexed": false,
              "internalType": "address",
              "name": "account",
              "type": "address"
            }
          ],
          "name": "Paused",
          "type": "event"
        },
        {
          "anonymous": false,
          "inputs": [
            {
              "indexed": true,
              "internalType": "bytes32",
              "name": "role",
              "type": "bytes32"
            },
            {
              "indexed": true,
              "internalType": "bytes32",
              "name": "previousAdminRole",
              "type": "bytes32"
            },
            {
              "indexed": true,
              "internalType": "bytes32",
              "name": "newAdminRole",
              "type": "bytes32"
            }
          ],
          "name": "RoleAdminChanged",
          "type": "event"
        },
        {
          "anonymous": false,
          "inputs": [
            {
              "indexed": true,
              "internalType": "bytes32",
              "name": "role",
              "type": "bytes32"
            },
            {
              "indexed": true,
              "internalType": "address",
              "name": "account",
              "type": "address"
            },
            {
              "indexed": true,
              "internalType": "address",
              "name": "sender",
              "type": "address"
            }
          ],
          "name": "RoleGranted",
          "type": "event"
        },
        {
          "anonymous": false,
          "inputs": [
            {
              "indexed": true,
              "internalType": "bytes32",
              "name": "role",
              "type": "bytes32"
            },
            {
              "indexed": true,
              "internalType": "address",
              "name": "account",
              "type": "address"
            },
            {
              "indexed": true,
              "internalType": "address",
              "name": "sender",
              "type": "address"
            }
          ],
          "name": "RoleRevoked",
          "type": "event"
        },
        {
          "anonymous": false,
          "inputs": [
            {
              "indexed": false,
              "internalType": "address",
              "name": "holder",
              "type": "address"
            },
            {
              "indexed": false,
              "internalType": "uint256",
              "name": "stake",
              "type": "uint256"
            },
            {
              "indexed": false,
              "internalType": "uint256",
              "name": "timeAdded",
              "type": "uint256"
            }
          ],
          "name": "StakeHolderAdded",
          "type": "event"
        },
        {
          "anonymous": false,
          "inputs": [
            {
              "indexed": false,
              "internalType": "address",
              "name": "holder",
              "type": "address"
            },
            {
              "indexed": false,
              "internalType": "uint256",
              "name": "stake",
              "type": "uint256"
            },
            {
              "indexed": false,
              "internalType": "uint256",
              "name": "timeAdded",
              "type": "uint256"
            }
          ],
          "name": "StakeHolderStakeIncreased",
          "type": "event"
        },
        {
          "anonymous": false,
          "inputs": [
            {
              "indexed": false,
              "internalType": "address",
              "name": "account",
              "type": "address"
            }
          ],
          "name": "Unpaused",
          "type": "event"
        },
        {
          "inputs": [],
          "name": "DEFAULT_ADMIN_ROLE",
          "outputs": [
            {
              "internalType": "bytes32",
              "name": "",
              "type": "bytes32"
            }
          ],
          "stateMutability": "view",
          "type": "function"
        },
        {
          "inputs": [],
          "name": "MANAGER_ROLE",
          "outputs": [
            {
              "internalType": "bytes32",
              "name": "",
              "type": "bytes32"
            }
          ],
          "stateMutability": "view",
          "type": "function"
        },
        {
          "inputs": [],
          "name": "PAUSER_ROLE",
          "outputs": [
            {
              "internalType": "bytes32",
              "name": "",
              "type": "bytes32"
            }
          ],
          "stateMutability": "view",
          "type": "function"
        },
        {
          "inputs": [
            {
              "internalType": "address",
              "name": "_holder",
              "type": "address"
            },
            {
              "internalType": "uint256",
              "name": "_initialStake",
              "type": "uint256"
            }
          ],
          "name": "addStakeHolder",
          "outputs": [],
          "stateMutability": "nonpayable",
          "type": "function"
        },
        {
          "inputs": [],
          "name": "distributeFunds",
          "outputs": [],
          "stateMutability": "nonpayable",
          "type": "function"
        },
        {
          "inputs": [
            {
              "internalType": "bytes32",
              "name": "role",
              "type": "bytes32"
            }
          ],
          "name": "getRoleAdmin",
          "outputs": [
            {
              "internalType": "bytes32",
              "name": "",
              "type": "bytes32"
            }
          ],
          "stateMutability": "view",
          "type": "function"
        },
        {
          "inputs": [],
          "name": "getStakeHolders",
          "outputs": [
            {
              "internalType": "address[]",
              "name": "_holders",
              "type": "address[]"
            },
            {
              "internalType": "uint256[]",
              "name": "_stakesPercent",
              "type": "uint256[]"
            }
          ],
          "stateMutability": "view",
          "type": "function"
        },
        {
          "inputs": [
            {
              "internalType": "bytes32",
              "name": "role",
              "type": "bytes32"
            },
            {
              "internalType": "address",
              "name": "account",
              "type": "address"
            }
          ],
          "name": "grantRole",
          "outputs": [],
          "stateMutability": "nonpayable",
          "type": "function"
        },
        {
          "inputs": [
            {
              "internalType": "bytes32",
              "name": "role",
              "type": "bytes32"
            },
            {
              "internalType": "address",
              "name": "account",
              "type": "address"
            }
          ],
          "name": "hasRole",
          "outputs": [
            {
              "internalType": "bool",
              "name": "",
              "type": "bool"
            }
          ],
          "stateMutability": "view",
          "type": "function"
        },
        {
          "inputs": [],
          "name": "impact3FundAddress",
          "outputs": [
            {
              "internalType": "address payable",
              "name": "",
              "type": "address"
            }
          ],
          "stateMutability": "view",
          "type": "function"
        },
        {
          "inputs": [],
          "name": "intervalMilliseconds",
          "outputs": [
            {
              "internalType": "uint256",
              "name": "",
              "type": "uint256"
            }
          ],
          "stateMutability": "view",
          "type": "function"
        },
        {
          "inputs": [],
          "name": "lastEndOfIntervalTimestamp",
          "outputs": [
            {
              "internalType": "uint256",
              "name": "",
              "type": "uint256"
            }
          ],
          "stateMutability": "view",
          "type": "function"
        },
        {
          "inputs": [],
          "name": "pause",
          "outputs": [],
          "stateMutability": "nonpayable",
          "type": "function"
        },
        {
          "inputs": [],
          "name": "paused",
          "outputs": [
            {
              "internalType": "bool",
              "name": "",
              "type": "bool"
            }
          ],
          "stateMutability": "view",
          "type": "function"
        },
        {
          "inputs": [
            {
              "internalType": "bytes32",
              "name": "role",
              "type": "bytes32"
            },
            {
              "internalType": "address",
              "name": "account",
              "type": "address"
            }
          ],
          "name": "renounceRole",
          "outputs": [],
          "stateMutability": "nonpayable",
          "type": "function"
        },
        {
          "inputs": [
            {
              "internalType": "bytes32",
              "name": "role",
              "type": "bytes32"
            },
            {
              "internalType": "address",
              "name": "account",
              "type": "address"
            }
          ],
          "name": "revokeRole",
          "outputs": [],
          "stateMutability": "nonpayable",
          "type": "function"
        },
        {
          "inputs": [
            {
              "internalType": "address",
              "name": "fund",
              "type": "address"
            }
          ],
          "name": "setImpact3FundAddress",
          "outputs": [],
          "stateMutability": "nonpayable",
          "type": "function"
        },
        {
          "inputs": [
            {
              "internalType": "uint256",
              "name": "",
              "type": "uint256"
            }
          ],
          "name": "stakeHolderAddresses",
          "outputs": [
            {
              "internalType": "address",
              "name": "",
              "type": "address"
            }
          ],
          "stateMutability": "view",
          "type": "function"
        },
        {
          "inputs": [
            {
              "internalType": "address",
              "name": "",
              "type": "address"
            }
          ],
          "name": "stakeHolders",
          "outputs": [
            {
              "internalType": "uint256",
              "name": "stakePercentage",
              "type": "uint256"
            },
            {
              "internalType": "uint256",
              "name": "fundsLastReceived",
              "type": "uint256"
            },
            {
              "internalType": "uint256",
              "name": "equityLastUpdated",
              "type": "uint256"
            }
          ],
          "stateMutability": "view",
          "type": "function"
        },
        {
          "inputs": [
            {
              "internalType": "bytes4",
              "name": "interfaceId",
              "type": "bytes4"
            }
          ],
          "name": "supportsInterface",
          "outputs": [
            {
              "internalType": "bool",
              "name": "",
              "type": "bool"
            }
          ],
          "stateMutability": "view",
          "type": "function"
        },
        {
          "inputs": [],
          "name": "unpause",
          "outputs": [],
          "stateMutability": "nonpayable",
          "type": "function"
        },
        {
          "inputs": [
            {
              "internalType": "address",
              "name": "_holder",
              "type": "address"
            },
            {
              "internalType": "uint256",
              "name": "_stakeIncrease",
              "type": "uint256"
            }
          ],
          "name": "updateStakeHolder",
          "outputs": [],
          "stateMutability": "nonpayable",
          "type": "function"
        },
        {
          "inputs": [],
          "name": "updateWindowMilliseconds",
          "outputs": [
            {
              "internalType": "uint256",
              "name": "",
              "type": "uint256"
            }
          ],
          "stateMutability": "view",
          "type": "function"
        },
        {
          "inputs": [],
          "name": "withinUpdateWindow",
          "outputs": [
            {
              "internalType": "bool",
              "name": "",
              "type": "bool"
            }
          ],
          "stateMutability": "view",
          "type": "function"
        },
        {
          "stateMutability": "payable",
          "type": "receive"
        }
      ],
      "devdoc": {
        "custom:security-contact": "info@impact3.io",
        "kind": "dev",
        "methods": {
          "getRoleAdmin(bytes32)": {
            "details": "Returns the admin role that controls `role`. See {grantRole} and {revokeRole}. To change a role's admin, use {_setRoleAdmin}."
          },
          "grantRole(bytes32,address)": {
            "details": "Grants `role` to `account`. If `account` had not been already granted `role`, emits a {RoleGranted} event. Requirements: - the caller must have ``role``'s admin role. May emit a {RoleGranted} event."
          },
          "hasRole(bytes32,address)": {
            "details": "Returns `true` if `account` has been granted `role`."
          },
          "paused()": {
            "details": "Returns true if the contract is paused, and false otherwise."
          },
          "renounceRole(bytes32,address)": {
            "details": "Revokes `role` from the calling account. Roles are often managed via {grantRole} and {revokeRole}: this function's purpose is to provide a mechanism for accounts to lose their privileges if they are compromised (such as when a trusted device is misplaced). If the calling account had been revoked `role`, emits a {RoleRevoked} event. Requirements: - the caller must be `account`. May emit a {RoleRevoked} event."
          },
          "revokeRole(bytes32,address)": {
            "details": "Revokes `role` from `account`. If `account` had been granted `role`, emits a {RoleRevoked} event. Requirements: - the caller must have ``role``'s admin role. May emit a {RoleRevoked} event."
          },
          "supportsInterface(bytes4)": {
            "details": "See {IERC165-supportsInterface}."
          }
        },
        "version": 1
      },
      "evm": {
        "bytecode": {
          "linkReferences": {},
          "object": "60c06040523480156200001157600080fd5b50604051620036143803806200361483398181016040528101906200003791906200064f565b60008060006101000a81548160ff02191690831515021790555060016002819055506200006e6000801b336200010360201b60201c565b620000a07f65d7a28e3265b37a6474929f336521b332c1681b933f6cb9f3376673440d862a336200010360201b60201c565b620000d27f241ecf16d79d0f8dbfb92cbc07fe17840425976cf0667f022fe9877caa831b08336200010360201b60201c565b620000e383620001f460201b60201c565b81608081815250508060a081815250504260068190555050505062000afa565b6200011582826200026b60201b60201c565b620001f057600180600084815260200190815260200160002060000160008373ffffffffffffffffffffffffffffffffffffffff1673ffffffffffffffffffffffffffffffffffffffff16815260200190815260200160002060006101000a81548160ff02191690831515021790555062000195620002d660201b60201c565b73ffffffffffffffffffffffffffffffffffffffff168173ffffffffffffffffffffffffffffffffffffffff16837f2f8788117e7eff1d82e926ec794901d17c78024a50270940304540a733656f0d60405160405180910390a45b5050565b7f241ecf16d79d0f8dbfb92cbc07fe17840425976cf0667f022fe9877caa831b086200022681620002de60201b60201c565b81600560006101000a81548173ffffffffffffffffffffffffffffffffffffffff021916908373ffffffffffffffffffffffffffffffffffffffff1602179055505050565b60006001600084815260200190815260200160002060000160008373ffffffffffffffffffffffffffffffffffffffff1673ffffffffffffffffffffffffffffffffffffffff16815260200190815260200160002060009054906101000a900460ff16905092915050565b600033905090565b620002ff81620002f3620002d660201b60201c565b6200030260201b60201c565b50565b6200031482826200026b60201b60201c565b620003c257620003478173ffffffffffffffffffffffffffffffffffffffff166014620003c660201b620015851760201c565b620003628360001c6020620003c660201b620015851760201c565b6040516020016200037592919062000798565b6040516020818303038152906040526040517f08c379a0000000000000000000000000000000000000000000000000000000008152600401620003b99190620007da565b60405180910390fd5b5050565b606060006002836002620003db9190620008a4565b620003e7919062000847565b67ffffffffffffffff81111562000403576200040262000a06565b5b6040519080825280601f01601f191660200182016040528015620004365781602001600182028036833780820191505090505b5090507f300000000000000000000000000000000000000000000000000000000000000081600081518110620004715762000470620009d7565b5b60200101907effffffffffffffffffffffffffffffffffffffffffffffffffffffffffffff1916908160001a9053507f780000000000000000000000000000000000000000000000000000000000000081600181518110620004d857620004d7620009d7565b5b60200101907effffffffffffffffffffffffffffffffffffffffffffffffffffffffffffff1916908160001a905350600060018460026200051a9190620008a4565b62000526919062000847565b90505b6001811115620005d0577f3031323334353637383961626364656600000000000000000000000000000000600f8616601081106200056c576200056b620009d7565b5b1a60f81b828281518110620005865762000585620009d7565b5b60200101907effffffffffffffffffffffffffffffffffffffffffffffffffffffffffffff1916908160001a905350600485901c945080620005c89062000979565b905062000529565b506000841462000617576040517f08c379a00000000000000000000000000000000000000000000000000000000081526004016200060e90620007fe565b60405180910390fd5b8091505092915050565b600081519050620006328162000ac6565b92915050565b600081519050620006498162000ae0565b92915050565b6000806000606084860312156200066b576200066a62000a35565b5b60006200067b8682870162000621565b93505060206200068e8682870162000638565b9250506040620006a18682870162000638565b9150509250925092565b6000620006b88262000820565b620006c481856200082b565b9350620006d681856020860162000943565b620006e18162000a3a565b840191505092915050565b6000620006f98262000820565b6200070581856200083c565b93506200071781856020860162000943565b80840191505092915050565b6000620007326020836200082b565b91506200073f8262000a4b565b602082019050919050565b6000620007596017836200083c565b9150620007668262000a74565b601782019050919050565b6000620007806011836200083c565b91506200078d8262000a9d565b601182019050919050565b6000620007a5826200074a565b9150620007b38285620006ec565b9150620007c08262000771565b9150620007ce8284620006ec565b91508190509392505050565b60006020820190508181036000830152620007f68184620006ab565b905092915050565b60006020820190508181036000830152620008198162000723565b9050919050565b600081519050919050565b600082825260208201905092915050565b600081905092915050565b6000620008548262000939565b9150620008618362000939565b9250827fffffffffffffffffffffffffffffffffffffffffffffffffffffffffffffffff03821115620008995762000898620009a8565b5b828201905092915050565b6000620008b18262000939565b9150620008be8362000939565b9250817fffffffffffffffffffffffffffffffffffffffffffffffffffffffffffffffff0483118215151615620008fa57620008f9620009a8565b5b828202905092915050565b6000620009128262000919565b9050919050565b600073ffffffffffffffffffffffffffffffffffffffff82169050919050565b6000819050919050565b60005b838110156200096357808201518184015260208101905062000946565b8381111562000973576000848401525b50505050565b6000620009868262000939565b915060008214156200099d576200099c620009a8565b5b600182039050919050565b7f4e487b7100000000000000000000000000000000000000000000000000000000600052601160045260246000fd5b7f4e487b7100000000000000000000000000000000000000000000000000000000600052603260045260246000fd5b7f4e487b7100000000000000000000000000000000000000000000000000000000600052604160045260246000fd5b600080fd5b6000601f19601f8301169050919050565b7f537472696e67733a20686578206c656e67746820696e73756666696369656e74600082015250565b7f416363657373436f6e74726f6c3a206163636f756e7420000000000000000000600082015250565b7f206973206d697373696e6720726f6c6520000000000000000000000000000000600082015250565b62000ad18162000905565b811462000add57600080fd5b50565b62000aeb8162000939565b811462000af757600080fd5b50565b60805160a051612ad862000b3c600039600081816106420152611b9a015260008181610ac801528181610d6101528181611b680152611bbb0152612ad86000f3fe60806040526004361061014f5760003560e01c8063a010fd70116100b6578063e48655f91161006f578063e48655f9146104c7578063e499e2e5146104f2578063e63ab1e91461051b578063ec87621c14610546578063f7fecc2714610571578063fabf0b0b1461059d576101a4565b8063a010fd70146103a3578063a128f355146103e0578063a217fddf1461040b578063d547741f14610436578063e26ff10a1461045f578063e2adb0981461049e576101a4565b80633be68630116101085780633be68630146102b75780633c915af7146102e25780633f4ba83a1461030d5780635c975abb146103245780638456cb591461034f57806391d1485414610366576101a4565b806301ffc9a7146101a957806321180645146101e6578063248a9ca3146102115780632f2ff15d1461024e57806336568abe146102775780633a6a4d2e146102a0576101a4565b366101a4573373ffffffffffffffffffffffffffffffffffffffff167f8e47b87b0ef542cdfa1659c551d88bad38aa7f452d2bbb349ab7530dfec8be8f3460405161019a91906124e9565b60405180910390a2005b600080fd5b3480156101b557600080fd5b506101d060048036038101906101cb9190611f87565b6105c6565b6040516101dd91906123f1565b60405180910390f35b3480156101f257600080fd5b506101fb610640565b60405161020891906124e9565b60405180910390f35b34801561021d57600080fd5b5061023860048036038101906102339190611f1a565b610664565b604051610245919061240c565b60405180910390f35b34801561025a57600080fd5b5061027560048036038101906102709190611f47565b610684565b005b34801561028357600080fd5b5061029e60048036038101906102999190611f47565b6106a5565b005b3480156102ac57600080fd5b506102b5610728565b005b3480156102c357600080fd5b506102cc610b0e565b6040516102d99190612331565b60405180910390f35b3480156102ee57600080fd5b506102f7610b34565b60405161030491906124e9565b60405180910390f35b34801561031957600080fd5b50610322610b3a565b005b34801561033057600080fd5b50610339610b6f565b60405161034691906123f1565b60405180910390f35b34801561035b57600080fd5b50610364610b85565b005b34801561037257600080fd5b5061038d60048036038101906103889190611f47565b610bba565b60405161039a91906123f1565b60405180910390f35b3480156103af57600080fd5b506103ca60048036038101906103c59190611fb4565b610c25565b6040516103d79190612316565b60405180910390f35b3480156103ec57600080fd5b506103f5610c64565b60405161040291906123f1565b60405180910390f35b34801561041757600080fd5b50610420610c9e565b60405161042d919061240c565b60405180910390f35b34801561044257600080fd5b5061045d60048036038101906104589190611f47565b610ca5565b005b34801561046b57600080fd5b5061048660048036038101906104819190611ead565b610cc6565b60405161049593929190612504565b60405180910390f35b3480156104aa57600080fd5b506104c560048036038101906104c09190611ead565b610cf0565b005b3480156104d357600080fd5b506104dc610d5f565b6040516104e991906124e9565b60405180910390f35b3480156104fe57600080fd5b5061051960048036038101906105149190611eda565b610d83565b005b34801561052757600080fd5b50610530611045565b60405161053d919061240c565b60405180910390f35b34801561055257600080fd5b5061055b611069565b604051610568919061240c565b60405180910390f35b34801561057d57600080fd5b5061058661108d565b6040516105949291906123ba565b60405180910390f35b3480156105a957600080fd5b506105c460048036038101906105bf9190611eda565b611255565b005b60007f7965db0b000000000000000000000000000000000000000000000000000000007bffffffffffffffffffffffffffffffffffffffffffffffffffffffff1916827bffffffffffffffffffffffffffffffffffffffffffffffffffffffff191614806106395750610638826117c1565b5b9050919050565b7f000000000000000000000000000000000000000000000000000000000000000081565b600060016000838152602001908152602001600020600101549050919050565b61068d82610664565b6106968161182b565b6106a0838361183f565b505050565b6106ad61191f565b73ffffffffffffffffffffffffffffffffffffffff168173ffffffffffffffffffffffffffffffffffffffff161461071a576040517f08c379a0000000000000000000000000000000000000000000000000000000008152600401610711906124c9565b60405180910390fd5b6107248282611927565b5050565b610730611a09565b600280541415610775576040517f08c379a000000000000000000000000000000000000000000000000000000000815260040161076c906124a9565b60405180910390fd5b60028081905550610784610c64565b156107bb576040517f5c4f151a00000000000000000000000000000000000000000000000000000000815260040160405180910390fd5b6000479050600080600380548060200260200160405190810160405280929190818152602001828054801561084557602002820191906000526020600020905b8160009054906101000a900473ffffffffffffffffffffffffffffffffffffffff1673ffffffffffffffffffffffffffffffffffffffff16815260200190600101908083116107fb575b5050505050905060005b8151811015610a28576000600460008484815181106108715761087061288a565b5b602002602001015173ffffffffffffffffffffffffffffffffffffffff1673ffffffffffffffffffffffffffffffffffffffff16815260200190815260200160002060000154905060006108e160646108d38489611a5390919063ffffffff16565b611a6990919063ffffffff16565b905042600460008686815181106108fb576108fa61288a565b5b602002602001015173ffffffffffffffffffffffffffffffffffffffff1673ffffffffffffffffffffffffffffffffffffffff16815260200190815260200160002060010181905550808561095091906125df565b945061099a600384815481106109695761096861288a565b5b9060005260206000200160009054906101000a900473ffffffffffffffffffffffffffffffffffffffff1682611a7f565b7f080babe757d4e5c7db3b7bd10606a7bf07a9857f660977ada6ca7a4d329376c8600384815481106109cf576109ce61288a565b5b9060005260206000200160009054906101000a900473ffffffffffffffffffffffffffffffffffffffff168242604051610a0b93929190612383565b60405180910390a150508080610a20906127e3565b91505061084f565b50610a55600560009054906101000a900473ffffffffffffffffffffffffffffffffffffffff1647611a7f565b7f080babe757d4e5c7db3b7bd10606a7bf07a9857f660977ada6ca7a4d329376c8600560009054906101000a900473ffffffffffffffffffffffffffffffffffffffff168342604051610aaa9392919061234c565b60405180910390a16000610abc611b61565b915050804210610b00577f000000000000000000000000000000000000000000000000000000000000000060066000828254610af891906125df565b925050819055505b505050506001600281905550565b600560009054906101000a900473ffffffffffffffffffffffffffffffffffffffff1681565b60065481565b7f65d7a28e3265b37a6474929f336521b332c1681b933f6cb9f3376673440d862a610b648161182b565b610b6c611bff565b50565b60008060009054906101000a900460ff16905090565b7f65d7a28e3265b37a6474929f336521b332c1681b933f6cb9f3376673440d862a610baf8161182b565b610bb7611c61565b50565b60006001600084815260200190815260200160002060000160008373ffffffffffffffffffffffffffffffffffffffff1673ffffffffffffffffffffffffffffffffffffffff16815260200190815260200160002060009054906101000a900460ff16905092915050565b60038181548110610c3557600080fd5b906000526020600020016000915054906101000a900473ffffffffffffffffffffffffffffffffffffffff1681565b6000806000610c71611b61565b91509150814210158015610c8457508042105b15610c9457600192505050610c9b565b6000925050505b90565b6000801b81565b610cae82610664565b610cb78161182b565b610cc18383611927565b505050565b60046020528060005260406000206000915090508060000154908060010154908060020154905083565b7f241ecf16d79d0f8dbfb92cbc07fe17840425976cf0667f022fe9877caa831b08610d1a8161182b565b81600560006101000a81548173ffffffffffffffffffffffffffffffffffffffff021916908373ffffffffffffffffffffffffffffffffffffffff1602179055505050565b7f000000000000000000000000000000000000000000000000000000000000000081565b610d8b611a09565b7f241ecf16d79d0f8dbfb92cbc07fe17840425976cf0667f022fe9877caa831b08610db58161182b565b610dbd610c64565b610df3576040517f0695e99f00000000000000000000000000000000000000000000000000000000815260040160405180910390fd5b60008211610e2d576040517f9bc4b81000000000000000000000000000000000000000000000000000000000815260040160405180910390fd5b6000610ed083610ec26003805480602002602001604051908101604052809291908181526020018280548015610eb857602002820191906000526020600020905b8160009054906101000a900473ffffffffffffffffffffffffffffffffffffffff1673ffffffffffffffffffffffffffffffffffffffff1681526020019060010190808311610e6e575b5050505050611cc3565b611d5d90919063ffffffff16565b90506064811115610f0d576040517ff7752b5600000000000000000000000000000000000000000000000000000000815260040160405180910390fd5b6000600460008673ffffffffffffffffffffffffffffffffffffffff1673ffffffffffffffffffffffffffffffffffffffff1681526020019081526020016000206000015414610f89576040517f9d7c730100000000000000000000000000000000000000000000000000000000815260040160405180910390fd5b604051806060016040528084815260200142815260200142815250600460008673ffffffffffffffffffffffffffffffffffffffff1673ffffffffffffffffffffffffffffffffffffffff1681526020019081526020016000206000820151816000015560208201518160010155604082015181600201559050507f984350119ecf7f58ff768fba0125b1ea5f84b5c79130116ac67e295294feec7c84844260405161103793929190612383565b60405180910390a150505050565b7f65d7a28e3265b37a6474929f336521b332c1681b933f6cb9f3376673440d862a81565b7f241ecf16d79d0f8dbfb92cbc07fe17840425976cf0667f022fe9877caa831b0881565b60608060038054905067ffffffffffffffff8111156110af576110ae6128b9565b5b6040519080825280602002602001820160405280156110dd5781602001602082028036833780820191505090505b509150600380548060200260200160405190810160405280929190818152602001828054801561116257602002820191906000526020600020905b8160009054906101000a900473ffffffffffffffffffffffffffffffffffffffff1673ffffffffffffffffffffffffffffffffffffffff1681526020019060010190808311611118575b50505050509150815167ffffffffffffffff811115611184576111836128b9565b5b6040519080825280602002602001820160405280156111b25781602001602082028036833780820191505090505b50905060005b825181101561125057600460008483815181106111d8576111d761288a565b5b602002602001015173ffffffffffffffffffffffffffffffffffffffff1673ffffffffffffffffffffffffffffffffffffffff168152602001908152602001600020600001548282815181106112315761123061288a565b5b6020026020010181815250508080611248906127e3565b9150506111b8565b509091565b61125d611a09565b7f241ecf16d79d0f8dbfb92cbc07fe17840425976cf0667f022fe9877caa831b086112878161182b565b61128f610c64565b6112c5576040517f0695e99f00000000000000000000000000000000000000000000000000000000815260040160405180910390fd5b600082116112ff576040517f9bc4b81000000000000000000000000000000000000000000000000000000000815260040160405180910390fd5b60006113a283611394600380548060200260200160405190810160405280929190818152602001828054801561138a57602002820191906000526020600020905b8160009054906101000a900473ffffffffffffffffffffffffffffffffffffffff1673ffffffffffffffffffffffffffffffffffffffff1681526020019060010190808311611340575b5050505050611cc3565b611d5d90919063ffffffff16565b905060648111156113df576040517ff7752b5600000000000000000000000000000000000000000000000000000000815260040160405180910390fd5b6000600460008673ffffffffffffffffffffffffffffffffffffffff1673ffffffffffffffffffffffffffffffffffffffff16815260200190815260200160002060000154141561145c576040517f0f5708a500000000000000000000000000000000000000000000000000000000815260040160405180910390fd5b60006114b384600460008873ffffffffffffffffffffffffffffffffffffffff1673ffffffffffffffffffffffffffffffffffffffff16815260200190815260200160002060000154611d5d90919063ffffffff16565b905080600460008773ffffffffffffffffffffffffffffffffffffffff1673ffffffffffffffffffffffffffffffffffffffff1681526020019081526020016000206000018190555042600460008773ffffffffffffffffffffffffffffffffffffffff1673ffffffffffffffffffffffffffffffffffffffff168152602001908152602001600020600201819055507fb1c069c2b2a0fbf8648b344b6d632ee6503befa49d2719a79c9dee2a47ab63c885854260405161157693929190612383565b60405180910390a15050505050565b6060600060028360026115989190612666565b6115a291906125df565b67ffffffffffffffff8111156115bb576115ba6128b9565b5b6040519080825280601f01601f1916602001820160405280156115ed5781602001600182028036833780820191505090505b5090507f3000000000000000000000000000000000000000000000000000000000000000816000815181106116255761162461288a565b5b60200101907effffffffffffffffffffffffffffffffffffffffffffffffffffffffffffff1916908160001a9053507f7800000000000000000000000000000000000000000000000000000000000000816001815181106116895761168861288a565b5b60200101907effffffffffffffffffffffffffffffffffffffffffffffffffffffffffffff1916908160001a905350600060018460026116c99190612666565b6116d391906125df565b90505b6001811115611773577f3031323334353637383961626364656600000000000000000000000000000000600f8616601081106117155761171461288a565b5b1a60f81b82828151811061172c5761172b61288a565b5b60200101907effffffffffffffffffffffffffffffffffffffffffffffffffffffffffffff1916908160001a905350600485901c94508061176c906127b9565b90506116d6565b50600084146117b7576040517f08c379a00000000000000000000000000000000000000000000000000000000081526004016117ae90612449565b60405180910390fd5b8091505092915050565b60007f01ffc9a7000000000000000000000000000000000000000000000000000000007bffffffffffffffffffffffffffffffffffffffffffffffffffffffff1916827bffffffffffffffffffffffffffffffffffffffffffffffffffffffff1916149050919050565b61183c8161183761191f565b611d73565b50565b6118498282610bba565b61191b57600180600084815260200190815260200160002060000160008373ffffffffffffffffffffffffffffffffffffffff1673ffffffffffffffffffffffffffffffffffffffff16815260200190815260200160002060006101000a81548160ff0219169083151502179055506118c061191f565b73ffffffffffffffffffffffffffffffffffffffff168173ffffffffffffffffffffffffffffffffffffffff16837f2f8788117e7eff1d82e926ec794901d17c78024a50270940304540a733656f0d60405160405180910390a45b5050565b600033905090565b6119318282610bba565b15611a055760006001600084815260200190815260200160002060000160008373ffffffffffffffffffffffffffffffffffffffff1673ffffffffffffffffffffffffffffffffffffffff16815260200190815260200160002060006101000a81548160ff0219169083151502179055506119aa61191f565b73ffffffffffffffffffffffffffffffffffffffff168173ffffffffffffffffffffffffffffffffffffffff16837ff6391f5c32d9c69d2a47ea670b442974b53935d1edc7fd64eb21e047a839171b60405160405180910390a45b5050565b611a11610b6f565b15611a51576040517f08c379a0000000000000000000000000000000000000000000000000000000008152600401611a4890612489565b60405180910390fd5b565b60008183611a619190612666565b905092915050565b60008183611a779190612635565b905092915050565b80471015611ab9576040517f4034001800000000000000000000000000000000000000000000000000000000815260040160405180910390fd5b60008273ffffffffffffffffffffffffffffffffffffffff1682604051611adf906122c7565b60006040518083038185875af1925050503d8060008114611b1c576040519150601f19603f3d011682016040523d82523d6000602084013e611b21565b606091505b5050905080611b5c576040517ffbb12e0800000000000000000000000000000000000000000000000000000000815260040160405180910390fd5b505050565b60008060007f0000000000000000000000000000000000000000000000000000000000000000600654611b9491906125df565b905060007f00000000000000000000000000000000000000000000000000000000000000007f0000000000000000000000000000000000000000000000000000000000000000611be491906125df565b600654611bf191906125df565b905081819350935050509091565b611c07611e10565b60008060006101000a81548160ff0219169083151502179055507f5db9ee0a495bf2e6ff9c91a7834c1ba4fdd244a5e8aa4e537bd38aeae4b073aa611c4a61191f565b604051611c579190612316565b60405180910390a1565b611c69611a09565b60016000806101000a81548160ff0219169083151502179055507f62e78cea01bee320cd4e420270b5ea74000d11b0c9f74754ebdbfc544b05a258611cac61191f565b604051611cb99190612316565b60405180910390a1565b6000806000905060005b8351811015611d535760046000858381518110611ced57611cec61288a565b5b602002602001015173ffffffffffffffffffffffffffffffffffffffff1673ffffffffffffffffffffffffffffffffffffffff1681526020019081526020016000206000015482611d3e91906125df565b91508080611d4b906127e3565b915050611ccd565b5080915050919050565b60008183611d6b91906125df565b905092915050565b611d7d8282610bba565b611e0c57611da28173ffffffffffffffffffffffffffffffffffffffff166014611585565b611db08360001c6020611585565b604051602001611dc19291906122dc565b6040516020818303038152906040526040517f08c379a0000000000000000000000000000000000000000000000000000000008152600401611e039190612427565b60405180910390fd5b5050565b611e18610b6f565b611e57576040517f08c379a0000000000000000000000000000000000000000000000000000000008152600401611e4e90612469565b60405180910390fd5b565b600081359050611e6881612a46565b92915050565b600081359050611e7d81612a5d565b92915050565b600081359050611e9281612a74565b92915050565b600081359050611ea781612a8b565b92915050565b600060208284031215611ec357611ec26128e8565b5b6000611ed184828501611e59565b91505092915050565b60008060408385031215611ef157611ef06128e8565b5b6000611eff85828601611e59565b9250506020611f1085828601611e98565b9150509250929050565b600060208284031215611f3057611f2f6128e8565b5b6000611f3e84828501611e6e565b91505092915050565b60008060408385031215611f5e57611f5d6128e8565b5b6000611f6c85828601611e6e565b9250506020611f7d85828601611e59565b9150509250929050565b600060208284031215611f9d57611f9c6128e8565b5b6000611fab84828501611e83565b91505092915050565b600060208284031215611fca57611fc96128e8565b5b6000611fd884828501611e98565b91505092915050565b6000611fed838361202f565b60208301905092915050565b600061200583836122a9565b60208301905092915050565b61201a81612750565b82525050565b612029816126d2565b82525050565b612038816126c0565b82525050565b612047816126c0565b82525050565b60006120588261255b565b6120628185612596565b935061206d8361253b565b8060005b8381101561209e5781516120858882611fe1565b97506120908361257c565b925050600181019050612071565b5085935050505092915050565b60006120b682612566565b6120c081856125a7565b93506120cb8361254b565b8060005b838110156120fc5781516120e38882611ff9565b97506120ee83612589565b9250506001810190506120cf565b5085935050505092915050565b612112816126e4565b82525050565b612121816126f0565b82525050565b600061213282612571565b61213c81856125c3565b935061214c818560208601612786565b612155816128ed565b840191505092915050565b600061216b82612571565b61217581856125d4565b9350612185818560208601612786565b80840191505092915050565b600061219e6020836125c3565b91506121a9826128fe565b602082019050919050565b60006121c16014836125c3565b91506121cc82612927565b602082019050919050565b60006121e46010836125c3565b91506121ef82612950565b602082019050919050565b60006122076000836125b8565b915061221282612979565b600082019050919050565b600061222a6017836125d4565b91506122358261297c565b601782019050919050565b600061224d601f836125c3565b9150612258826129a5565b602082019050919050565b60006122706011836125d4565b915061227b826129ce565b601182019050919050565b6000612293602f836125c3565b915061229e826129f7565b604082019050919050565b6122b281612746565b82525050565b6122c181612746565b82525050565b60006122d2826121fa565b9150819050919050565b60006122e78261221d565b91506122f38285612160565b91506122fe82612263565b915061230a8284612160565b91508190509392505050565b600060208201905061232b600083018461203e565b92915050565b60006020820190506123466000830184612020565b92915050565b60006060820190506123616000830186612011565b61236e60208301856122b8565b61237b60408301846122b8565b949350505050565b6000606082019050612398600083018661203e565b6123a560208301856122b8565b6123b260408301846122b8565b949350505050565b600060408201905081810360008301526123d4818561204d565b905081810360208301526123e881846120ab565b90509392505050565b60006020820190506124066000830184612109565b92915050565b60006020820190506124216000830184612118565b92915050565b600060208201905081810360008301526124418184612127565b905092915050565b6000602082019050818103600083015261246281612191565b9050919050565b60006020820190508181036000830152612482816121b4565b9050919050565b600060208201905081810360008301526124a2816121d7565b9050919050565b600060208201905081810360008301526124c281612240565b9050919050565b600060208201905081810360008301526124e281612286565b9050919050565b60006020820190506124fe60008301846122b8565b92915050565b600060608201905061251960008301866122b8565b61252660208301856122b8565b61253360408301846122b8565b949350505050565b6000819050602082019050919050565b6000819050602082019050919050565b600081519050919050565b600081519050919050565b600081519050919050565b6000602082019050919050565b6000602082019050919050565b600082825260208201905092915050565b600082825260208201905092915050565b600081905092915050565b600082825260208201905092915050565b600081905092915050565b60006125ea82612746565b91506125f583612746565b9250827fffffffffffffffffffffffffffffffffffffffffffffffffffffffffffffffff0382111561262a5761262961282c565b5b828201905092915050565b600061264082612746565b915061264b83612746565b92508261265b5761265a61285b565b5b828204905092915050565b600061267182612746565b915061267c83612746565b9250817fffffffffffffffffffffffffffffffffffffffffffffffffffffffffffffffff04831182151516156126b5576126b461282c565b5b828202905092915050565b60006126cb82612726565b9050919050565b60006126dd82612726565b9050919050565b60008115159050919050565b6000819050919050565b60007fffffffff0000000000000000000000000000000000000000000000000000000082169050919050565b600073ffffffffffffffffffffffffffffffffffffffff82169050919050565b6000819050919050565b600061275b82612762565b9050919050565b600061276d82612774565b9050919050565b600061277f82612726565b9050919050565b60005b838110156127a4578082015181840152602081019050612789565b838111156127b3576000848401525b50505050565b60006127c482612746565b915060008214156127d8576127d761282c565b5b600182039050919050565b60006127ee82612746565b91507fffffffffffffffffffffffffffffffffffffffffffffffffffffffffffffffff8214156128215761282061282c565b5b600182019050919050565b7f4e487b7100000000000000000000000000000000000000000000000000000000600052601160045260246000fd5b7f4e487b7100000000000000000000000000000000000000000000000000000000600052601260045260246000fd5b7f4e487b7100000000000000000000000000000000000000000000000000000000600052603260045260246000fd5b7f4e487b7100000000000000000000000000000000000000000000000000000000600052604160045260246000fd5b600080fd5b6000601f19601f8301169050919050565b7f537472696e67733a20686578206c656e67746820696e73756666696369656e74600082015250565b7f5061757361626c653a206e6f7420706175736564000000000000000000000000600082015250565b7f5061757361626c653a2070617573656400000000000000000000000000000000600082015250565b50565b7f416363657373436f6e74726f6c3a206163636f756e7420000000000000000000600082015250565b7f5265656e7472616e637947756172643a207265656e7472616e742063616c6c00600082015250565b7f206973206d697373696e6720726f6c6520000000000000000000000000000000600082015250565b7f416363657373436f6e74726f6c3a2063616e206f6e6c792072656e6f756e636560008201527f20726f6c657320666f722073656c660000000000000000000000000000000000602082015250565b612a4f816126c0565b8114612a5a57600080fd5b50565b612a66816126f0565b8114612a7157600080fd5b50565b612a7d816126fa565b8114612a8857600080fd5b50565b612a9481612746565b8114612a9f57600080fd5b5056fea2646970667358221220dcede00a774e7f3edc9441be9efb4c5edaf5b553e1ec52cebab10ba13364fb7264736f6c63430008070033",
          "opcodes": "PUSH1 0xC0 PUSH1 0x40 MSTORE CALLVALUE DUP1 ISZERO PUSH3 0x11 JUMPI PUSH1 0x0 DUP1 REVERT JUMPDEST POP PUSH1 0x40 MLOAD PUSH3 0x3614 CODESIZE SUB DUP1 PUSH3 0x3614 DUP4 CODECOPY DUP2 DUP2 ADD PUSH1 0x40 MSTORE DUP2 ADD SWAP1 PUSH3 0x37 SWAP2 SWAP1 PUSH3 0x64F JUMP JUMPDEST PUSH1 0x0 DUP1 PUSH1 0x0 PUSH2 0x100 EXP DUP2 SLOAD DUP2 PUSH1 0xFF MUL NOT AND SWAP1 DUP4 ISZERO ISZERO MUL OR SWAP1 SSTORE POP PUSH1 0x1 PUSH1 0x2 DUP2 SWAP1 SSTORE POP PUSH3 0x6E PUSH1 0x0 DUP1 SHL CALLER PUSH3 0x103 PUSH1 0x20 SHL PUSH1 0x20 SHR JUMP JUMPDEST PUSH3 0xA0 PUSH32 0x65D7A28E3265B37A6474929F336521B332C1681B933F6CB9F3376673440D862A CALLER PUSH3 0x103 PUSH1 0x20 SHL PUSH1 0x20 SHR JUMP JUMPDEST PUSH3 0xD2 PUSH32 0x241ECF16D79D0F8DBFB92CBC07FE17840425976CF0667F022FE9877CAA831B08 CALLER PUSH3 0x103 PUSH1 0x20 SHL PUSH1 0x20 SHR JUMP JUMPDEST PUSH3 0xE3 DUP4 PUSH3 0x1F4 PUSH1 0x20 SHL PUSH1 0x20 SHR JUMP JUMPDEST DUP2 PUSH1 0x80 DUP2 DUP2 MSTORE POP POP DUP1 PUSH1 0xA0 DUP2 DUP2 MSTORE POP POP TIMESTAMP PUSH1 0x6 DUP2 SWAP1 SSTORE POP POP POP POP PUSH3 0xAFA JUMP JUMPDEST PUSH3 0x115 DUP3 DUP3 PUSH3 0x26B PUSH1 0x20 SHL PUSH1 0x20 SHR JUMP JUMPDEST PUSH3 0x1F0 JUMPI PUSH1 0x1 DUP1 PUSH1 0x0 DUP5 DUP2 MSTORE PUSH1 0x20 ADD SWAP1 DUP2 MSTORE PUSH1 0x20 ADD PUSH1 0x0 KECCAK256 PUSH1 0x0 ADD PUSH1 0x0 DUP4 PUSH20 0xFFFFFFFFFFFFFFFFFFFFFFFFFFFFFFFFFFFFFFFF AND PUSH20 0xFFFFFFFFFFFFFFFFFFFFFFFFFFFFFFFFFFFFFFFF AND DUP2 MSTORE PUSH1 0x20 ADD SWAP1 DUP2 MSTORE PUSH1 0x20 ADD PUSH1 0x0 KECCAK256 PUSH1 0x0 PUSH2 0x100 EXP DUP2 SLOAD DUP2 PUSH1 0xFF MUL NOT AND SWAP1 DUP4 ISZERO ISZERO MUL OR SWAP1 SSTORE POP PUSH3 0x195 PUSH3 0x2D6 PUSH1 0x20 SHL PUSH1 0x20 SHR JUMP JUMPDEST PUSH20 0xFFFFFFFFFFFFFFFFFFFFFFFFFFFFFFFFFFFFFFFF AND DUP2 PUSH20 0xFFFFFFFFFFFFFFFFFFFFFFFFFFFFFFFFFFFFFFFF AND DUP4 PUSH32 0x2F8788117E7EFF1D82E926EC794901D17C78024A50270940304540A733656F0D PUSH1 0x40 MLOAD PUSH1 0x40 MLOAD DUP1 SWAP2 SUB SWAP1 LOG4 JUMPDEST POP POP JUMP JUMPDEST PUSH32 0x241ECF16D79D0F8DBFB92CBC07FE17840425976CF0667F022FE9877CAA831B08 PUSH3 0x226 DUP2 PUSH3 0x2DE PUSH1 0x20 SHL PUSH1 0x20 SHR JUMP JUMPDEST DUP2 PUSH1 0x5 PUSH1 0x0 PUSH2 0x100 EXP DUP2 SLOAD DUP2 PUSH20 0xFFFFFFFFFFFFFFFFFFFFFFFFFFFFFFFFFFFFFFFF MUL NOT AND SWAP1 DUP4 PUSH20 0xFFFFFFFFFFFFFFFFFFFFFFFFFFFFFFFFFFFFFFFF AND MUL OR SWAP1 SSTORE POP POP POP JUMP JUMPDEST PUSH1 0x0 PUSH1 0x1 PUSH1 0x0 DUP5 DUP2 MSTORE PUSH1 0x20 ADD SWAP1 DUP2 MSTORE PUSH1 0x20 ADD PUSH1 0x0 KECCAK256 PUSH1 0x0 ADD PUSH1 0x0 DUP4 PUSH20 0xFFFFFFFFFFFFFFFFFFFFFFFFFFFFFFFFFFFFFFFF AND PUSH20 0xFFFFFFFFFFFFFFFFFFFFFFFFFFFFFFFFFFFFFFFF AND DUP2 MSTORE PUSH1 0x20 ADD SWAP1 DUP2 MSTORE PUSH1 0x20 ADD PUSH1 0x0 KECCAK256 PUSH1 0x0 SWAP1 SLOAD SWAP1 PUSH2 0x100 EXP SWAP1 DIV PUSH1 0xFF AND SWAP1 POP SWAP3 SWAP2 POP POP JUMP JUMPDEST PUSH1 0x0 CALLER SWAP1 POP SWAP1 JUMP JUMPDEST PUSH3 0x2FF DUP2 PUSH3 0x2F3 PUSH3 0x2D6 PUSH1 0x20 SHL PUSH1 0x20 SHR JUMP JUMPDEST PUSH3 0x302 PUSH1 0x20 SHL PUSH1 0x20 SHR JUMP JUMPDEST POP JUMP JUMPDEST PUSH3 0x314 DUP3 DUP3 PUSH3 0x26B PUSH1 0x20 SHL PUSH1 0x20 SHR JUMP JUMPDEST PUSH3 0x3C2 JUMPI PUSH3 0x347 DUP2 PUSH20 0xFFFFFFFFFFFFFFFFFFFFFFFFFFFFFFFFFFFFFFFF AND PUSH1 0x14 PUSH3 0x3C6 PUSH1 0x20 SHL PUSH3 0x1585 OR PUSH1 0x20 SHR JUMP JUMPDEST PUSH3 0x362 DUP4 PUSH1 0x0 SHR PUSH1 0x20 PUSH3 0x3C6 PUSH1 0x20 SHL PUSH3 0x1585 OR PUSH1 0x20 SHR JUMP JUMPDEST PUSH1 0x40 MLOAD PUSH1 0x20 ADD PUSH3 0x375 SWAP3 SWAP2 SWAP1 PUSH3 0x798 JUMP JUMPDEST PUSH1 0x40 MLOAD PUSH1 0x20 DUP2 DUP4 SUB SUB DUP2 MSTORE SWAP1 PUSH1 0x40 MSTORE PUSH1 0x40 MLOAD PUSH32 0x8C379A000000000000000000000000000000000000000000000000000000000 DUP2 MSTORE PUSH1 0x4 ADD PUSH3 0x3B9 SWAP2 SWAP1 PUSH3 0x7DA JUMP JUMPDEST PUSH1 0x40 MLOAD DUP1 SWAP2 SUB SWAP1 REVERT JUMPDEST POP POP JUMP JUMPDEST PUSH1 0x60 PUSH1 0x0 PUSH1 0x2 DUP4 PUSH1 0x2 PUSH3 0x3DB SWAP2 SWAP1 PUSH3 0x8A4 JUMP JUMPDEST PUSH3 0x3E7 SWAP2 SWAP1 PUSH3 0x847 JUMP JUMPDEST PUSH8 0xFFFFFFFFFFFFFFFF DUP2 GT ISZERO PUSH3 0x403 JUMPI PUSH3 0x402 PUSH3 0xA06 JUMP JUMPDEST JUMPDEST PUSH1 0x40 MLOAD SWAP1 DUP1 DUP3 MSTORE DUP1 PUSH1 0x1F ADD PUSH1 0x1F NOT AND PUSH1 0x20 ADD DUP3 ADD PUSH1 0x40 MSTORE DUP1 ISZERO PUSH3 0x436 JUMPI DUP2 PUSH1 0x20 ADD PUSH1 0x1 DUP3 MUL DUP1 CALLDATASIZE DUP4 CALLDATACOPY DUP1 DUP3 ADD SWAP2 POP POP SWAP1 POP JUMPDEST POP SWAP1 POP PUSH32 0x3000000000000000000000000000000000000000000000000000000000000000 DUP2 PUSH1 0x0 DUP2 MLOAD DUP2 LT PUSH3 0x471 JUMPI PUSH3 0x470 PUSH3 0x9D7 JUMP JUMPDEST JUMPDEST PUSH1 0x20 ADD ADD SWAP1 PUSH31 0xFFFFFFFFFFFFFFFFFFFFFFFFFFFFFFFFFFFFFFFFFFFFFFFFFFFFFFFFFFFFFF NOT AND SWAP1 DUP2 PUSH1 0x0 BYTE SWAP1 MSTORE8 POP PUSH32 0x7800000000000000000000000000000000000000000000000000000000000000 DUP2 PUSH1 0x1 DUP2 MLOAD DUP2 LT PUSH3 0x4D8 JUMPI PUSH3 0x4D7 PUSH3 0x9D7 JUMP JUMPDEST JUMPDEST PUSH1 0x20 ADD ADD SWAP1 PUSH31 0xFFFFFFFFFFFFFFFFFFFFFFFFFFFFFFFFFFFFFFFFFFFFFFFFFFFFFFFFFFFFFF NOT AND SWAP1 DUP2 PUSH1 0x0 BYTE SWAP1 MSTORE8 POP PUSH1 0x0 PUSH1 0x1 DUP5 PUSH1 0x2 PUSH3 0x51A SWAP2 SWAP1 PUSH3 0x8A4 JUMP JUMPDEST PUSH3 0x526 SWAP2 SWAP1 PUSH3 0x847 JUMP JUMPDEST SWAP1 POP JUMPDEST PUSH1 0x1 DUP2 GT ISZERO PUSH3 0x5D0 JUMPI PUSH32 0x3031323334353637383961626364656600000000000000000000000000000000 PUSH1 0xF DUP7 AND PUSH1 0x10 DUP2 LT PUSH3 0x56C JUMPI PUSH3 0x56B PUSH3 0x9D7 JUMP JUMPDEST JUMPDEST BYTE PUSH1 0xF8 SHL DUP3 DUP3 DUP2 MLOAD DUP2 LT PUSH3 0x586 JUMPI PUSH3 0x585 PUSH3 0x9D7 JUMP JUMPDEST JUMPDEST PUSH1 0x20 ADD ADD SWAP1 PUSH31 0xFFFFFFFFFFFFFFFFFFFFFFFFFFFFFFFFFFFFFFFFFFFFFFFFFFFFFFFFFFFFFF NOT AND SWAP1 DUP2 PUSH1 0x0 BYTE SWAP1 MSTORE8 POP PUSH1 0x4 DUP6 SWAP1 SHR SWAP5 POP DUP1 PUSH3 0x5C8 SWAP1 PUSH3 0x979 JUMP JUMPDEST SWAP1 POP PUSH3 0x529 JUMP JUMPDEST POP PUSH1 0x0 DUP5 EQ PUSH3 0x617 JUMPI PUSH1 0x40 MLOAD PUSH32 0x8C379A000000000000000000000000000000000000000000000000000000000 DUP2 MSTORE PUSH1 0x4 ADD PUSH3 0x60E SWAP1 PUSH3 0x7FE JUMP JUMPDEST PUSH1 0x40 MLOAD DUP1 SWAP2 SUB SWAP1 REVERT JUMPDEST DUP1 SWAP2 POP POP SWAP3 SWAP2 POP POP JUMP JUMPDEST PUSH1 0x0 DUP2 MLOAD SWAP1 POP PUSH3 0x632 DUP2 PUSH3 0xAC6 JUMP JUMPDEST SWAP3 SWAP2 POP POP JUMP JUMPDEST PUSH1 0x0 DUP2 MLOAD SWAP1 POP PUSH3 0x649 DUP2 PUSH3 0xAE0 JUMP JUMPDEST SWAP3 SWAP2 POP POP JUMP JUMPDEST PUSH1 0x0 DUP1 PUSH1 0x0 PUSH1 0x60 DUP5 DUP7 SUB SLT ISZERO PUSH3 0x66B JUMPI PUSH3 0x66A PUSH3 0xA35 JUMP JUMPDEST JUMPDEST PUSH1 0x0 PUSH3 0x67B DUP7 DUP3 DUP8 ADD PUSH3 0x621 JUMP JUMPDEST SWAP4 POP POP PUSH1 0x20 PUSH3 0x68E DUP7 DUP3 DUP8 ADD PUSH3 0x638 JUMP JUMPDEST SWAP3 POP POP PUSH1 0x40 PUSH3 0x6A1 DUP7 DUP3 DUP8 ADD PUSH3 0x638 JUMP JUMPDEST SWAP2 POP POP SWAP3 POP SWAP3 POP SWAP3 JUMP JUMPDEST PUSH1 0x0 PUSH3 0x6B8 DUP3 PUSH3 0x820 JUMP JUMPDEST PUSH3 0x6C4 DUP2 DUP6 PUSH3 0x82B JUMP JUMPDEST SWAP4 POP PUSH3 0x6D6 DUP2 DUP6 PUSH1 0x20 DUP7 ADD PUSH3 0x943 JUMP JUMPDEST PUSH3 0x6E1 DUP2 PUSH3 0xA3A JUMP JUMPDEST DUP5 ADD SWAP2 POP POP SWAP3 SWAP2 POP POP JUMP JUMPDEST PUSH1 0x0 PUSH3 0x6F9 DUP3 PUSH3 0x820 JUMP JUMPDEST PUSH3 0x705 DUP2 DUP6 PUSH3 0x83C JUMP JUMPDEST SWAP4 POP PUSH3 0x717 DUP2 DUP6 PUSH1 0x20 DUP7 ADD PUSH3 0x943 JUMP JUMPDEST DUP1 DUP5 ADD SWAP2 POP POP SWAP3 SWAP2 POP POP JUMP JUMPDEST PUSH1 0x0 PUSH3 0x732 PUSH1 0x20 DUP4 PUSH3 0x82B JUMP JUMPDEST SWAP2 POP PUSH3 0x73F DUP3 PUSH3 0xA4B JUMP JUMPDEST PUSH1 0x20 DUP3 ADD SWAP1 POP SWAP2 SWAP1 POP JUMP JUMPDEST PUSH1 0x0 PUSH3 0x759 PUSH1 0x17 DUP4 PUSH3 0x83C JUMP JUMPDEST SWAP2 POP PUSH3 0x766 DUP3 PUSH3 0xA74 JUMP JUMPDEST PUSH1 0x17 DUP3 ADD SWAP1 POP SWAP2 SWAP1 POP JUMP JUMPDEST PUSH1 0x0 PUSH3 0x780 PUSH1 0x11 DUP4 PUSH3 0x83C JUMP JUMPDEST SWAP2 POP PUSH3 0x78D DUP3 PUSH3 0xA9D JUMP JUMPDEST PUSH1 0x11 DUP3 ADD SWAP1 POP SWAP2 SWAP1 POP JUMP JUMPDEST PUSH1 0x0 PUSH3 0x7A5 DUP3 PUSH3 0x74A JUMP JUMPDEST SWAP2 POP PUSH3 0x7B3 DUP3 DUP6 PUSH3 0x6EC JUMP JUMPDEST SWAP2 POP PUSH3 0x7C0 DUP3 PUSH3 0x771 JUMP JUMPDEST SWAP2 POP PUSH3 0x7CE DUP3 DUP5 PUSH3 0x6EC JUMP JUMPDEST SWAP2 POP DUP2 SWAP1 POP SWAP4 SWAP3 POP POP POP JUMP JUMPDEST PUSH1 0x0 PUSH1 0x20 DUP3 ADD SWAP1 POP DUP2 DUP2 SUB PUSH1 0x0 DUP4 ADD MSTORE PUSH3 0x7F6 DUP2 DUP5 PUSH3 0x6AB JUMP JUMPDEST SWAP1 POP SWAP3 SWAP2 POP POP JUMP JUMPDEST PUSH1 0x0 PUSH1 0x20 DUP3 ADD SWAP1 POP DUP2 DUP2 SUB PUSH1 0x0 DUP4 ADD MSTORE PUSH3 0x819 DUP2 PUSH3 0x723 JUMP JUMPDEST SWAP1 POP SWAP2 SWAP1 POP JUMP JUMPDEST PUSH1 0x0 DUP2 MLOAD SWAP1 POP SWAP2 SWAP1 POP JUMP JUMPDEST PUSH1 0x0 DUP3 DUP3 MSTORE PUSH1 0x20 DUP3 ADD SWAP1 POP SWAP3 SWAP2 POP POP JUMP JUMPDEST PUSH1 0x0 DUP2 SWAP1 POP SWAP3 SWAP2 POP POP JUMP JUMPDEST PUSH1 0x0 PUSH3 0x854 DUP3 PUSH3 0x939 JUMP JUMPDEST SWAP2 POP PUSH3 0x861 DUP4 PUSH3 0x939 JUMP JUMPDEST SWAP3 POP DUP3 PUSH32 0xFFFFFFFFFFFFFFFFFFFFFFFFFFFFFFFFFFFFFFFFFFFFFFFFFFFFFFFFFFFFFFFF SUB DUP3 GT ISZERO PUSH3 0x899 JUMPI PUSH3 0x898 PUSH3 0x9A8 JUMP JUMPDEST JUMPDEST DUP3 DUP3 ADD SWAP1 POP SWAP3 SWAP2 POP POP JUMP JUMPDEST PUSH1 0x0 PUSH3 0x8B1 DUP3 PUSH3 0x939 JUMP JUMPDEST SWAP2 POP PUSH3 0x8BE DUP4 PUSH3 0x939 JUMP JUMPDEST SWAP3 POP DUP2 PUSH32 0xFFFFFFFFFFFFFFFFFFFFFFFFFFFFFFFFFFFFFFFFFFFFFFFFFFFFFFFFFFFFFFFF DIV DUP4 GT DUP3 ISZERO ISZERO AND ISZERO PUSH3 0x8FA JUMPI PUSH3 0x8F9 PUSH3 0x9A8 JUMP JUMPDEST JUMPDEST DUP3 DUP3 MUL SWAP1 POP SWAP3 SWAP2 POP POP JUMP JUMPDEST PUSH1 0x0 PUSH3 0x912 DUP3 PUSH3 0x919 JUMP JUMPDEST SWAP1 POP SWAP2 SWAP1 POP JUMP JUMPDEST PUSH1 0x0 PUSH20 0xFFFFFFFFFFFFFFFFFFFFFFFFFFFFFFFFFFFFFFFF DUP3 AND SWAP1 POP SWAP2 SWAP1 POP JUMP JUMPDEST PUSH1 0x0 DUP2 SWAP1 POP SWAP2 SWAP1 POP JUMP JUMPDEST PUSH1 0x0 JUMPDEST DUP4 DUP2 LT ISZERO PUSH3 0x963 JUMPI DUP1 DUP3 ADD MLOAD DUP2 DUP5 ADD MSTORE PUSH1 0x20 DUP2 ADD SWAP1 POP PUSH3 0x946 JUMP JUMPDEST DUP4 DUP2 GT ISZERO PUSH3 0x973 JUMPI PUSH1 0x0 DUP5 DUP5 ADD MSTORE JUMPDEST POP POP POP POP JUMP JUMPDEST PUSH1 0x0 PUSH3 0x986 DUP3 PUSH3 0x939 JUMP JUMPDEST SWAP2 POP PUSH1 0x0 DUP3 EQ ISZERO PUSH3 0x99D JUMPI PUSH3 0x99C PUSH3 0x9A8 JUMP JUMPDEST JUMPDEST PUSH1 0x1 DUP3 SUB SWAP1 POP SWAP2 SWAP1 POP JUMP JUMPDEST PUSH32 0x4E487B7100000000000000000000000000000000000000000000000000000000 PUSH1 0x0 MSTORE PUSH1 0x11 PUSH1 0x4 MSTORE PUSH1 0x24 PUSH1 0x0 REVERT JUMPDEST PUSH32 0x4E487B7100000000000000000000000000000000000000000000000000000000 PUSH1 0x0 MSTORE PUSH1 0x32 PUSH1 0x4 MSTORE PUSH1 0x24 PUSH1 0x0 REVERT JUMPDEST PUSH32 0x4E487B7100000000000000000000000000000000000000000000000000000000 PUSH1 0x0 MSTORE PUSH1 0x41 PUSH1 0x4 MSTORE PUSH1 0x24 PUSH1 0x0 REVERT JUMPDEST PUSH1 0x0 DUP1 REVERT JUMPDEST PUSH1 0x0 PUSH1 0x1F NOT PUSH1 0x1F DUP4 ADD AND SWAP1 POP SWAP2 SWAP1 POP JUMP JUMPDEST PUSH32 0x537472696E67733A20686578206C656E67746820696E73756666696369656E74 PUSH1 0x0 DUP3 ADD MSTORE POP JUMP JUMPDEST PUSH32 0x416363657373436F6E74726F6C3A206163636F756E7420000000000000000000 PUSH1 0x0 DUP3 ADD MSTORE POP JUMP JUMPDEST PUSH32 0x206973206D697373696E6720726F6C6520000000000000000000000000000000 PUSH1 0x0 DUP3 ADD MSTORE POP JUMP JUMPDEST PUSH3 0xAD1 DUP2 PUSH3 0x905 JUMP JUMPDEST DUP2 EQ PUSH3 0xADD JUMPI PUSH1 0x0 DUP1 REVERT JUMPDEST POP JUMP JUMPDEST PUSH3 0xAEB DUP2 PUSH3 0x939 JUMP JUMPDEST DUP2 EQ PUSH3 0xAF7 JUMPI PUSH1 0x0 DUP1 REVERT JUMPDEST POP JUMP JUMPDEST PUSH1 0x80 MLOAD PUSH1 0xA0 MLOAD PUSH2 0x2AD8 PUSH3 0xB3C PUSH1 0x0 CODECOPY PUSH1 0x0 DUP2 DUP2 PUSH2 0x642 ADD MSTORE PUSH2 0x1B9A ADD MSTORE PUSH1 0x0 DUP2 DUP2 PUSH2 0xAC8 ADD MSTORE DUP2 DUP2 PUSH2 0xD61 ADD MSTORE DUP2 DUP2 PUSH2 0x1B68 ADD MSTORE PUSH2 0x1BBB ADD MSTORE PUSH2 0x2AD8 PUSH1 0x0 RETURN INVALID PUSH1 0x80 PUSH1 0x40 MSTORE PUSH1 0x4 CALLDATASIZE LT PUSH2 0x14F JUMPI PUSH1 0x0 CALLDATALOAD PUSH1 0xE0 SHR DUP1 PUSH4 0xA010FD70 GT PUSH2 0xB6 JUMPI DUP1 PUSH4 0xE48655F9 GT PUSH2 0x6F JUMPI DUP1 PUSH4 0xE48655F9 EQ PUSH2 0x4C7 JUMPI DUP1 PUSH4 0xE499E2E5 EQ PUSH2 0x4F2 JUMPI DUP1 PUSH4 0xE63AB1E9 EQ PUSH2 0x51B JUMPI DUP1 PUSH4 0xEC87621C EQ PUSH2 0x546 JUMPI DUP1 PUSH4 0xF7FECC27 EQ PUSH2 0x571 JUMPI DUP1 PUSH4 0xFABF0B0B EQ PUSH2 0x59D JUMPI PUSH2 0x1A4 JUMP JUMPDEST DUP1 PUSH4 0xA010FD70 EQ PUSH2 0x3A3 JUMPI DUP1 PUSH4 0xA128F355 EQ PUSH2 0x3E0 JUMPI DUP1 PUSH4 0xA217FDDF EQ PUSH2 0x40B JUMPI DUP1 PUSH4 0xD547741F EQ PUSH2 0x436 JUMPI DUP1 PUSH4 0xE26FF10A EQ PUSH2 0x45F JUMPI DUP1 PUSH4 0xE2ADB098 EQ PUSH2 0x49E JUMPI PUSH2 0x1A4 JUMP JUMPDEST DUP1 PUSH4 0x3BE68630 GT PUSH2 0x108 JUMPI DUP1 PUSH4 0x3BE68630 EQ PUSH2 0x2B7 JUMPI DUP1 PUSH4 0x3C915AF7 EQ PUSH2 0x2E2 JUMPI DUP1 PUSH4 0x3F4BA83A EQ PUSH2 0x30D JUMPI DUP1 PUSH4 0x5C975ABB EQ PUSH2 0x324 JUMPI DUP1 PUSH4 0x8456CB59 EQ PUSH2 0x34F JUMPI DUP1 PUSH4 0x91D14854 EQ PUSH2 0x366 JUMPI PUSH2 0x1A4 JUMP JUMPDEST DUP1 PUSH4 0x1FFC9A7 EQ PUSH2 0x1A9 JUMPI DUP1 PUSH4 0x21180645 EQ PUSH2 0x1E6 JUMPI DUP1 PUSH4 0x248A9CA3 EQ PUSH2 0x211 JUMPI DUP1 PUSH4 0x2F2FF15D EQ PUSH2 0x24E JUMPI DUP1 PUSH4 0x36568ABE EQ PUSH2 0x277 JUMPI DUP1 PUSH4 0x3A6A4D2E EQ PUSH2 0x2A0 JUMPI PUSH2 0x1A4 JUMP JUMPDEST CALLDATASIZE PUSH2 0x1A4 JUMPI CALLER PUSH20 0xFFFFFFFFFFFFFFFFFFFFFFFFFFFFFFFFFFFFFFFF AND PUSH32 0x8E47B87B0EF542CDFA1659C551D88BAD38AA7F452D2BBB349AB7530DFEC8BE8F CALLVALUE PUSH1 0x40 MLOAD PUSH2 0x19A SWAP2 SWAP1 PUSH2 0x24E9 JUMP JUMPDEST PUSH1 0x40 MLOAD DUP1 SWAP2 SUB SWAP1 LOG2 STOP JUMPDEST PUSH1 0x0 DUP1 REVERT JUMPDEST CALLVALUE DUP1 ISZERO PUSH2 0x1B5 JUMPI PUSH1 0x0 DUP1 REVERT JUMPDEST POP PUSH2 0x1D0 PUSH1 0x4 DUP1 CALLDATASIZE SUB DUP2 ADD SWAP1 PUSH2 0x1CB SWAP2 SWAP1 PUSH2 0x1F87 JUMP JUMPDEST PUSH2 0x5C6 JUMP JUMPDEST PUSH1 0x40 MLOAD PUSH2 0x1DD SWAP2 SWAP1 PUSH2 0x23F1 JUMP JUMPDEST PUSH1 0x40 MLOAD DUP1 SWAP2 SUB SWAP1 RETURN JUMPDEST CALLVALUE DUP1 ISZERO PUSH2 0x1F2 JUMPI PUSH1 0x0 DUP1 REVERT JUMPDEST POP PUSH2 0x1FB PUSH2 0x640 JUMP JUMPDEST PUSH1 0x40 MLOAD PUSH2 0x208 SWAP2 SWAP1 PUSH2 0x24E9 JUMP JUMPDEST PUSH1 0x40 MLOAD DUP1 SWAP2 SUB SWAP1 RETURN JUMPDEST CALLVALUE DUP1 ISZERO PUSH2 0x21D JUMPI PUSH1 0x0 DUP1 REVERT JUMPDEST POP PUSH2 0x238 PUSH1 0x4 DUP1 CALLDATASIZE SUB DUP2 ADD SWAP1 PUSH2 0x233 SWAP2 SWAP1 PUSH2 0x1F1A JUMP JUMPDEST PUSH2 0x664 JUMP JUMPDEST PUSH1 0x40 MLOAD PUSH2 0x245 SWAP2 SWAP1 PUSH2 0x240C JUMP JUMPDEST PUSH1 0x40 MLOAD DUP1 SWAP2 SUB SWAP1 RETURN JUMPDEST CALLVALUE DUP1 ISZERO PUSH2 0x25A JUMPI PUSH1 0x0 DUP1 REVERT JUMPDEST POP PUSH2 0x275 PUSH1 0x4 DUP1 CALLDATASIZE SUB DUP2 ADD SWAP1 PUSH2 0x270 SWAP2 SWAP1 PUSH2 0x1F47 JUMP JUMPDEST PUSH2 0x684 JUMP JUMPDEST STOP JUMPDEST CALLVALUE DUP1 ISZERO PUSH2 0x283 JUMPI PUSH1 0x0 DUP1 REVERT JUMPDEST POP PUSH2 0x29E PUSH1 0x4 DUP1 CALLDATASIZE SUB DUP2 ADD SWAP1 PUSH2 0x299 SWAP2 SWAP1 PUSH2 0x1F47 JUMP JUMPDEST PUSH2 0x6A5 JUMP JUMPDEST STOP JUMPDEST CALLVALUE DUP1 ISZERO PUSH2 0x2AC JUMPI PUSH1 0x0 DUP1 REVERT JUMPDEST POP PUSH2 0x2B5 PUSH2 0x728 JUMP JUMPDEST STOP JUMPDEST CALLVALUE DUP1 ISZERO PUSH2 0x2C3 JUMPI PUSH1 0x0 DUP1 REVERT JUMPDEST POP PUSH2 0x2CC PUSH2 0xB0E JUMP JUMPDEST PUSH1 0x40 MLOAD PUSH2 0x2D9 SWAP2 SWAP1 PUSH2 0x2331 JUMP JUMPDEST PUSH1 0x40 MLOAD DUP1 SWAP2 SUB SWAP1 RETURN JUMPDEST CALLVALUE DUP1 ISZERO PUSH2 0x2EE JUMPI PUSH1 0x0 DUP1 REVERT JUMPDEST POP PUSH2 0x2F7 PUSH2 0xB34 JUMP JUMPDEST PUSH1 0x40 MLOAD PUSH2 0x304 SWAP2 SWAP1 PUSH2 0x24E9 JUMP JUMPDEST PUSH1 0x40 MLOAD DUP1 SWAP2 SUB SWAP1 RETURN JUMPDEST CALLVALUE DUP1 ISZERO PUSH2 0x319 JUMPI PUSH1 0x0 DUP1 REVERT JUMPDEST POP PUSH2 0x322 PUSH2 0xB3A JUMP JUMPDEST STOP JUMPDEST CALLVALUE DUP1 ISZERO PUSH2 0x330 JUMPI PUSH1 0x0 DUP1 REVERT JUMPDEST POP PUSH2 0x339 PUSH2 0xB6F JUMP JUMPDEST PUSH1 0x40 MLOAD PUSH2 0x346 SWAP2 SWAP1 PUSH2 0x23F1 JUMP JUMPDEST PUSH1 0x40 MLOAD DUP1 SWAP2 SUB SWAP1 RETURN JUMPDEST CALLVALUE DUP1 ISZERO PUSH2 0x35B JUMPI PUSH1 0x0 DUP1 REVERT JUMPDEST POP PUSH2 0x364 PUSH2 0xB85 JUMP JUMPDEST STOP JUMPDEST CALLVALUE DUP1 ISZERO PUSH2 0x372 JUMPI PUSH1 0x0 DUP1 REVERT JUMPDEST POP PUSH2 0x38D PUSH1 0x4 DUP1 CALLDATASIZE SUB DUP2 ADD SWAP1 PUSH2 0x388 SWAP2 SWAP1 PUSH2 0x1F47 JUMP JUMPDEST PUSH2 0xBBA JUMP JUMPDEST PUSH1 0x40 MLOAD PUSH2 0x39A SWAP2 SWAP1 PUSH2 0x23F1 JUMP JUMPDEST PUSH1 0x40 MLOAD DUP1 SWAP2 SUB SWAP1 RETURN JUMPDEST CALLVALUE DUP1 ISZERO PUSH2 0x3AF JUMPI PUSH1 0x0 DUP1 REVERT JUMPDEST POP PUSH2 0x3CA PUSH1 0x4 DUP1 CALLDATASIZE SUB DUP2 ADD SWAP1 PUSH2 0x3C5 SWAP2 SWAP1 PUSH2 0x1FB4 JUMP JUMPDEST PUSH2 0xC25 JUMP JUMPDEST PUSH1 0x40 MLOAD PUSH2 0x3D7 SWAP2 SWAP1 PUSH2 0x2316 JUMP JUMPDEST PUSH1 0x40 MLOAD DUP1 SWAP2 SUB SWAP1 RETURN JUMPDEST CALLVALUE DUP1 ISZERO PUSH2 0x3EC JUMPI PUSH1 0x0 DUP1 REVERT JUMPDEST POP PUSH2 0x3F5 PUSH2 0xC64 JUMP JUMPDEST PUSH1 0x40 MLOAD PUSH2 0x402 SWAP2 SWAP1 PUSH2 0x23F1 JUMP JUMPDEST PUSH1 0x40 MLOAD DUP1 SWAP2 SUB SWAP1 RETURN JUMPDEST CALLVALUE DUP1 ISZERO PUSH2 0x417 JUMPI PUSH1 0x0 DUP1 REVERT JUMPDEST POP PUSH2 0x420 PUSH2 0xC9E JUMP JUMPDEST PUSH1 0x40 MLOAD PUSH2 0x42D SWAP2 SWAP1 PUSH2 0x240C JUMP JUMPDEST PUSH1 0x40 MLOAD DUP1 SWAP2 SUB SWAP1 RETURN JUMPDEST CALLVALUE DUP1 ISZERO PUSH2 0x442 JUMPI PUSH1 0x0 DUP1 REVERT JUMPDEST POP PUSH2 0x45D PUSH1 0x4 DUP1 CALLDATASIZE SUB DUP2 ADD SWAP1 PUSH2 0x458 SWAP2 SWAP1 PUSH2 0x1F47 JUMP JUMPDEST PUSH2 0xCA5 JUMP JUMPDEST STOP JUMPDEST CALLVALUE DUP1 ISZERO PUSH2 0x46B JUMPI PUSH1 0x0 DUP1 REVERT JUMPDEST POP PUSH2 0x486 PUSH1 0x4 DUP1 CALLDATASIZE SUB DUP2 ADD SWAP1 PUSH2 0x481 SWAP2 SWAP1 PUSH2 0x1EAD JUMP JUMPDEST PUSH2 0xCC6 JUMP JUMPDEST PUSH1 0x40 MLOAD PUSH2 0x495 SWAP4 SWAP3 SWAP2 SWAP1 PUSH2 0x2504 JUMP JUMPDEST PUSH1 0x40 MLOAD DUP1 SWAP2 SUB SWAP1 RETURN JUMPDEST CALLVALUE DUP1 ISZERO PUSH2 0x4AA JUMPI PUSH1 0x0 DUP1 REVERT JUMPDEST POP PUSH2 0x4C5 PUSH1 0x4 DUP1 CALLDATASIZE SUB DUP2 ADD SWAP1 PUSH2 0x4C0 SWAP2 SWAP1 PUSH2 0x1EAD JUMP JUMPDEST PUSH2 0xCF0 JUMP JUMPDEST STOP JUMPDEST CALLVALUE DUP1 ISZERO PUSH2 0x4D3 JUMPI PUSH1 0x0 DUP1 REVERT JUMPDEST POP PUSH2 0x4DC PUSH2 0xD5F JUMP JUMPDEST PUSH1 0x40 MLOAD PUSH2 0x4E9 SWAP2 SWAP1 PUSH2 0x24E9 JUMP JUMPDEST PUSH1 0x40 MLOAD DUP1 SWAP2 SUB SWAP1 RETURN JUMPDEST CALLVALUE DUP1 ISZERO PUSH2 0x4FE JUMPI PUSH1 0x0 DUP1 REVERT JUMPDEST POP PUSH2 0x519 PUSH1 0x4 DUP1 CALLDATASIZE SUB DUP2 ADD SWAP1 PUSH2 0x514 SWAP2 SWAP1 PUSH2 0x1EDA JUMP JUMPDEST PUSH2 0xD83 JUMP JUMPDEST STOP JUMPDEST CALLVALUE DUP1 ISZERO PUSH2 0x527 JUMPI PUSH1 0x0 DUP1 REVERT JUMPDEST POP PUSH2 0x530 PUSH2 0x1045 JUMP JUMPDEST PUSH1 0x40 MLOAD PUSH2 0x53D SWAP2 SWAP1 PUSH2 0x240C JUMP JUMPDEST PUSH1 0x40 MLOAD DUP1 SWAP2 SUB SWAP1 RETURN JUMPDEST CALLVALUE DUP1 ISZERO PUSH2 0x552 JUMPI PUSH1 0x0 DUP1 REVERT JUMPDEST POP PUSH2 0x55B PUSH2 0x1069 JUMP JUMPDEST PUSH1 0x40 MLOAD PUSH2 0x568 SWAP2 SWAP1 PUSH2 0x240C JUMP JUMPDEST PUSH1 0x40 MLOAD DUP1 SWAP2 SUB SWAP1 RETURN JUMPDEST CALLVALUE DUP1 ISZERO PUSH2 0x57D JUMPI PUSH1 0x0 DUP1 REVERT JUMPDEST POP PUSH2 0x586 PUSH2 0x108D JUMP JUMPDEST PUSH1 0x40 MLOAD PUSH2 0x594 SWAP3 SWAP2 SWAP1 PUSH2 0x23BA JUMP JUMPDEST PUSH1 0x40 MLOAD DUP1 SWAP2 SUB SWAP1 RETURN JUMPDEST CALLVALUE DUP1 ISZERO PUSH2 0x5A9 JUMPI PUSH1 0x0 DUP1 REVERT JUMPDEST POP PUSH2 0x5C4 PUSH1 0x4 DUP1 CALLDATASIZE SUB DUP2 ADD SWAP1 PUSH2 0x5BF SWAP2 SWAP1 PUSH2 0x1EDA JUMP JUMPDEST PUSH2 0x1255 JUMP JUMPDEST STOP JUMPDEST PUSH1 0x0 PUSH32 0x7965DB0B00000000000000000000000000000000000000000000000000000000 PUSH28 0xFFFFFFFFFFFFFFFFFFFFFFFFFFFFFFFFFFFFFFFFFFFFFFFFFFFFFFFF NOT AND DUP3 PUSH28 0xFFFFFFFFFFFFFFFFFFFFFFFFFFFFFFFFFFFFFFFFFFFFFFFFFFFFFFFF NOT AND EQ DUP1 PUSH2 0x639 JUMPI POP PUSH2 0x638 DUP3 PUSH2 0x17C1 JUMP JUMPDEST JUMPDEST SWAP1 POP SWAP2 SWAP1 POP JUMP JUMPDEST PUSH32 0x0 DUP2 JUMP JUMPDEST PUSH1 0x0 PUSH1 0x1 PUSH1 0x0 DUP4 DUP2 MSTORE PUSH1 0x20 ADD SWAP1 DUP2 MSTORE PUSH1 0x20 ADD PUSH1 0x0 KECCAK256 PUSH1 0x1 ADD SLOAD SWAP1 POP SWAP2 SWAP1 POP JUMP JUMPDEST PUSH2 0x68D DUP3 PUSH2 0x664 JUMP JUMPDEST PUSH2 0x696 DUP2 PUSH2 0x182B JUMP JUMPDEST PUSH2 0x6A0 DUP4 DUP4 PUSH2 0x183F JUMP JUMPDEST POP POP POP JUMP JUMPDEST PUSH2 0x6AD PUSH2 0x191F JUMP JUMPDEST PUSH20 0xFFFFFFFFFFFFFFFFFFFFFFFFFFFFFFFFFFFFFFFF AND DUP2 PUSH20 0xFFFFFFFFFFFFFFFFFFFFFFFFFFFFFFFFFFFFFFFF AND EQ PUSH2 0x71A JUMPI PUSH1 0x40 MLOAD PUSH32 0x8C379A000000000000000000000000000000000000000000000000000000000 DUP2 MSTORE PUSH1 0x4 ADD PUSH2 0x711 SWAP1 PUSH2 0x24C9 JUMP JUMPDEST PUSH1 0x40 MLOAD DUP1 SWAP2 SUB SWAP1 REVERT JUMPDEST PUSH2 0x724 DUP3 DUP3 PUSH2 0x1927 JUMP JUMPDEST POP POP JUMP JUMPDEST PUSH2 0x730 PUSH2 0x1A09 JUMP JUMPDEST PUSH1 0x2 DUP1 SLOAD EQ ISZERO PUSH2 0x775 JUMPI PUSH1 0x40 MLOAD PUSH32 0x8C379A000000000000000000000000000000000000000000000000000000000 DUP2 MSTORE PUSH1 0x4 ADD PUSH2 0x76C SWAP1 PUSH2 0x24A9 JUMP JUMPDEST PUSH1 0x40 MLOAD DUP1 SWAP2 SUB SWAP1 REVERT JUMPDEST PUSH1 0x2 DUP1 DUP2 SWAP1 SSTORE POP PUSH2 0x784 PUSH2 0xC64 JUMP JUMPDEST ISZERO PUSH2 0x7BB JUMPI PUSH1 0x40 MLOAD PUSH32 0x5C4F151A00000000000000000000000000000000000000000000000000000000 DUP2 MSTORE PUSH1 0x4 ADD PUSH1 0x40 MLOAD DUP1 SWAP2 SUB SWAP1 REVERT JUMPDEST PUSH1 0x0 SELFBALANCE SWAP1 POP PUSH1 0x0 DUP1 PUSH1 0x3 DUP1 SLOAD DUP1 PUSH1 0x20 MUL PUSH1 0x20 ADD PUSH1 0x40 MLOAD SWAP1 DUP2 ADD PUSH1 0x40 MSTORE DUP1 SWAP3 SWAP2 SWAP1 DUP2 DUP2 MSTORE PUSH1 0x20 ADD DUP3 DUP1 SLOAD DUP1 ISZERO PUSH2 0x845 JUMPI PUSH1 0x20 MUL DUP3 ADD SWAP2 SWAP1 PUSH1 0x0 MSTORE PUSH1 0x20 PUSH1 0x0 KECCAK256 SWAP1 JUMPDEST DUP2 PUSH1 0x0 SWAP1 SLOAD SWAP1 PUSH2 0x100 EXP SWAP1 DIV PUSH20 0xFFFFFFFFFFFFFFFFFFFFFFFFFFFFFFFFFFFFFFFF AND PUSH20 0xFFFFFFFFFFFFFFFFFFFFFFFFFFFFFFFFFFFFFFFF AND DUP2 MSTORE PUSH1 0x20 ADD SWAP1 PUSH1 0x1 ADD SWAP1 DUP1 DUP4 GT PUSH2 0x7FB JUMPI JUMPDEST POP POP POP POP POP SWAP1 POP PUSH1 0x0 JUMPDEST DUP2 MLOAD DUP2 LT ISZERO PUSH2 0xA28 JUMPI PUSH1 0x0 PUSH1 0x4 PUSH1 0x0 DUP5 DUP5 DUP2 MLOAD DUP2 LT PUSH2 0x871 JUMPI PUSH2 0x870 PUSH2 0x288A JUMP JUMPDEST JUMPDEST PUSH1 0x20 MUL PUSH1 0x20 ADD ADD MLOAD PUSH20 0xFFFFFFFFFFFFFFFFFFFFFFFFFFFFFFFFFFFFFFFF AND PUSH20 0xFFFFFFFFFFFFFFFFFFFFFFFFFFFFFFFFFFFFFFFF AND DUP2 MSTORE PUSH1 0x20 ADD SWAP1 DUP2 MSTORE PUSH1 0x20 ADD PUSH1 0x0 KECCAK256 PUSH1 0x0 ADD SLOAD SWAP1 POP PUSH1 0x0 PUSH2 0x8E1 PUSH1 0x64 PUSH2 0x8D3 DUP5 DUP10 PUSH2 0x1A53 SWAP1 SWAP2 SWAP1 PUSH4 0xFFFFFFFF AND JUMP JUMPDEST PUSH2 0x1A69 SWAP1 SWAP2 SWAP1 PUSH4 0xFFFFFFFF AND JUMP JUMPDEST SWAP1 POP TIMESTAMP PUSH1 0x4 PUSH1 0x0 DUP7 DUP7 DUP2 MLOAD DUP2 LT PUSH2 0x8FB JUMPI PUSH2 0x8FA PUSH2 0x288A JUMP JUMPDEST JUMPDEST PUSH1 0x20 MUL PUSH1 0x20 ADD ADD MLOAD PUSH20 0xFFFFFFFFFFFFFFFFFFFFFFFFFFFFFFFFFFFFFFFF AND PUSH20 0xFFFFFFFFFFFFFFFFFFFFFFFFFFFFFFFFFFFFFFFF AND DUP2 MSTORE PUSH1 0x20 ADD SWAP1 DUP2 MSTORE PUSH1 0x20 ADD PUSH1 0x0 KECCAK256 PUSH1 0x1 ADD DUP2 SWAP1 SSTORE POP DUP1 DUP6 PUSH2 0x950 SWAP2 SWAP1 PUSH2 0x25DF JUMP JUMPDEST SWAP5 POP PUSH2 0x99A PUSH1 0x3 DUP5 DUP2 SLOAD DUP2 LT PUSH2 0x969 JUMPI PUSH2 0x968 PUSH2 0x288A JUMP JUMPDEST JUMPDEST SWAP1 PUSH1 0x0 MSTORE PUSH1 0x20 PUSH1 0x0 KECCAK256 ADD PUSH1 0x0 SWAP1 SLOAD SWAP1 PUSH2 0x100 EXP SWAP1 DIV PUSH20 0xFFFFFFFFFFFFFFFFFFFFFFFFFFFFFFFFFFFFFFFF AND DUP3 PUSH2 0x1A7F JUMP JUMPDEST PUSH32 0x80BABE757D4E5C7DB3B7BD10606A7BF07A9857F660977ADA6CA7A4D329376C8 PUSH1 0x3 DUP5 DUP2 SLOAD DUP2 LT PUSH2 0x9CF JUMPI PUSH2 0x9CE PUSH2 0x288A JUMP JUMPDEST JUMPDEST SWAP1 PUSH1 0x0 MSTORE PUSH1 0x20 PUSH1 0x0 KECCAK256 ADD PUSH1 0x0 SWAP1 SLOAD SWAP1 PUSH2 0x100 EXP SWAP1 DIV PUSH20 0xFFFFFFFFFFFFFFFFFFFFFFFFFFFFFFFFFFFFFFFF AND DUP3 TIMESTAMP PUSH1 0x40 MLOAD PUSH2 0xA0B SWAP4 SWAP3 SWAP2 SWAP1 PUSH2 0x2383 JUMP JUMPDEST PUSH1 0x40 MLOAD DUP1 SWAP2 SUB SWAP1 LOG1 POP POP DUP1 DUP1 PUSH2 0xA20 SWAP1 PUSH2 0x27E3 JUMP JUMPDEST SWAP2 POP POP PUSH2 0x84F JUMP JUMPDEST POP PUSH2 0xA55 PUSH1 0x5 PUSH1 0x0 SWAP1 SLOAD SWAP1 PUSH2 0x100 EXP SWAP1 DIV PUSH20 0xFFFFFFFFFFFFFFFFFFFFFFFFFFFFFFFFFFFFFFFF AND SELFBALANCE PUSH2 0x1A7F JUMP JUMPDEST PUSH32 0x80BABE757D4E5C7DB3B7BD10606A7BF07A9857F660977ADA6CA7A4D329376C8 PUSH1 0x5 PUSH1 0x0 SWAP1 SLOAD SWAP1 PUSH2 0x100 EXP SWAP1 DIV PUSH20 0xFFFFFFFFFFFFFFFFFFFFFFFFFFFFFFFFFFFFFFFF AND DUP4 TIMESTAMP PUSH1 0x40 MLOAD PUSH2 0xAAA SWAP4 SWAP3 SWAP2 SWAP1 PUSH2 0x234C JUMP JUMPDEST PUSH1 0x40 MLOAD DUP1 SWAP2 SUB SWAP1 LOG1 PUSH1 0x0 PUSH2 0xABC PUSH2 0x1B61 JUMP JUMPDEST SWAP2 POP POP DUP1 TIMESTAMP LT PUSH2 0xB00 JUMPI PUSH32 0x0 PUSH1 0x6 PUSH1 0x0 DUP3 DUP3 SLOAD PUSH2 0xAF8 SWAP2 SWAP1 PUSH2 0x25DF JUMP JUMPDEST SWAP3 POP POP DUP2 SWAP1 SSTORE POP JUMPDEST POP POP POP POP PUSH1 0x1 PUSH1 0x2 DUP2 SWAP1 SSTORE POP JUMP JUMPDEST PUSH1 0x5 PUSH1 0x0 SWAP1 SLOAD SWAP1 PUSH2 0x100 EXP SWAP1 DIV PUSH20 0xFFFFFFFFFFFFFFFFFFFFFFFFFFFFFFFFFFFFFFFF AND DUP2 JUMP JUMPDEST PUSH1 0x6 SLOAD DUP2 JUMP JUMPDEST PUSH32 0x65D7A28E3265B37A6474929F336521B332C1681B933F6CB9F3376673440D862A PUSH2 0xB64 DUP2 PUSH2 0x182B JUMP JUMPDEST PUSH2 0xB6C PUSH2 0x1BFF JUMP JUMPDEST POP JUMP JUMPDEST PUSH1 0x0 DUP1 PUSH1 0x0 SWAP1 SLOAD SWAP1 PUSH2 0x100 EXP SWAP1 DIV PUSH1 0xFF AND SWAP1 POP SWAP1 JUMP JUMPDEST PUSH32 0x65D7A28E3265B37A6474929F336521B332C1681B933F6CB9F3376673440D862A PUSH2 0xBAF DUP2 PUSH2 0x182B JUMP JUMPDEST PUSH2 0xBB7 PUSH2 0x1C61 JUMP JUMPDEST POP JUMP JUMPDEST PUSH1 0x0 PUSH1 0x1 PUSH1 0x0 DUP5 DUP2 MSTORE PUSH1 0x20 ADD SWAP1 DUP2 MSTORE PUSH1 0x20 ADD PUSH1 0x0 KECCAK256 PUSH1 0x0 ADD PUSH1 0x0 DUP4 PUSH20 0xFFFFFFFFFFFFFFFFFFFFFFFFFFFFFFFFFFFFFFFF AND PUSH20 0xFFFFFFFFFFFFFFFFFFFFFFFFFFFFFFFFFFFFFFFF AND DUP2 MSTORE PUSH1 0x20 ADD SWAP1 DUP2 MSTORE PUSH1 0x20 ADD PUSH1 0x0 KECCAK256 PUSH1 0x0 SWAP1 SLOAD SWAP1 PUSH2 0x100 EXP SWAP1 DIV PUSH1 0xFF AND SWAP1 POP SWAP3 SWAP2 POP POP JUMP JUMPDEST PUSH1 0x3 DUP2 DUP2 SLOAD DUP2 LT PUSH2 0xC35 JUMPI PUSH1 0x0 DUP1 REVERT JUMPDEST SWAP1 PUSH1 0x0 MSTORE PUSH1 0x20 PUSH1 0x0 KECCAK256 ADD PUSH1 0x0 SWAP2 POP SLOAD SWAP1 PUSH2 0x100 EXP SWAP1 DIV PUSH20 0xFFFFFFFFFFFFFFFFFFFFFFFFFFFFFFFFFFFFFFFF AND DUP2 JUMP JUMPDEST PUSH1 0x0 DUP1 PUSH1 0x0 PUSH2 0xC71 PUSH2 0x1B61 JUMP JUMPDEST SWAP2 POP SWAP2 POP DUP2 TIMESTAMP LT ISZERO DUP1 ISZERO PUSH2 0xC84 JUMPI POP DUP1 TIMESTAMP LT JUMPDEST ISZERO PUSH2 0xC94 JUMPI PUSH1 0x1 SWAP3 POP POP POP PUSH2 0xC9B JUMP JUMPDEST PUSH1 0x0 SWAP3 POP POP POP JUMPDEST SWAP1 JUMP JUMPDEST PUSH1 0x0 DUP1 SHL DUP2 JUMP JUMPDEST PUSH2 0xCAE DUP3 PUSH2 0x664 JUMP JUMPDEST PUSH2 0xCB7 DUP2 PUSH2 0x182B JUMP JUMPDEST PUSH2 0xCC1 DUP4 DUP4 PUSH2 0x1927 JUMP JUMPDEST POP POP POP JUMP JUMPDEST PUSH1 0x4 PUSH1 0x20 MSTORE DUP1 PUSH1 0x0 MSTORE PUSH1 0x40 PUSH1 0x0 KECCAK256 PUSH1 0x0 SWAP2 POP SWAP1 POP DUP1 PUSH1 0x0 ADD SLOAD SWAP1 DUP1 PUSH1 0x1 ADD SLOAD SWAP1 DUP1 PUSH1 0x2 ADD SLOAD SWAP1 POP DUP4 JUMP JUMPDEST PUSH32 0x241ECF16D79D0F8DBFB92CBC07FE17840425976CF0667F022FE9877CAA831B08 PUSH2 0xD1A DUP2 PUSH2 0x182B JUMP JUMPDEST DUP2 PUSH1 0x5 PUSH1 0x0 PUSH2 0x100 EXP DUP2 SLOAD DUP2 PUSH20 0xFFFFFFFFFFFFFFFFFFFFFFFFFFFFFFFFFFFFFFFF MUL NOT AND SWAP1 DUP4 PUSH20 0xFFFFFFFFFFFFFFFFFFFFFFFFFFFFFFFFFFFFFFFF AND MUL OR SWAP1 SSTORE POP POP POP JUMP JUMPDEST PUSH32 0x0 DUP2 JUMP JUMPDEST PUSH2 0xD8B PUSH2 0x1A09 JUMP JUMPDEST PUSH32 0x241ECF16D79D0F8DBFB92CBC07FE17840425976CF0667F022FE9877CAA831B08 PUSH2 0xDB5 DUP2 PUSH2 0x182B JUMP JUMPDEST PUSH2 0xDBD PUSH2 0xC64 JUMP JUMPDEST PUSH2 0xDF3 JUMPI PUSH1 0x40 MLOAD PUSH32 0x695E99F00000000000000000000000000000000000000000000000000000000 DUP2 MSTORE PUSH1 0x4 ADD PUSH1 0x40 MLOAD DUP1 SWAP2 SUB SWAP1 REVERT JUMPDEST PUSH1 0x0 DUP3 GT PUSH2 0xE2D JUMPI PUSH1 0x40 MLOAD PUSH32 0x9BC4B81000000000000000000000000000000000000000000000000000000000 DUP2 MSTORE PUSH1 0x4 ADD PUSH1 0x40 MLOAD DUP1 SWAP2 SUB SWAP1 REVERT JUMPDEST PUSH1 0x0 PUSH2 0xED0 DUP4 PUSH2 0xEC2 PUSH1 0x3 DUP1 SLOAD DUP1 PUSH1 0x20 MUL PUSH1 0x20 ADD PUSH1 0x40 MLOAD SWAP1 DUP2 ADD PUSH1 0x40 MSTORE DUP1 SWAP3 SWAP2 SWAP1 DUP2 DUP2 MSTORE PUSH1 0x20 ADD DUP3 DUP1 SLOAD DUP1 ISZERO PUSH2 0xEB8 JUMPI PUSH1 0x20 MUL DUP3 ADD SWAP2 SWAP1 PUSH1 0x0 MSTORE PUSH1 0x20 PUSH1 0x0 KECCAK256 SWAP1 JUMPDEST DUP2 PUSH1 0x0 SWAP1 SLOAD SWAP1 PUSH2 0x100 EXP SWAP1 DIV PUSH20 0xFFFFFFFFFFFFFFFFFFFFFFFFFFFFFFFFFFFFFFFF AND PUSH20 0xFFFFFFFFFFFFFFFFFFFFFFFFFFFFFFFFFFFFFFFF AND DUP2 MSTORE PUSH1 0x20 ADD SWAP1 PUSH1 0x1 ADD SWAP1 DUP1 DUP4 GT PUSH2 0xE6E JUMPI JUMPDEST POP POP POP POP POP PUSH2 0x1CC3 JUMP JUMPDEST PUSH2 0x1D5D SWAP1 SWAP2 SWAP1 PUSH4 0xFFFFFFFF AND JUMP JUMPDEST SWAP1 POP PUSH1 0x64 DUP2 GT ISZERO PUSH2 0xF0D JUMPI PUSH1 0x40 MLOAD PUSH32 0xF7752B5600000000000000000000000000000000000000000000000000000000 DUP2 MSTORE PUSH1 0x4 ADD PUSH1 0x40 MLOAD DUP1 SWAP2 SUB SWAP1 REVERT JUMPDEST PUSH1 0x0 PUSH1 0x4 PUSH1 0x0 DUP7 PUSH20 0xFFFFFFFFFFFFFFFFFFFFFFFFFFFFFFFFFFFFFFFF AND PUSH20 0xFFFFFFFFFFFFFFFFFFFFFFFFFFFFFFFFFFFFFFFF AND DUP2 MSTORE PUSH1 0x20 ADD SWAP1 DUP2 MSTORE PUSH1 0x20 ADD PUSH1 0x0 KECCAK256 PUSH1 0x0 ADD SLOAD EQ PUSH2 0xF89 JUMPI PUSH1 0x40 MLOAD PUSH32 0x9D7C730100000000000000000000000000000000000000000000000000000000 DUP2 MSTORE PUSH1 0x4 ADD PUSH1 0x40 MLOAD DUP1 SWAP2 SUB SWAP1 REVERT JUMPDEST PUSH1 0x40 MLOAD DUP1 PUSH1 0x60 ADD PUSH1 0x40 MSTORE DUP1 DUP5 DUP2 MSTORE PUSH1 0x20 ADD TIMESTAMP DUP2 MSTORE PUSH1 0x20 ADD TIMESTAMP DUP2 MSTORE POP PUSH1 0x4 PUSH1 0x0 DUP7 PUSH20 0xFFFFFFFFFFFFFFFFFFFFFFFFFFFFFFFFFFFFFFFF AND PUSH20 0xFFFFFFFFFFFFFFFFFFFFFFFFFFFFFFFFFFFFFFFF AND DUP2 MSTORE PUSH1 0x20 ADD SWAP1 DUP2 MSTORE PUSH1 0x20 ADD PUSH1 0x0 KECCAK256 PUSH1 0x0 DUP3 ADD MLOAD DUP2 PUSH1 0x0 ADD SSTORE PUSH1 0x20 DUP3 ADD MLOAD DUP2 PUSH1 0x1 ADD SSTORE PUSH1 0x40 DUP3 ADD MLOAD DUP2 PUSH1 0x2 ADD SSTORE SWAP1 POP POP PUSH32 0x984350119ECF7F58FF768FBA0125B1EA5F84B5C79130116AC67E295294FEEC7C DUP5 DUP5 TIMESTAMP PUSH1 0x40 MLOAD PUSH2 0x1037 SWAP4 SWAP3 SWAP2 SWAP1 PUSH2 0x2383 JUMP JUMPDEST PUSH1 0x40 MLOAD DUP1 SWAP2 SUB SWAP1 LOG1 POP POP POP POP JUMP JUMPDEST PUSH32 0x65D7A28E3265B37A6474929F336521B332C1681B933F6CB9F3376673440D862A DUP2 JUMP JUMPDEST PUSH32 0x241ECF16D79D0F8DBFB92CBC07FE17840425976CF0667F022FE9877CAA831B08 DUP2 JUMP JUMPDEST PUSH1 0x60 DUP1 PUSH1 0x3 DUP1 SLOAD SWAP1 POP PUSH8 0xFFFFFFFFFFFFFFFF DUP2 GT ISZERO PUSH2 0x10AF JUMPI PUSH2 0x10AE PUSH2 0x28B9 JUMP JUMPDEST JUMPDEST PUSH1 0x40 MLOAD SWAP1 DUP1 DUP3 MSTORE DUP1 PUSH1 0x20 MUL PUSH1 0x20 ADD DUP3 ADD PUSH1 0x40 MSTORE DUP1 ISZERO PUSH2 0x10DD JUMPI DUP2 PUSH1 0x20 ADD PUSH1 0x20 DUP3 MUL DUP1 CALLDATASIZE DUP4 CALLDATACOPY DUP1 DUP3 ADD SWAP2 POP POP SWAP1 POP JUMPDEST POP SWAP2 POP PUSH1 0x3 DUP1 SLOAD DUP1 PUSH1 0x20 MUL PUSH1 0x20 ADD PUSH1 0x40 MLOAD SWAP1 DUP2 ADD PUSH1 0x40 MSTORE DUP1 SWAP3 SWAP2 SWAP1 DUP2 DUP2 MSTORE PUSH1 0x20 ADD DUP3 DUP1 SLOAD DUP1 ISZERO PUSH2 0x1162 JUMPI PUSH1 0x20 MUL DUP3 ADD SWAP2 SWAP1 PUSH1 0x0 MSTORE PUSH1 0x20 PUSH1 0x0 KECCAK256 SWAP1 JUMPDEST DUP2 PUSH1 0x0 SWAP1 SLOAD SWAP1 PUSH2 0x100 EXP SWAP1 DIV PUSH20 0xFFFFFFFFFFFFFFFFFFFFFFFFFFFFFFFFFFFFFFFF AND PUSH20 0xFFFFFFFFFFFFFFFFFFFFFFFFFFFFFFFFFFFFFFFF AND DUP2 MSTORE PUSH1 0x20 ADD SWAP1 PUSH1 0x1 ADD SWAP1 DUP1 DUP4 GT PUSH2 0x1118 JUMPI JUMPDEST POP POP POP POP POP SWAP2 POP DUP2 MLOAD PUSH8 0xFFFFFFFFFFFFFFFF DUP2 GT ISZERO PUSH2 0x1184 JUMPI PUSH2 0x1183 PUSH2 0x28B9 JUMP JUMPDEST JUMPDEST PUSH1 0x40 MLOAD SWAP1 DUP1 DUP3 MSTORE DUP1 PUSH1 0x20 MUL PUSH1 0x20 ADD DUP3 ADD PUSH1 0x40 MSTORE DUP1 ISZERO PUSH2 0x11B2 JUMPI DUP2 PUSH1 0x20 ADD PUSH1 0x20 DUP3 MUL DUP1 CALLDATASIZE DUP4 CALLDATACOPY DUP1 DUP3 ADD SWAP2 POP POP SWAP1 POP JUMPDEST POP SWAP1 POP PUSH1 0x0 JUMPDEST DUP3 MLOAD DUP2 LT ISZERO PUSH2 0x1250 JUMPI PUSH1 0x4 PUSH1 0x0 DUP5 DUP4 DUP2 MLOAD DUP2 LT PUSH2 0x11D8 JUMPI PUSH2 0x11D7 PUSH2 0x288A JUMP JUMPDEST JUMPDEST PUSH1 0x20 MUL PUSH1 0x20 ADD ADD MLOAD PUSH20 0xFFFFFFFFFFFFFFFFFFFFFFFFFFFFFFFFFFFFFFFF AND PUSH20 0xFFFFFFFFFFFFFFFFFFFFFFFFFFFFFFFFFFFFFFFF AND DUP2 MSTORE PUSH1 0x20 ADD SWAP1 DUP2 MSTORE PUSH1 0x20 ADD PUSH1 0x0 KECCAK256 PUSH1 0x0 ADD SLOAD DUP3 DUP3 DUP2 MLOAD DUP2 LT PUSH2 0x1231 JUMPI PUSH2 0x1230 PUSH2 0x288A JUMP JUMPDEST JUMPDEST PUSH1 0x20 MUL PUSH1 0x20 ADD ADD DUP2 DUP2 MSTORE POP POP DUP1 DUP1 PUSH2 0x1248 SWAP1 PUSH2 0x27E3 JUMP JUMPDEST SWAP2 POP POP PUSH2 0x11B8 JUMP JUMPDEST POP SWAP1 SWAP2 JUMP JUMPDEST PUSH2 0x125D PUSH2 0x1A09 JUMP JUMPDEST PUSH32 0x241ECF16D79D0F8DBFB92CBC07FE17840425976CF0667F022FE9877CAA831B08 PUSH2 0x1287 DUP2 PUSH2 0x182B JUMP JUMPDEST PUSH2 0x128F PUSH2 0xC64 JUMP JUMPDEST PUSH2 0x12C5 JUMPI PUSH1 0x40 MLOAD PUSH32 0x695E99F00000000000000000000000000000000000000000000000000000000 DUP2 MSTORE PUSH1 0x4 ADD PUSH1 0x40 MLOAD DUP1 SWAP2 SUB SWAP1 REVERT JUMPDEST PUSH1 0x0 DUP3 GT PUSH2 0x12FF JUMPI PUSH1 0x40 MLOAD PUSH32 0x9BC4B81000000000000000000000000000000000000000000000000000000000 DUP2 MSTORE PUSH1 0x4 ADD PUSH1 0x40 MLOAD DUP1 SWAP2 SUB SWAP1 REVERT JUMPDEST PUSH1 0x0 PUSH2 0x13A2 DUP4 PUSH2 0x1394 PUSH1 0x3 DUP1 SLOAD DUP1 PUSH1 0x20 MUL PUSH1 0x20 ADD PUSH1 0x40 MLOAD SWAP1 DUP2 ADD PUSH1 0x40 MSTORE DUP1 SWAP3 SWAP2 SWAP1 DUP2 DUP2 MSTORE PUSH1 0x20 ADD DUP3 DUP1 SLOAD DUP1 ISZERO PUSH2 0x138A JUMPI PUSH1 0x20 MUL DUP3 ADD SWAP2 SWAP1 PUSH1 0x0 MSTORE PUSH1 0x20 PUSH1 0x0 KECCAK256 SWAP1 JUMPDEST DUP2 PUSH1 0x0 SWAP1 SLOAD SWAP1 PUSH2 0x100 EXP SWAP1 DIV PUSH20 0xFFFFFFFFFFFFFFFFFFFFFFFFFFFFFFFFFFFFFFFF AND PUSH20 0xFFFFFFFFFFFFFFFFFFFFFFFFFFFFFFFFFFFFFFFF AND DUP2 MSTORE PUSH1 0x20 ADD SWAP1 PUSH1 0x1 ADD SWAP1 DUP1 DUP4 GT PUSH2 0x1340 JUMPI JUMPDEST POP POP POP POP POP PUSH2 0x1CC3 JUMP JUMPDEST PUSH2 0x1D5D SWAP1 SWAP2 SWAP1 PUSH4 0xFFFFFFFF AND JUMP JUMPDEST SWAP1 POP PUSH1 0x64 DUP2 GT ISZERO PUSH2 0x13DF JUMPI PUSH1 0x40 MLOAD PUSH32 0xF7752B5600000000000000000000000000000000000000000000000000000000 DUP2 MSTORE PUSH1 0x4 ADD PUSH1 0x40 MLOAD DUP1 SWAP2 SUB SWAP1 REVERT JUMPDEST PUSH1 0x0 PUSH1 0x4 PUSH1 0x0 DUP7 PUSH20 0xFFFFFFFFFFFFFFFFFFFFFFFFFFFFFFFFFFFFFFFF AND PUSH20 0xFFFFFFFFFFFFFFFFFFFFFFFFFFFFFFFFFFFFFFFF AND DUP2 MSTORE PUSH1 0x20 ADD SWAP1 DUP2 MSTORE PUSH1 0x20 ADD PUSH1 0x0 KECCAK256 PUSH1 0x0 ADD SLOAD EQ ISZERO PUSH2 0x145C JUMPI PUSH1 0x40 MLOAD PUSH32 0xF5708A500000000000000000000000000000000000000000000000000000000 DUP2 MSTORE PUSH1 0x4 ADD PUSH1 0x40 MLOAD DUP1 SWAP2 SUB SWAP1 REVERT JUMPDEST PUSH1 0x0 PUSH2 0x14B3 DUP5 PUSH1 0x4 PUSH1 0x0 DUP9 PUSH20 0xFFFFFFFFFFFFFFFFFFFFFFFFFFFFFFFFFFFFFFFF AND PUSH20 0xFFFFFFFFFFFFFFFFFFFFFFFFFFFFFFFFFFFFFFFF AND DUP2 MSTORE PUSH1 0x20 ADD SWAP1 DUP2 MSTORE PUSH1 0x20 ADD PUSH1 0x0 KECCAK256 PUSH1 0x0 ADD SLOAD PUSH2 0x1D5D SWAP1 SWAP2 SWAP1 PUSH4 0xFFFFFFFF AND JUMP JUMPDEST SWAP1 POP DUP1 PUSH1 0x4 PUSH1 0x0 DUP8 PUSH20 0xFFFFFFFFFFFFFFFFFFFFFFFFFFFFFFFFFFFFFFFF AND PUSH20 0xFFFFFFFFFFFFFFFFFFFFFFFFFFFFFFFFFFFFFFFF AND DUP2 MSTORE PUSH1 0x20 ADD SWAP1 DUP2 MSTORE PUSH1 0x20 ADD PUSH1 0x0 KECCAK256 PUSH1 0x0 ADD DUP2 SWAP1 SSTORE POP TIMESTAMP PUSH1 0x4 PUSH1 0x0 DUP8 PUSH20 0xFFFFFFFFFFFFFFFFFFFFFFFFFFFFFFFFFFFFFFFF AND PUSH20 0xFFFFFFFFFFFFFFFFFFFFFFFFFFFFFFFFFFFFFFFF AND DUP2 MSTORE PUSH1 0x20 ADD SWAP1 DUP2 MSTORE PUSH1 0x20 ADD PUSH1 0x0 KECCAK256 PUSH1 0x2 ADD DUP2 SWAP1 SSTORE POP PUSH32 0xB1C069C2B2A0FBF8648B344B6D632EE6503BEFA49D2719A79C9DEE2A47AB63C8 DUP6 DUP6 TIMESTAMP PUSH1 0x40 MLOAD PUSH2 0x1576 SWAP4 SWAP3 SWAP2 SWAP1 PUSH2 0x2383 JUMP JUMPDEST PUSH1 0x40 MLOAD DUP1 SWAP2 SUB SWAP1 LOG1 POP POP POP POP POP JUMP JUMPDEST PUSH1 0x60 PUSH1 0x0 PUSH1 0x2 DUP4 PUSH1 0x2 PUSH2 0x1598 SWAP2 SWAP1 PUSH2 0x2666 JUMP JUMPDEST PUSH2 0x15A2 SWAP2 SWAP1 PUSH2 0x25DF JUMP JUMPDEST PUSH8 0xFFFFFFFFFFFFFFFF DUP2 GT ISZERO PUSH2 0x15BB JUMPI PUSH2 0x15BA PUSH2 0x28B9 JUMP JUMPDEST JUMPDEST PUSH1 0x40 MLOAD SWAP1 DUP1 DUP3 MSTORE DUP1 PUSH1 0x1F ADD PUSH1 0x1F NOT AND PUSH1 0x20 ADD DUP3 ADD PUSH1 0x40 MSTORE DUP1 ISZERO PUSH2 0x15ED JUMPI DUP2 PUSH1 0x20 ADD PUSH1 0x1 DUP3 MUL DUP1 CALLDATASIZE DUP4 CALLDATACOPY DUP1 DUP3 ADD SWAP2 POP POP SWAP1 POP JUMPDEST POP SWAP1 POP PUSH32 0x3000000000000000000000000000000000000000000000000000000000000000 DUP2 PUSH1 0x0 DUP2 MLOAD DUP2 LT PUSH2 0x1625 JUMPI PUSH2 0x1624 PUSH2 0x288A JUMP JUMPDEST JUMPDEST PUSH1 0x20 ADD ADD SWAP1 PUSH31 0xFFFFFFFFFFFFFFFFFFFFFFFFFFFFFFFFFFFFFFFFFFFFFFFFFFFFFFFFFFFFFF NOT AND SWAP1 DUP2 PUSH1 0x0 BYTE SWAP1 MSTORE8 POP PUSH32 0x7800000000000000000000000000000000000000000000000000000000000000 DUP2 PUSH1 0x1 DUP2 MLOAD DUP2 LT PUSH2 0x1689 JUMPI PUSH2 0x1688 PUSH2 0x288A JUMP JUMPDEST JUMPDEST PUSH1 0x20 ADD ADD SWAP1 PUSH31 0xFFFFFFFFFFFFFFFFFFFFFFFFFFFFFFFFFFFFFFFFFFFFFFFFFFFFFFFFFFFFFF NOT AND SWAP1 DUP2 PUSH1 0x0 BYTE SWAP1 MSTORE8 POP PUSH1 0x0 PUSH1 0x1 DUP5 PUSH1 0x2 PUSH2 0x16C9 SWAP2 SWAP1 PUSH2 0x2666 JUMP JUMPDEST PUSH2 0x16D3 SWAP2 SWAP1 PUSH2 0x25DF JUMP JUMPDEST SWAP1 POP JUMPDEST PUSH1 0x1 DUP2 GT ISZERO PUSH2 0x1773 JUMPI PUSH32 0x3031323334353637383961626364656600000000000000000000000000000000 PUSH1 0xF DUP7 AND PUSH1 0x10 DUP2 LT PUSH2 0x1715 JUMPI PUSH2 0x1714 PUSH2 0x288A JUMP JUMPDEST JUMPDEST BYTE PUSH1 0xF8 SHL DUP3 DUP3 DUP2 MLOAD DUP2 LT PUSH2 0x172C JUMPI PUSH2 0x172B PUSH2 0x288A JUMP JUMPDEST JUMPDEST PUSH1 0x20 ADD ADD SWAP1 PUSH31 0xFFFFFFFFFFFFFFFFFFFFFFFFFFFFFFFFFFFFFFFFFFFFFFFFFFFFFFFFFFFFFF NOT AND SWAP1 DUP2 PUSH1 0x0 BYTE SWAP1 MSTORE8 POP PUSH1 0x4 DUP6 SWAP1 SHR SWAP5 POP DUP1 PUSH2 0x176C SWAP1 PUSH2 0x27B9 JUMP JUMPDEST SWAP1 POP PUSH2 0x16D6 JUMP JUMPDEST POP PUSH1 0x0 DUP5 EQ PUSH2 0x17B7 JUMPI PUSH1 0x40 MLOAD PUSH32 0x8C379A000000000000000000000000000000000000000000000000000000000 DUP2 MSTORE PUSH1 0x4 ADD PUSH2 0x17AE SWAP1 PUSH2 0x2449 JUMP JUMPDEST PUSH1 0x40 MLOAD DUP1 SWAP2 SUB SWAP1 REVERT JUMPDEST DUP1 SWAP2 POP POP SWAP3 SWAP2 POP POP JUMP JUMPDEST PUSH1 0x0 PUSH32 0x1FFC9A700000000000000000000000000000000000000000000000000000000 PUSH28 0xFFFFFFFFFFFFFFFFFFFFFFFFFFFFFFFFFFFFFFFFFFFFFFFFFFFFFFFF NOT AND DUP3 PUSH28 0xFFFFFFFFFFFFFFFFFFFFFFFFFFFFFFFFFFFFFFFFFFFFFFFFFFFFFFFF NOT AND EQ SWAP1 POP SWAP2 SWAP1 POP JUMP JUMPDEST PUSH2 0x183C DUP2 PUSH2 0x1837 PUSH2 0x191F JUMP JUMPDEST PUSH2 0x1D73 JUMP JUMPDEST POP JUMP JUMPDEST PUSH2 0x1849 DUP3 DUP3 PUSH2 0xBBA JUMP JUMPDEST PUSH2 0x191B JUMPI PUSH1 0x1 DUP1 PUSH1 0x0 DUP5 DUP2 MSTORE PUSH1 0x20 ADD SWAP1 DUP2 MSTORE PUSH1 0x20 ADD PUSH1 0x0 KECCAK256 PUSH1 0x0 ADD PUSH1 0x0 DUP4 PUSH20 0xFFFFFFFFFFFFFFFFFFFFFFFFFFFFFFFFFFFFFFFF AND PUSH20 0xFFFFFFFFFFFFFFFFFFFFFFFFFFFFFFFFFFFFFFFF AND DUP2 MSTORE PUSH1 0x20 ADD SWAP1 DUP2 MSTORE PUSH1 0x20 ADD PUSH1 0x0 KECCAK256 PUSH1 0x0 PUSH2 0x100 EXP DUP2 SLOAD DUP2 PUSH1 0xFF MUL NOT AND SWAP1 DUP4 ISZERO ISZERO MUL OR SWAP1 SSTORE POP PUSH2 0x18C0 PUSH2 0x191F JUMP JUMPDEST PUSH20 0xFFFFFFFFFFFFFFFFFFFFFFFFFFFFFFFFFFFFFFFF AND DUP2 PUSH20 0xFFFFFFFFFFFFFFFFFFFFFFFFFFFFFFFFFFFFFFFF AND DUP4 PUSH32 0x2F8788117E7EFF1D82E926EC794901D17C78024A50270940304540A733656F0D PUSH1 0x40 MLOAD PUSH1 0x40 MLOAD DUP1 SWAP2 SUB SWAP1 LOG4 JUMPDEST POP POP JUMP JUMPDEST PUSH1 0x0 CALLER SWAP1 POP SWAP1 JUMP JUMPDEST PUSH2 0x1931 DUP3 DUP3 PUSH2 0xBBA JUMP JUMPDEST ISZERO PUSH2 0x1A05 JUMPI PUSH1 0x0 PUSH1 0x1 PUSH1 0x0 DUP5 DUP2 MSTORE PUSH1 0x20 ADD SWAP1 DUP2 MSTORE PUSH1 0x20 ADD PUSH1 0x0 KECCAK256 PUSH1 0x0 ADD PUSH1 0x0 DUP4 PUSH20 0xFFFFFFFFFFFFFFFFFFFFFFFFFFFFFFFFFFFFFFFF AND PUSH20 0xFFFFFFFFFFFFFFFFFFFFFFFFFFFFFFFFFFFFFFFF AND DUP2 MSTORE PUSH1 0x20 ADD SWAP1 DUP2 MSTORE PUSH1 0x20 ADD PUSH1 0x0 KECCAK256 PUSH1 0x0 PUSH2 0x100 EXP DUP2 SLOAD DUP2 PUSH1 0xFF MUL NOT AND SWAP1 DUP4 ISZERO ISZERO MUL OR SWAP1 SSTORE POP PUSH2 0x19AA PUSH2 0x191F JUMP JUMPDEST PUSH20 0xFFFFFFFFFFFFFFFFFFFFFFFFFFFFFFFFFFFFFFFF AND DUP2 PUSH20 0xFFFFFFFFFFFFFFFFFFFFFFFFFFFFFFFFFFFFFFFF AND DUP4 PUSH32 0xF6391F5C32D9C69D2A47EA670B442974B53935D1EDC7FD64EB21E047A839171B PUSH1 0x40 MLOAD PUSH1 0x40 MLOAD DUP1 SWAP2 SUB SWAP1 LOG4 JUMPDEST POP POP JUMP JUMPDEST PUSH2 0x1A11 PUSH2 0xB6F JUMP JUMPDEST ISZERO PUSH2 0x1A51 JUMPI PUSH1 0x40 MLOAD PUSH32 0x8C379A000000000000000000000000000000000000000000000000000000000 DUP2 MSTORE PUSH1 0x4 ADD PUSH2 0x1A48 SWAP1 PUSH2 0x2489 JUMP JUMPDEST PUSH1 0x40 MLOAD DUP1 SWAP2 SUB SWAP1 REVERT JUMPDEST JUMP JUMPDEST PUSH1 0x0 DUP2 DUP4 PUSH2 0x1A61 SWAP2 SWAP1 PUSH2 0x2666 JUMP JUMPDEST SWAP1 POP SWAP3 SWAP2 POP POP JUMP JUMPDEST PUSH1 0x0 DUP2 DUP4 PUSH2 0x1A77 SWAP2 SWAP1 PUSH2 0x2635 JUMP JUMPDEST SWAP1 POP SWAP3 SWAP2 POP POP JUMP JUMPDEST DUP1 SELFBALANCE LT ISZERO PUSH2 0x1AB9 JUMPI PUSH1 0x40 MLOAD PUSH32 0x4034001800000000000000000000000000000000000000000000000000000000 DUP2 MSTORE PUSH1 0x4 ADD PUSH1 0x40 MLOAD DUP1 SWAP2 SUB SWAP1 REVERT JUMPDEST PUSH1 0x0 DUP3 PUSH20 0xFFFFFFFFFFFFFFFFFFFFFFFFFFFFFFFFFFFFFFFF AND DUP3 PUSH1 0x40 MLOAD PUSH2 0x1ADF SWAP1 PUSH2 0x22C7 JUMP JUMPDEST PUSH1 0x0 PUSH1 0x40 MLOAD DUP1 DUP4 SUB DUP2 DUP6 DUP8 GAS CALL SWAP3 POP POP POP RETURNDATASIZE DUP1 PUSH1 0x0 DUP2 EQ PUSH2 0x1B1C JUMPI PUSH1 0x40 MLOAD SWAP2 POP PUSH1 0x1F NOT PUSH1 0x3F RETURNDATASIZE ADD AND DUP3 ADD PUSH1 0x40 MSTORE RETURNDATASIZE DUP3 MSTORE RETURNDATASIZE PUSH1 0x0 PUSH1 0x20 DUP5 ADD RETURNDATACOPY PUSH2 0x1B21 JUMP JUMPDEST PUSH1 0x60 SWAP2 POP JUMPDEST POP POP SWAP1 POP DUP1 PUSH2 0x1B5C JUMPI PUSH1 0x40 MLOAD PUSH32 0xFBB12E0800000000000000000000000000000000000000000000000000000000 DUP2 MSTORE PUSH1 0x4 ADD PUSH1 0x40 MLOAD DUP1 SWAP2 SUB SWAP1 REVERT JUMPDEST POP POP POP JUMP JUMPDEST PUSH1 0x0 DUP1 PUSH1 0x0 PUSH32 0x0 PUSH1 0x6 SLOAD PUSH2 0x1B94 SWAP2 SWAP1 PUSH2 0x25DF JUMP JUMPDEST SWAP1 POP PUSH1 0x0 PUSH32 0x0 PUSH32 0x0 PUSH2 0x1BE4 SWAP2 SWAP1 PUSH2 0x25DF JUMP JUMPDEST PUSH1 0x6 SLOAD PUSH2 0x1BF1 SWAP2 SWAP1 PUSH2 0x25DF JUMP JUMPDEST SWAP1 POP DUP2 DUP2 SWAP4 POP SWAP4 POP POP POP SWAP1 SWAP2 JUMP JUMPDEST PUSH2 0x1C07 PUSH2 0x1E10 JUMP JUMPDEST PUSH1 0x0 DUP1 PUSH1 0x0 PUSH2 0x100 EXP DUP2 SLOAD DUP2 PUSH1 0xFF MUL NOT AND SWAP1 DUP4 ISZERO ISZERO MUL OR SWAP1 SSTORE POP PUSH32 0x5DB9EE0A495BF2E6FF9C91A7834C1BA4FDD244A5E8AA4E537BD38AEAE4B073AA PUSH2 0x1C4A PUSH2 0x191F JUMP JUMPDEST PUSH1 0x40 MLOAD PUSH2 0x1C57 SWAP2 SWAP1 PUSH2 0x2316 JUMP JUMPDEST PUSH1 0x40 MLOAD DUP1 SWAP2 SUB SWAP1 LOG1 JUMP JUMPDEST PUSH2 0x1C69 PUSH2 0x1A09 JUMP JUMPDEST PUSH1 0x1 PUSH1 0x0 DUP1 PUSH2 0x100 EXP DUP2 SLOAD DUP2 PUSH1 0xFF MUL NOT AND SWAP1 DUP4 ISZERO ISZERO MUL OR SWAP1 SSTORE POP PUSH32 0x62E78CEA01BEE320CD4E420270B5EA74000D11B0C9F74754EBDBFC544B05A258 PUSH2 0x1CAC PUSH2 0x191F JUMP JUMPDEST PUSH1 0x40 MLOAD PUSH2 0x1CB9 SWAP2 SWAP1 PUSH2 0x2316 JUMP JUMPDEST PUSH1 0x40 MLOAD DUP1 SWAP2 SUB SWAP1 LOG1 JUMP JUMPDEST PUSH1 0x0 DUP1 PUSH1 0x0 SWAP1 POP PUSH1 0x0 JUMPDEST DUP4 MLOAD DUP2 LT ISZERO PUSH2 0x1D53 JUMPI PUSH1 0x4 PUSH1 0x0 DUP6 DUP4 DUP2 MLOAD DUP2 LT PUSH2 0x1CED JUMPI PUSH2 0x1CEC PUSH2 0x288A JUMP JUMPDEST JUMPDEST PUSH1 0x20 MUL PUSH1 0x20 ADD ADD MLOAD PUSH20 0xFFFFFFFFFFFFFFFFFFFFFFFFFFFFFFFFFFFFFFFF AND PUSH20 0xFFFFFFFFFFFFFFFFFFFFFFFFFFFFFFFFFFFFFFFF AND DUP2 MSTORE PUSH1 0x20 ADD SWAP1 DUP2 MSTORE PUSH1 0x20 ADD PUSH1 0x0 KECCAK256 PUSH1 0x0 ADD SLOAD DUP3 PUSH2 0x1D3E SWAP2 SWAP1 PUSH2 0x25DF JUMP JUMPDEST SWAP2 POP DUP1 DUP1 PUSH2 0x1D4B SWAP1 PUSH2 0x27E3 JUMP JUMPDEST SWAP2 POP POP PUSH2 0x1CCD JUMP JUMPDEST POP DUP1 SWAP2 POP POP SWAP2 SWAP1 POP JUMP JUMPDEST PUSH1 0x0 DUP2 DUP4 PUSH2 0x1D6B SWAP2 SWAP1 PUSH2 0x25DF JUMP JUMPDEST SWAP1 POP SWAP3 SWAP2 POP POP JUMP JUMPDEST PUSH2 0x1D7D DUP3 DUP3 PUSH2 0xBBA JUMP JUMPDEST PUSH2 0x1E0C JUMPI PUSH2 0x1DA2 DUP2 PUSH20 0xFFFFFFFFFFFFFFFFFFFFFFFFFFFFFFFFFFFFFFFF AND PUSH1 0x14 PUSH2 0x1585 JUMP JUMPDEST PUSH2 0x1DB0 DUP4 PUSH1 0x0 SHR PUSH1 0x20 PUSH2 0x1585 JUMP JUMPDEST PUSH1 0x40 MLOAD PUSH1 0x20 ADD PUSH2 0x1DC1 SWAP3 SWAP2 SWAP1 PUSH2 0x22DC JUMP JUMPDEST PUSH1 0x40 MLOAD PUSH1 0x20 DUP2 DUP4 SUB SUB DUP2 MSTORE SWAP1 PUSH1 0x40 MSTORE PUSH1 0x40 MLOAD PUSH32 0x8C379A000000000000000000000000000000000000000000000000000000000 DUP2 MSTORE PUSH1 0x4 ADD PUSH2 0x1E03 SWAP2 SWAP1 PUSH2 0x2427 JUMP JUMPDEST PUSH1 0x40 MLOAD DUP1 SWAP2 SUB SWAP1 REVERT JUMPDEST POP POP JUMP JUMPDEST PUSH2 0x1E18 PUSH2 0xB6F JUMP JUMPDEST PUSH2 0x1E57 JUMPI PUSH1 0x40 MLOAD PUSH32 0x8C379A000000000000000000000000000000000000000000000000000000000 DUP2 MSTORE PUSH1 0x4 ADD PUSH2 0x1E4E SWAP1 PUSH2 0x2469 JUMP JUMPDEST PUSH1 0x40 MLOAD DUP1 SWAP2 SUB SWAP1 REVERT JUMPDEST JUMP JUMPDEST PUSH1 0x0 DUP2 CALLDATALOAD SWAP1 POP PUSH2 0x1E68 DUP2 PUSH2 0x2A46 JUMP JUMPDEST SWAP3 SWAP2 POP POP JUMP JUMPDEST PUSH1 0x0 DUP2 CALLDATALOAD SWAP1 POP PUSH2 0x1E7D DUP2 PUSH2 0x2A5D JUMP JUMPDEST SWAP3 SWAP2 POP POP JUMP JUMPDEST PUSH1 0x0 DUP2 CALLDATALOAD SWAP1 POP PUSH2 0x1E92 DUP2 PUSH2 0x2A74 JUMP JUMPDEST SWAP3 SWAP2 POP POP JUMP JUMPDEST PUSH1 0x0 DUP2 CALLDATALOAD SWAP1 POP PUSH2 0x1EA7 DUP2 PUSH2 0x2A8B JUMP JUMPDEST SWAP3 SWAP2 POP POP JUMP JUMPDEST PUSH1 0x0 PUSH1 0x20 DUP3 DUP5 SUB SLT ISZERO PUSH2 0x1EC3 JUMPI PUSH2 0x1EC2 PUSH2 0x28E8 JUMP JUMPDEST JUMPDEST PUSH1 0x0 PUSH2 0x1ED1 DUP5 DUP3 DUP6 ADD PUSH2 0x1E59 JUMP JUMPDEST SWAP2 POP POP SWAP3 SWAP2 POP POP JUMP JUMPDEST PUSH1 0x0 DUP1 PUSH1 0x40 DUP4 DUP6 SUB SLT ISZERO PUSH2 0x1EF1 JUMPI PUSH2 0x1EF0 PUSH2 0x28E8 JUMP JUMPDEST JUMPDEST PUSH1 0x0 PUSH2 0x1EFF DUP6 DUP3 DUP7 ADD PUSH2 0x1E59 JUMP JUMPDEST SWAP3 POP POP PUSH1 0x20 PUSH2 0x1F10 DUP6 DUP3 DUP7 ADD PUSH2 0x1E98 JUMP JUMPDEST SWAP2 POP POP SWAP3 POP SWAP3 SWAP1 POP JUMP JUMPDEST PUSH1 0x0 PUSH1 0x20 DUP3 DUP5 SUB SLT ISZERO PUSH2 0x1F30 JUMPI PUSH2 0x1F2F PUSH2 0x28E8 JUMP JUMPDEST JUMPDEST PUSH1 0x0 PUSH2 0x1F3E DUP5 DUP3 DUP6 ADD PUSH2 0x1E6E JUMP JUMPDEST SWAP2 POP POP SWAP3 SWAP2 POP POP JUMP JUMPDEST PUSH1 0x0 DUP1 PUSH1 0x40 DUP4 DUP6 SUB SLT ISZERO PUSH2 0x1F5E JUMPI PUSH2 0x1F5D PUSH2 0x28E8 JUMP JUMPDEST JUMPDEST PUSH1 0x0 PUSH2 0x1F6C DUP6 DUP3 DUP7 ADD PUSH2 0x1E6E JUMP JUMPDEST SWAP3 POP POP PUSH1 0x20 PUSH2 0x1F7D DUP6 DUP3 DUP7 ADD PUSH2 0x1E59 JUMP JUMPDEST SWAP2 POP POP SWAP3 POP SWAP3 SWAP1 POP JUMP JUMPDEST PUSH1 0x0 PUSH1 0x20 DUP3 DUP5 SUB SLT ISZERO PUSH2 0x1F9D JUMPI PUSH2 0x1F9C PUSH2 0x28E8 JUMP JUMPDEST JUMPDEST PUSH1 0x0 PUSH2 0x1FAB DUP5 DUP3 DUP6 ADD PUSH2 0x1E83 JUMP JUMPDEST SWAP2 POP POP SWAP3 SWAP2 POP POP JUMP JUMPDEST PUSH1 0x0 PUSH1 0x20 DUP3 DUP5 SUB SLT ISZERO PUSH2 0x1FCA JUMPI PUSH2 0x1FC9 PUSH2 0x28E8 JUMP JUMPDEST JUMPDEST PUSH1 0x0 PUSH2 0x1FD8 DUP5 DUP3 DUP6 ADD PUSH2 0x1E98 JUMP JUMPDEST SWAP2 POP POP SWAP3 SWAP2 POP POP JUMP JUMPDEST PUSH1 0x0 PUSH2 0x1FED DUP4 DUP4 PUSH2 0x202F JUMP JUMPDEST PUSH1 0x20 DUP4 ADD SWAP1 POP SWAP3 SWAP2 POP POP JUMP JUMPDEST PUSH1 0x0 PUSH2 0x2005 DUP4 DUP4 PUSH2 0x22A9 JUMP JUMPDEST PUSH1 0x20 DUP4 ADD SWAP1 POP SWAP3 SWAP2 POP POP JUMP JUMPDEST PUSH2 0x201A DUP2 PUSH2 0x2750 JUMP JUMPDEST DUP3 MSTORE POP POP JUMP JUMPDEST PUSH2 0x2029 DUP2 PUSH2 0x26D2 JUMP JUMPDEST DUP3 MSTORE POP POP JUMP JUMPDEST PUSH2 0x2038 DUP2 PUSH2 0x26C0 JUMP JUMPDEST DUP3 MSTORE POP POP JUMP JUMPDEST PUSH2 0x2047 DUP2 PUSH2 0x26C0 JUMP JUMPDEST DUP3 MSTORE POP POP JUMP JUMPDEST PUSH1 0x0 PUSH2 0x2058 DUP3 PUSH2 0x255B JUMP JUMPDEST PUSH2 0x2062 DUP2 DUP6 PUSH2 0x2596 JUMP JUMPDEST SWAP4 POP PUSH2 0x206D DUP4 PUSH2 0x253B JUMP JUMPDEST DUP1 PUSH1 0x0 JUMPDEST DUP4 DUP2 LT ISZERO PUSH2 0x209E JUMPI DUP2 MLOAD PUSH2 0x2085 DUP9 DUP3 PUSH2 0x1FE1 JUMP JUMPDEST SWAP8 POP PUSH2 0x2090 DUP4 PUSH2 0x257C JUMP JUMPDEST SWAP3 POP POP PUSH1 0x1 DUP2 ADD SWAP1 POP PUSH2 0x2071 JUMP JUMPDEST POP DUP6 SWAP4 POP POP POP POP SWAP3 SWAP2 POP POP JUMP JUMPDEST PUSH1 0x0 PUSH2 0x20B6 DUP3 PUSH2 0x2566 JUMP JUMPDEST PUSH2 0x20C0 DUP2 DUP6 PUSH2 0x25A7 JUMP JUMPDEST SWAP4 POP PUSH2 0x20CB DUP4 PUSH2 0x254B JUMP JUMPDEST DUP1 PUSH1 0x0 JUMPDEST DUP4 DUP2 LT ISZERO PUSH2 0x20FC JUMPI DUP2 MLOAD PUSH2 0x20E3 DUP9 DUP3 PUSH2 0x1FF9 JUMP JUMPDEST SWAP8 POP PUSH2 0x20EE DUP4 PUSH2 0x2589 JUMP JUMPDEST SWAP3 POP POP PUSH1 0x1 DUP2 ADD SWAP1 POP PUSH2 0x20CF JUMP JUMPDEST POP DUP6 SWAP4 POP POP POP POP SWAP3 SWAP2 POP POP JUMP JUMPDEST PUSH2 0x2112 DUP2 PUSH2 0x26E4 JUMP JUMPDEST DUP3 MSTORE POP POP JUMP JUMPDEST PUSH2 0x2121 DUP2 PUSH2 0x26F0 JUMP JUMPDEST DUP3 MSTORE POP POP JUMP JUMPDEST PUSH1 0x0 PUSH2 0x2132 DUP3 PUSH2 0x2571 JUMP JUMPDEST PUSH2 0x213C DUP2 DUP6 PUSH2 0x25C3 JUMP JUMPDEST SWAP4 POP PUSH2 0x214C DUP2 DUP6 PUSH1 0x20 DUP7 ADD PUSH2 0x2786 JUMP JUMPDEST PUSH2 0x2155 DUP2 PUSH2 0x28ED JUMP JUMPDEST DUP5 ADD SWAP2 POP POP SWAP3 SWAP2 POP POP JUMP JUMPDEST PUSH1 0x0 PUSH2 0x216B DUP3 PUSH2 0x2571 JUMP JUMPDEST PUSH2 0x2175 DUP2 DUP6 PUSH2 0x25D4 JUMP JUMPDEST SWAP4 POP PUSH2 0x2185 DUP2 DUP6 PUSH1 0x20 DUP7 ADD PUSH2 0x2786 JUMP JUMPDEST DUP1 DUP5 ADD SWAP2 POP POP SWAP3 SWAP2 POP POP JUMP JUMPDEST PUSH1 0x0 PUSH2 0x219E PUSH1 0x20 DUP4 PUSH2 0x25C3 JUMP JUMPDEST SWAP2 POP PUSH2 0x21A9 DUP3 PUSH2 0x28FE JUMP JUMPDEST PUSH1 0x20 DUP3 ADD SWAP1 POP SWAP2 SWAP1 POP JUMP JUMPDEST PUSH1 0x0 PUSH2 0x21C1 PUSH1 0x14 DUP4 PUSH2 0x25C3 JUMP JUMPDEST SWAP2 POP PUSH2 0x21CC DUP3 PUSH2 0x2927 JUMP JUMPDEST PUSH1 0x20 DUP3 ADD SWAP1 POP SWAP2 SWAP1 POP JUMP JUMPDEST PUSH1 0x0 PUSH2 0x21E4 PUSH1 0x10 DUP4 PUSH2 0x25C3 JUMP JUMPDEST SWAP2 POP PUSH2 0x21EF DUP3 PUSH2 0x2950 JUMP JUMPDEST PUSH1 0x20 DUP3 ADD SWAP1 POP SWAP2 SWAP1 POP JUMP JUMPDEST PUSH1 0x0 PUSH2 0x2207 PUSH1 0x0 DUP4 PUSH2 0x25B8 JUMP JUMPDEST SWAP2 POP PUSH2 0x2212 DUP3 PUSH2 0x2979 JUMP JUMPDEST PUSH1 0x0 DUP3 ADD SWAP1 POP SWAP2 SWAP1 POP JUMP JUMPDEST PUSH1 0x0 PUSH2 0x222A PUSH1 0x17 DUP4 PUSH2 0x25D4 JUMP JUMPDEST SWAP2 POP PUSH2 0x2235 DUP3 PUSH2 0x297C JUMP JUMPDEST PUSH1 0x17 DUP3 ADD SWAP1 POP SWAP2 SWAP1 POP JUMP JUMPDEST PUSH1 0x0 PUSH2 0x224D PUSH1 0x1F DUP4 PUSH2 0x25C3 JUMP JUMPDEST SWAP2 POP PUSH2 0x2258 DUP3 PUSH2 0x29A5 JUMP JUMPDEST PUSH1 0x20 DUP3 ADD SWAP1 POP SWAP2 SWAP1 POP JUMP JUMPDEST PUSH1 0x0 PUSH2 0x2270 PUSH1 0x11 DUP4 PUSH2 0x25D4 JUMP JUMPDEST SWAP2 POP PUSH2 0x227B DUP3 PUSH2 0x29CE JUMP JUMPDEST PUSH1 0x11 DUP3 ADD SWAP1 POP SWAP2 SWAP1 POP JUMP JUMPDEST PUSH1 0x0 PUSH2 0x2293 PUSH1 0x2F DUP4 PUSH2 0x25C3 JUMP JUMPDEST SWAP2 POP PUSH2 0x229E DUP3 PUSH2 0x29F7 JUMP JUMPDEST PUSH1 0x40 DUP3 ADD SWAP1 POP SWAP2 SWAP1 POP JUMP JUMPDEST PUSH2 0x22B2 DUP2 PUSH2 0x2746 JUMP JUMPDEST DUP3 MSTORE POP POP JUMP JUMPDEST PUSH2 0x22C1 DUP2 PUSH2 0x2746 JUMP JUMPDEST DUP3 MSTORE POP POP JUMP JUMPDEST PUSH1 0x0 PUSH2 0x22D2 DUP3 PUSH2 0x21FA JUMP JUMPDEST SWAP2 POP DUP2 SWAP1 POP SWAP2 SWAP1 POP JUMP JUMPDEST PUSH1 0x0 PUSH2 0x22E7 DUP3 PUSH2 0x221D JUMP JUMPDEST SWAP2 POP PUSH2 0x22F3 DUP3 DUP6 PUSH2 0x2160 JUMP JUMPDEST SWAP2 POP PUSH2 0x22FE DUP3 PUSH2 0x2263 JUMP JUMPDEST SWAP2 POP PUSH2 0x230A DUP3 DUP5 PUSH2 0x2160 JUMP JUMPDEST SWAP2 POP DUP2 SWAP1 POP SWAP4 SWAP3 POP POP POP JUMP JUMPDEST PUSH1 0x0 PUSH1 0x20 DUP3 ADD SWAP1 POP PUSH2 0x232B PUSH1 0x0 DUP4 ADD DUP5 PUSH2 0x203E JUMP JUMPDEST SWAP3 SWAP2 POP POP JUMP JUMPDEST PUSH1 0x0 PUSH1 0x20 DUP3 ADD SWAP1 POP PUSH2 0x2346 PUSH1 0x0 DUP4 ADD DUP5 PUSH2 0x2020 JUMP JUMPDEST SWAP3 SWAP2 POP POP JUMP JUMPDEST PUSH1 0x0 PUSH1 0x60 DUP3 ADD SWAP1 POP PUSH2 0x2361 PUSH1 0x0 DUP4 ADD DUP7 PUSH2 0x2011 JUMP JUMPDEST PUSH2 0x236E PUSH1 0x20 DUP4 ADD DUP6 PUSH2 0x22B8 JUMP JUMPDEST PUSH2 0x237B PUSH1 0x40 DUP4 ADD DUP5 PUSH2 0x22B8 JUMP JUMPDEST SWAP5 SWAP4 POP POP POP POP JUMP JUMPDEST PUSH1 0x0 PUSH1 0x60 DUP3 ADD SWAP1 POP PUSH2 0x2398 PUSH1 0x0 DUP4 ADD DUP7 PUSH2 0x203E JUMP JUMPDEST PUSH2 0x23A5 PUSH1 0x20 DUP4 ADD DUP6 PUSH2 0x22B8 JUMP JUMPDEST PUSH2 0x23B2 PUSH1 0x40 DUP4 ADD DUP5 PUSH2 0x22B8 JUMP JUMPDEST SWAP5 SWAP4 POP POP POP POP JUMP JUMPDEST PUSH1 0x0 PUSH1 0x40 DUP3 ADD SWAP1 POP DUP2 DUP2 SUB PUSH1 0x0 DUP4 ADD MSTORE PUSH2 0x23D4 DUP2 DUP6 PUSH2 0x204D JUMP JUMPDEST SWAP1 POP DUP2 DUP2 SUB PUSH1 0x20 DUP4 ADD MSTORE PUSH2 0x23E8 DUP2 DUP5 PUSH2 0x20AB JUMP JUMPDEST SWAP1 POP SWAP4 SWAP3 POP POP POP JUMP JUMPDEST PUSH1 0x0 PUSH1 0x20 DUP3 ADD SWAP1 POP PUSH2 0x2406 PUSH1 0x0 DUP4 ADD DUP5 PUSH2 0x2109 JUMP JUMPDEST SWAP3 SWAP2 POP POP JUMP JUMPDEST PUSH1 0x0 PUSH1 0x20 DUP3 ADD SWAP1 POP PUSH2 0x2421 PUSH1 0x0 DUP4 ADD DUP5 PUSH2 0x2118 JUMP JUMPDEST SWAP3 SWAP2 POP POP JUMP JUMPDEST PUSH1 0x0 PUSH1 0x20 DUP3 ADD SWAP1 POP DUP2 DUP2 SUB PUSH1 0x0 DUP4 ADD MSTORE PUSH2 0x2441 DUP2 DUP5 PUSH2 0x2127 JUMP JUMPDEST SWAP1 POP SWAP3 SWAP2 POP POP JUMP JUMPDEST PUSH1 0x0 PUSH1 0x20 DUP3 ADD SWAP1 POP DUP2 DUP2 SUB PUSH1 0x0 DUP4 ADD MSTORE PUSH2 0x2462 DUP2 PUSH2 0x2191 JUMP JUMPDEST SWAP1 POP SWAP2 SWAP1 POP JUMP JUMPDEST PUSH1 0x0 PUSH1 0x20 DUP3 ADD SWAP1 POP DUP2 DUP2 SUB PUSH1 0x0 DUP4 ADD MSTORE PUSH2 0x2482 DUP2 PUSH2 0x21B4 JUMP JUMPDEST SWAP1 POP SWAP2 SWAP1 POP JUMP JUMPDEST PUSH1 0x0 PUSH1 0x20 DUP3 ADD SWAP1 POP DUP2 DUP2 SUB PUSH1 0x0 DUP4 ADD MSTORE PUSH2 0x24A2 DUP2 PUSH2 0x21D7 JUMP JUMPDEST SWAP1 POP SWAP2 SWAP1 POP JUMP JUMPDEST PUSH1 0x0 PUSH1 0x20 DUP3 ADD SWAP1 POP DUP2 DUP2 SUB PUSH1 0x0 DUP4 ADD MSTORE PUSH2 0x24C2 DUP2 PUSH2 0x2240 JUMP JUMPDEST SWAP1 POP SWAP2 SWAP1 POP JUMP JUMPDEST PUSH1 0x0 PUSH1 0x20 DUP3 ADD SWAP1 POP DUP2 DUP2 SUB PUSH1 0x0 DUP4 ADD MSTORE PUSH2 0x24E2 DUP2 PUSH2 0x2286 JUMP JUMPDEST SWAP1 POP SWAP2 SWAP1 POP JUMP JUMPDEST PUSH1 0x0 PUSH1 0x20 DUP3 ADD SWAP1 POP PUSH2 0x24FE PUSH1 0x0 DUP4 ADD DUP5 PUSH2 0x22B8 JUMP JUMPDEST SWAP3 SWAP2 POP POP JUMP JUMPDEST PUSH1 0x0 PUSH1 0x60 DUP3 ADD SWAP1 POP PUSH2 0x2519 PUSH1 0x0 DUP4 ADD DUP7 PUSH2 0x22B8 JUMP JUMPDEST PUSH2 0x2526 PUSH1 0x20 DUP4 ADD DUP6 PUSH2 0x22B8 JUMP JUMPDEST PUSH2 0x2533 PUSH1 0x40 DUP4 ADD DUP5 PUSH2 0x22B8 JUMP JUMPDEST SWAP5 SWAP4 POP POP POP POP JUMP JUMPDEST PUSH1 0x0 DUP2 SWAP1 POP PUSH1 0x20 DUP3 ADD SWAP1 POP SWAP2 SWAP1 POP JUMP JUMPDEST PUSH1 0x0 DUP2 SWAP1 POP PUSH1 0x20 DUP3 ADD SWAP1 POP SWAP2 SWAP1 POP JUMP JUMPDEST PUSH1 0x0 DUP2 MLOAD SWAP1 POP SWAP2 SWAP1 POP JUMP JUMPDEST PUSH1 0x0 DUP2 MLOAD SWAP1 POP SWAP2 SWAP1 POP JUMP JUMPDEST PUSH1 0x0 DUP2 MLOAD SWAP1 POP SWAP2 SWAP1 POP JUMP JUMPDEST PUSH1 0x0 PUSH1 0x20 DUP3 ADD SWAP1 POP SWAP2 SWAP1 POP JUMP JUMPDEST PUSH1 0x0 PUSH1 0x20 DUP3 ADD SWAP1 POP SWAP2 SWAP1 POP JUMP JUMPDEST PUSH1 0x0 DUP3 DUP3 MSTORE PUSH1 0x20 DUP3 ADD SWAP1 POP SWAP3 SWAP2 POP POP JUMP JUMPDEST PUSH1 0x0 DUP3 DUP3 MSTORE PUSH1 0x20 DUP3 ADD SWAP1 POP SWAP3 SWAP2 POP POP JUMP JUMPDEST PUSH1 0x0 DUP2 SWAP1 POP SWAP3 SWAP2 POP POP JUMP JUMPDEST PUSH1 0x0 DUP3 DUP3 MSTORE PUSH1 0x20 DUP3 ADD SWAP1 POP SWAP3 SWAP2 POP POP JUMP JUMPDEST PUSH1 0x0 DUP2 SWAP1 POP SWAP3 SWAP2 POP POP JUMP JUMPDEST PUSH1 0x0 PUSH2 0x25EA DUP3 PUSH2 0x2746 JUMP JUMPDEST SWAP2 POP PUSH2 0x25F5 DUP4 PUSH2 0x2746 JUMP JUMPDEST SWAP3 POP DUP3 PUSH32 0xFFFFFFFFFFFFFFFFFFFFFFFFFFFFFFFFFFFFFFFFFFFFFFFFFFFFFFFFFFFFFFFF SUB DUP3 GT ISZERO PUSH2 0x262A JUMPI PUSH2 0x2629 PUSH2 0x282C JUMP JUMPDEST JUMPDEST DUP3 DUP3 ADD SWAP1 POP SWAP3 SWAP2 POP POP JUMP JUMPDEST PUSH1 0x0 PUSH2 0x2640 DUP3 PUSH2 0x2746 JUMP JUMPDEST SWAP2 POP PUSH2 0x264B DUP4 PUSH2 0x2746 JUMP JUMPDEST SWAP3 POP DUP3 PUSH2 0x265B JUMPI PUSH2 0x265A PUSH2 0x285B JUMP JUMPDEST JUMPDEST DUP3 DUP3 DIV SWAP1 POP SWAP3 SWAP2 POP POP JUMP JUMPDEST PUSH1 0x0 PUSH2 0x2671 DUP3 PUSH2 0x2746 JUMP JUMPDEST SWAP2 POP PUSH2 0x267C DUP4 PUSH2 0x2746 JUMP JUMPDEST SWAP3 POP DUP2 PUSH32 0xFFFFFFFFFFFFFFFFFFFFFFFFFFFFFFFFFFFFFFFFFFFFFFFFFFFFFFFFFFFFFFFF DIV DUP4 GT DUP3 ISZERO ISZERO AND ISZERO PUSH2 0x26B5 JUMPI PUSH2 0x26B4 PUSH2 0x282C JUMP JUMPDEST JUMPDEST DUP3 DUP3 MUL SWAP1 POP SWAP3 SWAP2 POP POP JUMP JUMPDEST PUSH1 0x0 PUSH2 0x26CB DUP3 PUSH2 0x2726 JUMP JUMPDEST SWAP1 POP SWAP2 SWAP1 POP JUMP JUMPDEST PUSH1 0x0 PUSH2 0x26DD DUP3 PUSH2 0x2726 JUMP JUMPDEST SWAP1 POP SWAP2 SWAP1 POP JUMP JUMPDEST PUSH1 0x0 DUP2 ISZERO ISZERO SWAP1 POP SWAP2 SWAP1 POP JUMP JUMPDEST PUSH1 0x0 DUP2 SWAP1 POP SWAP2 SWAP1 POP JUMP JUMPDEST PUSH1 0x0 PUSH32 0xFFFFFFFF00000000000000000000000000000000000000000000000000000000 DUP3 AND SWAP1 POP SWAP2 SWAP1 POP JUMP JUMPDEST PUSH1 0x0 PUSH20 0xFFFFFFFFFFFFFFFFFFFFFFFFFFFFFFFFFFFFFFFF DUP3 AND SWAP1 POP SWAP2 SWAP1 POP JUMP JUMPDEST PUSH1 0x0 DUP2 SWAP1 POP SWAP2 SWAP1 POP JUMP JUMPDEST PUSH1 0x0 PUSH2 0x275B DUP3 PUSH2 0x2762 JUMP JUMPDEST SWAP1 POP SWAP2 SWAP1 POP JUMP JUMPDEST PUSH1 0x0 PUSH2 0x276D DUP3 PUSH2 0x2774 JUMP JUMPDEST SWAP1 POP SWAP2 SWAP1 POP JUMP JUMPDEST PUSH1 0x0 PUSH2 0x277F DUP3 PUSH2 0x2726 JUMP JUMPDEST SWAP1 POP SWAP2 SWAP1 POP JUMP JUMPDEST PUSH1 0x0 JUMPDEST DUP4 DUP2 LT ISZERO PUSH2 0x27A4 JUMPI DUP1 DUP3 ADD MLOAD DUP2 DUP5 ADD MSTORE PUSH1 0x20 DUP2 ADD SWAP1 POP PUSH2 0x2789 JUMP JUMPDEST DUP4 DUP2 GT ISZERO PUSH2 0x27B3 JUMPI PUSH1 0x0 DUP5 DUP5 ADD MSTORE JUMPDEST POP POP POP POP JUMP JUMPDEST PUSH1 0x0 PUSH2 0x27C4 DUP3 PUSH2 0x2746 JUMP JUMPDEST SWAP2 POP PUSH1 0x0 DUP3 EQ ISZERO PUSH2 0x27D8 JUMPI PUSH2 0x27D7 PUSH2 0x282C JUMP JUMPDEST JUMPDEST PUSH1 0x1 DUP3 SUB SWAP1 POP SWAP2 SWAP1 POP JUMP JUMPDEST PUSH1 0x0 PUSH2 0x27EE DUP3 PUSH2 0x2746 JUMP JUMPDEST SWAP2 POP PUSH32 0xFFFFFFFFFFFFFFFFFFFFFFFFFFFFFFFFFFFFFFFFFFFFFFFFFFFFFFFFFFFFFFFF DUP3 EQ ISZERO PUSH2 0x2821 JUMPI PUSH2 0x2820 PUSH2 0x282C JUMP JUMPDEST JUMPDEST PUSH1 0x1 DUP3 ADD SWAP1 POP SWAP2 SWAP1 POP JUMP JUMPDEST PUSH32 0x4E487B7100000000000000000000000000000000000000000000000000000000 PUSH1 0x0 MSTORE PUSH1 0x11 PUSH1 0x4 MSTORE PUSH1 0x24 PUSH1 0x0 REVERT JUMPDEST PUSH32 0x4E487B7100000000000000000000000000000000000000000000000000000000 PUSH1 0x0 MSTORE PUSH1 0x12 PUSH1 0x4 MSTORE PUSH1 0x24 PUSH1 0x0 REVERT JUMPDEST PUSH32 0x4E487B7100000000000000000000000000000000000000000000000000000000 PUSH1 0x0 MSTORE PUSH1 0x32 PUSH1 0x4 MSTORE PUSH1 0x24 PUSH1 0x0 REVERT JUMPDEST PUSH32 0x4E487B7100000000000000000000000000000000000000000000000000000000 PUSH1 0x0 MSTORE PUSH1 0x41 PUSH1 0x4 MSTORE PUSH1 0x24 PUSH1 0x0 REVERT JUMPDEST PUSH1 0x0 DUP1 REVERT JUMPDEST PUSH1 0x0 PUSH1 0x1F NOT PUSH1 0x1F DUP4 ADD AND SWAP1 POP SWAP2 SWAP1 POP JUMP JUMPDEST PUSH32 0x537472696E67733A20686578206C656E67746820696E73756666696369656E74 PUSH1 0x0 DUP3 ADD MSTORE POP JUMP JUMPDEST PUSH32 0x5061757361626C653A206E6F7420706175736564000000000000000000000000 PUSH1 0x0 DUP3 ADD MSTORE POP JUMP JUMPDEST PUSH32 0x5061757361626C653A2070617573656400000000000000000000000000000000 PUSH1 0x0 DUP3 ADD MSTORE POP JUMP JUMPDEST POP JUMP JUMPDEST PUSH32 0x416363657373436F6E74726F6C3A206163636F756E7420000000000000000000 PUSH1 0x0 DUP3 ADD MSTORE POP JUMP JUMPDEST PUSH32 0x5265656E7472616E637947756172643A207265656E7472616E742063616C6C00 PUSH1 0x0 DUP3 ADD MSTORE POP JUMP JUMPDEST PUSH32 0x206973206D697373696E6720726F6C6520000000000000000000000000000000 PUSH1 0x0 DUP3 ADD MSTORE POP JUMP JUMPDEST PUSH32 0x416363657373436F6E74726F6C3A2063616E206F6E6C792072656E6F756E6365 PUSH1 0x0 DUP3 ADD MSTORE PUSH32 0x20726F6C657320666F722073656C660000000000000000000000000000000000 PUSH1 0x20 DUP3 ADD MSTORE POP JUMP JUMPDEST PUSH2 0x2A4F DUP2 PUSH2 0x26C0 JUMP JUMPDEST DUP2 EQ PUSH2 0x2A5A JUMPI PUSH1 0x0 DUP1 REVERT JUMPDEST POP JUMP JUMPDEST PUSH2 0x2A66 DUP2 PUSH2 0x26F0 JUMP JUMPDEST DUP2 EQ PUSH2 0x2A71 JUMPI PUSH1 0x0 DUP1 REVERT JUMPDEST POP JUMP JUMPDEST PUSH2 0x2A7D DUP2 PUSH2 0x26FA JUMP JUMPDEST DUP2 EQ PUSH2 0x2A88 JUMPI PUSH1 0x0 DUP1 REVERT JUMPDEST POP JUMP JUMPDEST PUSH2 0x2A94 DUP2 PUSH2 0x2746 JUMP JUMPDEST DUP2 EQ PUSH2 0x2A9F JUMPI PUSH1 0x0 DUP1 REVERT JUMPDEST POP JUMP INVALID LOG2 PUSH5 0x6970667358 0x22 SLT KECCAK256 0xDC 0xED 0xE0 EXP PUSH24 0x4E7F3EDC9441BE9EFB4C5EDAF5B553E1EC52CEBAB10BA133 PUSH5 0xFB7264736F PUSH13 0x63430008070033000000000000 "
        },
        "gasEstimates": {
          "creation": {
            "codeDepositCost": "2193600",
            "executionCost": "infinite",
            "totalCost": "infinite"
          },
          "external": {
            "DEFAULT_ADMIN_ROLE()": "402",
            "MANAGER_ROLE()": "417",
            "PAUSER_ROLE()": "395",
            "addStakeHolder(address,uint256)": "infinite",
            "distributeFunds()": "infinite",
            "getRoleAdmin(bytes32)": "infinite",
            "getStakeHolders()": "infinite",
            "grantRole(bytes32,address)": "infinite",
            "hasRole(bytes32,address)": "3273",
            "impact3FundAddress()": "2537",
            "intervalMilliseconds()": "infinite",
            "lastEndOfIntervalTimestamp()": "2474",
            "pause()": "infinite",
            "paused()": "2568",
            "renounceRole(bytes32,address)": "infinite",
            "revokeRole(bytes32,address)": "infinite",
            "setImpact3FundAddress(address)": "infinite",
            "stakeHolderAddresses(uint256)": "4979",
            "stakeHolders(address)": "infinite",
            "supportsInterface(bytes4)": "751",
            "unpause()": "infinite",
            "updateStakeHolder(address,uint256)": "infinite",
            "updateWindowMilliseconds()": "infinite",
            "withinUpdateWindow()": "infinite"
          },
          "internal": {
            "getUpdateWindow()": "infinite",
            "sendValue(address payable,uint256)": "infinite",
            "totalStake(address[] memory)": "infinite"
          }
        },
        "methodIdentifiers": {
          "DEFAULT_ADMIN_ROLE()": "a217fddf",
          "MANAGER_ROLE()": "ec87621c",
          "PAUSER_ROLE()": "e63ab1e9",
          "addStakeHolder(address,uint256)": "e499e2e5",
          "distributeFunds()": "3a6a4d2e",
          "getRoleAdmin(bytes32)": "248a9ca3",
          "getStakeHolders()": "f7fecc27",
          "grantRole(bytes32,address)": "2f2ff15d",
          "hasRole(bytes32,address)": "91d14854",
          "impact3FundAddress()": "3be68630",
          "intervalMilliseconds()": "e48655f9",
          "lastEndOfIntervalTimestamp()": "3c915af7",
          "pause()": "8456cb59",
          "paused()": "5c975abb",
          "renounceRole(bytes32,address)": "36568abe",
          "revokeRole(bytes32,address)": "d547741f",
          "setImpact3FundAddress(address)": "e2adb098",
          "stakeHolderAddresses(uint256)": "a010fd70",
          "stakeHolders(address)": "e26ff10a",
          "supportsInterface(bytes4)": "01ffc9a7",
          "unpause()": "3f4ba83a",
          "updateStakeHolder(address,uint256)": "fabf0b0b",
          "updateWindowMilliseconds()": "21180645",
          "withinUpdateWindow()": "a128f355"
        }
      },
      "storageLayout": {
        "storage": [
          {
            "astId": 410,
            "contract": "contracts/EquityManager.sol:EquityManager",
            "label": "_paused",
            "offset": 0,
            "slot": "0",
            "type": "t_bool"
          },
          {
            "astId": 24,
            "contract": "contracts/EquityManager.sol:EquityManager",
            "label": "_roles",
            "offset": 0,
            "slot": "1",
            "type": "t_mapping(t_bytes32,t_struct(RoleData)19_storage)"
          },
          {
            "astId": 511,
            "contract": "contracts/EquityManager.sol:EquityManager",
            "label": "_status",
            "offset": 0,
            "slot": "2",
            "type": "t_uint256"
          },
          {
            "astId": 1218,
            "contract": "contracts/EquityManager.sol:EquityManager",
            "label": "stakeHolderAddresses",
            "offset": 0,
            "slot": "3",
            "type": "t_array(t_address)dyn_storage"
          },
          {
            "astId": 1223,
            "contract": "contracts/EquityManager.sol:EquityManager",
            "label": "stakeHolders",
            "offset": 0,
            "slot": "4",
            "type": "t_mapping(t_address,t_struct(Stake)1215_storage)"
          },
          {
            "astId": 1225,
            "contract": "contracts/EquityManager.sol:EquityManager",
            "label": "impact3FundAddress",
            "offset": 0,
            "slot": "5",
            "type": "t_address_payable"
          },
          {
            "astId": 1231,
            "contract": "contracts/EquityManager.sol:EquityManager",
            "label": "lastEndOfIntervalTimestamp",
            "offset": 0,
            "slot": "6",
            "type": "t_uint256"
          }
        ],
        "types": {
          "t_address": {
            "encoding": "inplace",
            "label": "address",
            "numberOfBytes": "20"
          },
          "t_address_payable": {
            "encoding": "inplace",
            "label": "address payable",
            "numberOfBytes": "20"
          },
          "t_array(t_address)dyn_storage": {
            "base": "t_address",
            "encoding": "dynamic_array",
            "label": "address[]",
            "numberOfBytes": "32"
          },
          "t_bool": {
            "encoding": "inplace",
            "label": "bool",
            "numberOfBytes": "1"
          },
          "t_bytes32": {
            "encoding": "inplace",
            "label": "bytes32",
            "numberOfBytes": "32"
          },
          "t_mapping(t_address,t_bool)": {
            "encoding": "mapping",
            "key": "t_address",
            "label": "mapping(address => bool)",
            "numberOfBytes": "32",
            "value": "t_bool"
          },
          "t_mapping(t_address,t_struct(Stake)1215_storage)": {
            "encoding": "mapping",
            "key": "t_address",
            "label": "mapping(address => struct EquityManager.Stake)",
            "numberOfBytes": "32",
            "value": "t_struct(Stake)1215_storage"
          },
          "t_mapping(t_bytes32,t_struct(RoleData)19_storage)": {
            "encoding": "mapping",
            "key": "t_bytes32",
            "label": "mapping(bytes32 => struct AccessControl.RoleData)",
            "numberOfBytes": "32",
            "value": "t_struct(RoleData)19_storage"
          },
          "t_struct(RoleData)19_storage": {
            "encoding": "inplace",
            "label": "struct AccessControl.RoleData",
            "members": [
              {
                "astId": 16,
                "contract": "contracts/EquityManager.sol:EquityManager",
                "label": "members",
                "offset": 0,
                "slot": "0",
                "type": "t_mapping(t_address,t_bool)"
              },
              {
                "astId": 18,
                "contract": "contracts/EquityManager.sol:EquityManager",
                "label": "adminRole",
                "offset": 0,
                "slot": "1",
                "type": "t_bytes32"
              }
            ],
            "numberOfBytes": "64"
          },
          "t_struct(Stake)1215_storage": {
            "encoding": "inplace",
            "label": "struct EquityManager.Stake",
            "members": [
              {
                "astId": 1210,
                "contract": "contracts/EquityManager.sol:EquityManager",
                "label": "stakePercentage",
                "offset": 0,
                "slot": "0",
                "type": "t_uint256"
              },
              {
                "astId": 1212,
                "contract": "contracts/EquityManager.sol:EquityManager",
                "label": "fundsLastReceived",
                "offset": 0,
                "slot": "1",
                "type": "t_uint256"
              },
              {
                "astId": 1214,
                "contract": "contracts/EquityManager.sol:EquityManager",
                "label": "equityLastUpdated",
                "offset": 0,
                "slot": "2",
                "type": "t_uint256"
              }
            ],
            "numberOfBytes": "96"
          },
          "t_uint256": {
            "encoding": "inplace",
            "label": "uint256",
            "numberOfBytes": "32"
          }
        }
      },
      "userdoc": {
        "kind": "user",
        "methods": {},
        "version": 1
      }
    }
  }
}