{
  "contracts/StakeManager.sol": {
    "StakeManager": {
      "abi": [
        {
          "inputs": [
            {
              "internalType": "address",
              "name": "_companyTreasury",
              "type": "address"
            },
            {
              "internalType": "uint256",
              "name": "_interval",
              "type": "uint256"
            },
            {
              "internalType": "uint256",
              "name": "_window",
              "type": "uint256"
            }
          ],
          "stateMutability": "nonpayable",
          "type": "constructor"
        },
        {
          "inputs": [],
          "name": "StakeManager__ContractUpdateWindowIsNotOpen",
          "type": "error"
        },
        {
          "inputs": [],
          "name": "StakeManager__ContractUpdateWindowIsOpen",
          "type": "error"
        },
        {
          "inputs": [],
          "name": "StakeManager__InsufficientBalance",
          "type": "error"
        },
        {
          "inputs": [],
          "name": "StakeManager__StakeHolderAlreadyExists",
          "type": "error"
        },
        {
          "inputs": [],
          "name": "StakeManager__StakeHolderDoesNotExist",
          "type": "error"
        },
        {
          "inputs": [],
          "name": "StakeManager__StakeIsZero",
          "type": "error"
        },
        {
          "inputs": [],
          "name": "StakeManager__StakeLimitExceeded",
          "type": "error"
        },
        {
          "inputs": [],
          "name": "StakeManager__TransactionFailed",
          "type": "error"
        },
        {
          "anonymous": false,
          "inputs": [
            {
              "indexed": true,
              "internalType": "address",
              "name": "holder",
              "type": "address"
            },
            {
              "indexed": false,
              "internalType": "uint256",
              "name": "equityTokens",
              "type": "uint256"
            },
            {
              "indexed": false,
              "internalType": "uint256",
              "name": "timeAdded",
              "type": "uint256"
            }
          ],
          "name": "BeneficiariesAdded",
          "type": "event"
        },
        {
          "anonymous": false,
          "inputs": [
            {
              "indexed": true,
              "internalType": "address",
              "name": "holder",
              "type": "address"
            },
            {
              "indexed": false,
              "internalType": "uint256",
              "name": "equityTokens",
              "type": "uint256"
            },
            {
              "indexed": false,
              "internalType": "uint256",
              "name": "timeAdded",
              "type": "uint256"
            }
          ],
          "name": "BeneficiaryStakeIncreased",
          "type": "event"
        },
        {
          "anonymous": false,
          "inputs": [
            {
              "indexed": true,
              "internalType": "address",
              "name": "beneficiary",
              "type": "address"
            },
            {
              "indexed": false,
              "internalType": "uint256",
              "name": "amount",
              "type": "uint256"
            },
            {
              "indexed": false,
              "internalType": "uint256",
              "name": "time_distributed",
              "type": "uint256"
            }
          ],
          "name": "FundsDistributed",
          "type": "event"
        },
        {
          "anonymous": false,
          "inputs": [
            {
              "indexed": true,
              "internalType": "address",
              "name": "addr",
              "type": "address"
            },
            {
              "indexed": false,
              "internalType": "uint256",
              "name": "amount",
              "type": "uint256"
            }
          ],
          "name": "FundsReceived",
          "type": "event"
        },
        {
          "anonymous": false,
          "inputs": [
            {
              "indexed": false,
              "internalType": "address",
              "name": "account",
              "type": "address"
            }
          ],
          "name": "Paused",
          "type": "event"
        },
        {
          "anonymous": false,
          "inputs": [
            {
              "indexed": true,
              "internalType": "bytes32",
              "name": "role",
              "type": "bytes32"
            },
            {
              "indexed": true,
              "internalType": "bytes32",
              "name": "previousAdminRole",
              "type": "bytes32"
            },
            {
              "indexed": true,
              "internalType": "bytes32",
              "name": "newAdminRole",
              "type": "bytes32"
            }
          ],
          "name": "RoleAdminChanged",
          "type": "event"
        },
        {
          "anonymous": false,
          "inputs": [
            {
              "indexed": true,
              "internalType": "bytes32",
              "name": "role",
              "type": "bytes32"
            },
            {
              "indexed": true,
              "internalType": "address",
              "name": "account",
              "type": "address"
            },
            {
              "indexed": true,
              "internalType": "address",
              "name": "sender",
              "type": "address"
            }
          ],
          "name": "RoleGranted",
          "type": "event"
        },
        {
          "anonymous": false,
          "inputs": [
            {
              "indexed": true,
              "internalType": "bytes32",
              "name": "role",
              "type": "bytes32"
            },
            {
              "indexed": true,
              "internalType": "address",
              "name": "account",
              "type": "address"
            },
            {
              "indexed": true,
              "internalType": "address",
              "name": "sender",
              "type": "address"
            }
          ],
          "name": "RoleRevoked",
          "type": "event"
        },
        {
          "anonymous": false,
          "inputs": [
            {
              "indexed": false,
              "internalType": "address",
              "name": "account",
              "type": "address"
            }
          ],
          "name": "Unpaused",
          "type": "event"
        },
        {
          "inputs": [],
          "name": "DEFAULT_ADMIN_ROLE",
          "outputs": [
            {
              "internalType": "bytes32",
              "name": "",
              "type": "bytes32"
            }
          ],
          "stateMutability": "view",
          "type": "function"
        },
        {
          "inputs": [],
          "name": "MANAGER_ROLE",
          "outputs": [
            {
              "internalType": "bytes32",
              "name": "",
              "type": "bytes32"
            }
          ],
          "stateMutability": "view",
          "type": "function"
        },
        {
          "inputs": [],
          "name": "PAUSER_ROLE",
          "outputs": [
            {
              "internalType": "bytes32",
              "name": "",
              "type": "bytes32"
            }
          ],
          "stateMutability": "view",
          "type": "function"
        },
        {
          "inputs": [
            {
              "internalType": "address",
              "name": "_holder",
              "type": "address"
            },
            {
              "internalType": "uint256",
              "name": "_initialStake",
              "type": "uint256"
            }
          ],
          "name": "addBeneficiary",
          "outputs": [],
          "stateMutability": "nonpayable",
          "type": "function"
        },
        {
          "inputs": [
            {
              "internalType": "address",
              "name": "",
              "type": "address"
            }
          ],
          "name": "beneficiaries",
          "outputs": [
            {
              "internalType": "uint256",
              "name": "equityTokens",
              "type": "uint256"
            },
            {
              "internalType": "uint256",
              "name": "fundsLastReceived",
              "type": "uint256"
            },
            {
              "internalType": "uint256",
              "name": "equityLastUpdated",
              "type": "uint256"
            }
          ],
          "stateMutability": "view",
          "type": "function"
        },
        {
          "inputs": [
            {
              "internalType": "uint256",
              "name": "",
              "type": "uint256"
            }
          ],
          "name": "beneficiariesAddresses",
          "outputs": [
            {
              "internalType": "address",
              "name": "",
              "type": "address"
            }
          ],
          "stateMutability": "view",
          "type": "function"
        },
        {
          "inputs": [],
          "name": "companyTreasuryAddress",
          "outputs": [
            {
              "internalType": "address payable",
              "name": "",
              "type": "address"
            }
          ],
          "stateMutability": "view",
          "type": "function"
        },
        {
          "inputs": [],
          "name": "currentTotalStake",
          "outputs": [
            {
              "internalType": "uint256",
              "name": "",
              "type": "uint256"
            }
          ],
          "stateMutability": "view",
          "type": "function"
        },
        {
          "inputs": [],
          "name": "distributeFunds",
          "outputs": [],
          "stateMutability": "nonpayable",
          "type": "function"
        },
        {
          "inputs": [],
          "name": "getBeneficiariesAddresses",
          "outputs": [
            {
              "internalType": "address[]",
              "name": "_holders",
              "type": "address[]"
            },
            {
              "internalType": "uint256[]",
              "name": "_equityTokens",
              "type": "uint256[]"
            }
          ],
          "stateMutability": "view",
          "type": "function"
        },
        {
          "inputs": [
            {
              "internalType": "bytes32",
              "name": "role",
              "type": "bytes32"
            }
          ],
          "name": "getRoleAdmin",
          "outputs": [
            {
              "internalType": "bytes32",
              "name": "",
              "type": "bytes32"
            }
          ],
          "stateMutability": "view",
          "type": "function"
        },
        {
          "inputs": [],
          "name": "getUpdateWindow",
          "outputs": [
            {
              "internalType": "uint256",
              "name": "",
              "type": "uint256"
            },
            {
              "internalType": "uint256",
              "name": "",
              "type": "uint256"
            }
          ],
          "stateMutability": "view",
          "type": "function"
        },
        {
          "inputs": [
            {
              "internalType": "bytes32",
              "name": "role",
              "type": "bytes32"
            },
            {
              "internalType": "address",
              "name": "account",
              "type": "address"
            }
          ],
          "name": "grantRole",
          "outputs": [],
          "stateMutability": "nonpayable",
          "type": "function"
        },
        {
          "inputs": [
            {
              "internalType": "bytes32",
              "name": "role",
              "type": "bytes32"
            },
            {
              "internalType": "address",
              "name": "account",
              "type": "address"
            }
          ],
          "name": "hasRole",
          "outputs": [
            {
              "internalType": "bool",
              "name": "",
              "type": "bool"
            }
          ],
          "stateMutability": "view",
          "type": "function"
        },
        {
          "inputs": [],
          "name": "intervalSeconds",
          "outputs": [
            {
              "internalType": "uint256",
              "name": "",
              "type": "uint256"
            }
          ],
          "stateMutability": "view",
          "type": "function"
        },
        {
          "inputs": [
            {
              "internalType": "address",
              "name": "_holder",
              "type": "address"
            }
          ],
          "name": "isABeneficiary",
          "outputs": [
            {
              "internalType": "bool",
              "name": "",
              "type": "bool"
            }
          ],
          "stateMutability": "view",
          "type": "function"
        },
        {
          "inputs": [],
          "name": "lastEndOfIntervalTimestamp",
          "outputs": [
            {
              "internalType": "uint256",
              "name": "",
              "type": "uint256"
            }
          ],
          "stateMutability": "view",
          "type": "function"
        },
        {
          "inputs": [],
          "name": "pause",
          "outputs": [],
          "stateMutability": "nonpayable",
          "type": "function"
        },
        {
          "inputs": [],
          "name": "paused",
          "outputs": [
            {
              "internalType": "bool",
              "name": "",
              "type": "bool"
            }
          ],
          "stateMutability": "view",
          "type": "function"
        },
        {
          "inputs": [
            {
              "internalType": "bytes32",
              "name": "role",
              "type": "bytes32"
            },
            {
              "internalType": "address",
              "name": "account",
              "type": "address"
            }
          ],
          "name": "renounceRole",
          "outputs": [],
          "stateMutability": "nonpayable",
          "type": "function"
        },
        {
          "inputs": [
            {
              "internalType": "bytes32",
              "name": "role",
              "type": "bytes32"
            },
            {
              "internalType": "address",
              "name": "account",
              "type": "address"
            }
          ],
          "name": "revokeRole",
          "outputs": [],
          "stateMutability": "nonpayable",
          "type": "function"
        },
        {
          "inputs": [
            {
              "internalType": "address",
              "name": "fund",
              "type": "address"
            }
          ],
          "name": "setCompanyTreasuryAddress",
          "outputs": [],
          "stateMutability": "nonpayable",
          "type": "function"
        },
        {
          "inputs": [
            {
              "internalType": "bytes4",
              "name": "interfaceId",
              "type": "bytes4"
            }
          ],
          "name": "supportsInterface",
          "outputs": [
            {
              "internalType": "bool",
              "name": "",
              "type": "bool"
            }
          ],
          "stateMutability": "view",
          "type": "function"
        },
        {
          "inputs": [],
          "name": "unpause",
          "outputs": [],
          "stateMutability": "nonpayable",
          "type": "function"
        },
        {
          "inputs": [
            {
              "internalType": "address",
              "name": "_holder",
              "type": "address"
            },
            {
              "internalType": "uint256",
              "name": "_stakeIncrease",
              "type": "uint256"
            }
          ],
          "name": "updateBeneficiariesStake",
          "outputs": [],
          "stateMutability": "nonpayable",
          "type": "function"
        },
        {
          "inputs": [],
          "name": "updateWindowSeconds",
          "outputs": [
            {
              "internalType": "uint256",
              "name": "",
              "type": "uint256"
            }
          ],
          "stateMutability": "view",
          "type": "function"
        },
        {
          "inputs": [],
          "name": "withinUpdateWindow",
          "outputs": [
            {
              "internalType": "bool",
              "name": "",
              "type": "bool"
            }
          ],
          "stateMutability": "view",
          "type": "function"
        },
        {
          "stateMutability": "payable",
          "type": "receive"
        }
      ],
      "devdoc": {
        "custom:security-contact": "abolaji.adedeji@gmail.com",
        "details": "There are a total of 1,000,000,000 unit of shares.",
        "kind": "dev",
        "methods": {
          "addBeneficiary(address,uint256)": {
            "params": {
              "_holder": "The address of the existing beneficiary",
              "_initialStake": "The amount to initialise the preportion of the stake"
            }
          },
          "getBeneficiariesAddresses()": {
            "returns": {
              "_equityTokens": "An array of equity tokens",
              "_holders": "An array of addresses of the beneficiaries"
            }
          },
          "getRoleAdmin(bytes32)": {
            "details": "Returns the admin role that controls `role`. See {grantRole} and {revokeRole}. To change a role's admin, use {_setRoleAdmin}."
          },
          "getUpdateWindow()": {
            "returns": {
              "_0": "openTimestamp The opening timestamp of the update window",
              "_1": "closeTimestamp The closing timestamp of the update window"
            }
          },
          "grantRole(bytes32,address)": {
            "details": "Grants `role` to `account`. If `account` had not been already granted `role`, emits a {RoleGranted} event. Requirements: - the caller must have ``role``'s admin role. May emit a {RoleGranted} event."
          },
          "hasRole(bytes32,address)": {
            "details": "Returns `true` if `account` has been granted `role`."
          },
          "isABeneficiary(address)": {
            "params": {
              "_holder": "The address to check"
            },
            "returns": {
              "_0": "isABeneficiary whether or not the address is a beneficiary"
            }
          },
          "paused()": {
            "details": "Returns true if the contract is paused, and false otherwise."
          },
          "renounceRole(bytes32,address)": {
            "details": "Revokes `role` from the calling account. Roles are often managed via {grantRole} and {revokeRole}: this function's purpose is to provide a mechanism for accounts to lose their privileges if they are compromised (such as when a trusted device is misplaced). If the calling account had been revoked `role`, emits a {RoleRevoked} event. Requirements: - the caller must be `account`. May emit a {RoleRevoked} event."
          },
          "revokeRole(bytes32,address)": {
            "details": "Revokes `role` from `account`. If `account` had been granted `role`, emits a {RoleRevoked} event. Requirements: - the caller must have ``role``'s admin role. May emit a {RoleRevoked} event."
          },
          "setCompanyTreasuryAddress(address)": {
            "params": {
              "fund": "The new address of the Impact 3 fund"
            }
          },
          "supportsInterface(bytes4)": {
            "details": "See {IERC165-supportsInterface}."
          },
          "updateBeneficiariesStake(address,uint256)": {
            "params": {
              "_holder": "The address of the existing beneficiary",
              "_stakeIncrease": "The amount to increase the equity tokens by"
            }
          },
          "withinUpdateWindow()": {
            "returns": {
              "_0": "isOpen Whether the window to update or add new beneficiaries is open"
            }
          }
        },
        "title": "An Ethereum Token Purse to distribute funds to beneficiaries.",
        "version": 1
      },
      "evm": {
        "bytecode": {
          "linkReferences": {},
          "object": "60e0604052633b9aca0060c09081525060006007553480156200002157600080fd5b50604051620057b6380380620057b6833981810160405281019062000047919062000a80565b60008060006101000a81548160ff02191690831515021790555060016002819055506200009d7ff182493db94e5653be3a2ffbb02fda67e9578c6e0e6aa3835173062875fcf3f160001b6200041e60201b60201c565b620000d17f2a771f2a1f972bf0dcb56d91b7287bfa4d5136688af905f961486b0049083cfd60001b6200041e60201b60201c565b620001057f60a8e4eeec738dd182f503d9166df0772d727beab4fe44c3cb801113b1830edb60001b6200041e60201b60201c565b6200011a6000801b336200042160201b60201c565b6200014e7f69a8c14090578493fc57bbf4e1b157c7c6d6ef1ddfbba1e8799a17b1f75ebbbe60001b6200041e60201b60201c565b620001827f5d3156010b0aa041e50c216b597d3b204ee63f284e20b412906f918c366c81be60001b6200041e60201b60201c565b620001b47f65d7a28e3265b37a6474929f336521b332c1681b933f6cb9f3376673440d862a336200042160201b60201c565b620001e87f94ed3334f5b3e19e87ee096c3e852228f55ade5b254a35593649b8d5204c289b60001b6200041e60201b60201c565b6200021c7fe4758eccc0aeab8597c42693fab131e81e2485f5cd0f0de929681d905bc3052760001b6200041e60201b60201c565b6200024e7f241ecf16d79d0f8dbfb92cbc07fe17840425976cf0667f022fe9877caa831b08336200042160201b60201c565b620002827f4c38067925a977f371f0c24469da966461ca89d07b76060ee37be4ae03c27d3c60001b6200041e60201b60201c565b620002b67fa3116f5e2e251ba5ab54a68d88b905edafabbcf527df9750396b901f8ede094760001b6200041e60201b60201c565b620002c7836200051260201b60201c565b620002fb7ff5e7551568c86059120a23ffc95f17b03604fd9ac55a44e5d7cb2409d4eaab6360001b6200041e60201b60201c565b6200032f7f7e6767e6d1fac8994ec49fa2636ba2fdf0feec7c216f305c99815cb1a03ae23560001b6200041e60201b60201c565b81608081815250506200036b7f573a565c96959a3e4528c13a04414d4dca86e44215396b4ad09d129f79b1456660001b6200041e60201b60201c565b6200039f7fe275632292a9e2f62d075700d2a1f3f858dc5521e02088400797c53e0cee607260001b6200041e60201b60201c565b8060a08181525050620003da7ee1cba2189c5d6bb46f328c654ea63cf75a9f5af47515831f54da0ce699fe8c60001b6200041e60201b60201c565b6200040e7fd94706aec6f987c449f7b1c40aaf414ae544a4abf2da51ee1ca4b954525bb94460001b6200041e60201b60201c565b4260068190555050505062000e87565b50565b6200043382826200062560201b60201c565b6200050e57600180600084815260200190815260200160002060000160008373ffffffffffffffffffffffffffffffffffffffff1673ffffffffffffffffffffffffffffffffffffffff16815260200190815260200160002060006101000a81548160ff021916908315150217905550620004b36200069060201b60201c565b73ffffffffffffffffffffffffffffffffffffffff168173ffffffffffffffffffffffffffffffffffffffff16837f2f8788117e7eff1d82e926ec794901d17c78024a50270940304540a733656f0d60405160405180910390a45b5050565b7f241ecf16d79d0f8dbfb92cbc07fe17840425976cf0667f022fe9877caa831b0862000544816200069860201b60201c565b620005787fa6fd0f9729002ce705e63217fcd3109fa687e688c6d647b956aef111d600478c60001b6200041e60201b60201c565b620005ac7f5df2a55776ab327fbe1590f6778ca126c8b91f2d49a19d1a6ae75ccd6039e1a060001b6200041e60201b60201c565b620005e07f8fc78b6d604111772ecd41f2bd6b2bcd7d56e21b64447a038bc488d9ea6c6beb60001b6200041e60201b60201c565b81600560006101000a81548173ffffffffffffffffffffffffffffffffffffffff021916908373ffffffffffffffffffffffffffffffffffffffff1602179055505050565b60006001600084815260200190815260200160002060000160008373ffffffffffffffffffffffffffffffffffffffff1673ffffffffffffffffffffffffffffffffffffffff16815260200190815260200160002060009054906101000a900460ff16905092915050565b600033905090565b620006b981620006ad6200069060201b60201c565b620006bc60201b60201c565b50565b620006ce82826200062560201b60201c565b6200077c57620007018173ffffffffffffffffffffffffffffffffffffffff1660146200078060201b620033351760201c565b6200071c8360001c60206200078060201b620033351760201c565b6040516020016200072f92919062000bf5565b6040516020818303038152906040526040517f08c379a000000000000000000000000000000000000000000000000000000000815260040162000773919062000c9a565b60405180910390fd5b5050565b60606000600283600262000795919062000ced565b620007a1919062000d4e565b67ffffffffffffffff811115620007bd57620007bc62000d89565b5b6040519080825280601f01601f191660200182016040528015620007f05781602001600182028036833780820191505090505b5090507f3000000000000000000000000000000000000000000000000000000000000000816000815181106200082b576200082a62000db8565b5b60200101907effffffffffffffffffffffffffffffffffffffffffffffffffffffffffffff1916908160001a9053507f78000000000000000000000000000000000000000000000000000000000000008160018151811062000892576200089162000db8565b5b60200101907effffffffffffffffffffffffffffffffffffffffffffffffffffffffffffff1916908160001a90535060006001846002620008d4919062000ced565b620008e0919062000d4e565b90505b60018111156200098a577f3031323334353637383961626364656600000000000000000000000000000000600f86166010811062000926576200092562000db8565b5b1a60f81b82828151811062000940576200093f62000db8565b5b60200101907effffffffffffffffffffffffffffffffffffffffffffffffffffffffffffff1916908160001a905350600485901c945080620009829062000de7565b9050620008e3565b5060008414620009d1576040517f08c379a0000000000000000000000000000000000000000000000000000000008152600401620009c89062000e65565b60405180910390fd5b8091505092915050565b600080fd5b600073ffffffffffffffffffffffffffffffffffffffff82169050919050565b600062000a0d82620009e0565b9050919050565b62000a1f8162000a00565b811462000a2b57600080fd5b50565b60008151905062000a3f8162000a14565b92915050565b6000819050919050565b62000a5a8162000a45565b811462000a6657600080fd5b50565b60008151905062000a7a8162000a4f565b92915050565b60008060006060848603121562000a9c5762000a9b620009db565b5b600062000aac8682870162000a2e565b935050602062000abf8682870162000a69565b925050604062000ad28682870162000a69565b9150509250925092565b600081905092915050565b7f416363657373436f6e74726f6c3a206163636f756e7420000000000000000000600082015250565b600062000b1f60178362000adc565b915062000b2c8262000ae7565b601782019050919050565b600081519050919050565b60005b8381101562000b6257808201518184015260208101905062000b45565b60008484015250505050565b600062000b7b8262000b37565b62000b87818562000adc565b935062000b9981856020860162000b42565b80840191505092915050565b7f206973206d697373696e6720726f6c6520000000000000000000000000000000600082015250565b600062000bdd60118362000adc565b915062000bea8262000ba5565b601182019050919050565b600062000c028262000b10565b915062000c10828562000b6e565b915062000c1d8262000bce565b915062000c2b828462000b6e565b91508190509392505050565b600082825260208201905092915050565b6000601f19601f8301169050919050565b600062000c668262000b37565b62000c72818562000c37565b935062000c8481856020860162000b42565b62000c8f8162000c48565b840191505092915050565b6000602082019050818103600083015262000cb6818462000c59565b905092915050565b7f4e487b7100000000000000000000000000000000000000000000000000000000600052601160045260246000fd5b600062000cfa8262000a45565b915062000d078362000a45565b9250817fffffffffffffffffffffffffffffffffffffffffffffffffffffffffffffffff048311821515161562000d435762000d4262000cbe565b5b828202905092915050565b600062000d5b8262000a45565b915062000d688362000a45565b925082820190508082111562000d835762000d8262000cbe565b5b92915050565b7f4e487b7100000000000000000000000000000000000000000000000000000000600052604160045260246000fd5b7f4e487b7100000000000000000000000000000000000000000000000000000000600052603260045260246000fd5b600062000df48262000a45565b91506000820362000e0a5762000e0962000cbe565b5b600182039050919050565b7f537472696e67733a20686578206c656e67746820696e73756666696369656e74600082015250565b600062000e4d60208362000c37565b915062000e5a8262000e15565b602082019050919050565b6000602082019050818103600083015262000e808162000e3e565b9050919050565b60805160a05160c0516148d562000ee160003960008181610ad7015281816116a40152612570015260008181611ee3015261307a015260008181611ae901528181611e5901528181611f040152611fb801526148d56000f3fe6080604052600436106101a05760003560e01c806385d923ae116100ec578063c8f29b041161008a578063d547741f11610064578063d547741f1461061b578063d9724ffb14610644578063e63ab1e914610681578063ec87621c146106ac57610221565b8063c8f29b0414610588578063ce4843e9146105b3578063d2414958146105de57610221565b806396074e70116100c657806396074e70146104dd578063a128f35514610506578063a217fddf14610531578063be8431f91461055c57610221565b806385d923ae1461044c57806391d14854146104755780639426d555146104b257610221565b80633a6a4d2e11610159578063408a355011610133578063408a3550146103b35780635c975abb146103df5780637d1cd04f1461040a5780638456cb591461043557610221565b80633a6a4d2e1461035a5780633c915af7146103715780633f4ba83a1461039c57610221565b8063015677391461022657806301ffc9a7146102655780630505a00f146102a2578063248a9ca3146102cb5780632f2ff15d1461030857806336568abe1461033157610221565b36610221576101d17f4540d8bae389d309ade9c3688b9d016a34934fd862753aa16b2ef0bbd7b79da060001b6106d7565b3373ffffffffffffffffffffffffffffffffffffffff167f8e47b87b0ef542cdfa1659c551d88bad38aa7f452d2bbb349ab7530dfec8be8f346040516102179190613d26565b60405180910390a2005b600080fd5b34801561023257600080fd5b5061024d60048036038101906102489190613da4565b6106da565b60405161025c93929190613dd1565b60405180910390f35b34801561027157600080fd5b5061028c60048036038101906102879190613e60565b610704565b6040516102999190613ea8565b60405180910390f35b3480156102ae57600080fd5b506102c960048036038101906102c49190613eef565b61077e565b005b3480156102d757600080fd5b506102f260048036038101906102ed9190613f65565b61101a565b6040516102ff9190613fa1565b60405180910390f35b34801561031457600080fd5b5061032f600480360381019061032a9190613fbc565b61103a565b005b34801561033d57600080fd5b5061035860048036038101906103539190613fbc565b61105b565b005b34801561036657600080fd5b5061036f6110de565b005b34801561037d57600080fd5b50610386611d0f565b6040516103939190613d26565b60405180910390f35b3480156103a857600080fd5b506103b1611d15565b005b3480156103bf57600080fd5b506103c8611dce565b6040516103d6929190613ffc565b60405180910390f35b3480156103eb57600080fd5b506103f4611fa0565b6040516104019190613ea8565b60405180910390f35b34801561041657600080fd5b5061041f611fb6565b60405161042c9190613d26565b60405180910390f35b34801561044157600080fd5b5061044a611fda565b005b34801561045857600080fd5b50610473600480360381019061046e9190613da4565b612093565b005b34801561048157600080fd5b5061049c60048036038101906104979190613fbc565b612186565b6040516104a99190613ea8565b60405180910390f35b3480156104be57600080fd5b506104c76121f1565b6040516104d49190614046565b60405180910390f35b3480156104e957600080fd5b5061050460048036038101906104ff9190613eef565b612217565b005b34801561051257600080fd5b5061051b612a51565b6040516105289190613ea8565b60405180910390f35b34801561053d57600080fd5b50610546612c6f565b6040516105539190613fa1565b60405180910390f35b34801561056857600080fd5b50610571612c76565b60405161057f9291906141dd565b60405180910390f35b34801561059457600080fd5b5061059d613078565b6040516105aa9190613d26565b60405180910390f35b3480156105bf57600080fd5b506105c861309c565b6040516105d59190613d26565b60405180910390f35b3480156105ea57600080fd5b5061060560048036038101906106009190613da4565b6130a2565b6040516106129190613ea8565b60405180910390f35b34801561062757600080fd5b50610642600480360381019061063d9190613fbc565b61328d565b005b34801561065057600080fd5b5061066b60048036038101906106669190614214565b6132ae565b6040516106789190614250565b60405180910390f35b34801561068d57600080fd5b506106966132ed565b6040516106a39190613fa1565b60405180910390f35b3480156106b857600080fd5b506106c1613311565b6040516106ce9190613fa1565b60405180910390f35b50565b60046020528060005260406000206000915090508060000154908060010154908060020154905083565b60007f7965db0b000000000000000000000000000000000000000000000000000000007bffffffffffffffffffffffffffffffffffffffffffffffffffffffff1916827bffffffffffffffffffffffffffffffffffffffffffffffffffffffff19161480610777575061077682613571565b5b9050919050565b6107866135db565b7f241ecf16d79d0f8dbfb92cbc07fe17840425976cf0667f022fe9877caa831b086107b081613625565b6107dc7fa862ea444d827995698c8fb7a17c618de368e62f2cf83836a035fc8f1e6acf9a60001b6106d7565b6108087fca580661de4ab28d4bb70b0500927aa19217997720cdfbf73b44d61b93677ec860001b6106d7565b6108347f0c0e68b8971ee97d89e35a53c0ab68bfb92a0adeaca0504db2d73e2e9e691eb960001b6106d7565b61083c612a51565b6108ca5761086c7f4d119d81d5e32cf5b00659924021368c06a5a143e49f9b3accfa865019c9acdb60001b6106d7565b6108987f7a9328c8cfa8d5a490c772bae7b0e31a5bf91b741dc272e54379707a96d3625460001b6106d7565b6040517f9389fad000000000000000000000000000000000000000000000000000000000815260040160405180910390fd5b6108f67f30142fb03f53b37adc115d480e34c5f6d08b269931dda8b1b87a639fd390dd8460001b6106d7565b6109227f020310a74746d54a2f84e2e544daaea7674ad70c66e011125733709d5f0505e160001b6106d7565b61094e7f3b4461bc67d455f0fcd62407213c97fcf563b4d4968fd4400a88ace2a6299f8e60001b6106d7565b600082116109e0576109827f0324ae18ec0878ea15b471b74bad14b040131b8a87134c1524b86b70b26f0de960001b6106d7565b6109ae7f534978e5ff2388beca36ee2bb0dcf60895596e73e6fa48ce11f429fef6794d5660001b6106d7565b6040517f1d4227f500000000000000000000000000000000000000000000000000000000815260040160405180910390fd5b610a0c7f6d314e3fca31a5a988c12ea167dd9cd05f93dabe2e0c8be40fbbd5c4f765773e60001b6106d7565b610a387ff9b6bdc1f03ce4e57c9c74ed727f3eedaf74e72a35104385c8a996cf7ad6d9a460001b6106d7565b610a647fa5c7a43eea3ccbec6beaf073a0afab591a00933a64c96c4fd1336bd642ea9d8560001b6106d7565b6000610a7b8360075461363990919063ffffffff16565b9050610aa97fa2eee087abfb748156727f2a53003a37fcbd3fbaf9b8a8b79f62bdd360f7d25c60001b6106d7565b610ad57f5415cfea7ebf834f5dbccc95170f0960eed93dbdea6a816f31c2d468d6336fed60001b6106d7565b7f0000000000000000000000000000000000000000000000000000000000000000811115610b8757610b297fdeb08287ccf32662977792d77dc6dc7437ff64eb5466056a0ccfe230d256579a60001b6106d7565b610b557f37c45c003d7721499c0c693068f83b5cc751a4fde6ca7e8008a9b5ecc8169c5960001b6106d7565b6040517f80a4d17800000000000000000000000000000000000000000000000000000000815260040160405180910390fd5b610bb37fa2752f8ce38bc778a9a5548c1eb070f67ee2f581262eeca46bc98ac27c7a4fd960001b6106d7565b610bdf7f6a5038d4baf8548fe30ce41dfad3778f0b7b4d777804422d8176a810cdfec67560001b6106d7565b610c0b7f874a24e5f717ddd99a9adbd1af5c5da3bc63a96b5c669179d46dfc279ae0050160001b6106d7565b6000600460008673ffffffffffffffffffffffffffffffffffffffff1673ffffffffffffffffffffffffffffffffffffffff1681526020019081526020016000206000015411610cdf57610c817f724e2847160c2c298425ad2c42170599faabcec2c72f27849dc9e2e75c1c0ca360001b6106d7565b610cad7f25fee7d1db0f0f9c479b8fb895ed86c932199ed2467e9100ad822ee64d856db560001b6106d7565b6040517fc8a988fc00000000000000000000000000000000000000000000000000000000815260040160405180910390fd5b610d0b7fd4a07cc078364b895a2fe95516ae6e170b586ac66a0faa2a0f062a103226e51960001b6106d7565b610d377fb0dd71e8605cb4402aa6ab3ec6c7f79de85a6e81a209fcc01b623f089adb342e60001b6106d7565b610d637f96deba15470e366304d5ab5d993b96d85c5d07c3adb5bb7cca2de86e13f4ce8b60001b6106d7565b6000610dba84600460008873ffffffffffffffffffffffffffffffffffffffff1673ffffffffffffffffffffffffffffffffffffffff1681526020019081526020016000206000015461363990919063ffffffff16565b9050610de87f68838f062eba4208f0dadc8e1b3e99c6a41fc3c692798e1d11c0c7b0384d496c60001b6106d7565b610e147f20ab0a33f10fd8d5a6966bcfc6fc3d127addd57a3d8d1a0e31e43ec092f6d95a60001b6106d7565b80600460008773ffffffffffffffffffffffffffffffffffffffff1673ffffffffffffffffffffffffffffffffffffffff16815260200190815260200160002060000181905550610e877f42410a0ede1f22cbdb4d3e7844920f8b1352893e194d6c79f9b9561a6640a26960001b6106d7565b610eb37fd33857ff2454c579dbfaf067db19f0d141cea19613a8475003bddfd74ebeda3960001b6106d7565b42600460008773ffffffffffffffffffffffffffffffffffffffff1673ffffffffffffffffffffffffffffffffffffffff16815260200190815260200160002060020181905550610f267fbc3fe3563337fda6f91476c9ed8188a622740fb8bfddabc36daca10ab572358760001b6106d7565b610f527f0ede37b386e61234d9a69fd898f4998507080fb70c1a08991092556489afb64f60001b6106d7565b8360076000828254610f64919061429a565b92505081905550610f977f942cb9d9cb351bc531a2a091c3acc9071347005b062d0f84c35bee939ab706f860001b6106d7565b610fc37fe4026a45ea5d545e9852e1b822e436d157f418b423c18634078a07544f70e2d460001b6106d7565b8473ffffffffffffffffffffffffffffffffffffffff167ff1b87f4a688417d87b0dd9c0569040438160e0cd40b36d472c0f65069682e990854260405161100b929190613ffc565b60405180910390a25050505050565b600060016000838152602001908152602001600020600101549050919050565b6110438261101a565b61104c81613625565b611056838361364f565b505050565b61106361372f565b73ffffffffffffffffffffffffffffffffffffffff168173ffffffffffffffffffffffffffffffffffffffff16146110d0576040517f08c379a00000000000000000000000000000000000000000000000000000000081526004016110c790614351565b60405180910390fd5b6110da8282613737565b5050565b6110e66135db565b600280540361112a576040517f08c379a0000000000000000000000000000000000000000000000000000000008152600401611121906143bd565b60405180910390fd5b6002808190555061115d7fd00cffef5c1f70270dda294d68c061023500fdc0ff21f189eeb48b4b20805aaa60001b6106d7565b6111897f93b7d139a0310d32bbd97278a31ff7a7d3bcf90ccf8d1a42fccd123ba3d12c4960001b6106d7565b6111b57f3273341d4f1cb9f590f42e30aaecf7a2c6867ba7ed738c230634b3d03809ae9260001b6106d7565b6111bd612a51565b1561124c576111ee7fc7260726d2bc3ce882416723870f5cb09f5e66d0ed92031c0d749d41d5b1123960001b6106d7565b61121a7fc4e3bb2546ce27a7f8867c3bf153a4e10c62b2635565960803cb05b9ddadbd5560001b6106d7565b6040517f05d27f9800000000000000000000000000000000000000000000000000000000815260040160405180910390fd5b6112787f2db8c7be0a908a98ac5bab4ead0871dc6e9618622c09eb9badd45fc673a78d7f60001b6106d7565b6112a47f97329f79d08e64eaeb88e83be078ce324b0a171ef0532917be14db2a101dfcab60001b6106d7565b6112d07f450cef2f6e8b70c25bd38683f77ed98df8ce826ff5e74241648bc84eb78b345e60001b6106d7565b60004790506113017ffb71c9710bda4fec3900cc607ec6425609525d51f35273f3b22e54e7f64c418760001b6106d7565b61132d7f48e9abc426cab93e13c849d97112c350c73d45fbc13411e6ba667527a956154260001b6106d7565b600061135b7f9be8337581352348043b1fba6dbb584bd6e84cf003dceaff26209edb7fdddb1560001b6106d7565b6113877f4db0691e5893af8c2a6fadfb3959ea6ca80abddc424bb91391644449f8a9df8060001b6106d7565b60008203611419576113bb7fce9bd06725908b5d3cdd0c398fc7e01d72db1644297767eea2d36b005d2d4f1960001b6106d7565b6113e77f98394025c34c87ebede8ff2db467f26cec95089f2d5e43ef5b339f96058e78f860001b6106d7565b6040517f4890cfae00000000000000000000000000000000000000000000000000000000815260040160405180910390fd5b6114457f318581a61df607f4ee082d391456ca225a953f282bef5c25ea612c127ca60cbd60001b6106d7565b6114717f3338d2197aa8b06bfd122f7a7e3db4701aa3078b5d6efb63baf93a6e2c40cfb560001b6106d7565b61149d7f9922b15aa235535da1888a51893b34e1b0908bcf876ba7bfd8c46944c1de80aa60001b6106d7565b6000600380548060200260200160405190810160405280929190818152602001828054801561152157602002820191906000526020600020905b8160009054906101000a900473ffffffffffffffffffffffffffffffffffffffff1673ffffffffffffffffffffffffffffffffffffffff16815260200190600101908083116114d7575b505050505090506115547f99fb0d2c85701f8103d43b00411bc052b20af321c01fc177a902e75b653c277560001b6106d7565b6115807fe0058f8fc304ff69ea181c7a5222520a7c241d5a824eb9d5760c1ea838c62c4f60001b6106d7565b60005b815181101561199e576115b87f41a4fbc3ef369a44f47f423bc6340705c1fe050feef0fffd248c9af72fbd1ac360001b6106d7565b6115e47fbb335f62c166bff72e430a97d9ccc7841016ce2c73f38a6d83b00a41222fc77860001b6106d7565b6000600460008484815181106115fd576115fc6143dd565b5b602002602001015173ffffffffffffffffffffffffffffffffffffffff1673ffffffffffffffffffffffffffffffffffffffff1681526020019081526020016000206000015490506116717f765646e3719c01c279757c4e4f5779272ef21cadd1b64015cfa0f1f89375945360001b6106d7565b61169d7f15efc734e9224448c740b4901b603fbf97d958af1bb1d6559e5bc053260782d160001b6106d7565b60006116e47f00000000000000000000000000000000000000000000000000000000000000006116d6848961381990919063ffffffff16565b61382f90919063ffffffff16565b90506117127fca2442f9246db06a997ed558b22b2a528ab6095ab937f02ec813cb287e37d4c660001b6106d7565b61173e7f198c9d5a367a53f68fccdc57fcf09b0ff141cba84dd0f7225abbf33357cdeb5660001b6106d7565b4260046000868681518110611756576117556143dd565b5b602002602001015173ffffffffffffffffffffffffffffffffffffffff1673ffffffffffffffffffffffffffffffffffffffff168152602001908152602001600020600101819055506117cb7fbf4a05190f8253f7b8dee7266abfe080c71c4a20f6f75dba1c87cfadb22e3fa960001b6106d7565b6117f77fdda0d9689094364df3ab5b0473e258ea5371dfb77134d61ca4c725f492154ece60001b6106d7565b8085611803919061429a565b94506118317f5cd58eb615e9c30ec83a1cc0112273475834120f8a8549250f3de478ea4a3c0d60001b6106d7565b61185d7f6956d18c7dae62e07c9b4817def1cf87125d1e05ce5ade1f8047746e1c2ec06a60001b6106d7565b6118a560038481548110611874576118736143dd565b5b9060005260206000200160009054906101000a900473ffffffffffffffffffffffffffffffffffffffff1682613845565b6118d17fca846dd27b4472ea0aa4ef4b9583f740dab1f9a566cba94f9011e13c66dc2d6d60001b6106d7565b6118fd7f2df154264bfafb23342f390645a0ef213d60f1ed78ca233a0e44dc45509d2c1760001b6106d7565b60038381548110611911576119106143dd565b5b9060005260206000200160009054906101000a900473ffffffffffffffffffffffffffffffffffffffff1673ffffffffffffffffffffffffffffffffffffffff167f080babe757d4e5c7db3b7bd10606a7bf07a9857f660977ada6ca7a4d329376c88242604051611983929190613ffc565b60405180910390a25050806119979061440c565b9050611583565b506119cb7f9fc6323c42b8880c425344c99e3287c8ae9a7db1c825e472215119bef965c7d160001b6106d7565b6119f77f68cfedd5d634144806685a48c87c7152b15d6fba396ae39c181003da5aa6c57d60001b6106d7565b6000611a01611dce565b915050611a307f6ffb62b470c567582df4e54faf521a8f1620e80c416db6a681b9fb457a74786a60001b6106d7565b611a5c7f3f7a862a7d40a99c674d11653331d3fc003529cf07250b30e21b3305e1a935ee60001b6106d7565b804210611b2557611a8f7ff1e92cf4bdefa48d5698ae31ff6783aaf6283b4ec20a4dca33967c9edcea2d6660001b6106d7565b611abb7fd4cfd8c762b7d88fc28518f644c1262e3b5d2dd658567b6cea08f68b3deeab8260001b6106d7565b611ae77f392ec167fa0f267175efe8e173acb38566c5a65d8a5f258237535a0e606fdacd60001b6106d7565b7f000000000000000000000000000000000000000000000000000000000000000060066000828254611b19919061429a565b92505081905550611bb3565b611b517f2ce105ed8d2641390f780e33872ec3168eca6df3539a8db5344131711e8264e260001b6106d7565b611b7d7fa93d8562c94dc865bef3d5acd85cceb23a144c5c65268f2fbe7df3f5ffe035b160001b6106d7565b611ba97f2430f54a248b3a33f2a55eb3a7a38e82d762f71b27ea8ac79e593ba00402fb3e60001b6106d7565b6006546006819055505b611bdf7fc24de1a0d690ed7db1bc0cd4d0d8be3f4d62b9d9602c0eab6b0cef4f658f649f60001b6106d7565b611c0b7ffe6035b161b8fb61a546e059e232a7dcdcd88b52e2870de18d3a8259b8e7494060001b6106d7565b611c37600560009054906101000a900473ffffffffffffffffffffffffffffffffffffffff1647613845565b611c637fe0e1a072d70fe9fb453c8948bdc610c6d0396a8d007cd60dc2e1414553b0ff6c60001b6106d7565b611c8f7f7567e13d64d2bfc38c78a34c5bb30642b09c80a4a0789fd92924135eb0f5fc9760001b6106d7565b600560009054906101000a900473ffffffffffffffffffffffffffffffffffffffff1673ffffffffffffffffffffffffffffffffffffffff167f080babe757d4e5c7db3b7bd10606a7bf07a9857f660977ada6ca7a4d329376c88442604051611cf9929190613ffc565b60405180910390a2505050506001600281905550565b60065481565b7f65d7a28e3265b37a6474929f336521b332c1681b933f6cb9f3376673440d862a611d3f81613625565b611d6b7f379b296a2ceb1228bb2976ae16e37ece01f78561bb6d8149d7fd546af9ebbf3c60001b6106d7565b611d977fc5f246b678fbc663fe041b90cf59e4f99e443656a59c4e2e0bde946a351ecdb060001b6106d7565b611dc37fcc827a9aeeedd919f62861a2a57335520c44cef791a9d1040340b60bd3ee56b860001b6106d7565b611dcb613b63565b50565b600080611dfd7fea606a20a47aecd1f9afbcf9e311ae8e695e6f5ab82e949680d9fa805d34186960001b6106d7565b611e297f17071b2a353bf5240c5b9bd3bb6e402c4725974ba61e3c5174a5f7c6e67a2a3160001b6106d7565b611e557f08f4d88e8b53740c5827b9a7455061198ee546bc4de2a1bfa3272b7d8895fd5260001b6106d7565b60007f0000000000000000000000000000000000000000000000000000000000000000600654611e85919061429a565b9050611eb37f0876a59f1bfaa4c64a1dd6c499071a70f478f8f5cc44937ea76389247115af5e60001b6106d7565b611edf7fdc9a01369407efc969119308cc7c8564605ce61129808bd4bf3d98c9d721a4a360001b6106d7565b60007f00000000000000000000000000000000000000000000000000000000000000007f0000000000000000000000000000000000000000000000000000000000000000611f2d919061429a565b600654611f3a919061429a565b9050611f687f3e8341cabe2cf234c193ea8d89784ed47960afae7856272e468f0b15b1da8c3a60001b6106d7565b611f947fa462d77a81de9339543166f7157031d1f23765312a1a5b0399a87e3c92357e1360001b6106d7565b81819350935050509091565b60008060009054906101000a900460ff16905090565b7f000000000000000000000000000000000000000000000000000000000000000081565b7f65d7a28e3265b37a6474929f336521b332c1681b933f6cb9f3376673440d862a61200481613625565b6120307fc5776c13de79d8bac540651e8389003a630862b705423718a3e1521efb91361960001b6106d7565b61205c7f2ba26f61c8a481d85b0d0455dd4ed006fbf68e59829634d50220eeaafa4fba8760001b6106d7565b6120887f80f622779cbb08a856a10ee81965a9fdf70233c7f1b98a4537a5e10cbff5fdf960001b6106d7565b612090613bc5565b50565b7f241ecf16d79d0f8dbfb92cbc07fe17840425976cf0667f022fe9877caa831b086120bd81613625565b6120e97fa6fd0f9729002ce705e63217fcd3109fa687e688c6d647b956aef111d600478c60001b6106d7565b6121157f5df2a55776ab327fbe1590f6778ca126c8b91f2d49a19d1a6ae75ccd6039e1a060001b6106d7565b6121417f8fc78b6d604111772ecd41f2bd6b2bcd7d56e21b64447a038bc488d9ea6c6beb60001b6106d7565b81600560006101000a81548173ffffffffffffffffffffffffffffffffffffffff021916908373ffffffffffffffffffffffffffffffffffffffff1602179055505050565b60006001600084815260200190815260200160002060000160008373ffffffffffffffffffffffffffffffffffffffff1673ffffffffffffffffffffffffffffffffffffffff16815260200190815260200160002060009054906101000a900460ff16905092915050565b600560009054906101000a900473ffffffffffffffffffffffffffffffffffffffff1681565b61221f6135db565b7f241ecf16d79d0f8dbfb92cbc07fe17840425976cf0667f022fe9877caa831b0861224981613625565b6122757f309ec37555f80cbf938d12d281052f3c55b28f55daea0c848f64dc7a7b9456d660001b6106d7565b6122a17ff9b73d92b9db368061a64e966cd6ba4c8ad5e972c66e90e5b09a1f6052d4321460001b6106d7565b6122cd7f06d7799a2ebd2dc3ca699a019206a9745bb33da82e11a1bbdd0df1f55c4f4e8860001b6106d7565b6122d5612a51565b612363576123057fa3c83972b0e84eda96ef9e1eb4790e8e495c1972249e30e3ea2e7a394dd02b2460001b6106d7565b6123317f6ac4f7e70496f48450c41ea7ec86e941b6c1824b7f3230ed7ca29fdeeaaadb4260001b6106d7565b6040517f9389fad000000000000000000000000000000000000000000000000000000000815260040160405180910390fd5b61238f7fd98ed6fd71b71a8756e480635be3135dcd6227cecc78783742a05392548bbfb660001b6106d7565b6123bb7f4394091534e261c7141c02af44693e4b9b4537b7c9e3b70572d1da2abdc5231960001b6106d7565b6123e77f3680fcdb7b8e27a3483b9dd86749603f401029e621ecffa45860e9216595e2ba60001b6106d7565b600082116124795761241b7f3f782200985efdc5d6db1182feeb2b56bd5e913945a73dc0241fad782c93f0cd60001b6106d7565b6124477f2862c1c38814484a8129f7a7010ebfd4de121dcca356ac702333398b0f24e13160001b6106d7565b6040517f1d4227f500000000000000000000000000000000000000000000000000000000815260040160405180910390fd5b6124a57f77c6f570d96165971d757833c60c3c0ea0d38ccc5ed7088fceba18b64f6af16a60001b6106d7565b6124d17f0c9c9f42ac00372dfb38a76f5bd8529423a61b9da2bc57453bf0de15d460e00d60001b6106d7565b6124fd7f2abc4200687b6ff27269334377aa8b4cd517148288f7db1920c4cdc319613f4b60001b6106d7565b60006125148360075461363990919063ffffffff16565b90506125427f99c0bfc5233fcb1ef24bee0ad3d4c33b7953a88563be1ff8d657efdeec64805d60001b6106d7565b61256e7f7ba90488f32379fd59f0f0bf42015774976fa206672806f1b4364a32de0aea5f60001b6106d7565b7f0000000000000000000000000000000000000000000000000000000000000000811115612620576125c27f54975ec29501293c43d396991d89d9c97d9d382b0053468c62dd86243253dfee60001b6106d7565b6125ee7f3583a0b05076c0d0d8827b09553fe91a6a0917ff32b72996ddb8c43cb8ec0c7360001b6106d7565b6040517f80a4d17800000000000000000000000000000000000000000000000000000000815260040160405180910390fd5b61264c7ffca9ba13e7d28164a35f34cab535d7446b324e9beebb51bf4fbdc00285ced59f60001b6106d7565b6126787fede2939f487e62389c5897ad99a5deb2c775c25eb84cc01b79df0ea9a158be6760001b6106d7565b6126a47fa302fbbbcee075dfe945ce4b2e6318dd49b282270923ed897ba96cca0334541b60001b6106d7565b6000600460008673ffffffffffffffffffffffffffffffffffffffff1673ffffffffffffffffffffffffffffffffffffffff16815260200190815260200160002060000154146127785761271a7f7e6c78c27b696d93f06d7f6d0ef6c0e06fd42bd193390b402a10b5c1bbe7738f60001b6106d7565b6127467f4643d7445b8f0b4c74f6a3d137ee0e01180c48f7a2256b80ad33187ef146834060001b6106d7565b6040517f2912360200000000000000000000000000000000000000000000000000000000815260040160405180910390fd5b6127a47f26b1b934762a61d00ce633ca292f9ed011cb1d1e6c38d11e34411ba8b24270cb60001b6106d7565b6127d07fa570cc251a1818a32ae3d7fb0e5eb3b23956407508c3da842a475a08226def3760001b6106d7565b6127fc7f8d507fc9763679665f7bf665289526983437a3b92c02db06fec5fd3462c4e3aa60001b6106d7565b604051806060016040528084815260200142815260200142815250600460008673ffffffffffffffffffffffffffffffffffffffff1673ffffffffffffffffffffffffffffffffffffffff1681526020019081526020016000206000820151816000015560208201518160010155604082015181600201559050506128a37f5658194faf87f00c9c8a12bf020f3e54b5dd462987a48e8f9cf7d5b225f8650b60001b6106d7565b6128cf7f7dee087be0d86f3f14dc3270d1da528b51714d38ac33ea272a029e56d2bd617b60001b6106d7565b6003849080600181540180825580915050600190039060005260206000200160009091909190916101000a81548173ffffffffffffffffffffffffffffffffffffffff021916908373ffffffffffffffffffffffffffffffffffffffff16021790555061295e7f8204cbbeba62679b0478ad7578ac16733208948830e7110db74b4b39dc736d3c60001b6106d7565b61298a7f530423b63913250411dab77b3a4bb25d575e00ebd4508cbec50ccf10a4faffa860001b6106d7565b826007600082825461299c919061429a565b925050819055506129cf7f62ea94b7ea039e6f7b1baeaecb3427caa8840c87bdd34dbe0d74c04d053efb3660001b6106d7565b6129fb7fa2965ea730e5a1f027720dc36f4e392f10df6356ca6c6bacf06359e2e386586f60001b6106d7565b8373ffffffffffffffffffffffffffffffffffffffff167face1893c759fc46036b7fdd20805d2476c58b2e6d1e56aad3331ee5d2275393e8442604051612a43929190613ffc565b60405180910390a250505050565b6000612a7f7fccae2e04a13e319fdc84a5f22e7784ff6b4f9cd8fc05d38189b377b5b911806260001b6106d7565b612aab7f9dcaefc502e93138f6e6c90c8f7321bd604d21462b2123a637642f8feb21d27460001b6106d7565b612ad77ffee543577f74d24e0397c4496a147df01c56b0d293dc540a9621e53e9fb0bb5660001b6106d7565b600080612ae2611dce565b91509150612b127f771f657356457e698978157b84630b04a3424281911856c4cc1ba2d850e1ce4760001b6106d7565b612b3e7ff3d2a52030730c48618214d2bf7733c554cd667933188d54527d4c953ed7dad260001b6106d7565b814210158015612b4d57508042105b15612be157612b7e7fae676d8afe0057846bd54afef70c81d01a1bdae37f3e18d3aa6e8536f00f6f0860001b6106d7565b612baa7fd801ca7d71353376eafbbe4e84a6e6205650e1edc531ceebb5e4f62f4bcaad0c60001b6106d7565b612bd67f871d4b7e84e4f36ffa28737a8fc146fb14d057ea50eb27383860308e4b7b3e9860001b6106d7565b600192505050612c6c565b612c0d7fcc6090fa565a1b2a38c07728706b58081412d90603b78017f92910d776df26f860001b6106d7565b612c397fe5959920d650002c0bbd8db117aaff63a34807f47f99fcdaf0ba10646ca8330160001b6106d7565b612c657f65876306df7a399d43e8f85c59eccd23151641bf997d1d94a0f520b80dd6c5f160001b6106d7565b6000925050505b90565b6000801b81565b606080612ca57fd6f99a98d4e4bb5fae30187278f73bcd28c514d637bdd7c32cfdb41dffaa7e7960001b6106d7565b612cd17f07dc4ea4edc839736ce935a63a76018a8c6e8ca1b1ed4bd1eb0e9472095a993160001b6106d7565b612cfd7f582165f0268c2a9f2d0e2c4706a7cb0d788784bab150231cb5fa74e79456355060001b6106d7565b60038054905067ffffffffffffffff811115612d1c57612d1b614454565b5b604051908082528060200260200182016040528015612d4a5781602001602082028036833780820191505090505b509150612d797fa2608d8fb8f4e96d30c599a10586d37e6171e6e689b709f25b6eb740f9eeb66a60001b6106d7565b612da57fe57c96d34cb8908206056b10c288065b70b3d451515ff23e17c410e9e1d5d76e60001b6106d7565b6003805480602002602001604051908101604052809291908181526020018280548015612e2757602002820191906000526020600020905b8160009054906101000a900473ffffffffffffffffffffffffffffffffffffffff1673ffffffffffffffffffffffffffffffffffffffff1681526020019060010190808311612ddd575b50505050509150612e5a7fd39a17765e991f78f4bff72084f50f80a5923e741197f1c8f73eb780db8cf95260001b6106d7565b612e867fae6f2bacade026c477f8bb99161d3fe8c41845c0e6eaeed1f4cd2ec1390bfb6d60001b6106d7565b815167ffffffffffffffff811115612ea157612ea0614454565b5b604051908082528060200260200182016040528015612ecf5781602001602082028036833780820191505090505b509050612efe7fc14fa2ade72ae5c538c233b4dbe4df45db797ac7b56c45e91d7b11d89abc3cf760001b6106d7565b612f2a7f713a5c92cc88cc60e799ff4021f264d6947e2721ff705612b573c49179feb49460001b6106d7565b60005b825181101561301b57612f627f77432218914346bbc075b99d008f58aa6ee1b955aafeb3102b3a3b2914deb30f60001b6106d7565b612f8e7f8b37c9d83310795a4d1fd17c2630793b48afdbff53b68f8be9bf3db93d3dd2ac60001b6106d7565b60046000848381518110612fa557612fa46143dd565b5b602002602001015173ffffffffffffffffffffffffffffffffffffffff1673ffffffffffffffffffffffffffffffffffffffff16815260200190815260200160002060000154828281518110612ffe57612ffd6143dd565b5b602002602001018181525050806130149061440c565b9050612f2d565b506130487fb3d76cfd39cf12b367d98cbcefafa1f76409c4695d700fac56357d65f13512ea60001b6106d7565b6130747f900773ac55ae9e972b574463296f25a1203d2028ba6321bba4732fd7e47da87a60001b6106d7565b9091565b7f000000000000000000000000000000000000000000000000000000000000000081565b60075481565b60006130d07fa27aa0d2a5f1c546efa9f8f4e51820a4bacb125cc0486cb377b05926ea4d5cec60001b6106d7565b6130fc7f6e0365ec188301412f6de699d08f325fdfb2eb259f9ff9567265b71bb8dabc7960001b6106d7565b6131287f2239f728bb3ac4d4f4a59cfc751c70cf6e3276d640f0c6ab7e30a69e02f47c4f60001b6106d7565b6000600460008473ffffffffffffffffffffffffffffffffffffffff1673ffffffffffffffffffffffffffffffffffffffff16815260200190815260200160002060000154116131ff5761319e7fb291e7a6884e42cdb4f6f0a0fdb7bed24d9c034ac5a264b4cdb3964af40e8eb860001b6106d7565b6131ca7fc2332326b1ac13f4b7ca6b808e694a10f7f8ff309aef9c070572c56d810e7e6a60001b6106d7565b6131f67f8aace9f38ec2d46155176c0aed73784d20491c1bf5c3e3a9d4af0a208ef2875c60001b6106d7565b60009050613288565b61322b7f806a3d65728b92d39d2201bbc18602746b2b8a58b37e1d1cc45a9664d2320bf660001b6106d7565b6132577fcec804cb37d0ec8f33b124d9e2fc992c7e67413644b5f1344cf94fd6462f50ff60001b6106d7565b6132837f5e9e3c5b965c72cc89e8ee1e2c34a1b7dcddd03f0a062c6ac0aaed1d33f2170960001b6106d7565b600190505b919050565b6132968261101a565b61329f81613625565b6132a98383613737565b505050565b600381815481106132be57600080fd5b906000526020600020016000915054906101000a900473ffffffffffffffffffffffffffffffffffffffff1681565b7f65d7a28e3265b37a6474929f336521b332c1681b933f6cb9f3376673440d862a81565b7f241ecf16d79d0f8dbfb92cbc07fe17840425976cf0667f022fe9877caa831b0881565b6060600060028360026133489190614483565b613352919061429a565b67ffffffffffffffff81111561336b5761336a614454565b5b6040519080825280601f01601f19166020018201604052801561339d5781602001600182028036833780820191505090505b5090507f3000000000000000000000000000000000000000000000000000000000000000816000815181106133d5576133d46143dd565b5b60200101907effffffffffffffffffffffffffffffffffffffffffffffffffffffffffffff1916908160001a9053507f780000000000000000000000000000000000000000000000000000000000000081600181518110613439576134386143dd565b5b60200101907effffffffffffffffffffffffffffffffffffffffffffffffffffffffffffff1916908160001a905350600060018460026134799190614483565b613483919061429a565b90505b6001811115613523577f3031323334353637383961626364656600000000000000000000000000000000600f8616601081106134c5576134c46143dd565b5b1a60f81b8282815181106134dc576134db6143dd565b5b60200101907effffffffffffffffffffffffffffffffffffffffffffffffffffffffffffff1916908160001a905350600485901c94508061351c906144dd565b9050613486565b5060008414613567576040517f08c379a000000000000000000000000000000000000000000000000000000000815260040161355e90614552565b60405180910390fd5b8091505092915050565b60007f01ffc9a7000000000000000000000000000000000000000000000000000000007bffffffffffffffffffffffffffffffffffffffffffffffffffffffff1916827bffffffffffffffffffffffffffffffffffffffffffffffffffffffff1916149050919050565b6135e3611fa0565b15613623576040517f08c379a000000000000000000000000000000000000000000000000000000000815260040161361a906145be565b60405180910390fd5b565b6136368161363161372f565b613c27565b50565b60008183613647919061429a565b905092915050565b6136598282612186565b61372b57600180600084815260200190815260200160002060000160008373ffffffffffffffffffffffffffffffffffffffff1673ffffffffffffffffffffffffffffffffffffffff16815260200190815260200160002060006101000a81548160ff0219169083151502179055506136d061372f565b73ffffffffffffffffffffffffffffffffffffffff168173ffffffffffffffffffffffffffffffffffffffff16837f2f8788117e7eff1d82e926ec794901d17c78024a50270940304540a733656f0d60405160405180910390a45b5050565b600033905090565b6137418282612186565b156138155760006001600084815260200190815260200160002060000160008373ffffffffffffffffffffffffffffffffffffffff1673ffffffffffffffffffffffffffffffffffffffff16815260200190815260200160002060006101000a81548160ff0219169083151502179055506137ba61372f565b73ffffffffffffffffffffffffffffffffffffffff168173ffffffffffffffffffffffffffffffffffffffff16837ff6391f5c32d9c69d2a47ea670b442974b53935d1edc7fd64eb21e047a839171b60405160405180910390a45b5050565b600081836138279190614483565b905092915050565b6000818361383d919061460d565b905092915050565b6138717fc592ba52d5da27a903014c3051b6fdf2555719ca2d5de537eba9ef741c036cd760001b6106d7565b61389d7ffad8cbc347211c0e2a550b9fef35a1881e67c538b61011881aadad37958bfd5a60001b6106d7565b6138c97f94bd925ed31eb44ebe615fd03445963746c72f5605f220dca735913662ff62f660001b6106d7565b8047101561395b576138fd7f272b6206f77293e9f493dc299a07c6354a8a660cab4198385d7b1a23964e43c960001b6106d7565b6139297ffc595db70645cd3ba724c0520ce4fbcf1d4673d9c3d44b03e6167a6d0fdcfc9c60001b6106d7565b6040517f4890cfae00000000000000000000000000000000000000000000000000000000815260040160405180910390fd5b6139877fad0eff4c2f85236bc41448615e80883edcf2755a8459d20ed2fea5907835356160001b6106d7565b6139b37fad0fc763a58e29df4bc20578692a2f28d71fa79bd5c8de363c6f10d11598c1b960001b6106d7565b6139df7f6b021219a827f7b7e772ca4e4936b073a7214e28b7395b26c5466fcf6511866e60001b6106d7565b60008273ffffffffffffffffffffffffffffffffffffffff1682604051613a059061466f565b60006040518083038185875af1925050503d8060008114613a42576040519150601f19603f3d011682016040523d82523d6000602084013e613a47565b606091505b50509050613a777ff83849d457a1423a3e7d0e4bdeb87455acb734d1aa05ae73f37557304ff8e87560001b6106d7565b613aa37f499b711cfe150066a536346ab042a107a58804d174aa62c32c962b7ca0ea80a460001b6106d7565b80613b3257613ad47faac80a156a8a218a991f0e4097c5093ba767cfe08dbce98b724c6ba611b378e260001b6106d7565b613b007fdee4383a0822ccd20aa1e6f1ec63a8dc9879b72a958d8adf64352301d12e254360001b6106d7565b6040517f41f5ae4500000000000000000000000000000000000000000000000000000000815260040160405180910390fd5b613b5e7f32131fc4e8ec8b3c9ec07d3bbf3c495740863ece0a879423033923c6cf87e87c60001b6106d7565b505050565b613b6b613cc4565b60008060006101000a81548160ff0219169083151502179055507f5db9ee0a495bf2e6ff9c91a7834c1ba4fdd244a5e8aa4e537bd38aeae4b073aa613bae61372f565b604051613bbb9190614250565b60405180910390a1565b613bcd6135db565b60016000806101000a81548160ff0219169083151502179055507f62e78cea01bee320cd4e420270b5ea74000d11b0c9f74754ebdbfc544b05a258613c1061372f565b604051613c1d9190614250565b60405180910390a1565b613c318282612186565b613cc057613c568173ffffffffffffffffffffffffffffffffffffffff166014613335565b613c648360001c6020613335565b604051602001613c7592919061478d565b6040516020818303038152906040526040517f08c379a0000000000000000000000000000000000000000000000000000000008152600401613cb79190614811565b60405180910390fd5b5050565b613ccc611fa0565b613d0b576040517f08c379a0000000000000000000000000000000000000000000000000000000008152600401613d029061487f565b60405180910390fd5b565b6000819050919050565b613d2081613d0d565b82525050565b6000602082019050613d3b6000830184613d17565b92915050565b600080fd5b600073ffffffffffffffffffffffffffffffffffffffff82169050919050565b6000613d7182613d46565b9050919050565b613d8181613d66565b8114613d8c57600080fd5b50565b600081359050613d9e81613d78565b92915050565b600060208284031215613dba57613db9613d41565b5b6000613dc884828501613d8f565b91505092915050565b6000606082019050613de66000830186613d17565b613df36020830185613d17565b613e006040830184613d17565b949350505050565b60007fffffffff0000000000000000000000000000000000000000000000000000000082169050919050565b613e3d81613e08565b8114613e4857600080fd5b50565b600081359050613e5a81613e34565b92915050565b600060208284031215613e7657613e75613d41565b5b6000613e8484828501613e4b565b91505092915050565b60008115159050919050565b613ea281613e8d565b82525050565b6000602082019050613ebd6000830184613e99565b92915050565b613ecc81613d0d565b8114613ed757600080fd5b50565b600081359050613ee981613ec3565b92915050565b60008060408385031215613f0657613f05613d41565b5b6000613f1485828601613d8f565b9250506020613f2585828601613eda565b9150509250929050565b6000819050919050565b613f4281613f2f565b8114613f4d57600080fd5b50565b600081359050613f5f81613f39565b92915050565b600060208284031215613f7b57613f7a613d41565b5b6000613f8984828501613f50565b91505092915050565b613f9b81613f2f565b82525050565b6000602082019050613fb66000830184613f92565b92915050565b60008060408385031215613fd357613fd2613d41565b5b6000613fe185828601613f50565b9250506020613ff285828601613d8f565b9150509250929050565b60006040820190506140116000830185613d17565b61401e6020830184613d17565b9392505050565b600061403082613d46565b9050919050565b61404081614025565b82525050565b600060208201905061405b6000830184614037565b92915050565b600081519050919050565b600082825260208201905092915050565b6000819050602082019050919050565b61409681613d66565b82525050565b60006140a8838361408d565b60208301905092915050565b6000602082019050919050565b60006140cc82614061565b6140d6818561406c565b93506140e18361407d565b8060005b838110156141125781516140f9888261409c565b9750614104836140b4565b9250506001810190506140e5565b5085935050505092915050565b600081519050919050565b600082825260208201905092915050565b6000819050602082019050919050565b61415481613d0d565b82525050565b6000614166838361414b565b60208301905092915050565b6000602082019050919050565b600061418a8261411f565b614194818561412a565b935061419f8361413b565b8060005b838110156141d05781516141b7888261415a565b97506141c283614172565b9250506001810190506141a3565b5085935050505092915050565b600060408201905081810360008301526141f781856140c1565b9050818103602083015261420b818461417f565b90509392505050565b60006020828403121561422a57614229613d41565b5b600061423884828501613eda565b91505092915050565b61424a81613d66565b82525050565b60006020820190506142656000830184614241565b92915050565b7f4e487b7100000000000000000000000000000000000000000000000000000000600052601160045260246000fd5b60006142a582613d0d565b91506142b083613d0d565b92508282019050808211156142c8576142c761426b565b5b92915050565b600082825260208201905092915050565b7f416363657373436f6e74726f6c3a2063616e206f6e6c792072656e6f756e636560008201527f20726f6c657320666f722073656c660000000000000000000000000000000000602082015250565b600061433b602f836142ce565b9150614346826142df565b604082019050919050565b6000602082019050818103600083015261436a8161432e565b9050919050565b7f5265656e7472616e637947756172643a207265656e7472616e742063616c6c00600082015250565b60006143a7601f836142ce565b91506143b282614371565b602082019050919050565b600060208201905081810360008301526143d68161439a565b9050919050565b7f4e487b7100000000000000000000000000000000000000000000000000000000600052603260045260246000fd5b600061441782613d0d565b91507fffffffffffffffffffffffffffffffffffffffffffffffffffffffffffffffff82036144495761444861426b565b5b600182019050919050565b7f4e487b7100000000000000000000000000000000000000000000000000000000600052604160045260246000fd5b600061448e82613d0d565b915061449983613d0d565b9250817fffffffffffffffffffffffffffffffffffffffffffffffffffffffffffffffff04831182151516156144d2576144d161426b565b5b828202905092915050565b60006144e882613d0d565b9150600082036144fb576144fa61426b565b5b600182039050919050565b7f537472696e67733a20686578206c656e67746820696e73756666696369656e74600082015250565b600061453c6020836142ce565b915061454782614506565b602082019050919050565b6000602082019050818103600083015261456b8161452f565b9050919050565b7f5061757361626c653a2070617573656400000000000000000000000000000000600082015250565b60006145a86010836142ce565b91506145b382614572565b602082019050919050565b600060208201905081810360008301526145d78161459b565b9050919050565b7f4e487b7100000000000000000000000000000000000000000000000000000000600052601260045260246000fd5b600061461882613d0d565b915061462383613d0d565b925082614633576146326145de565b5b828204905092915050565b600081905092915050565b50565b600061465960008361463e565b915061466482614649565b600082019050919050565b600061467a8261464c565b9150819050919050565b600081905092915050565b7f416363657373436f6e74726f6c3a206163636f756e7420000000000000000000600082015250565b60006146c5601783614684565b91506146d08261468f565b601782019050919050565b600081519050919050565b60005b838110156147045780820151818401526020810190506146e9565b60008484015250505050565b600061471b826146db565b6147258185614684565b93506147358185602086016146e6565b80840191505092915050565b7f206973206d697373696e6720726f6c6520000000000000000000000000000000600082015250565b6000614777601183614684565b915061478282614741565b601182019050919050565b6000614798826146b8565b91506147a48285614710565b91506147af8261476a565b91506147bb8284614710565b91508190509392505050565b6000601f19601f8301169050919050565b60006147e3826146db565b6147ed81856142ce565b93506147fd8185602086016146e6565b614806816147c7565b840191505092915050565b6000602082019050818103600083015261482b81846147d8565b905092915050565b7f5061757361626c653a206e6f7420706175736564000000000000000000000000600082015250565b60006148696014836142ce565b915061487482614833565b602082019050919050565b600060208201905081810360008301526148988161485c565b905091905056fea2646970667358221220d15a80a71c977bf603a65fe7d1738a323afa9ce0738c9ef8846ed0bb7808bd0064736f6c63430008100033",
          "opcodes": "PUSH1 0xE0 PUSH1 0x40 MSTORE PUSH4 0x3B9ACA00 PUSH1 0xC0 SWAP1 DUP2 MSTORE POP PUSH1 0x0 PUSH1 0x7 SSTORE CALLVALUE DUP1 ISZERO PUSH3 0x21 JUMPI PUSH1 0x0 DUP1 REVERT JUMPDEST POP PUSH1 0x40 MLOAD PUSH3 0x57B6 CODESIZE SUB DUP1 PUSH3 0x57B6 DUP4 CODECOPY DUP2 DUP2 ADD PUSH1 0x40 MSTORE DUP2 ADD SWAP1 PUSH3 0x47 SWAP2 SWAP1 PUSH3 0xA80 JUMP JUMPDEST PUSH1 0x0 DUP1 PUSH1 0x0 PUSH2 0x100 EXP DUP2 SLOAD DUP2 PUSH1 0xFF MUL NOT AND SWAP1 DUP4 ISZERO ISZERO MUL OR SWAP1 SSTORE POP PUSH1 0x1 PUSH1 0x2 DUP2 SWAP1 SSTORE POP PUSH3 0x9D PUSH32 0xF182493DB94E5653BE3A2FFBB02FDA67E9578C6E0E6AA3835173062875FCF3F1 PUSH1 0x0 SHL PUSH3 0x41E PUSH1 0x20 SHL PUSH1 0x20 SHR JUMP JUMPDEST PUSH3 0xD1 PUSH32 0x2A771F2A1F972BF0DCB56D91B7287BFA4D5136688AF905F961486B0049083CFD PUSH1 0x0 SHL PUSH3 0x41E PUSH1 0x20 SHL PUSH1 0x20 SHR JUMP JUMPDEST PUSH3 0x105 PUSH32 0x60A8E4EEEC738DD182F503D9166DF0772D727BEAB4FE44C3CB801113B1830EDB PUSH1 0x0 SHL PUSH3 0x41E PUSH1 0x20 SHL PUSH1 0x20 SHR JUMP JUMPDEST PUSH3 0x11A PUSH1 0x0 DUP1 SHL CALLER PUSH3 0x421 PUSH1 0x20 SHL PUSH1 0x20 SHR JUMP JUMPDEST PUSH3 0x14E PUSH32 0x69A8C14090578493FC57BBF4E1B157C7C6D6EF1DDFBBA1E8799A17B1F75EBBBE PUSH1 0x0 SHL PUSH3 0x41E PUSH1 0x20 SHL PUSH1 0x20 SHR JUMP JUMPDEST PUSH3 0x182 PUSH32 0x5D3156010B0AA041E50C216B597D3B204EE63F284E20B412906F918C366C81BE PUSH1 0x0 SHL PUSH3 0x41E PUSH1 0x20 SHL PUSH1 0x20 SHR JUMP JUMPDEST PUSH3 0x1B4 PUSH32 0x65D7A28E3265B37A6474929F336521B332C1681B933F6CB9F3376673440D862A CALLER PUSH3 0x421 PUSH1 0x20 SHL PUSH1 0x20 SHR JUMP JUMPDEST PUSH3 0x1E8 PUSH32 0x94ED3334F5B3E19E87EE096C3E852228F55ADE5B254A35593649B8D5204C289B PUSH1 0x0 SHL PUSH3 0x41E PUSH1 0x20 SHL PUSH1 0x20 SHR JUMP JUMPDEST PUSH3 0x21C PUSH32 0xE4758ECCC0AEAB8597C42693FAB131E81E2485F5CD0F0DE929681D905BC30527 PUSH1 0x0 SHL PUSH3 0x41E PUSH1 0x20 SHL PUSH1 0x20 SHR JUMP JUMPDEST PUSH3 0x24E PUSH32 0x241ECF16D79D0F8DBFB92CBC07FE17840425976CF0667F022FE9877CAA831B08 CALLER PUSH3 0x421 PUSH1 0x20 SHL PUSH1 0x20 SHR JUMP JUMPDEST PUSH3 0x282 PUSH32 0x4C38067925A977F371F0C24469DA966461CA89D07B76060EE37BE4AE03C27D3C PUSH1 0x0 SHL PUSH3 0x41E PUSH1 0x20 SHL PUSH1 0x20 SHR JUMP JUMPDEST PUSH3 0x2B6 PUSH32 0xA3116F5E2E251BA5AB54A68D88B905EDAFABBCF527DF9750396B901F8EDE0947 PUSH1 0x0 SHL PUSH3 0x41E PUSH1 0x20 SHL PUSH1 0x20 SHR JUMP JUMPDEST PUSH3 0x2C7 DUP4 PUSH3 0x512 PUSH1 0x20 SHL PUSH1 0x20 SHR JUMP JUMPDEST PUSH3 0x2FB PUSH32 0xF5E7551568C86059120A23FFC95F17B03604FD9AC55A44E5D7CB2409D4EAAB63 PUSH1 0x0 SHL PUSH3 0x41E PUSH1 0x20 SHL PUSH1 0x20 SHR JUMP JUMPDEST PUSH3 0x32F PUSH32 0x7E6767E6D1FAC8994EC49FA2636BA2FDF0FEEC7C216F305C99815CB1A03AE235 PUSH1 0x0 SHL PUSH3 0x41E PUSH1 0x20 SHL PUSH1 0x20 SHR JUMP JUMPDEST DUP2 PUSH1 0x80 DUP2 DUP2 MSTORE POP POP PUSH3 0x36B PUSH32 0x573A565C96959A3E4528C13A04414D4DCA86E44215396B4AD09D129F79B14566 PUSH1 0x0 SHL PUSH3 0x41E PUSH1 0x20 SHL PUSH1 0x20 SHR JUMP JUMPDEST PUSH3 0x39F PUSH32 0xE275632292A9E2F62D075700D2A1F3F858DC5521E02088400797C53E0CEE6072 PUSH1 0x0 SHL PUSH3 0x41E PUSH1 0x20 SHL PUSH1 0x20 SHR JUMP JUMPDEST DUP1 PUSH1 0xA0 DUP2 DUP2 MSTORE POP POP PUSH3 0x3DA PUSH31 0xE1CBA2189C5D6BB46F328C654EA63CF75A9F5AF47515831F54DA0CE699FE8C PUSH1 0x0 SHL PUSH3 0x41E PUSH1 0x20 SHL PUSH1 0x20 SHR JUMP JUMPDEST PUSH3 0x40E PUSH32 0xD94706AEC6F987C449F7B1C40AAF414AE544A4ABF2DA51EE1CA4B954525BB944 PUSH1 0x0 SHL PUSH3 0x41E PUSH1 0x20 SHL PUSH1 0x20 SHR JUMP JUMPDEST TIMESTAMP PUSH1 0x6 DUP2 SWAP1 SSTORE POP POP POP POP PUSH3 0xE87 JUMP JUMPDEST POP JUMP JUMPDEST PUSH3 0x433 DUP3 DUP3 PUSH3 0x625 PUSH1 0x20 SHL PUSH1 0x20 SHR JUMP JUMPDEST PUSH3 0x50E JUMPI PUSH1 0x1 DUP1 PUSH1 0x0 DUP5 DUP2 MSTORE PUSH1 0x20 ADD SWAP1 DUP2 MSTORE PUSH1 0x20 ADD PUSH1 0x0 KECCAK256 PUSH1 0x0 ADD PUSH1 0x0 DUP4 PUSH20 0xFFFFFFFFFFFFFFFFFFFFFFFFFFFFFFFFFFFFFFFF AND PUSH20 0xFFFFFFFFFFFFFFFFFFFFFFFFFFFFFFFFFFFFFFFF AND DUP2 MSTORE PUSH1 0x20 ADD SWAP1 DUP2 MSTORE PUSH1 0x20 ADD PUSH1 0x0 KECCAK256 PUSH1 0x0 PUSH2 0x100 EXP DUP2 SLOAD DUP2 PUSH1 0xFF MUL NOT AND SWAP1 DUP4 ISZERO ISZERO MUL OR SWAP1 SSTORE POP PUSH3 0x4B3 PUSH3 0x690 PUSH1 0x20 SHL PUSH1 0x20 SHR JUMP JUMPDEST PUSH20 0xFFFFFFFFFFFFFFFFFFFFFFFFFFFFFFFFFFFFFFFF AND DUP2 PUSH20 0xFFFFFFFFFFFFFFFFFFFFFFFFFFFFFFFFFFFFFFFF AND DUP4 PUSH32 0x2F8788117E7EFF1D82E926EC794901D17C78024A50270940304540A733656F0D PUSH1 0x40 MLOAD PUSH1 0x40 MLOAD DUP1 SWAP2 SUB SWAP1 LOG4 JUMPDEST POP POP JUMP JUMPDEST PUSH32 0x241ECF16D79D0F8DBFB92CBC07FE17840425976CF0667F022FE9877CAA831B08 PUSH3 0x544 DUP2 PUSH3 0x698 PUSH1 0x20 SHL PUSH1 0x20 SHR JUMP JUMPDEST PUSH3 0x578 PUSH32 0xA6FD0F9729002CE705E63217FCD3109FA687E688C6D647B956AEF111D600478C PUSH1 0x0 SHL PUSH3 0x41E PUSH1 0x20 SHL PUSH1 0x20 SHR JUMP JUMPDEST PUSH3 0x5AC PUSH32 0x5DF2A55776AB327FBE1590F6778CA126C8B91F2D49A19D1A6AE75CCD6039E1A0 PUSH1 0x0 SHL PUSH3 0x41E PUSH1 0x20 SHL PUSH1 0x20 SHR JUMP JUMPDEST PUSH3 0x5E0 PUSH32 0x8FC78B6D604111772ECD41F2BD6B2BCD7D56E21B64447A038BC488D9EA6C6BEB PUSH1 0x0 SHL PUSH3 0x41E PUSH1 0x20 SHL PUSH1 0x20 SHR JUMP JUMPDEST DUP2 PUSH1 0x5 PUSH1 0x0 PUSH2 0x100 EXP DUP2 SLOAD DUP2 PUSH20 0xFFFFFFFFFFFFFFFFFFFFFFFFFFFFFFFFFFFFFFFF MUL NOT AND SWAP1 DUP4 PUSH20 0xFFFFFFFFFFFFFFFFFFFFFFFFFFFFFFFFFFFFFFFF AND MUL OR SWAP1 SSTORE POP POP POP JUMP JUMPDEST PUSH1 0x0 PUSH1 0x1 PUSH1 0x0 DUP5 DUP2 MSTORE PUSH1 0x20 ADD SWAP1 DUP2 MSTORE PUSH1 0x20 ADD PUSH1 0x0 KECCAK256 PUSH1 0x0 ADD PUSH1 0x0 DUP4 PUSH20 0xFFFFFFFFFFFFFFFFFFFFFFFFFFFFFFFFFFFFFFFF AND PUSH20 0xFFFFFFFFFFFFFFFFFFFFFFFFFFFFFFFFFFFFFFFF AND DUP2 MSTORE PUSH1 0x20 ADD SWAP1 DUP2 MSTORE PUSH1 0x20 ADD PUSH1 0x0 KECCAK256 PUSH1 0x0 SWAP1 SLOAD SWAP1 PUSH2 0x100 EXP SWAP1 DIV PUSH1 0xFF AND SWAP1 POP SWAP3 SWAP2 POP POP JUMP JUMPDEST PUSH1 0x0 CALLER SWAP1 POP SWAP1 JUMP JUMPDEST PUSH3 0x6B9 DUP2 PUSH3 0x6AD PUSH3 0x690 PUSH1 0x20 SHL PUSH1 0x20 SHR JUMP JUMPDEST PUSH3 0x6BC PUSH1 0x20 SHL PUSH1 0x20 SHR JUMP JUMPDEST POP JUMP JUMPDEST PUSH3 0x6CE DUP3 DUP3 PUSH3 0x625 PUSH1 0x20 SHL PUSH1 0x20 SHR JUMP JUMPDEST PUSH3 0x77C JUMPI PUSH3 0x701 DUP2 PUSH20 0xFFFFFFFFFFFFFFFFFFFFFFFFFFFFFFFFFFFFFFFF AND PUSH1 0x14 PUSH3 0x780 PUSH1 0x20 SHL PUSH3 0x3335 OR PUSH1 0x20 SHR JUMP JUMPDEST PUSH3 0x71C DUP4 PUSH1 0x0 SHR PUSH1 0x20 PUSH3 0x780 PUSH1 0x20 SHL PUSH3 0x3335 OR PUSH1 0x20 SHR JUMP JUMPDEST PUSH1 0x40 MLOAD PUSH1 0x20 ADD PUSH3 0x72F SWAP3 SWAP2 SWAP1 PUSH3 0xBF5 JUMP JUMPDEST PUSH1 0x40 MLOAD PUSH1 0x20 DUP2 DUP4 SUB SUB DUP2 MSTORE SWAP1 PUSH1 0x40 MSTORE PUSH1 0x40 MLOAD PUSH32 0x8C379A000000000000000000000000000000000000000000000000000000000 DUP2 MSTORE PUSH1 0x4 ADD PUSH3 0x773 SWAP2 SWAP1 PUSH3 0xC9A JUMP JUMPDEST PUSH1 0x40 MLOAD DUP1 SWAP2 SUB SWAP1 REVERT JUMPDEST POP POP JUMP JUMPDEST PUSH1 0x60 PUSH1 0x0 PUSH1 0x2 DUP4 PUSH1 0x2 PUSH3 0x795 SWAP2 SWAP1 PUSH3 0xCED JUMP JUMPDEST PUSH3 0x7A1 SWAP2 SWAP1 PUSH3 0xD4E JUMP JUMPDEST PUSH8 0xFFFFFFFFFFFFFFFF DUP2 GT ISZERO PUSH3 0x7BD JUMPI PUSH3 0x7BC PUSH3 0xD89 JUMP JUMPDEST JUMPDEST PUSH1 0x40 MLOAD SWAP1 DUP1 DUP3 MSTORE DUP1 PUSH1 0x1F ADD PUSH1 0x1F NOT AND PUSH1 0x20 ADD DUP3 ADD PUSH1 0x40 MSTORE DUP1 ISZERO PUSH3 0x7F0 JUMPI DUP2 PUSH1 0x20 ADD PUSH1 0x1 DUP3 MUL DUP1 CALLDATASIZE DUP4 CALLDATACOPY DUP1 DUP3 ADD SWAP2 POP POP SWAP1 POP JUMPDEST POP SWAP1 POP PUSH32 0x3000000000000000000000000000000000000000000000000000000000000000 DUP2 PUSH1 0x0 DUP2 MLOAD DUP2 LT PUSH3 0x82B JUMPI PUSH3 0x82A PUSH3 0xDB8 JUMP JUMPDEST JUMPDEST PUSH1 0x20 ADD ADD SWAP1 PUSH31 0xFFFFFFFFFFFFFFFFFFFFFFFFFFFFFFFFFFFFFFFFFFFFFFFFFFFFFFFFFFFFFF NOT AND SWAP1 DUP2 PUSH1 0x0 BYTE SWAP1 MSTORE8 POP PUSH32 0x7800000000000000000000000000000000000000000000000000000000000000 DUP2 PUSH1 0x1 DUP2 MLOAD DUP2 LT PUSH3 0x892 JUMPI PUSH3 0x891 PUSH3 0xDB8 JUMP JUMPDEST JUMPDEST PUSH1 0x20 ADD ADD SWAP1 PUSH31 0xFFFFFFFFFFFFFFFFFFFFFFFFFFFFFFFFFFFFFFFFFFFFFFFFFFFFFFFFFFFFFF NOT AND SWAP1 DUP2 PUSH1 0x0 BYTE SWAP1 MSTORE8 POP PUSH1 0x0 PUSH1 0x1 DUP5 PUSH1 0x2 PUSH3 0x8D4 SWAP2 SWAP1 PUSH3 0xCED JUMP JUMPDEST PUSH3 0x8E0 SWAP2 SWAP1 PUSH3 0xD4E JUMP JUMPDEST SWAP1 POP JUMPDEST PUSH1 0x1 DUP2 GT ISZERO PUSH3 0x98A JUMPI PUSH32 0x3031323334353637383961626364656600000000000000000000000000000000 PUSH1 0xF DUP7 AND PUSH1 0x10 DUP2 LT PUSH3 0x926 JUMPI PUSH3 0x925 PUSH3 0xDB8 JUMP JUMPDEST JUMPDEST BYTE PUSH1 0xF8 SHL DUP3 DUP3 DUP2 MLOAD DUP2 LT PUSH3 0x940 JUMPI PUSH3 0x93F PUSH3 0xDB8 JUMP JUMPDEST JUMPDEST PUSH1 0x20 ADD ADD SWAP1 PUSH31 0xFFFFFFFFFFFFFFFFFFFFFFFFFFFFFFFFFFFFFFFFFFFFFFFFFFFFFFFFFFFFFF NOT AND SWAP1 DUP2 PUSH1 0x0 BYTE SWAP1 MSTORE8 POP PUSH1 0x4 DUP6 SWAP1 SHR SWAP5 POP DUP1 PUSH3 0x982 SWAP1 PUSH3 0xDE7 JUMP JUMPDEST SWAP1 POP PUSH3 0x8E3 JUMP JUMPDEST POP PUSH1 0x0 DUP5 EQ PUSH3 0x9D1 JUMPI PUSH1 0x40 MLOAD PUSH32 0x8C379A000000000000000000000000000000000000000000000000000000000 DUP2 MSTORE PUSH1 0x4 ADD PUSH3 0x9C8 SWAP1 PUSH3 0xE65 JUMP JUMPDEST PUSH1 0x40 MLOAD DUP1 SWAP2 SUB SWAP1 REVERT JUMPDEST DUP1 SWAP2 POP POP SWAP3 SWAP2 POP POP JUMP JUMPDEST PUSH1 0x0 DUP1 REVERT JUMPDEST PUSH1 0x0 PUSH20 0xFFFFFFFFFFFFFFFFFFFFFFFFFFFFFFFFFFFFFFFF DUP3 AND SWAP1 POP SWAP2 SWAP1 POP JUMP JUMPDEST PUSH1 0x0 PUSH3 0xA0D DUP3 PUSH3 0x9E0 JUMP JUMPDEST SWAP1 POP SWAP2 SWAP1 POP JUMP JUMPDEST PUSH3 0xA1F DUP2 PUSH3 0xA00 JUMP JUMPDEST DUP2 EQ PUSH3 0xA2B JUMPI PUSH1 0x0 DUP1 REVERT JUMPDEST POP JUMP JUMPDEST PUSH1 0x0 DUP2 MLOAD SWAP1 POP PUSH3 0xA3F DUP2 PUSH3 0xA14 JUMP JUMPDEST SWAP3 SWAP2 POP POP JUMP JUMPDEST PUSH1 0x0 DUP2 SWAP1 POP SWAP2 SWAP1 POP JUMP JUMPDEST PUSH3 0xA5A DUP2 PUSH3 0xA45 JUMP JUMPDEST DUP2 EQ PUSH3 0xA66 JUMPI PUSH1 0x0 DUP1 REVERT JUMPDEST POP JUMP JUMPDEST PUSH1 0x0 DUP2 MLOAD SWAP1 POP PUSH3 0xA7A DUP2 PUSH3 0xA4F JUMP JUMPDEST SWAP3 SWAP2 POP POP JUMP JUMPDEST PUSH1 0x0 DUP1 PUSH1 0x0 PUSH1 0x60 DUP5 DUP7 SUB SLT ISZERO PUSH3 0xA9C JUMPI PUSH3 0xA9B PUSH3 0x9DB JUMP JUMPDEST JUMPDEST PUSH1 0x0 PUSH3 0xAAC DUP7 DUP3 DUP8 ADD PUSH3 0xA2E JUMP JUMPDEST SWAP4 POP POP PUSH1 0x20 PUSH3 0xABF DUP7 DUP3 DUP8 ADD PUSH3 0xA69 JUMP JUMPDEST SWAP3 POP POP PUSH1 0x40 PUSH3 0xAD2 DUP7 DUP3 DUP8 ADD PUSH3 0xA69 JUMP JUMPDEST SWAP2 POP POP SWAP3 POP SWAP3 POP SWAP3 JUMP JUMPDEST PUSH1 0x0 DUP2 SWAP1 POP SWAP3 SWAP2 POP POP JUMP JUMPDEST PUSH32 0x416363657373436F6E74726F6C3A206163636F756E7420000000000000000000 PUSH1 0x0 DUP3 ADD MSTORE POP JUMP JUMPDEST PUSH1 0x0 PUSH3 0xB1F PUSH1 0x17 DUP4 PUSH3 0xADC JUMP JUMPDEST SWAP2 POP PUSH3 0xB2C DUP3 PUSH3 0xAE7 JUMP JUMPDEST PUSH1 0x17 DUP3 ADD SWAP1 POP SWAP2 SWAP1 POP JUMP JUMPDEST PUSH1 0x0 DUP2 MLOAD SWAP1 POP SWAP2 SWAP1 POP JUMP JUMPDEST PUSH1 0x0 JUMPDEST DUP4 DUP2 LT ISZERO PUSH3 0xB62 JUMPI DUP1 DUP3 ADD MLOAD DUP2 DUP5 ADD MSTORE PUSH1 0x20 DUP2 ADD SWAP1 POP PUSH3 0xB45 JUMP JUMPDEST PUSH1 0x0 DUP5 DUP5 ADD MSTORE POP POP POP POP JUMP JUMPDEST PUSH1 0x0 PUSH3 0xB7B DUP3 PUSH3 0xB37 JUMP JUMPDEST PUSH3 0xB87 DUP2 DUP6 PUSH3 0xADC JUMP JUMPDEST SWAP4 POP PUSH3 0xB99 DUP2 DUP6 PUSH1 0x20 DUP7 ADD PUSH3 0xB42 JUMP JUMPDEST DUP1 DUP5 ADD SWAP2 POP POP SWAP3 SWAP2 POP POP JUMP JUMPDEST PUSH32 0x206973206D697373696E6720726F6C6520000000000000000000000000000000 PUSH1 0x0 DUP3 ADD MSTORE POP JUMP JUMPDEST PUSH1 0x0 PUSH3 0xBDD PUSH1 0x11 DUP4 PUSH3 0xADC JUMP JUMPDEST SWAP2 POP PUSH3 0xBEA DUP3 PUSH3 0xBA5 JUMP JUMPDEST PUSH1 0x11 DUP3 ADD SWAP1 POP SWAP2 SWAP1 POP JUMP JUMPDEST PUSH1 0x0 PUSH3 0xC02 DUP3 PUSH3 0xB10 JUMP JUMPDEST SWAP2 POP PUSH3 0xC10 DUP3 DUP6 PUSH3 0xB6E JUMP JUMPDEST SWAP2 POP PUSH3 0xC1D DUP3 PUSH3 0xBCE JUMP JUMPDEST SWAP2 POP PUSH3 0xC2B DUP3 DUP5 PUSH3 0xB6E JUMP JUMPDEST SWAP2 POP DUP2 SWAP1 POP SWAP4 SWAP3 POP POP POP JUMP JUMPDEST PUSH1 0x0 DUP3 DUP3 MSTORE PUSH1 0x20 DUP3 ADD SWAP1 POP SWAP3 SWAP2 POP POP JUMP JUMPDEST PUSH1 0x0 PUSH1 0x1F NOT PUSH1 0x1F DUP4 ADD AND SWAP1 POP SWAP2 SWAP1 POP JUMP JUMPDEST PUSH1 0x0 PUSH3 0xC66 DUP3 PUSH3 0xB37 JUMP JUMPDEST PUSH3 0xC72 DUP2 DUP6 PUSH3 0xC37 JUMP JUMPDEST SWAP4 POP PUSH3 0xC84 DUP2 DUP6 PUSH1 0x20 DUP7 ADD PUSH3 0xB42 JUMP JUMPDEST PUSH3 0xC8F DUP2 PUSH3 0xC48 JUMP JUMPDEST DUP5 ADD SWAP2 POP POP SWAP3 SWAP2 POP POP JUMP JUMPDEST PUSH1 0x0 PUSH1 0x20 DUP3 ADD SWAP1 POP DUP2 DUP2 SUB PUSH1 0x0 DUP4 ADD MSTORE PUSH3 0xCB6 DUP2 DUP5 PUSH3 0xC59 JUMP JUMPDEST SWAP1 POP SWAP3 SWAP2 POP POP JUMP JUMPDEST PUSH32 0x4E487B7100000000000000000000000000000000000000000000000000000000 PUSH1 0x0 MSTORE PUSH1 0x11 PUSH1 0x4 MSTORE PUSH1 0x24 PUSH1 0x0 REVERT JUMPDEST PUSH1 0x0 PUSH3 0xCFA DUP3 PUSH3 0xA45 JUMP JUMPDEST SWAP2 POP PUSH3 0xD07 DUP4 PUSH3 0xA45 JUMP JUMPDEST SWAP3 POP DUP2 PUSH32 0xFFFFFFFFFFFFFFFFFFFFFFFFFFFFFFFFFFFFFFFFFFFFFFFFFFFFFFFFFFFFFFFF DIV DUP4 GT DUP3 ISZERO ISZERO AND ISZERO PUSH3 0xD43 JUMPI PUSH3 0xD42 PUSH3 0xCBE JUMP JUMPDEST JUMPDEST DUP3 DUP3 MUL SWAP1 POP SWAP3 SWAP2 POP POP JUMP JUMPDEST PUSH1 0x0 PUSH3 0xD5B DUP3 PUSH3 0xA45 JUMP JUMPDEST SWAP2 POP PUSH3 0xD68 DUP4 PUSH3 0xA45 JUMP JUMPDEST SWAP3 POP DUP3 DUP3 ADD SWAP1 POP DUP1 DUP3 GT ISZERO PUSH3 0xD83 JUMPI PUSH3 0xD82 PUSH3 0xCBE JUMP JUMPDEST JUMPDEST SWAP3 SWAP2 POP POP JUMP JUMPDEST PUSH32 0x4E487B7100000000000000000000000000000000000000000000000000000000 PUSH1 0x0 MSTORE PUSH1 0x41 PUSH1 0x4 MSTORE PUSH1 0x24 PUSH1 0x0 REVERT JUMPDEST PUSH32 0x4E487B7100000000000000000000000000000000000000000000000000000000 PUSH1 0x0 MSTORE PUSH1 0x32 PUSH1 0x4 MSTORE PUSH1 0x24 PUSH1 0x0 REVERT JUMPDEST PUSH1 0x0 PUSH3 0xDF4 DUP3 PUSH3 0xA45 JUMP JUMPDEST SWAP2 POP PUSH1 0x0 DUP3 SUB PUSH3 0xE0A JUMPI PUSH3 0xE09 PUSH3 0xCBE JUMP JUMPDEST JUMPDEST PUSH1 0x1 DUP3 SUB SWAP1 POP SWAP2 SWAP1 POP JUMP JUMPDEST PUSH32 0x537472696E67733A20686578206C656E67746820696E73756666696369656E74 PUSH1 0x0 DUP3 ADD MSTORE POP JUMP JUMPDEST PUSH1 0x0 PUSH3 0xE4D PUSH1 0x20 DUP4 PUSH3 0xC37 JUMP JUMPDEST SWAP2 POP PUSH3 0xE5A DUP3 PUSH3 0xE15 JUMP JUMPDEST PUSH1 0x20 DUP3 ADD SWAP1 POP SWAP2 SWAP1 POP JUMP JUMPDEST PUSH1 0x0 PUSH1 0x20 DUP3 ADD SWAP1 POP DUP2 DUP2 SUB PUSH1 0x0 DUP4 ADD MSTORE PUSH3 0xE80 DUP2 PUSH3 0xE3E JUMP JUMPDEST SWAP1 POP SWAP2 SWAP1 POP JUMP JUMPDEST PUSH1 0x80 MLOAD PUSH1 0xA0 MLOAD PUSH1 0xC0 MLOAD PUSH2 0x48D5 PUSH3 0xEE1 PUSH1 0x0 CODECOPY PUSH1 0x0 DUP2 DUP2 PUSH2 0xAD7 ADD MSTORE DUP2 DUP2 PUSH2 0x16A4 ADD MSTORE PUSH2 0x2570 ADD MSTORE PUSH1 0x0 DUP2 DUP2 PUSH2 0x1EE3 ADD MSTORE PUSH2 0x307A ADD MSTORE PUSH1 0x0 DUP2 DUP2 PUSH2 0x1AE9 ADD MSTORE DUP2 DUP2 PUSH2 0x1E59 ADD MSTORE DUP2 DUP2 PUSH2 0x1F04 ADD MSTORE PUSH2 0x1FB8 ADD MSTORE PUSH2 0x48D5 PUSH1 0x0 RETURN INVALID PUSH1 0x80 PUSH1 0x40 MSTORE PUSH1 0x4 CALLDATASIZE LT PUSH2 0x1A0 JUMPI PUSH1 0x0 CALLDATALOAD PUSH1 0xE0 SHR DUP1 PUSH4 0x85D923AE GT PUSH2 0xEC JUMPI DUP1 PUSH4 0xC8F29B04 GT PUSH2 0x8A JUMPI DUP1 PUSH4 0xD547741F GT PUSH2 0x64 JUMPI DUP1 PUSH4 0xD547741F EQ PUSH2 0x61B JUMPI DUP1 PUSH4 0xD9724FFB EQ PUSH2 0x644 JUMPI DUP1 PUSH4 0xE63AB1E9 EQ PUSH2 0x681 JUMPI DUP1 PUSH4 0xEC87621C EQ PUSH2 0x6AC JUMPI PUSH2 0x221 JUMP JUMPDEST DUP1 PUSH4 0xC8F29B04 EQ PUSH2 0x588 JUMPI DUP1 PUSH4 0xCE4843E9 EQ PUSH2 0x5B3 JUMPI DUP1 PUSH4 0xD2414958 EQ PUSH2 0x5DE JUMPI PUSH2 0x221 JUMP JUMPDEST DUP1 PUSH4 0x96074E70 GT PUSH2 0xC6 JUMPI DUP1 PUSH4 0x96074E70 EQ PUSH2 0x4DD JUMPI DUP1 PUSH4 0xA128F355 EQ PUSH2 0x506 JUMPI DUP1 PUSH4 0xA217FDDF EQ PUSH2 0x531 JUMPI DUP1 PUSH4 0xBE8431F9 EQ PUSH2 0x55C JUMPI PUSH2 0x221 JUMP JUMPDEST DUP1 PUSH4 0x85D923AE EQ PUSH2 0x44C JUMPI DUP1 PUSH4 0x91D14854 EQ PUSH2 0x475 JUMPI DUP1 PUSH4 0x9426D555 EQ PUSH2 0x4B2 JUMPI PUSH2 0x221 JUMP JUMPDEST DUP1 PUSH4 0x3A6A4D2E GT PUSH2 0x159 JUMPI DUP1 PUSH4 0x408A3550 GT PUSH2 0x133 JUMPI DUP1 PUSH4 0x408A3550 EQ PUSH2 0x3B3 JUMPI DUP1 PUSH4 0x5C975ABB EQ PUSH2 0x3DF JUMPI DUP1 PUSH4 0x7D1CD04F EQ PUSH2 0x40A JUMPI DUP1 PUSH4 0x8456CB59 EQ PUSH2 0x435 JUMPI PUSH2 0x221 JUMP JUMPDEST DUP1 PUSH4 0x3A6A4D2E EQ PUSH2 0x35A JUMPI DUP1 PUSH4 0x3C915AF7 EQ PUSH2 0x371 JUMPI DUP1 PUSH4 0x3F4BA83A EQ PUSH2 0x39C JUMPI PUSH2 0x221 JUMP JUMPDEST DUP1 PUSH4 0x1567739 EQ PUSH2 0x226 JUMPI DUP1 PUSH4 0x1FFC9A7 EQ PUSH2 0x265 JUMPI DUP1 PUSH4 0x505A00F EQ PUSH2 0x2A2 JUMPI DUP1 PUSH4 0x248A9CA3 EQ PUSH2 0x2CB JUMPI DUP1 PUSH4 0x2F2FF15D EQ PUSH2 0x308 JUMPI DUP1 PUSH4 0x36568ABE EQ PUSH2 0x331 JUMPI PUSH2 0x221 JUMP JUMPDEST CALLDATASIZE PUSH2 0x221 JUMPI PUSH2 0x1D1 PUSH32 0x4540D8BAE389D309ADE9C3688B9D016A34934FD862753AA16B2EF0BBD7B79DA0 PUSH1 0x0 SHL PUSH2 0x6D7 JUMP JUMPDEST CALLER PUSH20 0xFFFFFFFFFFFFFFFFFFFFFFFFFFFFFFFFFFFFFFFF AND PUSH32 0x8E47B87B0EF542CDFA1659C551D88BAD38AA7F452D2BBB349AB7530DFEC8BE8F CALLVALUE PUSH1 0x40 MLOAD PUSH2 0x217 SWAP2 SWAP1 PUSH2 0x3D26 JUMP JUMPDEST PUSH1 0x40 MLOAD DUP1 SWAP2 SUB SWAP1 LOG2 STOP JUMPDEST PUSH1 0x0 DUP1 REVERT JUMPDEST CALLVALUE DUP1 ISZERO PUSH2 0x232 JUMPI PUSH1 0x0 DUP1 REVERT JUMPDEST POP PUSH2 0x24D PUSH1 0x4 DUP1 CALLDATASIZE SUB DUP2 ADD SWAP1 PUSH2 0x248 SWAP2 SWAP1 PUSH2 0x3DA4 JUMP JUMPDEST PUSH2 0x6DA JUMP JUMPDEST PUSH1 0x40 MLOAD PUSH2 0x25C SWAP4 SWAP3 SWAP2 SWAP1 PUSH2 0x3DD1 JUMP JUMPDEST PUSH1 0x40 MLOAD DUP1 SWAP2 SUB SWAP1 RETURN JUMPDEST CALLVALUE DUP1 ISZERO PUSH2 0x271 JUMPI PUSH1 0x0 DUP1 REVERT JUMPDEST POP PUSH2 0x28C PUSH1 0x4 DUP1 CALLDATASIZE SUB DUP2 ADD SWAP1 PUSH2 0x287 SWAP2 SWAP1 PUSH2 0x3E60 JUMP JUMPDEST PUSH2 0x704 JUMP JUMPDEST PUSH1 0x40 MLOAD PUSH2 0x299 SWAP2 SWAP1 PUSH2 0x3EA8 JUMP JUMPDEST PUSH1 0x40 MLOAD DUP1 SWAP2 SUB SWAP1 RETURN JUMPDEST CALLVALUE DUP1 ISZERO PUSH2 0x2AE JUMPI PUSH1 0x0 DUP1 REVERT JUMPDEST POP PUSH2 0x2C9 PUSH1 0x4 DUP1 CALLDATASIZE SUB DUP2 ADD SWAP1 PUSH2 0x2C4 SWAP2 SWAP1 PUSH2 0x3EEF JUMP JUMPDEST PUSH2 0x77E JUMP JUMPDEST STOP JUMPDEST CALLVALUE DUP1 ISZERO PUSH2 0x2D7 JUMPI PUSH1 0x0 DUP1 REVERT JUMPDEST POP PUSH2 0x2F2 PUSH1 0x4 DUP1 CALLDATASIZE SUB DUP2 ADD SWAP1 PUSH2 0x2ED SWAP2 SWAP1 PUSH2 0x3F65 JUMP JUMPDEST PUSH2 0x101A JUMP JUMPDEST PUSH1 0x40 MLOAD PUSH2 0x2FF SWAP2 SWAP1 PUSH2 0x3FA1 JUMP JUMPDEST PUSH1 0x40 MLOAD DUP1 SWAP2 SUB SWAP1 RETURN JUMPDEST CALLVALUE DUP1 ISZERO PUSH2 0x314 JUMPI PUSH1 0x0 DUP1 REVERT JUMPDEST POP PUSH2 0x32F PUSH1 0x4 DUP1 CALLDATASIZE SUB DUP2 ADD SWAP1 PUSH2 0x32A SWAP2 SWAP1 PUSH2 0x3FBC JUMP JUMPDEST PUSH2 0x103A JUMP JUMPDEST STOP JUMPDEST CALLVALUE DUP1 ISZERO PUSH2 0x33D JUMPI PUSH1 0x0 DUP1 REVERT JUMPDEST POP PUSH2 0x358 PUSH1 0x4 DUP1 CALLDATASIZE SUB DUP2 ADD SWAP1 PUSH2 0x353 SWAP2 SWAP1 PUSH2 0x3FBC JUMP JUMPDEST PUSH2 0x105B JUMP JUMPDEST STOP JUMPDEST CALLVALUE DUP1 ISZERO PUSH2 0x366 JUMPI PUSH1 0x0 DUP1 REVERT JUMPDEST POP PUSH2 0x36F PUSH2 0x10DE JUMP JUMPDEST STOP JUMPDEST CALLVALUE DUP1 ISZERO PUSH2 0x37D JUMPI PUSH1 0x0 DUP1 REVERT JUMPDEST POP PUSH2 0x386 PUSH2 0x1D0F JUMP JUMPDEST PUSH1 0x40 MLOAD PUSH2 0x393 SWAP2 SWAP1 PUSH2 0x3D26 JUMP JUMPDEST PUSH1 0x40 MLOAD DUP1 SWAP2 SUB SWAP1 RETURN JUMPDEST CALLVALUE DUP1 ISZERO PUSH2 0x3A8 JUMPI PUSH1 0x0 DUP1 REVERT JUMPDEST POP PUSH2 0x3B1 PUSH2 0x1D15 JUMP JUMPDEST STOP JUMPDEST CALLVALUE DUP1 ISZERO PUSH2 0x3BF JUMPI PUSH1 0x0 DUP1 REVERT JUMPDEST POP PUSH2 0x3C8 PUSH2 0x1DCE JUMP JUMPDEST PUSH1 0x40 MLOAD PUSH2 0x3D6 SWAP3 SWAP2 SWAP1 PUSH2 0x3FFC JUMP JUMPDEST PUSH1 0x40 MLOAD DUP1 SWAP2 SUB SWAP1 RETURN JUMPDEST CALLVALUE DUP1 ISZERO PUSH2 0x3EB JUMPI PUSH1 0x0 DUP1 REVERT JUMPDEST POP PUSH2 0x3F4 PUSH2 0x1FA0 JUMP JUMPDEST PUSH1 0x40 MLOAD PUSH2 0x401 SWAP2 SWAP1 PUSH2 0x3EA8 JUMP JUMPDEST PUSH1 0x40 MLOAD DUP1 SWAP2 SUB SWAP1 RETURN JUMPDEST CALLVALUE DUP1 ISZERO PUSH2 0x416 JUMPI PUSH1 0x0 DUP1 REVERT JUMPDEST POP PUSH2 0x41F PUSH2 0x1FB6 JUMP JUMPDEST PUSH1 0x40 MLOAD PUSH2 0x42C SWAP2 SWAP1 PUSH2 0x3D26 JUMP JUMPDEST PUSH1 0x40 MLOAD DUP1 SWAP2 SUB SWAP1 RETURN JUMPDEST CALLVALUE DUP1 ISZERO PUSH2 0x441 JUMPI PUSH1 0x0 DUP1 REVERT JUMPDEST POP PUSH2 0x44A PUSH2 0x1FDA JUMP JUMPDEST STOP JUMPDEST CALLVALUE DUP1 ISZERO PUSH2 0x458 JUMPI PUSH1 0x0 DUP1 REVERT JUMPDEST POP PUSH2 0x473 PUSH1 0x4 DUP1 CALLDATASIZE SUB DUP2 ADD SWAP1 PUSH2 0x46E SWAP2 SWAP1 PUSH2 0x3DA4 JUMP JUMPDEST PUSH2 0x2093 JUMP JUMPDEST STOP JUMPDEST CALLVALUE DUP1 ISZERO PUSH2 0x481 JUMPI PUSH1 0x0 DUP1 REVERT JUMPDEST POP PUSH2 0x49C PUSH1 0x4 DUP1 CALLDATASIZE SUB DUP2 ADD SWAP1 PUSH2 0x497 SWAP2 SWAP1 PUSH2 0x3FBC JUMP JUMPDEST PUSH2 0x2186 JUMP JUMPDEST PUSH1 0x40 MLOAD PUSH2 0x4A9 SWAP2 SWAP1 PUSH2 0x3EA8 JUMP JUMPDEST PUSH1 0x40 MLOAD DUP1 SWAP2 SUB SWAP1 RETURN JUMPDEST CALLVALUE DUP1 ISZERO PUSH2 0x4BE JUMPI PUSH1 0x0 DUP1 REVERT JUMPDEST POP PUSH2 0x4C7 PUSH2 0x21F1 JUMP JUMPDEST PUSH1 0x40 MLOAD PUSH2 0x4D4 SWAP2 SWAP1 PUSH2 0x4046 JUMP JUMPDEST PUSH1 0x40 MLOAD DUP1 SWAP2 SUB SWAP1 RETURN JUMPDEST CALLVALUE DUP1 ISZERO PUSH2 0x4E9 JUMPI PUSH1 0x0 DUP1 REVERT JUMPDEST POP PUSH2 0x504 PUSH1 0x4 DUP1 CALLDATASIZE SUB DUP2 ADD SWAP1 PUSH2 0x4FF SWAP2 SWAP1 PUSH2 0x3EEF JUMP JUMPDEST PUSH2 0x2217 JUMP JUMPDEST STOP JUMPDEST CALLVALUE DUP1 ISZERO PUSH2 0x512 JUMPI PUSH1 0x0 DUP1 REVERT JUMPDEST POP PUSH2 0x51B PUSH2 0x2A51 JUMP JUMPDEST PUSH1 0x40 MLOAD PUSH2 0x528 SWAP2 SWAP1 PUSH2 0x3EA8 JUMP JUMPDEST PUSH1 0x40 MLOAD DUP1 SWAP2 SUB SWAP1 RETURN JUMPDEST CALLVALUE DUP1 ISZERO PUSH2 0x53D JUMPI PUSH1 0x0 DUP1 REVERT JUMPDEST POP PUSH2 0x546 PUSH2 0x2C6F JUMP JUMPDEST PUSH1 0x40 MLOAD PUSH2 0x553 SWAP2 SWAP1 PUSH2 0x3FA1 JUMP JUMPDEST PUSH1 0x40 MLOAD DUP1 SWAP2 SUB SWAP1 RETURN JUMPDEST CALLVALUE DUP1 ISZERO PUSH2 0x568 JUMPI PUSH1 0x0 DUP1 REVERT JUMPDEST POP PUSH2 0x571 PUSH2 0x2C76 JUMP JUMPDEST PUSH1 0x40 MLOAD PUSH2 0x57F SWAP3 SWAP2 SWAP1 PUSH2 0x41DD JUMP JUMPDEST PUSH1 0x40 MLOAD DUP1 SWAP2 SUB SWAP1 RETURN JUMPDEST CALLVALUE DUP1 ISZERO PUSH2 0x594 JUMPI PUSH1 0x0 DUP1 REVERT JUMPDEST POP PUSH2 0x59D PUSH2 0x3078 JUMP JUMPDEST PUSH1 0x40 MLOAD PUSH2 0x5AA SWAP2 SWAP1 PUSH2 0x3D26 JUMP JUMPDEST PUSH1 0x40 MLOAD DUP1 SWAP2 SUB SWAP1 RETURN JUMPDEST CALLVALUE DUP1 ISZERO PUSH2 0x5BF JUMPI PUSH1 0x0 DUP1 REVERT JUMPDEST POP PUSH2 0x5C8 PUSH2 0x309C JUMP JUMPDEST PUSH1 0x40 MLOAD PUSH2 0x5D5 SWAP2 SWAP1 PUSH2 0x3D26 JUMP JUMPDEST PUSH1 0x40 MLOAD DUP1 SWAP2 SUB SWAP1 RETURN JUMPDEST CALLVALUE DUP1 ISZERO PUSH2 0x5EA JUMPI PUSH1 0x0 DUP1 REVERT JUMPDEST POP PUSH2 0x605 PUSH1 0x4 DUP1 CALLDATASIZE SUB DUP2 ADD SWAP1 PUSH2 0x600 SWAP2 SWAP1 PUSH2 0x3DA4 JUMP JUMPDEST PUSH2 0x30A2 JUMP JUMPDEST PUSH1 0x40 MLOAD PUSH2 0x612 SWAP2 SWAP1 PUSH2 0x3EA8 JUMP JUMPDEST PUSH1 0x40 MLOAD DUP1 SWAP2 SUB SWAP1 RETURN JUMPDEST CALLVALUE DUP1 ISZERO PUSH2 0x627 JUMPI PUSH1 0x0 DUP1 REVERT JUMPDEST POP PUSH2 0x642 PUSH1 0x4 DUP1 CALLDATASIZE SUB DUP2 ADD SWAP1 PUSH2 0x63D SWAP2 SWAP1 PUSH2 0x3FBC JUMP JUMPDEST PUSH2 0x328D JUMP JUMPDEST STOP JUMPDEST CALLVALUE DUP1 ISZERO PUSH2 0x650 JUMPI PUSH1 0x0 DUP1 REVERT JUMPDEST POP PUSH2 0x66B PUSH1 0x4 DUP1 CALLDATASIZE SUB DUP2 ADD SWAP1 PUSH2 0x666 SWAP2 SWAP1 PUSH2 0x4214 JUMP JUMPDEST PUSH2 0x32AE JUMP JUMPDEST PUSH1 0x40 MLOAD PUSH2 0x678 SWAP2 SWAP1 PUSH2 0x4250 JUMP JUMPDEST PUSH1 0x40 MLOAD DUP1 SWAP2 SUB SWAP1 RETURN JUMPDEST CALLVALUE DUP1 ISZERO PUSH2 0x68D JUMPI PUSH1 0x0 DUP1 REVERT JUMPDEST POP PUSH2 0x696 PUSH2 0x32ED JUMP JUMPDEST PUSH1 0x40 MLOAD PUSH2 0x6A3 SWAP2 SWAP1 PUSH2 0x3FA1 JUMP JUMPDEST PUSH1 0x40 MLOAD DUP1 SWAP2 SUB SWAP1 RETURN JUMPDEST CALLVALUE DUP1 ISZERO PUSH2 0x6B8 JUMPI PUSH1 0x0 DUP1 REVERT JUMPDEST POP PUSH2 0x6C1 PUSH2 0x3311 JUMP JUMPDEST PUSH1 0x40 MLOAD PUSH2 0x6CE SWAP2 SWAP1 PUSH2 0x3FA1 JUMP JUMPDEST PUSH1 0x40 MLOAD DUP1 SWAP2 SUB SWAP1 RETURN JUMPDEST POP JUMP JUMPDEST PUSH1 0x4 PUSH1 0x20 MSTORE DUP1 PUSH1 0x0 MSTORE PUSH1 0x40 PUSH1 0x0 KECCAK256 PUSH1 0x0 SWAP2 POP SWAP1 POP DUP1 PUSH1 0x0 ADD SLOAD SWAP1 DUP1 PUSH1 0x1 ADD SLOAD SWAP1 DUP1 PUSH1 0x2 ADD SLOAD SWAP1 POP DUP4 JUMP JUMPDEST PUSH1 0x0 PUSH32 0x7965DB0B00000000000000000000000000000000000000000000000000000000 PUSH28 0xFFFFFFFFFFFFFFFFFFFFFFFFFFFFFFFFFFFFFFFFFFFFFFFFFFFFFFFF NOT AND DUP3 PUSH28 0xFFFFFFFFFFFFFFFFFFFFFFFFFFFFFFFFFFFFFFFFFFFFFFFFFFFFFFFF NOT AND EQ DUP1 PUSH2 0x777 JUMPI POP PUSH2 0x776 DUP3 PUSH2 0x3571 JUMP JUMPDEST JUMPDEST SWAP1 POP SWAP2 SWAP1 POP JUMP JUMPDEST PUSH2 0x786 PUSH2 0x35DB JUMP JUMPDEST PUSH32 0x241ECF16D79D0F8DBFB92CBC07FE17840425976CF0667F022FE9877CAA831B08 PUSH2 0x7B0 DUP2 PUSH2 0x3625 JUMP JUMPDEST PUSH2 0x7DC PUSH32 0xA862EA444D827995698C8FB7A17C618DE368E62F2CF83836A035FC8F1E6ACF9A PUSH1 0x0 SHL PUSH2 0x6D7 JUMP JUMPDEST PUSH2 0x808 PUSH32 0xCA580661DE4AB28D4BB70B0500927AA19217997720CDFBF73B44D61B93677EC8 PUSH1 0x0 SHL PUSH2 0x6D7 JUMP JUMPDEST PUSH2 0x834 PUSH32 0xC0E68B8971EE97D89E35A53C0AB68BFB92A0ADEACA0504DB2D73E2E9E691EB9 PUSH1 0x0 SHL PUSH2 0x6D7 JUMP JUMPDEST PUSH2 0x83C PUSH2 0x2A51 JUMP JUMPDEST PUSH2 0x8CA JUMPI PUSH2 0x86C PUSH32 0x4D119D81D5E32CF5B00659924021368C06A5A143E49F9B3ACCFA865019C9ACDB PUSH1 0x0 SHL PUSH2 0x6D7 JUMP JUMPDEST PUSH2 0x898 PUSH32 0x7A9328C8CFA8D5A490C772BAE7B0E31A5BF91B741DC272E54379707A96D36254 PUSH1 0x0 SHL PUSH2 0x6D7 JUMP JUMPDEST PUSH1 0x40 MLOAD PUSH32 0x9389FAD000000000000000000000000000000000000000000000000000000000 DUP2 MSTORE PUSH1 0x4 ADD PUSH1 0x40 MLOAD DUP1 SWAP2 SUB SWAP1 REVERT JUMPDEST PUSH2 0x8F6 PUSH32 0x30142FB03F53B37ADC115D480E34C5F6D08B269931DDA8B1B87A639FD390DD84 PUSH1 0x0 SHL PUSH2 0x6D7 JUMP JUMPDEST PUSH2 0x922 PUSH32 0x20310A74746D54A2F84E2E544DAAEA7674AD70C66E011125733709D5F0505E1 PUSH1 0x0 SHL PUSH2 0x6D7 JUMP JUMPDEST PUSH2 0x94E PUSH32 0x3B4461BC67D455F0FCD62407213C97FCF563B4D4968FD4400A88ACE2A6299F8E PUSH1 0x0 SHL PUSH2 0x6D7 JUMP JUMPDEST PUSH1 0x0 DUP3 GT PUSH2 0x9E0 JUMPI PUSH2 0x982 PUSH32 0x324AE18EC0878EA15B471B74BAD14B040131B8A87134C1524B86B70B26F0DE9 PUSH1 0x0 SHL PUSH2 0x6D7 JUMP JUMPDEST PUSH2 0x9AE PUSH32 0x534978E5FF2388BECA36EE2BB0DCF60895596E73E6FA48CE11F429FEF6794D56 PUSH1 0x0 SHL PUSH2 0x6D7 JUMP JUMPDEST PUSH1 0x40 MLOAD PUSH32 0x1D4227F500000000000000000000000000000000000000000000000000000000 DUP2 MSTORE PUSH1 0x4 ADD PUSH1 0x40 MLOAD DUP1 SWAP2 SUB SWAP1 REVERT JUMPDEST PUSH2 0xA0C PUSH32 0x6D314E3FCA31A5A988C12EA167DD9CD05F93DABE2E0C8BE40FBBD5C4F765773E PUSH1 0x0 SHL PUSH2 0x6D7 JUMP JUMPDEST PUSH2 0xA38 PUSH32 0xF9B6BDC1F03CE4E57C9C74ED727F3EEDAF74E72A35104385C8A996CF7AD6D9A4 PUSH1 0x0 SHL PUSH2 0x6D7 JUMP JUMPDEST PUSH2 0xA64 PUSH32 0xA5C7A43EEA3CCBEC6BEAF073A0AFAB591A00933A64C96C4FD1336BD642EA9D85 PUSH1 0x0 SHL PUSH2 0x6D7 JUMP JUMPDEST PUSH1 0x0 PUSH2 0xA7B DUP4 PUSH1 0x7 SLOAD PUSH2 0x3639 SWAP1 SWAP2 SWAP1 PUSH4 0xFFFFFFFF AND JUMP JUMPDEST SWAP1 POP PUSH2 0xAA9 PUSH32 0xA2EEE087ABFB748156727F2A53003A37FCBD3FBAF9B8A8B79F62BDD360F7D25C PUSH1 0x0 SHL PUSH2 0x6D7 JUMP JUMPDEST PUSH2 0xAD5 PUSH32 0x5415CFEA7EBF834F5DBCCC95170F0960EED93DBDEA6A816F31C2D468D6336FED PUSH1 0x0 SHL PUSH2 0x6D7 JUMP JUMPDEST PUSH32 0x0 DUP2 GT ISZERO PUSH2 0xB87 JUMPI PUSH2 0xB29 PUSH32 0xDEB08287CCF32662977792D77DC6DC7437FF64EB5466056A0CCFE230D256579A PUSH1 0x0 SHL PUSH2 0x6D7 JUMP JUMPDEST PUSH2 0xB55 PUSH32 0x37C45C003D7721499C0C693068F83B5CC751A4FDE6CA7E8008A9B5ECC8169C59 PUSH1 0x0 SHL PUSH2 0x6D7 JUMP JUMPDEST PUSH1 0x40 MLOAD PUSH32 0x80A4D17800000000000000000000000000000000000000000000000000000000 DUP2 MSTORE PUSH1 0x4 ADD PUSH1 0x40 MLOAD DUP1 SWAP2 SUB SWAP1 REVERT JUMPDEST PUSH2 0xBB3 PUSH32 0xA2752F8CE38BC778A9A5548C1EB070F67EE2F581262EECA46BC98AC27C7A4FD9 PUSH1 0x0 SHL PUSH2 0x6D7 JUMP JUMPDEST PUSH2 0xBDF PUSH32 0x6A5038D4BAF8548FE30CE41DFAD3778F0B7B4D777804422D8176A810CDFEC675 PUSH1 0x0 SHL PUSH2 0x6D7 JUMP JUMPDEST PUSH2 0xC0B PUSH32 0x874A24E5F717DDD99A9ADBD1AF5C5DA3BC63A96B5C669179D46DFC279AE00501 PUSH1 0x0 SHL PUSH2 0x6D7 JUMP JUMPDEST PUSH1 0x0 PUSH1 0x4 PUSH1 0x0 DUP7 PUSH20 0xFFFFFFFFFFFFFFFFFFFFFFFFFFFFFFFFFFFFFFFF AND PUSH20 0xFFFFFFFFFFFFFFFFFFFFFFFFFFFFFFFFFFFFFFFF AND DUP2 MSTORE PUSH1 0x20 ADD SWAP1 DUP2 MSTORE PUSH1 0x20 ADD PUSH1 0x0 KECCAK256 PUSH1 0x0 ADD SLOAD GT PUSH2 0xCDF JUMPI PUSH2 0xC81 PUSH32 0x724E2847160C2C298425AD2C42170599FAABCEC2C72F27849DC9E2E75C1C0CA3 PUSH1 0x0 SHL PUSH2 0x6D7 JUMP JUMPDEST PUSH2 0xCAD PUSH32 0x25FEE7D1DB0F0F9C479B8FB895ED86C932199ED2467E9100AD822EE64D856DB5 PUSH1 0x0 SHL PUSH2 0x6D7 JUMP JUMPDEST PUSH1 0x40 MLOAD PUSH32 0xC8A988FC00000000000000000000000000000000000000000000000000000000 DUP2 MSTORE PUSH1 0x4 ADD PUSH1 0x40 MLOAD DUP1 SWAP2 SUB SWAP1 REVERT JUMPDEST PUSH2 0xD0B PUSH32 0xD4A07CC078364B895A2FE95516AE6E170B586AC66A0FAA2A0F062A103226E519 PUSH1 0x0 SHL PUSH2 0x6D7 JUMP JUMPDEST PUSH2 0xD37 PUSH32 0xB0DD71E8605CB4402AA6AB3EC6C7F79DE85A6E81A209FCC01B623F089ADB342E PUSH1 0x0 SHL PUSH2 0x6D7 JUMP JUMPDEST PUSH2 0xD63 PUSH32 0x96DEBA15470E366304D5AB5D993B96D85C5D07C3ADB5BB7CCA2DE86E13F4CE8B PUSH1 0x0 SHL PUSH2 0x6D7 JUMP JUMPDEST PUSH1 0x0 PUSH2 0xDBA DUP5 PUSH1 0x4 PUSH1 0x0 DUP9 PUSH20 0xFFFFFFFFFFFFFFFFFFFFFFFFFFFFFFFFFFFFFFFF AND PUSH20 0xFFFFFFFFFFFFFFFFFFFFFFFFFFFFFFFFFFFFFFFF AND DUP2 MSTORE PUSH1 0x20 ADD SWAP1 DUP2 MSTORE PUSH1 0x20 ADD PUSH1 0x0 KECCAK256 PUSH1 0x0 ADD SLOAD PUSH2 0x3639 SWAP1 SWAP2 SWAP1 PUSH4 0xFFFFFFFF AND JUMP JUMPDEST SWAP1 POP PUSH2 0xDE8 PUSH32 0x68838F062EBA4208F0DADC8E1B3E99C6A41FC3C692798E1D11C0C7B0384D496C PUSH1 0x0 SHL PUSH2 0x6D7 JUMP JUMPDEST PUSH2 0xE14 PUSH32 0x20AB0A33F10FD8D5A6966BCFC6FC3D127ADDD57A3D8D1A0E31E43EC092F6D95A PUSH1 0x0 SHL PUSH2 0x6D7 JUMP JUMPDEST DUP1 PUSH1 0x4 PUSH1 0x0 DUP8 PUSH20 0xFFFFFFFFFFFFFFFFFFFFFFFFFFFFFFFFFFFFFFFF AND PUSH20 0xFFFFFFFFFFFFFFFFFFFFFFFFFFFFFFFFFFFFFFFF AND DUP2 MSTORE PUSH1 0x20 ADD SWAP1 DUP2 MSTORE PUSH1 0x20 ADD PUSH1 0x0 KECCAK256 PUSH1 0x0 ADD DUP2 SWAP1 SSTORE POP PUSH2 0xE87 PUSH32 0x42410A0EDE1F22CBDB4D3E7844920F8B1352893E194D6C79F9B9561A6640A269 PUSH1 0x0 SHL PUSH2 0x6D7 JUMP JUMPDEST PUSH2 0xEB3 PUSH32 0xD33857FF2454C579DBFAF067DB19F0D141CEA19613A8475003BDDFD74EBEDA39 PUSH1 0x0 SHL PUSH2 0x6D7 JUMP JUMPDEST TIMESTAMP PUSH1 0x4 PUSH1 0x0 DUP8 PUSH20 0xFFFFFFFFFFFFFFFFFFFFFFFFFFFFFFFFFFFFFFFF AND PUSH20 0xFFFFFFFFFFFFFFFFFFFFFFFFFFFFFFFFFFFFFFFF AND DUP2 MSTORE PUSH1 0x20 ADD SWAP1 DUP2 MSTORE PUSH1 0x20 ADD PUSH1 0x0 KECCAK256 PUSH1 0x2 ADD DUP2 SWAP1 SSTORE POP PUSH2 0xF26 PUSH32 0xBC3FE3563337FDA6F91476C9ED8188A622740FB8BFDDABC36DACA10AB5723587 PUSH1 0x0 SHL PUSH2 0x6D7 JUMP JUMPDEST PUSH2 0xF52 PUSH32 0xEDE37B386E61234D9A69FD898F4998507080FB70C1A08991092556489AFB64F PUSH1 0x0 SHL PUSH2 0x6D7 JUMP JUMPDEST DUP4 PUSH1 0x7 PUSH1 0x0 DUP3 DUP3 SLOAD PUSH2 0xF64 SWAP2 SWAP1 PUSH2 0x429A JUMP JUMPDEST SWAP3 POP POP DUP2 SWAP1 SSTORE POP PUSH2 0xF97 PUSH32 0x942CB9D9CB351BC531A2A091C3ACC9071347005B062D0F84C35BEE939AB706F8 PUSH1 0x0 SHL PUSH2 0x6D7 JUMP JUMPDEST PUSH2 0xFC3 PUSH32 0xE4026A45EA5D545E9852E1B822E436D157F418B423C18634078A07544F70E2D4 PUSH1 0x0 SHL PUSH2 0x6D7 JUMP JUMPDEST DUP5 PUSH20 0xFFFFFFFFFFFFFFFFFFFFFFFFFFFFFFFFFFFFFFFF AND PUSH32 0xF1B87F4A688417D87B0DD9C0569040438160E0CD40B36D472C0F65069682E990 DUP6 TIMESTAMP PUSH1 0x40 MLOAD PUSH2 0x100B SWAP3 SWAP2 SWAP1 PUSH2 0x3FFC JUMP JUMPDEST PUSH1 0x40 MLOAD DUP1 SWAP2 SUB SWAP1 LOG2 POP POP POP POP POP JUMP JUMPDEST PUSH1 0x0 PUSH1 0x1 PUSH1 0x0 DUP4 DUP2 MSTORE PUSH1 0x20 ADD SWAP1 DUP2 MSTORE PUSH1 0x20 ADD PUSH1 0x0 KECCAK256 PUSH1 0x1 ADD SLOAD SWAP1 POP SWAP2 SWAP1 POP JUMP JUMPDEST PUSH2 0x1043 DUP3 PUSH2 0x101A JUMP JUMPDEST PUSH2 0x104C DUP2 PUSH2 0x3625 JUMP JUMPDEST PUSH2 0x1056 DUP4 DUP4 PUSH2 0x364F JUMP JUMPDEST POP POP POP JUMP JUMPDEST PUSH2 0x1063 PUSH2 0x372F JUMP JUMPDEST PUSH20 0xFFFFFFFFFFFFFFFFFFFFFFFFFFFFFFFFFFFFFFFF AND DUP2 PUSH20 0xFFFFFFFFFFFFFFFFFFFFFFFFFFFFFFFFFFFFFFFF AND EQ PUSH2 0x10D0 JUMPI PUSH1 0x40 MLOAD PUSH32 0x8C379A000000000000000000000000000000000000000000000000000000000 DUP2 MSTORE PUSH1 0x4 ADD PUSH2 0x10C7 SWAP1 PUSH2 0x4351 JUMP JUMPDEST PUSH1 0x40 MLOAD DUP1 SWAP2 SUB SWAP1 REVERT JUMPDEST PUSH2 0x10DA DUP3 DUP3 PUSH2 0x3737 JUMP JUMPDEST POP POP JUMP JUMPDEST PUSH2 0x10E6 PUSH2 0x35DB JUMP JUMPDEST PUSH1 0x2 DUP1 SLOAD SUB PUSH2 0x112A JUMPI PUSH1 0x40 MLOAD PUSH32 0x8C379A000000000000000000000000000000000000000000000000000000000 DUP2 MSTORE PUSH1 0x4 ADD PUSH2 0x1121 SWAP1 PUSH2 0x43BD JUMP JUMPDEST PUSH1 0x40 MLOAD DUP1 SWAP2 SUB SWAP1 REVERT JUMPDEST PUSH1 0x2 DUP1 DUP2 SWAP1 SSTORE POP PUSH2 0x115D PUSH32 0xD00CFFEF5C1F70270DDA294D68C061023500FDC0FF21F189EEB48B4B20805AAA PUSH1 0x0 SHL PUSH2 0x6D7 JUMP JUMPDEST PUSH2 0x1189 PUSH32 0x93B7D139A0310D32BBD97278A31FF7A7D3BCF90CCF8D1A42FCCD123BA3D12C49 PUSH1 0x0 SHL PUSH2 0x6D7 JUMP JUMPDEST PUSH2 0x11B5 PUSH32 0x3273341D4F1CB9F590F42E30AAECF7A2C6867BA7ED738C230634B3D03809AE92 PUSH1 0x0 SHL PUSH2 0x6D7 JUMP JUMPDEST PUSH2 0x11BD PUSH2 0x2A51 JUMP JUMPDEST ISZERO PUSH2 0x124C JUMPI PUSH2 0x11EE PUSH32 0xC7260726D2BC3CE882416723870F5CB09F5E66D0ED92031C0D749D41D5B11239 PUSH1 0x0 SHL PUSH2 0x6D7 JUMP JUMPDEST PUSH2 0x121A PUSH32 0xC4E3BB2546CE27A7F8867C3BF153A4E10C62B2635565960803CB05B9DDADBD55 PUSH1 0x0 SHL PUSH2 0x6D7 JUMP JUMPDEST PUSH1 0x40 MLOAD PUSH32 0x5D27F9800000000000000000000000000000000000000000000000000000000 DUP2 MSTORE PUSH1 0x4 ADD PUSH1 0x40 MLOAD DUP1 SWAP2 SUB SWAP1 REVERT JUMPDEST PUSH2 0x1278 PUSH32 0x2DB8C7BE0A908A98AC5BAB4EAD0871DC6E9618622C09EB9BADD45FC673A78D7F PUSH1 0x0 SHL PUSH2 0x6D7 JUMP JUMPDEST PUSH2 0x12A4 PUSH32 0x97329F79D08E64EAEB88E83BE078CE324B0A171EF0532917BE14DB2A101DFCAB PUSH1 0x0 SHL PUSH2 0x6D7 JUMP JUMPDEST PUSH2 0x12D0 PUSH32 0x450CEF2F6E8B70C25BD38683F77ED98DF8CE826FF5E74241648BC84EB78B345E PUSH1 0x0 SHL PUSH2 0x6D7 JUMP JUMPDEST PUSH1 0x0 SELFBALANCE SWAP1 POP PUSH2 0x1301 PUSH32 0xFB71C9710BDA4FEC3900CC607EC6425609525D51F35273F3B22E54E7F64C4187 PUSH1 0x0 SHL PUSH2 0x6D7 JUMP JUMPDEST PUSH2 0x132D PUSH32 0x48E9ABC426CAB93E13C849D97112C350C73D45FBC13411E6BA667527A9561542 PUSH1 0x0 SHL PUSH2 0x6D7 JUMP JUMPDEST PUSH1 0x0 PUSH2 0x135B PUSH32 0x9BE8337581352348043B1FBA6DBB584BD6E84CF003DCEAFF26209EDB7FDDDB15 PUSH1 0x0 SHL PUSH2 0x6D7 JUMP JUMPDEST PUSH2 0x1387 PUSH32 0x4DB0691E5893AF8C2A6FADFB3959EA6CA80ABDDC424BB91391644449F8A9DF80 PUSH1 0x0 SHL PUSH2 0x6D7 JUMP JUMPDEST PUSH1 0x0 DUP3 SUB PUSH2 0x1419 JUMPI PUSH2 0x13BB PUSH32 0xCE9BD06725908B5D3CDD0C398FC7E01D72DB1644297767EEA2D36B005D2D4F19 PUSH1 0x0 SHL PUSH2 0x6D7 JUMP JUMPDEST PUSH2 0x13E7 PUSH32 0x98394025C34C87EBEDE8FF2DB467F26CEC95089F2D5E43EF5B339F96058E78F8 PUSH1 0x0 SHL PUSH2 0x6D7 JUMP JUMPDEST PUSH1 0x40 MLOAD PUSH32 0x4890CFAE00000000000000000000000000000000000000000000000000000000 DUP2 MSTORE PUSH1 0x4 ADD PUSH1 0x40 MLOAD DUP1 SWAP2 SUB SWAP1 REVERT JUMPDEST PUSH2 0x1445 PUSH32 0x318581A61DF607F4EE082D391456CA225A953F282BEF5C25EA612C127CA60CBD PUSH1 0x0 SHL PUSH2 0x6D7 JUMP JUMPDEST PUSH2 0x1471 PUSH32 0x3338D2197AA8B06BFD122F7A7E3DB4701AA3078B5D6EFB63BAF93A6E2C40CFB5 PUSH1 0x0 SHL PUSH2 0x6D7 JUMP JUMPDEST PUSH2 0x149D PUSH32 0x9922B15AA235535DA1888A51893B34E1B0908BCF876BA7BFD8C46944C1DE80AA PUSH1 0x0 SHL PUSH2 0x6D7 JUMP JUMPDEST PUSH1 0x0 PUSH1 0x3 DUP1 SLOAD DUP1 PUSH1 0x20 MUL PUSH1 0x20 ADD PUSH1 0x40 MLOAD SWAP1 DUP2 ADD PUSH1 0x40 MSTORE DUP1 SWAP3 SWAP2 SWAP1 DUP2 DUP2 MSTORE PUSH1 0x20 ADD DUP3 DUP1 SLOAD DUP1 ISZERO PUSH2 0x1521 JUMPI PUSH1 0x20 MUL DUP3 ADD SWAP2 SWAP1 PUSH1 0x0 MSTORE PUSH1 0x20 PUSH1 0x0 KECCAK256 SWAP1 JUMPDEST DUP2 PUSH1 0x0 SWAP1 SLOAD SWAP1 PUSH2 0x100 EXP SWAP1 DIV PUSH20 0xFFFFFFFFFFFFFFFFFFFFFFFFFFFFFFFFFFFFFFFF AND PUSH20 0xFFFFFFFFFFFFFFFFFFFFFFFFFFFFFFFFFFFFFFFF AND DUP2 MSTORE PUSH1 0x20 ADD SWAP1 PUSH1 0x1 ADD SWAP1 DUP1 DUP4 GT PUSH2 0x14D7 JUMPI JUMPDEST POP POP POP POP POP SWAP1 POP PUSH2 0x1554 PUSH32 0x99FB0D2C85701F8103D43B00411BC052B20AF321C01FC177A902E75B653C2775 PUSH1 0x0 SHL PUSH2 0x6D7 JUMP JUMPDEST PUSH2 0x1580 PUSH32 0xE0058F8FC304FF69EA181C7A5222520A7C241D5A824EB9D5760C1EA838C62C4F PUSH1 0x0 SHL PUSH2 0x6D7 JUMP JUMPDEST PUSH1 0x0 JUMPDEST DUP2 MLOAD DUP2 LT ISZERO PUSH2 0x199E JUMPI PUSH2 0x15B8 PUSH32 0x41A4FBC3EF369A44F47F423BC6340705C1FE050FEEF0FFFD248C9AF72FBD1AC3 PUSH1 0x0 SHL PUSH2 0x6D7 JUMP JUMPDEST PUSH2 0x15E4 PUSH32 0xBB335F62C166BFF72E430A97D9CCC7841016CE2C73F38A6D83B00A41222FC778 PUSH1 0x0 SHL PUSH2 0x6D7 JUMP JUMPDEST PUSH1 0x0 PUSH1 0x4 PUSH1 0x0 DUP5 DUP5 DUP2 MLOAD DUP2 LT PUSH2 0x15FD JUMPI PUSH2 0x15FC PUSH2 0x43DD JUMP JUMPDEST JUMPDEST PUSH1 0x20 MUL PUSH1 0x20 ADD ADD MLOAD PUSH20 0xFFFFFFFFFFFFFFFFFFFFFFFFFFFFFFFFFFFFFFFF AND PUSH20 0xFFFFFFFFFFFFFFFFFFFFFFFFFFFFFFFFFFFFFFFF AND DUP2 MSTORE PUSH1 0x20 ADD SWAP1 DUP2 MSTORE PUSH1 0x20 ADD PUSH1 0x0 KECCAK256 PUSH1 0x0 ADD SLOAD SWAP1 POP PUSH2 0x1671 PUSH32 0x765646E3719C01C279757C4E4F5779272EF21CADD1B64015CFA0F1F893759453 PUSH1 0x0 SHL PUSH2 0x6D7 JUMP JUMPDEST PUSH2 0x169D PUSH32 0x15EFC734E9224448C740B4901B603FBF97D958AF1BB1D6559E5BC053260782D1 PUSH1 0x0 SHL PUSH2 0x6D7 JUMP JUMPDEST PUSH1 0x0 PUSH2 0x16E4 PUSH32 0x0 PUSH2 0x16D6 DUP5 DUP10 PUSH2 0x3819 SWAP1 SWAP2 SWAP1 PUSH4 0xFFFFFFFF AND JUMP JUMPDEST PUSH2 0x382F SWAP1 SWAP2 SWAP1 PUSH4 0xFFFFFFFF AND JUMP JUMPDEST SWAP1 POP PUSH2 0x1712 PUSH32 0xCA2442F9246DB06A997ED558B22B2A528AB6095AB937F02EC813CB287E37D4C6 PUSH1 0x0 SHL PUSH2 0x6D7 JUMP JUMPDEST PUSH2 0x173E PUSH32 0x198C9D5A367A53F68FCCDC57FCF09B0FF141CBA84DD0F7225ABBF33357CDEB56 PUSH1 0x0 SHL PUSH2 0x6D7 JUMP JUMPDEST TIMESTAMP PUSH1 0x4 PUSH1 0x0 DUP7 DUP7 DUP2 MLOAD DUP2 LT PUSH2 0x1756 JUMPI PUSH2 0x1755 PUSH2 0x43DD JUMP JUMPDEST JUMPDEST PUSH1 0x20 MUL PUSH1 0x20 ADD ADD MLOAD PUSH20 0xFFFFFFFFFFFFFFFFFFFFFFFFFFFFFFFFFFFFFFFF AND PUSH20 0xFFFFFFFFFFFFFFFFFFFFFFFFFFFFFFFFFFFFFFFF AND DUP2 MSTORE PUSH1 0x20 ADD SWAP1 DUP2 MSTORE PUSH1 0x20 ADD PUSH1 0x0 KECCAK256 PUSH1 0x1 ADD DUP2 SWAP1 SSTORE POP PUSH2 0x17CB PUSH32 0xBF4A05190F8253F7B8DEE7266ABFE080C71C4A20F6F75DBA1C87CFADB22E3FA9 PUSH1 0x0 SHL PUSH2 0x6D7 JUMP JUMPDEST PUSH2 0x17F7 PUSH32 0xDDA0D9689094364DF3AB5B0473E258EA5371DFB77134D61CA4C725F492154ECE PUSH1 0x0 SHL PUSH2 0x6D7 JUMP JUMPDEST DUP1 DUP6 PUSH2 0x1803 SWAP2 SWAP1 PUSH2 0x429A JUMP JUMPDEST SWAP5 POP PUSH2 0x1831 PUSH32 0x5CD58EB615E9C30EC83A1CC0112273475834120F8A8549250F3DE478EA4A3C0D PUSH1 0x0 SHL PUSH2 0x6D7 JUMP JUMPDEST PUSH2 0x185D PUSH32 0x6956D18C7DAE62E07C9B4817DEF1CF87125D1E05CE5ADE1F8047746E1C2EC06A PUSH1 0x0 SHL PUSH2 0x6D7 JUMP JUMPDEST PUSH2 0x18A5 PUSH1 0x3 DUP5 DUP2 SLOAD DUP2 LT PUSH2 0x1874 JUMPI PUSH2 0x1873 PUSH2 0x43DD JUMP JUMPDEST JUMPDEST SWAP1 PUSH1 0x0 MSTORE PUSH1 0x20 PUSH1 0x0 KECCAK256 ADD PUSH1 0x0 SWAP1 SLOAD SWAP1 PUSH2 0x100 EXP SWAP1 DIV PUSH20 0xFFFFFFFFFFFFFFFFFFFFFFFFFFFFFFFFFFFFFFFF AND DUP3 PUSH2 0x3845 JUMP JUMPDEST PUSH2 0x18D1 PUSH32 0xCA846DD27B4472EA0AA4EF4B9583F740DAB1F9A566CBA94F9011E13C66DC2D6D PUSH1 0x0 SHL PUSH2 0x6D7 JUMP JUMPDEST PUSH2 0x18FD PUSH32 0x2DF154264BFAFB23342F390645A0EF213D60F1ED78CA233A0E44DC45509D2C17 PUSH1 0x0 SHL PUSH2 0x6D7 JUMP JUMPDEST PUSH1 0x3 DUP4 DUP2 SLOAD DUP2 LT PUSH2 0x1911 JUMPI PUSH2 0x1910 PUSH2 0x43DD JUMP JUMPDEST JUMPDEST SWAP1 PUSH1 0x0 MSTORE PUSH1 0x20 PUSH1 0x0 KECCAK256 ADD PUSH1 0x0 SWAP1 SLOAD SWAP1 PUSH2 0x100 EXP SWAP1 DIV PUSH20 0xFFFFFFFFFFFFFFFFFFFFFFFFFFFFFFFFFFFFFFFF AND PUSH20 0xFFFFFFFFFFFFFFFFFFFFFFFFFFFFFFFFFFFFFFFF AND PUSH32 0x80BABE757D4E5C7DB3B7BD10606A7BF07A9857F660977ADA6CA7A4D329376C8 DUP3 TIMESTAMP PUSH1 0x40 MLOAD PUSH2 0x1983 SWAP3 SWAP2 SWAP1 PUSH2 0x3FFC JUMP JUMPDEST PUSH1 0x40 MLOAD DUP1 SWAP2 SUB SWAP1 LOG2 POP POP DUP1 PUSH2 0x1997 SWAP1 PUSH2 0x440C JUMP JUMPDEST SWAP1 POP PUSH2 0x1583 JUMP JUMPDEST POP PUSH2 0x19CB PUSH32 0x9FC6323C42B8880C425344C99E3287C8AE9A7DB1C825E472215119BEF965C7D1 PUSH1 0x0 SHL PUSH2 0x6D7 JUMP JUMPDEST PUSH2 0x19F7 PUSH32 0x68CFEDD5D634144806685A48C87C7152B15D6FBA396AE39C181003DA5AA6C57D PUSH1 0x0 SHL PUSH2 0x6D7 JUMP JUMPDEST PUSH1 0x0 PUSH2 0x1A01 PUSH2 0x1DCE JUMP JUMPDEST SWAP2 POP POP PUSH2 0x1A30 PUSH32 0x6FFB62B470C567582DF4E54FAF521A8F1620E80C416DB6A681B9FB457A74786A PUSH1 0x0 SHL PUSH2 0x6D7 JUMP JUMPDEST PUSH2 0x1A5C PUSH32 0x3F7A862A7D40A99C674D11653331D3FC003529CF07250B30E21B3305E1A935EE PUSH1 0x0 SHL PUSH2 0x6D7 JUMP JUMPDEST DUP1 TIMESTAMP LT PUSH2 0x1B25 JUMPI PUSH2 0x1A8F PUSH32 0xF1E92CF4BDEFA48D5698AE31FF6783AAF6283B4EC20A4DCA33967C9EDCEA2D66 PUSH1 0x0 SHL PUSH2 0x6D7 JUMP JUMPDEST PUSH2 0x1ABB PUSH32 0xD4CFD8C762B7D88FC28518F644C1262E3B5D2DD658567B6CEA08F68B3DEEAB82 PUSH1 0x0 SHL PUSH2 0x6D7 JUMP JUMPDEST PUSH2 0x1AE7 PUSH32 0x392EC167FA0F267175EFE8E173ACB38566C5A65D8A5F258237535A0E606FDACD PUSH1 0x0 SHL PUSH2 0x6D7 JUMP JUMPDEST PUSH32 0x0 PUSH1 0x6 PUSH1 0x0 DUP3 DUP3 SLOAD PUSH2 0x1B19 SWAP2 SWAP1 PUSH2 0x429A JUMP JUMPDEST SWAP3 POP POP DUP2 SWAP1 SSTORE POP PUSH2 0x1BB3 JUMP JUMPDEST PUSH2 0x1B51 PUSH32 0x2CE105ED8D2641390F780E33872EC3168ECA6DF3539A8DB5344131711E8264E2 PUSH1 0x0 SHL PUSH2 0x6D7 JUMP JUMPDEST PUSH2 0x1B7D PUSH32 0xA93D8562C94DC865BEF3D5ACD85CCEB23A144C5C65268F2FBE7DF3F5FFE035B1 PUSH1 0x0 SHL PUSH2 0x6D7 JUMP JUMPDEST PUSH2 0x1BA9 PUSH32 0x2430F54A248B3A33F2A55EB3A7A38E82D762F71B27EA8AC79E593BA00402FB3E PUSH1 0x0 SHL PUSH2 0x6D7 JUMP JUMPDEST PUSH1 0x6 SLOAD PUSH1 0x6 DUP2 SWAP1 SSTORE POP JUMPDEST PUSH2 0x1BDF PUSH32 0xC24DE1A0D690ED7DB1BC0CD4D0D8BE3F4D62B9D9602C0EAB6B0CEF4F658F649F PUSH1 0x0 SHL PUSH2 0x6D7 JUMP JUMPDEST PUSH2 0x1C0B PUSH32 0xFE6035B161B8FB61A546E059E232A7DCDCD88B52E2870DE18D3A8259B8E74940 PUSH1 0x0 SHL PUSH2 0x6D7 JUMP JUMPDEST PUSH2 0x1C37 PUSH1 0x5 PUSH1 0x0 SWAP1 SLOAD SWAP1 PUSH2 0x100 EXP SWAP1 DIV PUSH20 0xFFFFFFFFFFFFFFFFFFFFFFFFFFFFFFFFFFFFFFFF AND SELFBALANCE PUSH2 0x3845 JUMP JUMPDEST PUSH2 0x1C63 PUSH32 0xE0E1A072D70FE9FB453C8948BDC610C6D0396A8D007CD60DC2E1414553B0FF6C PUSH1 0x0 SHL PUSH2 0x6D7 JUMP JUMPDEST PUSH2 0x1C8F PUSH32 0x7567E13D64D2BFC38C78A34C5BB30642B09C80A4A0789FD92924135EB0F5FC97 PUSH1 0x0 SHL PUSH2 0x6D7 JUMP JUMPDEST PUSH1 0x5 PUSH1 0x0 SWAP1 SLOAD SWAP1 PUSH2 0x100 EXP SWAP1 DIV PUSH20 0xFFFFFFFFFFFFFFFFFFFFFFFFFFFFFFFFFFFFFFFF AND PUSH20 0xFFFFFFFFFFFFFFFFFFFFFFFFFFFFFFFFFFFFFFFF AND PUSH32 0x80BABE757D4E5C7DB3B7BD10606A7BF07A9857F660977ADA6CA7A4D329376C8 DUP5 TIMESTAMP PUSH1 0x40 MLOAD PUSH2 0x1CF9 SWAP3 SWAP2 SWAP1 PUSH2 0x3FFC JUMP JUMPDEST PUSH1 0x40 MLOAD DUP1 SWAP2 SUB SWAP1 LOG2 POP POP POP POP PUSH1 0x1 PUSH1 0x2 DUP2 SWAP1 SSTORE POP JUMP JUMPDEST PUSH1 0x6 SLOAD DUP2 JUMP JUMPDEST PUSH32 0x65D7A28E3265B37A6474929F336521B332C1681B933F6CB9F3376673440D862A PUSH2 0x1D3F DUP2 PUSH2 0x3625 JUMP JUMPDEST PUSH2 0x1D6B PUSH32 0x379B296A2CEB1228BB2976AE16E37ECE01F78561BB6D8149D7FD546AF9EBBF3C PUSH1 0x0 SHL PUSH2 0x6D7 JUMP JUMPDEST PUSH2 0x1D97 PUSH32 0xC5F246B678FBC663FE041B90CF59E4F99E443656A59C4E2E0BDE946A351ECDB0 PUSH1 0x0 SHL PUSH2 0x6D7 JUMP JUMPDEST PUSH2 0x1DC3 PUSH32 0xCC827A9AEEEDD919F62861A2A57335520C44CEF791A9D1040340B60BD3EE56B8 PUSH1 0x0 SHL PUSH2 0x6D7 JUMP JUMPDEST PUSH2 0x1DCB PUSH2 0x3B63 JUMP JUMPDEST POP JUMP JUMPDEST PUSH1 0x0 DUP1 PUSH2 0x1DFD PUSH32 0xEA606A20A47AECD1F9AFBCF9E311AE8E695E6F5AB82E949680D9FA805D341869 PUSH1 0x0 SHL PUSH2 0x6D7 JUMP JUMPDEST PUSH2 0x1E29 PUSH32 0x17071B2A353BF5240C5B9BD3BB6E402C4725974BA61E3C5174A5F7C6E67A2A31 PUSH1 0x0 SHL PUSH2 0x6D7 JUMP JUMPDEST PUSH2 0x1E55 PUSH32 0x8F4D88E8B53740C5827B9A7455061198EE546BC4DE2A1BFA3272B7D8895FD52 PUSH1 0x0 SHL PUSH2 0x6D7 JUMP JUMPDEST PUSH1 0x0 PUSH32 0x0 PUSH1 0x6 SLOAD PUSH2 0x1E85 SWAP2 SWAP1 PUSH2 0x429A JUMP JUMPDEST SWAP1 POP PUSH2 0x1EB3 PUSH32 0x876A59F1BFAA4C64A1DD6C499071A70F478F8F5CC44937EA76389247115AF5E PUSH1 0x0 SHL PUSH2 0x6D7 JUMP JUMPDEST PUSH2 0x1EDF PUSH32 0xDC9A01369407EFC969119308CC7C8564605CE61129808BD4BF3D98C9D721A4A3 PUSH1 0x0 SHL PUSH2 0x6D7 JUMP JUMPDEST PUSH1 0x0 PUSH32 0x0 PUSH32 0x0 PUSH2 0x1F2D SWAP2 SWAP1 PUSH2 0x429A JUMP JUMPDEST PUSH1 0x6 SLOAD PUSH2 0x1F3A SWAP2 SWAP1 PUSH2 0x429A JUMP JUMPDEST SWAP1 POP PUSH2 0x1F68 PUSH32 0x3E8341CABE2CF234C193EA8D89784ED47960AFAE7856272E468F0B15B1DA8C3A PUSH1 0x0 SHL PUSH2 0x6D7 JUMP JUMPDEST PUSH2 0x1F94 PUSH32 0xA462D77A81DE9339543166F7157031D1F23765312A1A5B0399A87E3C92357E13 PUSH1 0x0 SHL PUSH2 0x6D7 JUMP JUMPDEST DUP2 DUP2 SWAP4 POP SWAP4 POP POP POP SWAP1 SWAP2 JUMP JUMPDEST PUSH1 0x0 DUP1 PUSH1 0x0 SWAP1 SLOAD SWAP1 PUSH2 0x100 EXP SWAP1 DIV PUSH1 0xFF AND SWAP1 POP SWAP1 JUMP JUMPDEST PUSH32 0x0 DUP2 JUMP JUMPDEST PUSH32 0x65D7A28E3265B37A6474929F336521B332C1681B933F6CB9F3376673440D862A PUSH2 0x2004 DUP2 PUSH2 0x3625 JUMP JUMPDEST PUSH2 0x2030 PUSH32 0xC5776C13DE79D8BAC540651E8389003A630862B705423718A3E1521EFB913619 PUSH1 0x0 SHL PUSH2 0x6D7 JUMP JUMPDEST PUSH2 0x205C PUSH32 0x2BA26F61C8A481D85B0D0455DD4ED006FBF68E59829634D50220EEAAFA4FBA87 PUSH1 0x0 SHL PUSH2 0x6D7 JUMP JUMPDEST PUSH2 0x2088 PUSH32 0x80F622779CBB08A856A10EE81965A9FDF70233C7F1B98A4537A5E10CBFF5FDF9 PUSH1 0x0 SHL PUSH2 0x6D7 JUMP JUMPDEST PUSH2 0x2090 PUSH2 0x3BC5 JUMP JUMPDEST POP JUMP JUMPDEST PUSH32 0x241ECF16D79D0F8DBFB92CBC07FE17840425976CF0667F022FE9877CAA831B08 PUSH2 0x20BD DUP2 PUSH2 0x3625 JUMP JUMPDEST PUSH2 0x20E9 PUSH32 0xA6FD0F9729002CE705E63217FCD3109FA687E688C6D647B956AEF111D600478C PUSH1 0x0 SHL PUSH2 0x6D7 JUMP JUMPDEST PUSH2 0x2115 PUSH32 0x5DF2A55776AB327FBE1590F6778CA126C8B91F2D49A19D1A6AE75CCD6039E1A0 PUSH1 0x0 SHL PUSH2 0x6D7 JUMP JUMPDEST PUSH2 0x2141 PUSH32 0x8FC78B6D604111772ECD41F2BD6B2BCD7D56E21B64447A038BC488D9EA6C6BEB PUSH1 0x0 SHL PUSH2 0x6D7 JUMP JUMPDEST DUP2 PUSH1 0x5 PUSH1 0x0 PUSH2 0x100 EXP DUP2 SLOAD DUP2 PUSH20 0xFFFFFFFFFFFFFFFFFFFFFFFFFFFFFFFFFFFFFFFF MUL NOT AND SWAP1 DUP4 PUSH20 0xFFFFFFFFFFFFFFFFFFFFFFFFFFFFFFFFFFFFFFFF AND MUL OR SWAP1 SSTORE POP POP POP JUMP JUMPDEST PUSH1 0x0 PUSH1 0x1 PUSH1 0x0 DUP5 DUP2 MSTORE PUSH1 0x20 ADD SWAP1 DUP2 MSTORE PUSH1 0x20 ADD PUSH1 0x0 KECCAK256 PUSH1 0x0 ADD PUSH1 0x0 DUP4 PUSH20 0xFFFFFFFFFFFFFFFFFFFFFFFFFFFFFFFFFFFFFFFF AND PUSH20 0xFFFFFFFFFFFFFFFFFFFFFFFFFFFFFFFFFFFFFFFF AND DUP2 MSTORE PUSH1 0x20 ADD SWAP1 DUP2 MSTORE PUSH1 0x20 ADD PUSH1 0x0 KECCAK256 PUSH1 0x0 SWAP1 SLOAD SWAP1 PUSH2 0x100 EXP SWAP1 DIV PUSH1 0xFF AND SWAP1 POP SWAP3 SWAP2 POP POP JUMP JUMPDEST PUSH1 0x5 PUSH1 0x0 SWAP1 SLOAD SWAP1 PUSH2 0x100 EXP SWAP1 DIV PUSH20 0xFFFFFFFFFFFFFFFFFFFFFFFFFFFFFFFFFFFFFFFF AND DUP2 JUMP JUMPDEST PUSH2 0x221F PUSH2 0x35DB JUMP JUMPDEST PUSH32 0x241ECF16D79D0F8DBFB92CBC07FE17840425976CF0667F022FE9877CAA831B08 PUSH2 0x2249 DUP2 PUSH2 0x3625 JUMP JUMPDEST PUSH2 0x2275 PUSH32 0x309EC37555F80CBF938D12D281052F3C55B28F55DAEA0C848F64DC7A7B9456D6 PUSH1 0x0 SHL PUSH2 0x6D7 JUMP JUMPDEST PUSH2 0x22A1 PUSH32 0xF9B73D92B9DB368061A64E966CD6BA4C8AD5E972C66E90E5B09A1F6052D43214 PUSH1 0x0 SHL PUSH2 0x6D7 JUMP JUMPDEST PUSH2 0x22CD PUSH32 0x6D7799A2EBD2DC3CA699A019206A9745BB33DA82E11A1BBDD0DF1F55C4F4E88 PUSH1 0x0 SHL PUSH2 0x6D7 JUMP JUMPDEST PUSH2 0x22D5 PUSH2 0x2A51 JUMP JUMPDEST PUSH2 0x2363 JUMPI PUSH2 0x2305 PUSH32 0xA3C83972B0E84EDA96EF9E1EB4790E8E495C1972249E30E3EA2E7A394DD02B24 PUSH1 0x0 SHL PUSH2 0x6D7 JUMP JUMPDEST PUSH2 0x2331 PUSH32 0x6AC4F7E70496F48450C41EA7EC86E941B6C1824B7F3230ED7CA29FDEEAAADB42 PUSH1 0x0 SHL PUSH2 0x6D7 JUMP JUMPDEST PUSH1 0x40 MLOAD PUSH32 0x9389FAD000000000000000000000000000000000000000000000000000000000 DUP2 MSTORE PUSH1 0x4 ADD PUSH1 0x40 MLOAD DUP1 SWAP2 SUB SWAP1 REVERT JUMPDEST PUSH2 0x238F PUSH32 0xD98ED6FD71B71A8756E480635BE3135DCD6227CECC78783742A05392548BBFB6 PUSH1 0x0 SHL PUSH2 0x6D7 JUMP JUMPDEST PUSH2 0x23BB PUSH32 0x4394091534E261C7141C02AF44693E4B9B4537B7C9E3B70572D1DA2ABDC52319 PUSH1 0x0 SHL PUSH2 0x6D7 JUMP JUMPDEST PUSH2 0x23E7 PUSH32 0x3680FCDB7B8E27A3483B9DD86749603F401029E621ECFFA45860E9216595E2BA PUSH1 0x0 SHL PUSH2 0x6D7 JUMP JUMPDEST PUSH1 0x0 DUP3 GT PUSH2 0x2479 JUMPI PUSH2 0x241B PUSH32 0x3F782200985EFDC5D6DB1182FEEB2B56BD5E913945A73DC0241FAD782C93F0CD PUSH1 0x0 SHL PUSH2 0x6D7 JUMP JUMPDEST PUSH2 0x2447 PUSH32 0x2862C1C38814484A8129F7A7010EBFD4DE121DCCA356AC702333398B0F24E131 PUSH1 0x0 SHL PUSH2 0x6D7 JUMP JUMPDEST PUSH1 0x40 MLOAD PUSH32 0x1D4227F500000000000000000000000000000000000000000000000000000000 DUP2 MSTORE PUSH1 0x4 ADD PUSH1 0x40 MLOAD DUP1 SWAP2 SUB SWAP1 REVERT JUMPDEST PUSH2 0x24A5 PUSH32 0x77C6F570D96165971D757833C60C3C0EA0D38CCC5ED7088FCEBA18B64F6AF16A PUSH1 0x0 SHL PUSH2 0x6D7 JUMP JUMPDEST PUSH2 0x24D1 PUSH32 0xC9C9F42AC00372DFB38A76F5BD8529423A61B9DA2BC57453BF0DE15D460E00D PUSH1 0x0 SHL PUSH2 0x6D7 JUMP JUMPDEST PUSH2 0x24FD PUSH32 0x2ABC4200687B6FF27269334377AA8B4CD517148288F7DB1920C4CDC319613F4B PUSH1 0x0 SHL PUSH2 0x6D7 JUMP JUMPDEST PUSH1 0x0 PUSH2 0x2514 DUP4 PUSH1 0x7 SLOAD PUSH2 0x3639 SWAP1 SWAP2 SWAP1 PUSH4 0xFFFFFFFF AND JUMP JUMPDEST SWAP1 POP PUSH2 0x2542 PUSH32 0x99C0BFC5233FCB1EF24BEE0AD3D4C33B7953A88563BE1FF8D657EFDEEC64805D PUSH1 0x0 SHL PUSH2 0x6D7 JUMP JUMPDEST PUSH2 0x256E PUSH32 0x7BA90488F32379FD59F0F0BF42015774976FA206672806F1B4364A32DE0AEA5F PUSH1 0x0 SHL PUSH2 0x6D7 JUMP JUMPDEST PUSH32 0x0 DUP2 GT ISZERO PUSH2 0x2620 JUMPI PUSH2 0x25C2 PUSH32 0x54975EC29501293C43D396991D89D9C97D9D382B0053468C62DD86243253DFEE PUSH1 0x0 SHL PUSH2 0x6D7 JUMP JUMPDEST PUSH2 0x25EE PUSH32 0x3583A0B05076C0D0D8827B09553FE91A6A0917FF32B72996DDB8C43CB8EC0C73 PUSH1 0x0 SHL PUSH2 0x6D7 JUMP JUMPDEST PUSH1 0x40 MLOAD PUSH32 0x80A4D17800000000000000000000000000000000000000000000000000000000 DUP2 MSTORE PUSH1 0x4 ADD PUSH1 0x40 MLOAD DUP1 SWAP2 SUB SWAP1 REVERT JUMPDEST PUSH2 0x264C PUSH32 0xFCA9BA13E7D28164A35F34CAB535D7446B324E9BEEBB51BF4FBDC00285CED59F PUSH1 0x0 SHL PUSH2 0x6D7 JUMP JUMPDEST PUSH2 0x2678 PUSH32 0xEDE2939F487E62389C5897AD99A5DEB2C775C25EB84CC01B79DF0EA9A158BE67 PUSH1 0x0 SHL PUSH2 0x6D7 JUMP JUMPDEST PUSH2 0x26A4 PUSH32 0xA302FBBBCEE075DFE945CE4B2E6318DD49B282270923ED897BA96CCA0334541B PUSH1 0x0 SHL PUSH2 0x6D7 JUMP JUMPDEST PUSH1 0x0 PUSH1 0x4 PUSH1 0x0 DUP7 PUSH20 0xFFFFFFFFFFFFFFFFFFFFFFFFFFFFFFFFFFFFFFFF AND PUSH20 0xFFFFFFFFFFFFFFFFFFFFFFFFFFFFFFFFFFFFFFFF AND DUP2 MSTORE PUSH1 0x20 ADD SWAP1 DUP2 MSTORE PUSH1 0x20 ADD PUSH1 0x0 KECCAK256 PUSH1 0x0 ADD SLOAD EQ PUSH2 0x2778 JUMPI PUSH2 0x271A PUSH32 0x7E6C78C27B696D93F06D7F6D0EF6C0E06FD42BD193390B402A10B5C1BBE7738F PUSH1 0x0 SHL PUSH2 0x6D7 JUMP JUMPDEST PUSH2 0x2746 PUSH32 0x4643D7445B8F0B4C74F6A3D137EE0E01180C48F7A2256B80AD33187EF1468340 PUSH1 0x0 SHL PUSH2 0x6D7 JUMP JUMPDEST PUSH1 0x40 MLOAD PUSH32 0x2912360200000000000000000000000000000000000000000000000000000000 DUP2 MSTORE PUSH1 0x4 ADD PUSH1 0x40 MLOAD DUP1 SWAP2 SUB SWAP1 REVERT JUMPDEST PUSH2 0x27A4 PUSH32 0x26B1B934762A61D00CE633CA292F9ED011CB1D1E6C38D11E34411BA8B24270CB PUSH1 0x0 SHL PUSH2 0x6D7 JUMP JUMPDEST PUSH2 0x27D0 PUSH32 0xA570CC251A1818A32AE3D7FB0E5EB3B23956407508C3DA842A475A08226DEF37 PUSH1 0x0 SHL PUSH2 0x6D7 JUMP JUMPDEST PUSH2 0x27FC PUSH32 0x8D507FC9763679665F7BF665289526983437A3B92C02DB06FEC5FD3462C4E3AA PUSH1 0x0 SHL PUSH2 0x6D7 JUMP JUMPDEST PUSH1 0x40 MLOAD DUP1 PUSH1 0x60 ADD PUSH1 0x40 MSTORE DUP1 DUP5 DUP2 MSTORE PUSH1 0x20 ADD TIMESTAMP DUP2 MSTORE PUSH1 0x20 ADD TIMESTAMP DUP2 MSTORE POP PUSH1 0x4 PUSH1 0x0 DUP7 PUSH20 0xFFFFFFFFFFFFFFFFFFFFFFFFFFFFFFFFFFFFFFFF AND PUSH20 0xFFFFFFFFFFFFFFFFFFFFFFFFFFFFFFFFFFFFFFFF AND DUP2 MSTORE PUSH1 0x20 ADD SWAP1 DUP2 MSTORE PUSH1 0x20 ADD PUSH1 0x0 KECCAK256 PUSH1 0x0 DUP3 ADD MLOAD DUP2 PUSH1 0x0 ADD SSTORE PUSH1 0x20 DUP3 ADD MLOAD DUP2 PUSH1 0x1 ADD SSTORE PUSH1 0x40 DUP3 ADD MLOAD DUP2 PUSH1 0x2 ADD SSTORE SWAP1 POP POP PUSH2 0x28A3 PUSH32 0x5658194FAF87F00C9C8A12BF020F3E54B5DD462987A48E8F9CF7D5B225F8650B PUSH1 0x0 SHL PUSH2 0x6D7 JUMP JUMPDEST PUSH2 0x28CF PUSH32 0x7DEE087BE0D86F3F14DC3270D1DA528B51714D38AC33EA272A029E56D2BD617B PUSH1 0x0 SHL PUSH2 0x6D7 JUMP JUMPDEST PUSH1 0x3 DUP5 SWAP1 DUP1 PUSH1 0x1 DUP2 SLOAD ADD DUP1 DUP3 SSTORE DUP1 SWAP2 POP POP PUSH1 0x1 SWAP1 SUB SWAP1 PUSH1 0x0 MSTORE PUSH1 0x20 PUSH1 0x0 KECCAK256 ADD PUSH1 0x0 SWAP1 SWAP2 SWAP1 SWAP2 SWAP1 SWAP2 PUSH2 0x100 EXP DUP2 SLOAD DUP2 PUSH20 0xFFFFFFFFFFFFFFFFFFFFFFFFFFFFFFFFFFFFFFFF MUL NOT AND SWAP1 DUP4 PUSH20 0xFFFFFFFFFFFFFFFFFFFFFFFFFFFFFFFFFFFFFFFF AND MUL OR SWAP1 SSTORE POP PUSH2 0x295E PUSH32 0x8204CBBEBA62679B0478AD7578AC16733208948830E7110DB74B4B39DC736D3C PUSH1 0x0 SHL PUSH2 0x6D7 JUMP JUMPDEST PUSH2 0x298A PUSH32 0x530423B63913250411DAB77B3A4BB25D575E00EBD4508CBEC50CCF10A4FAFFA8 PUSH1 0x0 SHL PUSH2 0x6D7 JUMP JUMPDEST DUP3 PUSH1 0x7 PUSH1 0x0 DUP3 DUP3 SLOAD PUSH2 0x299C SWAP2 SWAP1 PUSH2 0x429A JUMP JUMPDEST SWAP3 POP POP DUP2 SWAP1 SSTORE POP PUSH2 0x29CF PUSH32 0x62EA94B7EA039E6F7B1BAEAECB3427CAA8840C87BDD34DBE0D74C04D053EFB36 PUSH1 0x0 SHL PUSH2 0x6D7 JUMP JUMPDEST PUSH2 0x29FB PUSH32 0xA2965EA730E5A1F027720DC36F4E392F10DF6356CA6C6BACF06359E2E386586F PUSH1 0x0 SHL PUSH2 0x6D7 JUMP JUMPDEST DUP4 PUSH20 0xFFFFFFFFFFFFFFFFFFFFFFFFFFFFFFFFFFFFFFFF AND PUSH32 0xACE1893C759FC46036B7FDD20805D2476C58B2E6D1E56AAD3331EE5D2275393E DUP5 TIMESTAMP PUSH1 0x40 MLOAD PUSH2 0x2A43 SWAP3 SWAP2 SWAP1 PUSH2 0x3FFC JUMP JUMPDEST PUSH1 0x40 MLOAD DUP1 SWAP2 SUB SWAP1 LOG2 POP POP POP POP JUMP JUMPDEST PUSH1 0x0 PUSH2 0x2A7F PUSH32 0xCCAE2E04A13E319FDC84A5F22E7784FF6B4F9CD8FC05D38189B377B5B9118062 PUSH1 0x0 SHL PUSH2 0x6D7 JUMP JUMPDEST PUSH2 0x2AAB PUSH32 0x9DCAEFC502E93138F6E6C90C8F7321BD604D21462B2123A637642F8FEB21D274 PUSH1 0x0 SHL PUSH2 0x6D7 JUMP JUMPDEST PUSH2 0x2AD7 PUSH32 0xFEE543577F74D24E0397C4496A147DF01C56B0D293DC540A9621E53E9FB0BB56 PUSH1 0x0 SHL PUSH2 0x6D7 JUMP JUMPDEST PUSH1 0x0 DUP1 PUSH2 0x2AE2 PUSH2 0x1DCE JUMP JUMPDEST SWAP2 POP SWAP2 POP PUSH2 0x2B12 PUSH32 0x771F657356457E698978157B84630B04A3424281911856C4CC1BA2D850E1CE47 PUSH1 0x0 SHL PUSH2 0x6D7 JUMP JUMPDEST PUSH2 0x2B3E PUSH32 0xF3D2A52030730C48618214D2BF7733C554CD667933188D54527D4C953ED7DAD2 PUSH1 0x0 SHL PUSH2 0x6D7 JUMP JUMPDEST DUP2 TIMESTAMP LT ISZERO DUP1 ISZERO PUSH2 0x2B4D JUMPI POP DUP1 TIMESTAMP LT JUMPDEST ISZERO PUSH2 0x2BE1 JUMPI PUSH2 0x2B7E PUSH32 0xAE676D8AFE0057846BD54AFEF70C81D01A1BDAE37F3E18D3AA6E8536F00F6F08 PUSH1 0x0 SHL PUSH2 0x6D7 JUMP JUMPDEST PUSH2 0x2BAA PUSH32 0xD801CA7D71353376EAFBBE4E84A6E6205650E1EDC531CEEBB5E4F62F4BCAAD0C PUSH1 0x0 SHL PUSH2 0x6D7 JUMP JUMPDEST PUSH2 0x2BD6 PUSH32 0x871D4B7E84E4F36FFA28737A8FC146FB14D057EA50EB27383860308E4B7B3E98 PUSH1 0x0 SHL PUSH2 0x6D7 JUMP JUMPDEST PUSH1 0x1 SWAP3 POP POP POP PUSH2 0x2C6C JUMP JUMPDEST PUSH2 0x2C0D PUSH32 0xCC6090FA565A1B2A38C07728706B58081412D90603B78017F92910D776DF26F8 PUSH1 0x0 SHL PUSH2 0x6D7 JUMP JUMPDEST PUSH2 0x2C39 PUSH32 0xE5959920D650002C0BBD8DB117AAFF63A34807F47F99FCDAF0BA10646CA83301 PUSH1 0x0 SHL PUSH2 0x6D7 JUMP JUMPDEST PUSH2 0x2C65 PUSH32 0x65876306DF7A399D43E8F85C59ECCD23151641BF997D1D94A0F520B80DD6C5F1 PUSH1 0x0 SHL PUSH2 0x6D7 JUMP JUMPDEST PUSH1 0x0 SWAP3 POP POP POP JUMPDEST SWAP1 JUMP JUMPDEST PUSH1 0x0 DUP1 SHL DUP2 JUMP JUMPDEST PUSH1 0x60 DUP1 PUSH2 0x2CA5 PUSH32 0xD6F99A98D4E4BB5FAE30187278F73BCD28C514D637BDD7C32CFDB41DFFAA7E79 PUSH1 0x0 SHL PUSH2 0x6D7 JUMP JUMPDEST PUSH2 0x2CD1 PUSH32 0x7DC4EA4EDC839736CE935A63A76018A8C6E8CA1B1ED4BD1EB0E9472095A9931 PUSH1 0x0 SHL PUSH2 0x6D7 JUMP JUMPDEST PUSH2 0x2CFD PUSH32 0x582165F0268C2A9F2D0E2C4706A7CB0D788784BAB150231CB5FA74E794563550 PUSH1 0x0 SHL PUSH2 0x6D7 JUMP JUMPDEST PUSH1 0x3 DUP1 SLOAD SWAP1 POP PUSH8 0xFFFFFFFFFFFFFFFF DUP2 GT ISZERO PUSH2 0x2D1C JUMPI PUSH2 0x2D1B PUSH2 0x4454 JUMP JUMPDEST JUMPDEST PUSH1 0x40 MLOAD SWAP1 DUP1 DUP3 MSTORE DUP1 PUSH1 0x20 MUL PUSH1 0x20 ADD DUP3 ADD PUSH1 0x40 MSTORE DUP1 ISZERO PUSH2 0x2D4A JUMPI DUP2 PUSH1 0x20 ADD PUSH1 0x20 DUP3 MUL DUP1 CALLDATASIZE DUP4 CALLDATACOPY DUP1 DUP3 ADD SWAP2 POP POP SWAP1 POP JUMPDEST POP SWAP2 POP PUSH2 0x2D79 PUSH32 0xA2608D8FB8F4E96D30C599A10586D37E6171E6E689B709F25B6EB740F9EEB66A PUSH1 0x0 SHL PUSH2 0x6D7 JUMP JUMPDEST PUSH2 0x2DA5 PUSH32 0xE57C96D34CB8908206056B10C288065B70B3D451515FF23E17C410E9E1D5D76E PUSH1 0x0 SHL PUSH2 0x6D7 JUMP JUMPDEST PUSH1 0x3 DUP1 SLOAD DUP1 PUSH1 0x20 MUL PUSH1 0x20 ADD PUSH1 0x40 MLOAD SWAP1 DUP2 ADD PUSH1 0x40 MSTORE DUP1 SWAP3 SWAP2 SWAP1 DUP2 DUP2 MSTORE PUSH1 0x20 ADD DUP3 DUP1 SLOAD DUP1 ISZERO PUSH2 0x2E27 JUMPI PUSH1 0x20 MUL DUP3 ADD SWAP2 SWAP1 PUSH1 0x0 MSTORE PUSH1 0x20 PUSH1 0x0 KECCAK256 SWAP1 JUMPDEST DUP2 PUSH1 0x0 SWAP1 SLOAD SWAP1 PUSH2 0x100 EXP SWAP1 DIV PUSH20 0xFFFFFFFFFFFFFFFFFFFFFFFFFFFFFFFFFFFFFFFF AND PUSH20 0xFFFFFFFFFFFFFFFFFFFFFFFFFFFFFFFFFFFFFFFF AND DUP2 MSTORE PUSH1 0x20 ADD SWAP1 PUSH1 0x1 ADD SWAP1 DUP1 DUP4 GT PUSH2 0x2DDD JUMPI JUMPDEST POP POP POP POP POP SWAP2 POP PUSH2 0x2E5A PUSH32 0xD39A17765E991F78F4BFF72084F50F80A5923E741197F1C8F73EB780DB8CF952 PUSH1 0x0 SHL PUSH2 0x6D7 JUMP JUMPDEST PUSH2 0x2E86 PUSH32 0xAE6F2BACADE026C477F8BB99161D3FE8C41845C0E6EAEED1F4CD2EC1390BFB6D PUSH1 0x0 SHL PUSH2 0x6D7 JUMP JUMPDEST DUP2 MLOAD PUSH8 0xFFFFFFFFFFFFFFFF DUP2 GT ISZERO PUSH2 0x2EA1 JUMPI PUSH2 0x2EA0 PUSH2 0x4454 JUMP JUMPDEST JUMPDEST PUSH1 0x40 MLOAD SWAP1 DUP1 DUP3 MSTORE DUP1 PUSH1 0x20 MUL PUSH1 0x20 ADD DUP3 ADD PUSH1 0x40 MSTORE DUP1 ISZERO PUSH2 0x2ECF JUMPI DUP2 PUSH1 0x20 ADD PUSH1 0x20 DUP3 MUL DUP1 CALLDATASIZE DUP4 CALLDATACOPY DUP1 DUP3 ADD SWAP2 POP POP SWAP1 POP JUMPDEST POP SWAP1 POP PUSH2 0x2EFE PUSH32 0xC14FA2ADE72AE5C538C233B4DBE4DF45DB797AC7B56C45E91D7B11D89ABC3CF7 PUSH1 0x0 SHL PUSH2 0x6D7 JUMP JUMPDEST PUSH2 0x2F2A PUSH32 0x713A5C92CC88CC60E799FF4021F264D6947E2721FF705612B573C49179FEB494 PUSH1 0x0 SHL PUSH2 0x6D7 JUMP JUMPDEST PUSH1 0x0 JUMPDEST DUP3 MLOAD DUP2 LT ISZERO PUSH2 0x301B JUMPI PUSH2 0x2F62 PUSH32 0x77432218914346BBC075B99D008F58AA6EE1B955AAFEB3102B3A3B2914DEB30F PUSH1 0x0 SHL PUSH2 0x6D7 JUMP JUMPDEST PUSH2 0x2F8E PUSH32 0x8B37C9D83310795A4D1FD17C2630793B48AFDBFF53B68F8BE9BF3DB93D3DD2AC PUSH1 0x0 SHL PUSH2 0x6D7 JUMP JUMPDEST PUSH1 0x4 PUSH1 0x0 DUP5 DUP4 DUP2 MLOAD DUP2 LT PUSH2 0x2FA5 JUMPI PUSH2 0x2FA4 PUSH2 0x43DD JUMP JUMPDEST JUMPDEST PUSH1 0x20 MUL PUSH1 0x20 ADD ADD MLOAD PUSH20 0xFFFFFFFFFFFFFFFFFFFFFFFFFFFFFFFFFFFFFFFF AND PUSH20 0xFFFFFFFFFFFFFFFFFFFFFFFFFFFFFFFFFFFFFFFF AND DUP2 MSTORE PUSH1 0x20 ADD SWAP1 DUP2 MSTORE PUSH1 0x20 ADD PUSH1 0x0 KECCAK256 PUSH1 0x0 ADD SLOAD DUP3 DUP3 DUP2 MLOAD DUP2 LT PUSH2 0x2FFE JUMPI PUSH2 0x2FFD PUSH2 0x43DD JUMP JUMPDEST JUMPDEST PUSH1 0x20 MUL PUSH1 0x20 ADD ADD DUP2 DUP2 MSTORE POP POP DUP1 PUSH2 0x3014 SWAP1 PUSH2 0x440C JUMP JUMPDEST SWAP1 POP PUSH2 0x2F2D JUMP JUMPDEST POP PUSH2 0x3048 PUSH32 0xB3D76CFD39CF12B367D98CBCEFAFA1F76409C4695D700FAC56357D65F13512EA PUSH1 0x0 SHL PUSH2 0x6D7 JUMP JUMPDEST PUSH2 0x3074 PUSH32 0x900773AC55AE9E972B574463296F25A1203D2028BA6321BBA4732FD7E47DA87A PUSH1 0x0 SHL PUSH2 0x6D7 JUMP JUMPDEST SWAP1 SWAP2 JUMP JUMPDEST PUSH32 0x0 DUP2 JUMP JUMPDEST PUSH1 0x7 SLOAD DUP2 JUMP JUMPDEST PUSH1 0x0 PUSH2 0x30D0 PUSH32 0xA27AA0D2A5F1C546EFA9F8F4E51820A4BACB125CC0486CB377B05926EA4D5CEC PUSH1 0x0 SHL PUSH2 0x6D7 JUMP JUMPDEST PUSH2 0x30FC PUSH32 0x6E0365EC188301412F6DE699D08F325FDFB2EB259F9FF9567265B71BB8DABC79 PUSH1 0x0 SHL PUSH2 0x6D7 JUMP JUMPDEST PUSH2 0x3128 PUSH32 0x2239F728BB3AC4D4F4A59CFC751C70CF6E3276D640F0C6AB7E30A69E02F47C4F PUSH1 0x0 SHL PUSH2 0x6D7 JUMP JUMPDEST PUSH1 0x0 PUSH1 0x4 PUSH1 0x0 DUP5 PUSH20 0xFFFFFFFFFFFFFFFFFFFFFFFFFFFFFFFFFFFFFFFF AND PUSH20 0xFFFFFFFFFFFFFFFFFFFFFFFFFFFFFFFFFFFFFFFF AND DUP2 MSTORE PUSH1 0x20 ADD SWAP1 DUP2 MSTORE PUSH1 0x20 ADD PUSH1 0x0 KECCAK256 PUSH1 0x0 ADD SLOAD GT PUSH2 0x31FF JUMPI PUSH2 0x319E PUSH32 0xB291E7A6884E42CDB4F6F0A0FDB7BED24D9C034AC5A264B4CDB3964AF40E8EB8 PUSH1 0x0 SHL PUSH2 0x6D7 JUMP JUMPDEST PUSH2 0x31CA PUSH32 0xC2332326B1AC13F4B7CA6B808E694A10F7F8FF309AEF9C070572C56D810E7E6A PUSH1 0x0 SHL PUSH2 0x6D7 JUMP JUMPDEST PUSH2 0x31F6 PUSH32 0x8AACE9F38EC2D46155176C0AED73784D20491C1BF5C3E3A9D4AF0A208EF2875C PUSH1 0x0 SHL PUSH2 0x6D7 JUMP JUMPDEST PUSH1 0x0 SWAP1 POP PUSH2 0x3288 JUMP JUMPDEST PUSH2 0x322B PUSH32 0x806A3D65728B92D39D2201BBC18602746B2B8A58B37E1D1CC45A9664D2320BF6 PUSH1 0x0 SHL PUSH2 0x6D7 JUMP JUMPDEST PUSH2 0x3257 PUSH32 0xCEC804CB37D0EC8F33B124D9E2FC992C7E67413644B5F1344CF94FD6462F50FF PUSH1 0x0 SHL PUSH2 0x6D7 JUMP JUMPDEST PUSH2 0x3283 PUSH32 0x5E9E3C5B965C72CC89E8EE1E2C34A1B7DCDDD03F0A062C6AC0AAED1D33F21709 PUSH1 0x0 SHL PUSH2 0x6D7 JUMP JUMPDEST PUSH1 0x1 SWAP1 POP JUMPDEST SWAP2 SWAP1 POP JUMP JUMPDEST PUSH2 0x3296 DUP3 PUSH2 0x101A JUMP JUMPDEST PUSH2 0x329F DUP2 PUSH2 0x3625 JUMP JUMPDEST PUSH2 0x32A9 DUP4 DUP4 PUSH2 0x3737 JUMP JUMPDEST POP POP POP JUMP JUMPDEST PUSH1 0x3 DUP2 DUP2 SLOAD DUP2 LT PUSH2 0x32BE JUMPI PUSH1 0x0 DUP1 REVERT JUMPDEST SWAP1 PUSH1 0x0 MSTORE PUSH1 0x20 PUSH1 0x0 KECCAK256 ADD PUSH1 0x0 SWAP2 POP SLOAD SWAP1 PUSH2 0x100 EXP SWAP1 DIV PUSH20 0xFFFFFFFFFFFFFFFFFFFFFFFFFFFFFFFFFFFFFFFF AND DUP2 JUMP JUMPDEST PUSH32 0x65D7A28E3265B37A6474929F336521B332C1681B933F6CB9F3376673440D862A DUP2 JUMP JUMPDEST PUSH32 0x241ECF16D79D0F8DBFB92CBC07FE17840425976CF0667F022FE9877CAA831B08 DUP2 JUMP JUMPDEST PUSH1 0x60 PUSH1 0x0 PUSH1 0x2 DUP4 PUSH1 0x2 PUSH2 0x3348 SWAP2 SWAP1 PUSH2 0x4483 JUMP JUMPDEST PUSH2 0x3352 SWAP2 SWAP1 PUSH2 0x429A JUMP JUMPDEST PUSH8 0xFFFFFFFFFFFFFFFF DUP2 GT ISZERO PUSH2 0x336B JUMPI PUSH2 0x336A PUSH2 0x4454 JUMP JUMPDEST JUMPDEST PUSH1 0x40 MLOAD SWAP1 DUP1 DUP3 MSTORE DUP1 PUSH1 0x1F ADD PUSH1 0x1F NOT AND PUSH1 0x20 ADD DUP3 ADD PUSH1 0x40 MSTORE DUP1 ISZERO PUSH2 0x339D JUMPI DUP2 PUSH1 0x20 ADD PUSH1 0x1 DUP3 MUL DUP1 CALLDATASIZE DUP4 CALLDATACOPY DUP1 DUP3 ADD SWAP2 POP POP SWAP1 POP JUMPDEST POP SWAP1 POP PUSH32 0x3000000000000000000000000000000000000000000000000000000000000000 DUP2 PUSH1 0x0 DUP2 MLOAD DUP2 LT PUSH2 0x33D5 JUMPI PUSH2 0x33D4 PUSH2 0x43DD JUMP JUMPDEST JUMPDEST PUSH1 0x20 ADD ADD SWAP1 PUSH31 0xFFFFFFFFFFFFFFFFFFFFFFFFFFFFFFFFFFFFFFFFFFFFFFFFFFFFFFFFFFFFFF NOT AND SWAP1 DUP2 PUSH1 0x0 BYTE SWAP1 MSTORE8 POP PUSH32 0x7800000000000000000000000000000000000000000000000000000000000000 DUP2 PUSH1 0x1 DUP2 MLOAD DUP2 LT PUSH2 0x3439 JUMPI PUSH2 0x3438 PUSH2 0x43DD JUMP JUMPDEST JUMPDEST PUSH1 0x20 ADD ADD SWAP1 PUSH31 0xFFFFFFFFFFFFFFFFFFFFFFFFFFFFFFFFFFFFFFFFFFFFFFFFFFFFFFFFFFFFFF NOT AND SWAP1 DUP2 PUSH1 0x0 BYTE SWAP1 MSTORE8 POP PUSH1 0x0 PUSH1 0x1 DUP5 PUSH1 0x2 PUSH2 0x3479 SWAP2 SWAP1 PUSH2 0x4483 JUMP JUMPDEST PUSH2 0x3483 SWAP2 SWAP1 PUSH2 0x429A JUMP JUMPDEST SWAP1 POP JUMPDEST PUSH1 0x1 DUP2 GT ISZERO PUSH2 0x3523 JUMPI PUSH32 0x3031323334353637383961626364656600000000000000000000000000000000 PUSH1 0xF DUP7 AND PUSH1 0x10 DUP2 LT PUSH2 0x34C5 JUMPI PUSH2 0x34C4 PUSH2 0x43DD JUMP JUMPDEST JUMPDEST BYTE PUSH1 0xF8 SHL DUP3 DUP3 DUP2 MLOAD DUP2 LT PUSH2 0x34DC JUMPI PUSH2 0x34DB PUSH2 0x43DD JUMP JUMPDEST JUMPDEST PUSH1 0x20 ADD ADD SWAP1 PUSH31 0xFFFFFFFFFFFFFFFFFFFFFFFFFFFFFFFFFFFFFFFFFFFFFFFFFFFFFFFFFFFFFF NOT AND SWAP1 DUP2 PUSH1 0x0 BYTE SWAP1 MSTORE8 POP PUSH1 0x4 DUP6 SWAP1 SHR SWAP5 POP DUP1 PUSH2 0x351C SWAP1 PUSH2 0x44DD JUMP JUMPDEST SWAP1 POP PUSH2 0x3486 JUMP JUMPDEST POP PUSH1 0x0 DUP5 EQ PUSH2 0x3567 JUMPI PUSH1 0x40 MLOAD PUSH32 0x8C379A000000000000000000000000000000000000000000000000000000000 DUP2 MSTORE PUSH1 0x4 ADD PUSH2 0x355E SWAP1 PUSH2 0x4552 JUMP JUMPDEST PUSH1 0x40 MLOAD DUP1 SWAP2 SUB SWAP1 REVERT JUMPDEST DUP1 SWAP2 POP POP SWAP3 SWAP2 POP POP JUMP JUMPDEST PUSH1 0x0 PUSH32 0x1FFC9A700000000000000000000000000000000000000000000000000000000 PUSH28 0xFFFFFFFFFFFFFFFFFFFFFFFFFFFFFFFFFFFFFFFFFFFFFFFFFFFFFFFF NOT AND DUP3 PUSH28 0xFFFFFFFFFFFFFFFFFFFFFFFFFFFFFFFFFFFFFFFFFFFFFFFFFFFFFFFF NOT AND EQ SWAP1 POP SWAP2 SWAP1 POP JUMP JUMPDEST PUSH2 0x35E3 PUSH2 0x1FA0 JUMP JUMPDEST ISZERO PUSH2 0x3623 JUMPI PUSH1 0x40 MLOAD PUSH32 0x8C379A000000000000000000000000000000000000000000000000000000000 DUP2 MSTORE PUSH1 0x4 ADD PUSH2 0x361A SWAP1 PUSH2 0x45BE JUMP JUMPDEST PUSH1 0x40 MLOAD DUP1 SWAP2 SUB SWAP1 REVERT JUMPDEST JUMP JUMPDEST PUSH2 0x3636 DUP2 PUSH2 0x3631 PUSH2 0x372F JUMP JUMPDEST PUSH2 0x3C27 JUMP JUMPDEST POP JUMP JUMPDEST PUSH1 0x0 DUP2 DUP4 PUSH2 0x3647 SWAP2 SWAP1 PUSH2 0x429A JUMP JUMPDEST SWAP1 POP SWAP3 SWAP2 POP POP JUMP JUMPDEST PUSH2 0x3659 DUP3 DUP3 PUSH2 0x2186 JUMP JUMPDEST PUSH2 0x372B JUMPI PUSH1 0x1 DUP1 PUSH1 0x0 DUP5 DUP2 MSTORE PUSH1 0x20 ADD SWAP1 DUP2 MSTORE PUSH1 0x20 ADD PUSH1 0x0 KECCAK256 PUSH1 0x0 ADD PUSH1 0x0 DUP4 PUSH20 0xFFFFFFFFFFFFFFFFFFFFFFFFFFFFFFFFFFFFFFFF AND PUSH20 0xFFFFFFFFFFFFFFFFFFFFFFFFFFFFFFFFFFFFFFFF AND DUP2 MSTORE PUSH1 0x20 ADD SWAP1 DUP2 MSTORE PUSH1 0x20 ADD PUSH1 0x0 KECCAK256 PUSH1 0x0 PUSH2 0x100 EXP DUP2 SLOAD DUP2 PUSH1 0xFF MUL NOT AND SWAP1 DUP4 ISZERO ISZERO MUL OR SWAP1 SSTORE POP PUSH2 0x36D0 PUSH2 0x372F JUMP JUMPDEST PUSH20 0xFFFFFFFFFFFFFFFFFFFFFFFFFFFFFFFFFFFFFFFF AND DUP2 PUSH20 0xFFFFFFFFFFFFFFFFFFFFFFFFFFFFFFFFFFFFFFFF AND DUP4 PUSH32 0x2F8788117E7EFF1D82E926EC794901D17C78024A50270940304540A733656F0D PUSH1 0x40 MLOAD PUSH1 0x40 MLOAD DUP1 SWAP2 SUB SWAP1 LOG4 JUMPDEST POP POP JUMP JUMPDEST PUSH1 0x0 CALLER SWAP1 POP SWAP1 JUMP JUMPDEST PUSH2 0x3741 DUP3 DUP3 PUSH2 0x2186 JUMP JUMPDEST ISZERO PUSH2 0x3815 JUMPI PUSH1 0x0 PUSH1 0x1 PUSH1 0x0 DUP5 DUP2 MSTORE PUSH1 0x20 ADD SWAP1 DUP2 MSTORE PUSH1 0x20 ADD PUSH1 0x0 KECCAK256 PUSH1 0x0 ADD PUSH1 0x0 DUP4 PUSH20 0xFFFFFFFFFFFFFFFFFFFFFFFFFFFFFFFFFFFFFFFF AND PUSH20 0xFFFFFFFFFFFFFFFFFFFFFFFFFFFFFFFFFFFFFFFF AND DUP2 MSTORE PUSH1 0x20 ADD SWAP1 DUP2 MSTORE PUSH1 0x20 ADD PUSH1 0x0 KECCAK256 PUSH1 0x0 PUSH2 0x100 EXP DUP2 SLOAD DUP2 PUSH1 0xFF MUL NOT AND SWAP1 DUP4 ISZERO ISZERO MUL OR SWAP1 SSTORE POP PUSH2 0x37BA PUSH2 0x372F JUMP JUMPDEST PUSH20 0xFFFFFFFFFFFFFFFFFFFFFFFFFFFFFFFFFFFFFFFF AND DUP2 PUSH20 0xFFFFFFFFFFFFFFFFFFFFFFFFFFFFFFFFFFFFFFFF AND DUP4 PUSH32 0xF6391F5C32D9C69D2A47EA670B442974B53935D1EDC7FD64EB21E047A839171B PUSH1 0x40 MLOAD PUSH1 0x40 MLOAD DUP1 SWAP2 SUB SWAP1 LOG4 JUMPDEST POP POP JUMP JUMPDEST PUSH1 0x0 DUP2 DUP4 PUSH2 0x3827 SWAP2 SWAP1 PUSH2 0x4483 JUMP JUMPDEST SWAP1 POP SWAP3 SWAP2 POP POP JUMP JUMPDEST PUSH1 0x0 DUP2 DUP4 PUSH2 0x383D SWAP2 SWAP1 PUSH2 0x460D JUMP JUMPDEST SWAP1 POP SWAP3 SWAP2 POP POP JUMP JUMPDEST PUSH2 0x3871 PUSH32 0xC592BA52D5DA27A903014C3051B6FDF2555719CA2D5DE537EBA9EF741C036CD7 PUSH1 0x0 SHL PUSH2 0x6D7 JUMP JUMPDEST PUSH2 0x389D PUSH32 0xFAD8CBC347211C0E2A550B9FEF35A1881E67C538B61011881AADAD37958BFD5A PUSH1 0x0 SHL PUSH2 0x6D7 JUMP JUMPDEST PUSH2 0x38C9 PUSH32 0x94BD925ED31EB44EBE615FD03445963746C72F5605F220DCA735913662FF62F6 PUSH1 0x0 SHL PUSH2 0x6D7 JUMP JUMPDEST DUP1 SELFBALANCE LT ISZERO PUSH2 0x395B JUMPI PUSH2 0x38FD PUSH32 0x272B6206F77293E9F493DC299A07C6354A8A660CAB4198385D7B1A23964E43C9 PUSH1 0x0 SHL PUSH2 0x6D7 JUMP JUMPDEST PUSH2 0x3929 PUSH32 0xFC595DB70645CD3BA724C0520CE4FBCF1D4673D9C3D44B03E6167A6D0FDCFC9C PUSH1 0x0 SHL PUSH2 0x6D7 JUMP JUMPDEST PUSH1 0x40 MLOAD PUSH32 0x4890CFAE00000000000000000000000000000000000000000000000000000000 DUP2 MSTORE PUSH1 0x4 ADD PUSH1 0x40 MLOAD DUP1 SWAP2 SUB SWAP1 REVERT JUMPDEST PUSH2 0x3987 PUSH32 0xAD0EFF4C2F85236BC41448615E80883EDCF2755A8459D20ED2FEA59078353561 PUSH1 0x0 SHL PUSH2 0x6D7 JUMP JUMPDEST PUSH2 0x39B3 PUSH32 0xAD0FC763A58E29DF4BC20578692A2F28D71FA79BD5C8DE363C6F10D11598C1B9 PUSH1 0x0 SHL PUSH2 0x6D7 JUMP JUMPDEST PUSH2 0x39DF PUSH32 0x6B021219A827F7B7E772CA4E4936B073A7214E28B7395B26C5466FCF6511866E PUSH1 0x0 SHL PUSH2 0x6D7 JUMP JUMPDEST PUSH1 0x0 DUP3 PUSH20 0xFFFFFFFFFFFFFFFFFFFFFFFFFFFFFFFFFFFFFFFF AND DUP3 PUSH1 0x40 MLOAD PUSH2 0x3A05 SWAP1 PUSH2 0x466F JUMP JUMPDEST PUSH1 0x0 PUSH1 0x40 MLOAD DUP1 DUP4 SUB DUP2 DUP6 DUP8 GAS CALL SWAP3 POP POP POP RETURNDATASIZE DUP1 PUSH1 0x0 DUP2 EQ PUSH2 0x3A42 JUMPI PUSH1 0x40 MLOAD SWAP2 POP PUSH1 0x1F NOT PUSH1 0x3F RETURNDATASIZE ADD AND DUP3 ADD PUSH1 0x40 MSTORE RETURNDATASIZE DUP3 MSTORE RETURNDATASIZE PUSH1 0x0 PUSH1 0x20 DUP5 ADD RETURNDATACOPY PUSH2 0x3A47 JUMP JUMPDEST PUSH1 0x60 SWAP2 POP JUMPDEST POP POP SWAP1 POP PUSH2 0x3A77 PUSH32 0xF83849D457A1423A3E7D0E4BDEB87455ACB734D1AA05AE73F37557304FF8E875 PUSH1 0x0 SHL PUSH2 0x6D7 JUMP JUMPDEST PUSH2 0x3AA3 PUSH32 0x499B711CFE150066A536346AB042A107A58804D174AA62C32C962B7CA0EA80A4 PUSH1 0x0 SHL PUSH2 0x6D7 JUMP JUMPDEST DUP1 PUSH2 0x3B32 JUMPI PUSH2 0x3AD4 PUSH32 0xAAC80A156A8A218A991F0E4097C5093BA767CFE08DBCE98B724C6BA611B378E2 PUSH1 0x0 SHL PUSH2 0x6D7 JUMP JUMPDEST PUSH2 0x3B00 PUSH32 0xDEE4383A0822CCD20AA1E6F1EC63A8DC9879B72A958D8ADF64352301D12E2543 PUSH1 0x0 SHL PUSH2 0x6D7 JUMP JUMPDEST PUSH1 0x40 MLOAD PUSH32 0x41F5AE4500000000000000000000000000000000000000000000000000000000 DUP2 MSTORE PUSH1 0x4 ADD PUSH1 0x40 MLOAD DUP1 SWAP2 SUB SWAP1 REVERT JUMPDEST PUSH2 0x3B5E PUSH32 0x32131FC4E8EC8B3C9EC07D3BBF3C495740863ECE0A879423033923C6CF87E87C PUSH1 0x0 SHL PUSH2 0x6D7 JUMP JUMPDEST POP POP POP JUMP JUMPDEST PUSH2 0x3B6B PUSH2 0x3CC4 JUMP JUMPDEST PUSH1 0x0 DUP1 PUSH1 0x0 PUSH2 0x100 EXP DUP2 SLOAD DUP2 PUSH1 0xFF MUL NOT AND SWAP1 DUP4 ISZERO ISZERO MUL OR SWAP1 SSTORE POP PUSH32 0x5DB9EE0A495BF2E6FF9C91A7834C1BA4FDD244A5E8AA4E537BD38AEAE4B073AA PUSH2 0x3BAE PUSH2 0x372F JUMP JUMPDEST PUSH1 0x40 MLOAD PUSH2 0x3BBB SWAP2 SWAP1 PUSH2 0x4250 JUMP JUMPDEST PUSH1 0x40 MLOAD DUP1 SWAP2 SUB SWAP1 LOG1 JUMP JUMPDEST PUSH2 0x3BCD PUSH2 0x35DB JUMP JUMPDEST PUSH1 0x1 PUSH1 0x0 DUP1 PUSH2 0x100 EXP DUP2 SLOAD DUP2 PUSH1 0xFF MUL NOT AND SWAP1 DUP4 ISZERO ISZERO MUL OR SWAP1 SSTORE POP PUSH32 0x62E78CEA01BEE320CD4E420270B5EA74000D11B0C9F74754EBDBFC544B05A258 PUSH2 0x3C10 PUSH2 0x372F JUMP JUMPDEST PUSH1 0x40 MLOAD PUSH2 0x3C1D SWAP2 SWAP1 PUSH2 0x4250 JUMP JUMPDEST PUSH1 0x40 MLOAD DUP1 SWAP2 SUB SWAP1 LOG1 JUMP JUMPDEST PUSH2 0x3C31 DUP3 DUP3 PUSH2 0x2186 JUMP JUMPDEST PUSH2 0x3CC0 JUMPI PUSH2 0x3C56 DUP2 PUSH20 0xFFFFFFFFFFFFFFFFFFFFFFFFFFFFFFFFFFFFFFFF AND PUSH1 0x14 PUSH2 0x3335 JUMP JUMPDEST PUSH2 0x3C64 DUP4 PUSH1 0x0 SHR PUSH1 0x20 PUSH2 0x3335 JUMP JUMPDEST PUSH1 0x40 MLOAD PUSH1 0x20 ADD PUSH2 0x3C75 SWAP3 SWAP2 SWAP1 PUSH2 0x478D JUMP JUMPDEST PUSH1 0x40 MLOAD PUSH1 0x20 DUP2 DUP4 SUB SUB DUP2 MSTORE SWAP1 PUSH1 0x40 MSTORE PUSH1 0x40 MLOAD PUSH32 0x8C379A000000000000000000000000000000000000000000000000000000000 DUP2 MSTORE PUSH1 0x4 ADD PUSH2 0x3CB7 SWAP2 SWAP1 PUSH2 0x4811 JUMP JUMPDEST PUSH1 0x40 MLOAD DUP1 SWAP2 SUB SWAP1 REVERT JUMPDEST POP POP JUMP JUMPDEST PUSH2 0x3CCC PUSH2 0x1FA0 JUMP JUMPDEST PUSH2 0x3D0B JUMPI PUSH1 0x40 MLOAD PUSH32 0x8C379A000000000000000000000000000000000000000000000000000000000 DUP2 MSTORE PUSH1 0x4 ADD PUSH2 0x3D02 SWAP1 PUSH2 0x487F JUMP JUMPDEST PUSH1 0x40 MLOAD DUP1 SWAP2 SUB SWAP1 REVERT JUMPDEST JUMP JUMPDEST PUSH1 0x0 DUP2 SWAP1 POP SWAP2 SWAP1 POP JUMP JUMPDEST PUSH2 0x3D20 DUP2 PUSH2 0x3D0D JUMP JUMPDEST DUP3 MSTORE POP POP JUMP JUMPDEST PUSH1 0x0 PUSH1 0x20 DUP3 ADD SWAP1 POP PUSH2 0x3D3B PUSH1 0x0 DUP4 ADD DUP5 PUSH2 0x3D17 JUMP JUMPDEST SWAP3 SWAP2 POP POP JUMP JUMPDEST PUSH1 0x0 DUP1 REVERT JUMPDEST PUSH1 0x0 PUSH20 0xFFFFFFFFFFFFFFFFFFFFFFFFFFFFFFFFFFFFFFFF DUP3 AND SWAP1 POP SWAP2 SWAP1 POP JUMP JUMPDEST PUSH1 0x0 PUSH2 0x3D71 DUP3 PUSH2 0x3D46 JUMP JUMPDEST SWAP1 POP SWAP2 SWAP1 POP JUMP JUMPDEST PUSH2 0x3D81 DUP2 PUSH2 0x3D66 JUMP JUMPDEST DUP2 EQ PUSH2 0x3D8C JUMPI PUSH1 0x0 DUP1 REVERT JUMPDEST POP JUMP JUMPDEST PUSH1 0x0 DUP2 CALLDATALOAD SWAP1 POP PUSH2 0x3D9E DUP2 PUSH2 0x3D78 JUMP JUMPDEST SWAP3 SWAP2 POP POP JUMP JUMPDEST PUSH1 0x0 PUSH1 0x20 DUP3 DUP5 SUB SLT ISZERO PUSH2 0x3DBA JUMPI PUSH2 0x3DB9 PUSH2 0x3D41 JUMP JUMPDEST JUMPDEST PUSH1 0x0 PUSH2 0x3DC8 DUP5 DUP3 DUP6 ADD PUSH2 0x3D8F JUMP JUMPDEST SWAP2 POP POP SWAP3 SWAP2 POP POP JUMP JUMPDEST PUSH1 0x0 PUSH1 0x60 DUP3 ADD SWAP1 POP PUSH2 0x3DE6 PUSH1 0x0 DUP4 ADD DUP7 PUSH2 0x3D17 JUMP JUMPDEST PUSH2 0x3DF3 PUSH1 0x20 DUP4 ADD DUP6 PUSH2 0x3D17 JUMP JUMPDEST PUSH2 0x3E00 PUSH1 0x40 DUP4 ADD DUP5 PUSH2 0x3D17 JUMP JUMPDEST SWAP5 SWAP4 POP POP POP POP JUMP JUMPDEST PUSH1 0x0 PUSH32 0xFFFFFFFF00000000000000000000000000000000000000000000000000000000 DUP3 AND SWAP1 POP SWAP2 SWAP1 POP JUMP JUMPDEST PUSH2 0x3E3D DUP2 PUSH2 0x3E08 JUMP JUMPDEST DUP2 EQ PUSH2 0x3E48 JUMPI PUSH1 0x0 DUP1 REVERT JUMPDEST POP JUMP JUMPDEST PUSH1 0x0 DUP2 CALLDATALOAD SWAP1 POP PUSH2 0x3E5A DUP2 PUSH2 0x3E34 JUMP JUMPDEST SWAP3 SWAP2 POP POP JUMP JUMPDEST PUSH1 0x0 PUSH1 0x20 DUP3 DUP5 SUB SLT ISZERO PUSH2 0x3E76 JUMPI PUSH2 0x3E75 PUSH2 0x3D41 JUMP JUMPDEST JUMPDEST PUSH1 0x0 PUSH2 0x3E84 DUP5 DUP3 DUP6 ADD PUSH2 0x3E4B JUMP JUMPDEST SWAP2 POP POP SWAP3 SWAP2 POP POP JUMP JUMPDEST PUSH1 0x0 DUP2 ISZERO ISZERO SWAP1 POP SWAP2 SWAP1 POP JUMP JUMPDEST PUSH2 0x3EA2 DUP2 PUSH2 0x3E8D JUMP JUMPDEST DUP3 MSTORE POP POP JUMP JUMPDEST PUSH1 0x0 PUSH1 0x20 DUP3 ADD SWAP1 POP PUSH2 0x3EBD PUSH1 0x0 DUP4 ADD DUP5 PUSH2 0x3E99 JUMP JUMPDEST SWAP3 SWAP2 POP POP JUMP JUMPDEST PUSH2 0x3ECC DUP2 PUSH2 0x3D0D JUMP JUMPDEST DUP2 EQ PUSH2 0x3ED7 JUMPI PUSH1 0x0 DUP1 REVERT JUMPDEST POP JUMP JUMPDEST PUSH1 0x0 DUP2 CALLDATALOAD SWAP1 POP PUSH2 0x3EE9 DUP2 PUSH2 0x3EC3 JUMP JUMPDEST SWAP3 SWAP2 POP POP JUMP JUMPDEST PUSH1 0x0 DUP1 PUSH1 0x40 DUP4 DUP6 SUB SLT ISZERO PUSH2 0x3F06 JUMPI PUSH2 0x3F05 PUSH2 0x3D41 JUMP JUMPDEST JUMPDEST PUSH1 0x0 PUSH2 0x3F14 DUP6 DUP3 DUP7 ADD PUSH2 0x3D8F JUMP JUMPDEST SWAP3 POP POP PUSH1 0x20 PUSH2 0x3F25 DUP6 DUP3 DUP7 ADD PUSH2 0x3EDA JUMP JUMPDEST SWAP2 POP POP SWAP3 POP SWAP3 SWAP1 POP JUMP JUMPDEST PUSH1 0x0 DUP2 SWAP1 POP SWAP2 SWAP1 POP JUMP JUMPDEST PUSH2 0x3F42 DUP2 PUSH2 0x3F2F JUMP JUMPDEST DUP2 EQ PUSH2 0x3F4D JUMPI PUSH1 0x0 DUP1 REVERT JUMPDEST POP JUMP JUMPDEST PUSH1 0x0 DUP2 CALLDATALOAD SWAP1 POP PUSH2 0x3F5F DUP2 PUSH2 0x3F39 JUMP JUMPDEST SWAP3 SWAP2 POP POP JUMP JUMPDEST PUSH1 0x0 PUSH1 0x20 DUP3 DUP5 SUB SLT ISZERO PUSH2 0x3F7B JUMPI PUSH2 0x3F7A PUSH2 0x3D41 JUMP JUMPDEST JUMPDEST PUSH1 0x0 PUSH2 0x3F89 DUP5 DUP3 DUP6 ADD PUSH2 0x3F50 JUMP JUMPDEST SWAP2 POP POP SWAP3 SWAP2 POP POP JUMP JUMPDEST PUSH2 0x3F9B DUP2 PUSH2 0x3F2F JUMP JUMPDEST DUP3 MSTORE POP POP JUMP JUMPDEST PUSH1 0x0 PUSH1 0x20 DUP3 ADD SWAP1 POP PUSH2 0x3FB6 PUSH1 0x0 DUP4 ADD DUP5 PUSH2 0x3F92 JUMP JUMPDEST SWAP3 SWAP2 POP POP JUMP JUMPDEST PUSH1 0x0 DUP1 PUSH1 0x40 DUP4 DUP6 SUB SLT ISZERO PUSH2 0x3FD3 JUMPI PUSH2 0x3FD2 PUSH2 0x3D41 JUMP JUMPDEST JUMPDEST PUSH1 0x0 PUSH2 0x3FE1 DUP6 DUP3 DUP7 ADD PUSH2 0x3F50 JUMP JUMPDEST SWAP3 POP POP PUSH1 0x20 PUSH2 0x3FF2 DUP6 DUP3 DUP7 ADD PUSH2 0x3D8F JUMP JUMPDEST SWAP2 POP POP SWAP3 POP SWAP3 SWAP1 POP JUMP JUMPDEST PUSH1 0x0 PUSH1 0x40 DUP3 ADD SWAP1 POP PUSH2 0x4011 PUSH1 0x0 DUP4 ADD DUP6 PUSH2 0x3D17 JUMP JUMPDEST PUSH2 0x401E PUSH1 0x20 DUP4 ADD DUP5 PUSH2 0x3D17 JUMP JUMPDEST SWAP4 SWAP3 POP POP POP JUMP JUMPDEST PUSH1 0x0 PUSH2 0x4030 DUP3 PUSH2 0x3D46 JUMP JUMPDEST SWAP1 POP SWAP2 SWAP1 POP JUMP JUMPDEST PUSH2 0x4040 DUP2 PUSH2 0x4025 JUMP JUMPDEST DUP3 MSTORE POP POP JUMP JUMPDEST PUSH1 0x0 PUSH1 0x20 DUP3 ADD SWAP1 POP PUSH2 0x405B PUSH1 0x0 DUP4 ADD DUP5 PUSH2 0x4037 JUMP JUMPDEST SWAP3 SWAP2 POP POP JUMP JUMPDEST PUSH1 0x0 DUP2 MLOAD SWAP1 POP SWAP2 SWAP1 POP JUMP JUMPDEST PUSH1 0x0 DUP3 DUP3 MSTORE PUSH1 0x20 DUP3 ADD SWAP1 POP SWAP3 SWAP2 POP POP JUMP JUMPDEST PUSH1 0x0 DUP2 SWAP1 POP PUSH1 0x20 DUP3 ADD SWAP1 POP SWAP2 SWAP1 POP JUMP JUMPDEST PUSH2 0x4096 DUP2 PUSH2 0x3D66 JUMP JUMPDEST DUP3 MSTORE POP POP JUMP JUMPDEST PUSH1 0x0 PUSH2 0x40A8 DUP4 DUP4 PUSH2 0x408D JUMP JUMPDEST PUSH1 0x20 DUP4 ADD SWAP1 POP SWAP3 SWAP2 POP POP JUMP JUMPDEST PUSH1 0x0 PUSH1 0x20 DUP3 ADD SWAP1 POP SWAP2 SWAP1 POP JUMP JUMPDEST PUSH1 0x0 PUSH2 0x40CC DUP3 PUSH2 0x4061 JUMP JUMPDEST PUSH2 0x40D6 DUP2 DUP6 PUSH2 0x406C JUMP JUMPDEST SWAP4 POP PUSH2 0x40E1 DUP4 PUSH2 0x407D JUMP JUMPDEST DUP1 PUSH1 0x0 JUMPDEST DUP4 DUP2 LT ISZERO PUSH2 0x4112 JUMPI DUP2 MLOAD PUSH2 0x40F9 DUP9 DUP3 PUSH2 0x409C JUMP JUMPDEST SWAP8 POP PUSH2 0x4104 DUP4 PUSH2 0x40B4 JUMP JUMPDEST SWAP3 POP POP PUSH1 0x1 DUP2 ADD SWAP1 POP PUSH2 0x40E5 JUMP JUMPDEST POP DUP6 SWAP4 POP POP POP POP SWAP3 SWAP2 POP POP JUMP JUMPDEST PUSH1 0x0 DUP2 MLOAD SWAP1 POP SWAP2 SWAP1 POP JUMP JUMPDEST PUSH1 0x0 DUP3 DUP3 MSTORE PUSH1 0x20 DUP3 ADD SWAP1 POP SWAP3 SWAP2 POP POP JUMP JUMPDEST PUSH1 0x0 DUP2 SWAP1 POP PUSH1 0x20 DUP3 ADD SWAP1 POP SWAP2 SWAP1 POP JUMP JUMPDEST PUSH2 0x4154 DUP2 PUSH2 0x3D0D JUMP JUMPDEST DUP3 MSTORE POP POP JUMP JUMPDEST PUSH1 0x0 PUSH2 0x4166 DUP4 DUP4 PUSH2 0x414B JUMP JUMPDEST PUSH1 0x20 DUP4 ADD SWAP1 POP SWAP3 SWAP2 POP POP JUMP JUMPDEST PUSH1 0x0 PUSH1 0x20 DUP3 ADD SWAP1 POP SWAP2 SWAP1 POP JUMP JUMPDEST PUSH1 0x0 PUSH2 0x418A DUP3 PUSH2 0x411F JUMP JUMPDEST PUSH2 0x4194 DUP2 DUP6 PUSH2 0x412A JUMP JUMPDEST SWAP4 POP PUSH2 0x419F DUP4 PUSH2 0x413B JUMP JUMPDEST DUP1 PUSH1 0x0 JUMPDEST DUP4 DUP2 LT ISZERO PUSH2 0x41D0 JUMPI DUP2 MLOAD PUSH2 0x41B7 DUP9 DUP3 PUSH2 0x415A JUMP JUMPDEST SWAP8 POP PUSH2 0x41C2 DUP4 PUSH2 0x4172 JUMP JUMPDEST SWAP3 POP POP PUSH1 0x1 DUP2 ADD SWAP1 POP PUSH2 0x41A3 JUMP JUMPDEST POP DUP6 SWAP4 POP POP POP POP SWAP3 SWAP2 POP POP JUMP JUMPDEST PUSH1 0x0 PUSH1 0x40 DUP3 ADD SWAP1 POP DUP2 DUP2 SUB PUSH1 0x0 DUP4 ADD MSTORE PUSH2 0x41F7 DUP2 DUP6 PUSH2 0x40C1 JUMP JUMPDEST SWAP1 POP DUP2 DUP2 SUB PUSH1 0x20 DUP4 ADD MSTORE PUSH2 0x420B DUP2 DUP5 PUSH2 0x417F JUMP JUMPDEST SWAP1 POP SWAP4 SWAP3 POP POP POP JUMP JUMPDEST PUSH1 0x0 PUSH1 0x20 DUP3 DUP5 SUB SLT ISZERO PUSH2 0x422A JUMPI PUSH2 0x4229 PUSH2 0x3D41 JUMP JUMPDEST JUMPDEST PUSH1 0x0 PUSH2 0x4238 DUP5 DUP3 DUP6 ADD PUSH2 0x3EDA JUMP JUMPDEST SWAP2 POP POP SWAP3 SWAP2 POP POP JUMP JUMPDEST PUSH2 0x424A DUP2 PUSH2 0x3D66 JUMP JUMPDEST DUP3 MSTORE POP POP JUMP JUMPDEST PUSH1 0x0 PUSH1 0x20 DUP3 ADD SWAP1 POP PUSH2 0x4265 PUSH1 0x0 DUP4 ADD DUP5 PUSH2 0x4241 JUMP JUMPDEST SWAP3 SWAP2 POP POP JUMP JUMPDEST PUSH32 0x4E487B7100000000000000000000000000000000000000000000000000000000 PUSH1 0x0 MSTORE PUSH1 0x11 PUSH1 0x4 MSTORE PUSH1 0x24 PUSH1 0x0 REVERT JUMPDEST PUSH1 0x0 PUSH2 0x42A5 DUP3 PUSH2 0x3D0D JUMP JUMPDEST SWAP2 POP PUSH2 0x42B0 DUP4 PUSH2 0x3D0D JUMP JUMPDEST SWAP3 POP DUP3 DUP3 ADD SWAP1 POP DUP1 DUP3 GT ISZERO PUSH2 0x42C8 JUMPI PUSH2 0x42C7 PUSH2 0x426B JUMP JUMPDEST JUMPDEST SWAP3 SWAP2 POP POP JUMP JUMPDEST PUSH1 0x0 DUP3 DUP3 MSTORE PUSH1 0x20 DUP3 ADD SWAP1 POP SWAP3 SWAP2 POP POP JUMP JUMPDEST PUSH32 0x416363657373436F6E74726F6C3A2063616E206F6E6C792072656E6F756E6365 PUSH1 0x0 DUP3 ADD MSTORE PUSH32 0x20726F6C657320666F722073656C660000000000000000000000000000000000 PUSH1 0x20 DUP3 ADD MSTORE POP JUMP JUMPDEST PUSH1 0x0 PUSH2 0x433B PUSH1 0x2F DUP4 PUSH2 0x42CE JUMP JUMPDEST SWAP2 POP PUSH2 0x4346 DUP3 PUSH2 0x42DF JUMP JUMPDEST PUSH1 0x40 DUP3 ADD SWAP1 POP SWAP2 SWAP1 POP JUMP JUMPDEST PUSH1 0x0 PUSH1 0x20 DUP3 ADD SWAP1 POP DUP2 DUP2 SUB PUSH1 0x0 DUP4 ADD MSTORE PUSH2 0x436A DUP2 PUSH2 0x432E JUMP JUMPDEST SWAP1 POP SWAP2 SWAP1 POP JUMP JUMPDEST PUSH32 0x5265656E7472616E637947756172643A207265656E7472616E742063616C6C00 PUSH1 0x0 DUP3 ADD MSTORE POP JUMP JUMPDEST PUSH1 0x0 PUSH2 0x43A7 PUSH1 0x1F DUP4 PUSH2 0x42CE JUMP JUMPDEST SWAP2 POP PUSH2 0x43B2 DUP3 PUSH2 0x4371 JUMP JUMPDEST PUSH1 0x20 DUP3 ADD SWAP1 POP SWAP2 SWAP1 POP JUMP JUMPDEST PUSH1 0x0 PUSH1 0x20 DUP3 ADD SWAP1 POP DUP2 DUP2 SUB PUSH1 0x0 DUP4 ADD MSTORE PUSH2 0x43D6 DUP2 PUSH2 0x439A JUMP JUMPDEST SWAP1 POP SWAP2 SWAP1 POP JUMP JUMPDEST PUSH32 0x4E487B7100000000000000000000000000000000000000000000000000000000 PUSH1 0x0 MSTORE PUSH1 0x32 PUSH1 0x4 MSTORE PUSH1 0x24 PUSH1 0x0 REVERT JUMPDEST PUSH1 0x0 PUSH2 0x4417 DUP3 PUSH2 0x3D0D JUMP JUMPDEST SWAP2 POP PUSH32 0xFFFFFFFFFFFFFFFFFFFFFFFFFFFFFFFFFFFFFFFFFFFFFFFFFFFFFFFFFFFFFFFF DUP3 SUB PUSH2 0x4449 JUMPI PUSH2 0x4448 PUSH2 0x426B JUMP JUMPDEST JUMPDEST PUSH1 0x1 DUP3 ADD SWAP1 POP SWAP2 SWAP1 POP JUMP JUMPDEST PUSH32 0x4E487B7100000000000000000000000000000000000000000000000000000000 PUSH1 0x0 MSTORE PUSH1 0x41 PUSH1 0x4 MSTORE PUSH1 0x24 PUSH1 0x0 REVERT JUMPDEST PUSH1 0x0 PUSH2 0x448E DUP3 PUSH2 0x3D0D JUMP JUMPDEST SWAP2 POP PUSH2 0x4499 DUP4 PUSH2 0x3D0D JUMP JUMPDEST SWAP3 POP DUP2 PUSH32 0xFFFFFFFFFFFFFFFFFFFFFFFFFFFFFFFFFFFFFFFFFFFFFFFFFFFFFFFFFFFFFFFF DIV DUP4 GT DUP3 ISZERO ISZERO AND ISZERO PUSH2 0x44D2 JUMPI PUSH2 0x44D1 PUSH2 0x426B JUMP JUMPDEST JUMPDEST DUP3 DUP3 MUL SWAP1 POP SWAP3 SWAP2 POP POP JUMP JUMPDEST PUSH1 0x0 PUSH2 0x44E8 DUP3 PUSH2 0x3D0D JUMP JUMPDEST SWAP2 POP PUSH1 0x0 DUP3 SUB PUSH2 0x44FB JUMPI PUSH2 0x44FA PUSH2 0x426B JUMP JUMPDEST JUMPDEST PUSH1 0x1 DUP3 SUB SWAP1 POP SWAP2 SWAP1 POP JUMP JUMPDEST PUSH32 0x537472696E67733A20686578206C656E67746820696E73756666696369656E74 PUSH1 0x0 DUP3 ADD MSTORE POP JUMP JUMPDEST PUSH1 0x0 PUSH2 0x453C PUSH1 0x20 DUP4 PUSH2 0x42CE JUMP JUMPDEST SWAP2 POP PUSH2 0x4547 DUP3 PUSH2 0x4506 JUMP JUMPDEST PUSH1 0x20 DUP3 ADD SWAP1 POP SWAP2 SWAP1 POP JUMP JUMPDEST PUSH1 0x0 PUSH1 0x20 DUP3 ADD SWAP1 POP DUP2 DUP2 SUB PUSH1 0x0 DUP4 ADD MSTORE PUSH2 0x456B DUP2 PUSH2 0x452F JUMP JUMPDEST SWAP1 POP SWAP2 SWAP1 POP JUMP JUMPDEST PUSH32 0x5061757361626C653A2070617573656400000000000000000000000000000000 PUSH1 0x0 DUP3 ADD MSTORE POP JUMP JUMPDEST PUSH1 0x0 PUSH2 0x45A8 PUSH1 0x10 DUP4 PUSH2 0x42CE JUMP JUMPDEST SWAP2 POP PUSH2 0x45B3 DUP3 PUSH2 0x4572 JUMP JUMPDEST PUSH1 0x20 DUP3 ADD SWAP1 POP SWAP2 SWAP1 POP JUMP JUMPDEST PUSH1 0x0 PUSH1 0x20 DUP3 ADD SWAP1 POP DUP2 DUP2 SUB PUSH1 0x0 DUP4 ADD MSTORE PUSH2 0x45D7 DUP2 PUSH2 0x459B JUMP JUMPDEST SWAP1 POP SWAP2 SWAP1 POP JUMP JUMPDEST PUSH32 0x4E487B7100000000000000000000000000000000000000000000000000000000 PUSH1 0x0 MSTORE PUSH1 0x12 PUSH1 0x4 MSTORE PUSH1 0x24 PUSH1 0x0 REVERT JUMPDEST PUSH1 0x0 PUSH2 0x4618 DUP3 PUSH2 0x3D0D JUMP JUMPDEST SWAP2 POP PUSH2 0x4623 DUP4 PUSH2 0x3D0D JUMP JUMPDEST SWAP3 POP DUP3 PUSH2 0x4633 JUMPI PUSH2 0x4632 PUSH2 0x45DE JUMP JUMPDEST JUMPDEST DUP3 DUP3 DIV SWAP1 POP SWAP3 SWAP2 POP POP JUMP JUMPDEST PUSH1 0x0 DUP2 SWAP1 POP SWAP3 SWAP2 POP POP JUMP JUMPDEST POP JUMP JUMPDEST PUSH1 0x0 PUSH2 0x4659 PUSH1 0x0 DUP4 PUSH2 0x463E JUMP JUMPDEST SWAP2 POP PUSH2 0x4664 DUP3 PUSH2 0x4649 JUMP JUMPDEST PUSH1 0x0 DUP3 ADD SWAP1 POP SWAP2 SWAP1 POP JUMP JUMPDEST PUSH1 0x0 PUSH2 0x467A DUP3 PUSH2 0x464C JUMP JUMPDEST SWAP2 POP DUP2 SWAP1 POP SWAP2 SWAP1 POP JUMP JUMPDEST PUSH1 0x0 DUP2 SWAP1 POP SWAP3 SWAP2 POP POP JUMP JUMPDEST PUSH32 0x416363657373436F6E74726F6C3A206163636F756E7420000000000000000000 PUSH1 0x0 DUP3 ADD MSTORE POP JUMP JUMPDEST PUSH1 0x0 PUSH2 0x46C5 PUSH1 0x17 DUP4 PUSH2 0x4684 JUMP JUMPDEST SWAP2 POP PUSH2 0x46D0 DUP3 PUSH2 0x468F JUMP JUMPDEST PUSH1 0x17 DUP3 ADD SWAP1 POP SWAP2 SWAP1 POP JUMP JUMPDEST PUSH1 0x0 DUP2 MLOAD SWAP1 POP SWAP2 SWAP1 POP JUMP JUMPDEST PUSH1 0x0 JUMPDEST DUP4 DUP2 LT ISZERO PUSH2 0x4704 JUMPI DUP1 DUP3 ADD MLOAD DUP2 DUP5 ADD MSTORE PUSH1 0x20 DUP2 ADD SWAP1 POP PUSH2 0x46E9 JUMP JUMPDEST PUSH1 0x0 DUP5 DUP5 ADD MSTORE POP POP POP POP JUMP JUMPDEST PUSH1 0x0 PUSH2 0x471B DUP3 PUSH2 0x46DB JUMP JUMPDEST PUSH2 0x4725 DUP2 DUP6 PUSH2 0x4684 JUMP JUMPDEST SWAP4 POP PUSH2 0x4735 DUP2 DUP6 PUSH1 0x20 DUP7 ADD PUSH2 0x46E6 JUMP JUMPDEST DUP1 DUP5 ADD SWAP2 POP POP SWAP3 SWAP2 POP POP JUMP JUMPDEST PUSH32 0x206973206D697373696E6720726F6C6520000000000000000000000000000000 PUSH1 0x0 DUP3 ADD MSTORE POP JUMP JUMPDEST PUSH1 0x0 PUSH2 0x4777 PUSH1 0x11 DUP4 PUSH2 0x4684 JUMP JUMPDEST SWAP2 POP PUSH2 0x4782 DUP3 PUSH2 0x4741 JUMP JUMPDEST PUSH1 0x11 DUP3 ADD SWAP1 POP SWAP2 SWAP1 POP JUMP JUMPDEST PUSH1 0x0 PUSH2 0x4798 DUP3 PUSH2 0x46B8 JUMP JUMPDEST SWAP2 POP PUSH2 0x47A4 DUP3 DUP6 PUSH2 0x4710 JUMP JUMPDEST SWAP2 POP PUSH2 0x47AF DUP3 PUSH2 0x476A JUMP JUMPDEST SWAP2 POP PUSH2 0x47BB DUP3 DUP5 PUSH2 0x4710 JUMP JUMPDEST SWAP2 POP DUP2 SWAP1 POP SWAP4 SWAP3 POP POP POP JUMP JUMPDEST PUSH1 0x0 PUSH1 0x1F NOT PUSH1 0x1F DUP4 ADD AND SWAP1 POP SWAP2 SWAP1 POP JUMP JUMPDEST PUSH1 0x0 PUSH2 0x47E3 DUP3 PUSH2 0x46DB JUMP JUMPDEST PUSH2 0x47ED DUP2 DUP6 PUSH2 0x42CE JUMP JUMPDEST SWAP4 POP PUSH2 0x47FD DUP2 DUP6 PUSH1 0x20 DUP7 ADD PUSH2 0x46E6 JUMP JUMPDEST PUSH2 0x4806 DUP2 PUSH2 0x47C7 JUMP JUMPDEST DUP5 ADD SWAP2 POP POP SWAP3 SWAP2 POP POP JUMP JUMPDEST PUSH1 0x0 PUSH1 0x20 DUP3 ADD SWAP1 POP DUP2 DUP2 SUB PUSH1 0x0 DUP4 ADD MSTORE PUSH2 0x482B DUP2 DUP5 PUSH2 0x47D8 JUMP JUMPDEST SWAP1 POP SWAP3 SWAP2 POP POP JUMP JUMPDEST PUSH32 0x5061757361626C653A206E6F7420706175736564000000000000000000000000 PUSH1 0x0 DUP3 ADD MSTORE POP JUMP JUMPDEST PUSH1 0x0 PUSH2 0x4869 PUSH1 0x14 DUP4 PUSH2 0x42CE JUMP JUMPDEST SWAP2 POP PUSH2 0x4874 DUP3 PUSH2 0x4833 JUMP JUMPDEST PUSH1 0x20 DUP3 ADD SWAP1 POP SWAP2 SWAP1 POP JUMP JUMPDEST PUSH1 0x0 PUSH1 0x20 DUP3 ADD SWAP1 POP DUP2 DUP2 SUB PUSH1 0x0 DUP4 ADD MSTORE PUSH2 0x4898 DUP2 PUSH2 0x485C JUMP JUMPDEST SWAP1 POP SWAP2 SWAP1 POP JUMP INVALID LOG2 PUSH5 0x6970667358 0x22 SLT KECCAK256 0xD1 GAS DUP1 0xA7 SHR SWAP8 PUSH28 0xF603A65FE7D1738A323AFA9CE0738C9EF8846ED0BB7808BD0064736F PUSH13 0x63430008100033000000000000 "
        },
        "gasEstimates": {
          "creation": {
            "codeDepositCost": "3729000",
            "executionCost": "infinite",
            "totalCost": "infinite"
          },
          "external": {
            "DEFAULT_ADMIN_ROLE()": "424",
            "MANAGER_ROLE()": "439",
            "PAUSER_ROLE()": "417",
            "addBeneficiary(address,uint256)": "infinite",
            "beneficiaries(address)": "infinite",
            "beneficiariesAddresses(uint256)": "5022",
            "companyTreasuryAddress()": "2604",
            "currentTotalStake()": "2496",
            "distributeFunds()": "infinite",
            "getBeneficiariesAddresses()": "infinite",
            "getRoleAdmin(bytes32)": "infinite",
            "getUpdateWindow()": "infinite",
            "grantRole(bytes32,address)": "infinite",
            "hasRole(bytes32,address)": "3208",
            "intervalSeconds()": "infinite",
            "isABeneficiary(address)": "infinite",
            "lastEndOfIntervalTimestamp()": "2497",
            "pause()": "infinite",
            "paused()": "2546",
            "renounceRole(bytes32,address)": "infinite",
            "revokeRole(bytes32,address)": "infinite",
            "setCompanyTreasuryAddress(address)": "infinite",
            "supportsInterface(bytes4)": "773",
            "unpause()": "infinite",
            "updateBeneficiariesStake(address,uint256)": "infinite",
            "updateWindowSeconds()": "infinite",
            "withinUpdateWindow()": "infinite"
          },
          "internal": {
            "c_0x92ceda51(bytes32)": "11",
            "sendValue(address payable,uint256)": "infinite"
          }
        },
        "methodIdentifiers": {
          "DEFAULT_ADMIN_ROLE()": "a217fddf",
          "MANAGER_ROLE()": "ec87621c",
          "PAUSER_ROLE()": "e63ab1e9",
          "addBeneficiary(address,uint256)": "96074e70",
          "beneficiaries(address)": "01567739",
          "beneficiariesAddresses(uint256)": "d9724ffb",
          "companyTreasuryAddress()": "9426d555",
          "currentTotalStake()": "ce4843e9",
          "distributeFunds()": "3a6a4d2e",
          "getBeneficiariesAddresses()": "be8431f9",
          "getRoleAdmin(bytes32)": "248a9ca3",
          "getUpdateWindow()": "408a3550",
          "grantRole(bytes32,address)": "2f2ff15d",
          "hasRole(bytes32,address)": "91d14854",
          "intervalSeconds()": "7d1cd04f",
          "isABeneficiary(address)": "d2414958",
          "lastEndOfIntervalTimestamp()": "3c915af7",
          "pause()": "8456cb59",
          "paused()": "5c975abb",
          "renounceRole(bytes32,address)": "36568abe",
          "revokeRole(bytes32,address)": "d547741f",
          "setCompanyTreasuryAddress(address)": "85d923ae",
          "supportsInterface(bytes4)": "01ffc9a7",
          "unpause()": "3f4ba83a",
          "updateBeneficiariesStake(address,uint256)": "0505a00f",
          "updateWindowSeconds()": "c8f29b04",
          "withinUpdateWindow()": "a128f355"
        }
      },
      "storageLayout": {
        "storage": [
          {
            "astId": 410,
            "contract": "contracts/StakeManager.sol:StakeManager",
            "label": "_paused",
            "offset": 0,
            "slot": "0",
            "type": "t_bool"
          },
          {
            "astId": 24,
            "contract": "contracts/StakeManager.sol:StakeManager",
            "label": "_roles",
            "offset": 0,
            "slot": "1",
            "type": "t_mapping(t_bytes32,t_struct(RoleData)19_storage)"
          },
          {
            "astId": 511,
            "contract": "contracts/StakeManager.sol:StakeManager",
            "label": "_status",
            "offset": 0,
            "slot": "2",
            "type": "t_uint256"
          },
          {
            "astId": 1230,
            "contract": "contracts/StakeManager.sol:StakeManager",
            "label": "beneficiariesAddresses",
            "offset": 0,
            "slot": "3",
            "type": "t_array(t_address)dyn_storage"
          },
          {
            "astId": 1235,
            "contract": "contracts/StakeManager.sol:StakeManager",
            "label": "beneficiaries",
            "offset": 0,
            "slot": "4",
            "type": "t_mapping(t_address,t_struct(Stake)1227_storage)"
          },
          {
            "astId": 1237,
            "contract": "contracts/StakeManager.sol:StakeManager",
            "label": "companyTreasuryAddress",
            "offset": 0,
            "slot": "5",
            "type": "t_address_payable"
          },
          {
            "astId": 1248,
            "contract": "contracts/StakeManager.sol:StakeManager",
            "label": "lastEndOfIntervalTimestamp",
            "offset": 0,
            "slot": "6",
            "type": "t_uint256"
          },
          {
            "astId": 1251,
            "contract": "contracts/StakeManager.sol:StakeManager",
            "label": "currentTotalStake",
            "offset": 0,
            "slot": "7",
            "type": "t_uint256"
          }
        ],
        "types": {
          "t_address": {
            "encoding": "inplace",
            "label": "address",
            "numberOfBytes": "20"
          },
          "t_address_payable": {
            "encoding": "inplace",
            "label": "address payable",
            "numberOfBytes": "20"
          },
          "t_array(t_address)dyn_storage": {
            "base": "t_address",
            "encoding": "dynamic_array",
            "label": "address[]",
            "numberOfBytes": "32"
          },
          "t_bool": {
            "encoding": "inplace",
            "label": "bool",
            "numberOfBytes": "1"
          },
          "t_bytes32": {
            "encoding": "inplace",
            "label": "bytes32",
            "numberOfBytes": "32"
          },
          "t_mapping(t_address,t_bool)": {
            "encoding": "mapping",
            "key": "t_address",
            "label": "mapping(address => bool)",
            "numberOfBytes": "32",
            "value": "t_bool"
          },
          "t_mapping(t_address,t_struct(Stake)1227_storage)": {
            "encoding": "mapping",
            "key": "t_address",
            "label": "mapping(address => struct StakeManager.Stake)",
            "numberOfBytes": "32",
            "value": "t_struct(Stake)1227_storage"
          },
          "t_mapping(t_bytes32,t_struct(RoleData)19_storage)": {
            "encoding": "mapping",
            "key": "t_bytes32",
            "label": "mapping(bytes32 => struct AccessControl.RoleData)",
            "numberOfBytes": "32",
            "value": "t_struct(RoleData)19_storage"
          },
          "t_struct(RoleData)19_storage": {
            "encoding": "inplace",
            "label": "struct AccessControl.RoleData",
            "members": [
              {
                "astId": 16,
                "contract": "contracts/StakeManager.sol:StakeManager",
                "label": "members",
                "offset": 0,
                "slot": "0",
                "type": "t_mapping(t_address,t_bool)"
              },
              {
                "astId": 18,
                "contract": "contracts/StakeManager.sol:StakeManager",
                "label": "adminRole",
                "offset": 0,
                "slot": "1",
                "type": "t_bytes32"
              }
            ],
            "numberOfBytes": "64"
          },
          "t_struct(Stake)1227_storage": {
            "encoding": "inplace",
            "label": "struct StakeManager.Stake",
            "members": [
              {
                "astId": 1222,
                "contract": "contracts/StakeManager.sol:StakeManager",
                "label": "equityTokens",
                "offset": 0,
                "slot": "0",
                "type": "t_uint256"
              },
              {
                "astId": 1224,
                "contract": "contracts/StakeManager.sol:StakeManager",
                "label": "fundsLastReceived",
                "offset": 0,
                "slot": "1",
                "type": "t_uint256"
              },
              {
                "astId": 1226,
                "contract": "contracts/StakeManager.sol:StakeManager",
                "label": "equityLastUpdated",
                "offset": 0,
                "slot": "2",
                "type": "t_uint256"
              }
            ],
            "numberOfBytes": "96"
          },
          "t_uint256": {
            "encoding": "inplace",
            "label": "uint256",
            "numberOfBytes": "32"
          }
        }
      },
      "userdoc": {
        "kind": "user",
        "methods": {
          "addBeneficiary(address,uint256)": {
            "notice": "Adds a new beneficiary with an initial stake"
          },
          "distributeFunds()": {
            "notice": "Distrbute funds to beneficiaries and remainder to Company Treasury"
          },
          "getBeneficiariesAddresses()": {
            "notice": "Gets all beneficiaries of the contract as well as their stake"
          },
          "getUpdateWindow()": {
            "notice": "Calculates the update window intervals"
          },
          "isABeneficiary(address)": {
            "notice": "Checks whether a specific address is a beneficiary of the contract"
          },
          "pause()": {
            "notice": "Pauses the contract so no interactions can be made"
          },
          "setCompanyTreasuryAddress(address)": {
            "notice": "Updates the Company Treasury address"
          },
          "unpause()": {
            "notice": "Unpauses the contract so interactions can be made"
          },
          "updateBeneficiariesStake(address,uint256)": {
            "notice": "Updates an existing beneficiary with a specific stake increase"
          },
          "withinUpdateWindow()": {
            "notice": "Returns whether we are within the update window"
          }
        },
        "version": 1
      }
    }
  }
}