{
  "contracts/StakeManager.sol": {
    "StakeManager": {
      "abi": [
        {
          "inputs": [
            {
              "internalType": "address",
              "name": "_companyTreasury",
              "type": "address"
            },
            {
              "internalType": "uint256",
              "name": "_interval",
              "type": "uint256"
            },
            {
              "internalType": "uint256",
              "name": "_window",
              "type": "uint256"
            }
          ],
          "stateMutability": "nonpayable",
          "type": "constructor"
        },
        {
          "inputs": [],
          "name": "StakeManager__ContractUpdateWindowIsNotOpen",
          "type": "error"
        },
        {
          "inputs": [],
          "name": "StakeManager__ContractUpdateWindowIsOpen",
          "type": "error"
        },
        {
          "inputs": [],
          "name": "StakeManager__InsufficientBalance",
          "type": "error"
        },
        {
          "inputs": [],
          "name": "StakeManager__StakeHolderAlreadyExists",
          "type": "error"
        },
        {
          "inputs": [],
          "name": "StakeManager__StakeHolderDoesNotExist",
          "type": "error"
        },
        {
          "inputs": [],
          "name": "StakeManager__StakeIsZero",
          "type": "error"
        },
        {
          "inputs": [],
          "name": "StakeManager__StakeLimitExceeded",
          "type": "error"
        },
        {
          "inputs": [],
          "name": "StakeManager__TransactionFailed",
          "type": "error"
        },
        {
          "anonymous": false,
          "inputs": [
            {
              "indexed": true,
              "internalType": "address",
              "name": "holder",
              "type": "address"
            },
            {
              "indexed": false,
              "internalType": "uint256",
              "name": "equityTokens",
              "type": "uint256"
            },
            {
              "indexed": false,
              "internalType": "uint256",
              "name": "timeAdded",
              "type": "uint256"
            }
          ],
          "name": "BeneficiariesAdded",
          "type": "event"
        },
        {
          "anonymous": false,
          "inputs": [
            {
              "indexed": true,
              "internalType": "address",
              "name": "holder",
              "type": "address"
            },
            {
              "indexed": false,
              "internalType": "uint256",
              "name": "equityTokens",
              "type": "uint256"
            },
            {
              "indexed": false,
              "internalType": "uint256",
              "name": "timeAdded",
              "type": "uint256"
            }
          ],
          "name": "BeneficiaryStakeIncreased",
          "type": "event"
        },
        {
          "anonymous": false,
          "inputs": [
            {
              "indexed": true,
              "internalType": "address",
              "name": "beneficiary",
              "type": "address"
            },
            {
              "indexed": false,
              "internalType": "uint256",
              "name": "amount",
              "type": "uint256"
            },
            {
              "indexed": false,
              "internalType": "uint256",
              "name": "time_distributed",
              "type": "uint256"
            }
          ],
          "name": "FundsDistributed",
          "type": "event"
        },
        {
          "anonymous": false,
          "inputs": [
            {
              "indexed": true,
              "internalType": "address",
              "name": "addr",
              "type": "address"
            },
            {
              "indexed": false,
              "internalType": "uint256",
              "name": "amount",
              "type": "uint256"
            }
          ],
          "name": "FundsReceived",
          "type": "event"
        },
        {
          "anonymous": false,
          "inputs": [
            {
              "indexed": false,
              "internalType": "address",
              "name": "account",
              "type": "address"
            }
          ],
          "name": "Paused",
          "type": "event"
        },
        {
          "anonymous": false,
          "inputs": [
            {
              "indexed": true,
              "internalType": "bytes32",
              "name": "role",
              "type": "bytes32"
            },
            {
              "indexed": true,
              "internalType": "bytes32",
              "name": "previousAdminRole",
              "type": "bytes32"
            },
            {
              "indexed": true,
              "internalType": "bytes32",
              "name": "newAdminRole",
              "type": "bytes32"
            }
          ],
          "name": "RoleAdminChanged",
          "type": "event"
        },
        {
          "anonymous": false,
          "inputs": [
            {
              "indexed": true,
              "internalType": "bytes32",
              "name": "role",
              "type": "bytes32"
            },
            {
              "indexed": true,
              "internalType": "address",
              "name": "account",
              "type": "address"
            },
            {
              "indexed": true,
              "internalType": "address",
              "name": "sender",
              "type": "address"
            }
          ],
          "name": "RoleGranted",
          "type": "event"
        },
        {
          "anonymous": false,
          "inputs": [
            {
              "indexed": true,
              "internalType": "bytes32",
              "name": "role",
              "type": "bytes32"
            },
            {
              "indexed": true,
              "internalType": "address",
              "name": "account",
              "type": "address"
            },
            {
              "indexed": true,
              "internalType": "address",
              "name": "sender",
              "type": "address"
            }
          ],
          "name": "RoleRevoked",
          "type": "event"
        },
        {
          "anonymous": false,
          "inputs": [
            {
              "indexed": false,
              "internalType": "address",
              "name": "account",
              "type": "address"
            }
          ],
          "name": "Unpaused",
          "type": "event"
        },
        {
          "inputs": [],
          "name": "DEFAULT_ADMIN_ROLE",
          "outputs": [
            {
              "internalType": "bytes32",
              "name": "",
              "type": "bytes32"
            }
          ],
          "stateMutability": "view",
          "type": "function"
        },
        {
          "inputs": [],
          "name": "MANAGER_ROLE",
          "outputs": [
            {
              "internalType": "bytes32",
              "name": "",
              "type": "bytes32"
            }
          ],
          "stateMutability": "view",
          "type": "function"
        },
        {
          "inputs": [],
          "name": "PAUSER_ROLE",
          "outputs": [
            {
              "internalType": "bytes32",
              "name": "",
              "type": "bytes32"
            }
          ],
          "stateMutability": "view",
          "type": "function"
        },
        {
          "inputs": [
            {
              "internalType": "address",
              "name": "_holder",
              "type": "address"
            },
            {
              "internalType": "uint256",
              "name": "_initialStake",
              "type": "uint256"
            }
          ],
          "name": "addBeneficiary",
          "outputs": [],
          "stateMutability": "nonpayable",
          "type": "function"
        },
        {
          "inputs": [
            {
              "internalType": "address",
              "name": "",
              "type": "address"
            }
          ],
          "name": "beneficiaries",
          "outputs": [
            {
              "internalType": "uint256",
              "name": "equityTokens",
              "type": "uint256"
            },
            {
              "internalType": "uint256",
              "name": "fundsLastReceived",
              "type": "uint256"
            },
            {
              "internalType": "uint256",
              "name": "equityLastUpdated",
              "type": "uint256"
            }
          ],
          "stateMutability": "view",
          "type": "function"
        },
        {
          "inputs": [
            {
              "internalType": "uint256",
              "name": "",
              "type": "uint256"
            }
          ],
          "name": "beneficiariesAddresses",
          "outputs": [
            {
              "internalType": "address",
              "name": "",
              "type": "address"
            }
          ],
          "stateMutability": "view",
          "type": "function"
        },
        {
          "inputs": [],
          "name": "companyTreasuryAddress",
          "outputs": [
            {
              "internalType": "address payable",
              "name": "",
              "type": "address"
            }
          ],
          "stateMutability": "view",
          "type": "function"
        },
        {
          "inputs": [],
          "name": "currentTotalStake",
          "outputs": [
            {
              "internalType": "uint256",
              "name": "",
              "type": "uint256"
            }
          ],
          "stateMutability": "view",
          "type": "function"
        },
        {
          "inputs": [],
          "name": "distributeFunds",
          "outputs": [],
          "stateMutability": "nonpayable",
          "type": "function"
        },
        {
          "inputs": [],
          "name": "getBeneficiariesAddresses",
          "outputs": [
            {
              "internalType": "address[]",
              "name": "_holders",
              "type": "address[]"
            },
            {
              "internalType": "uint256[]",
              "name": "_equityTokens",
              "type": "uint256[]"
            }
          ],
          "stateMutability": "view",
          "type": "function"
        },
        {
          "inputs": [
            {
              "internalType": "bytes32",
              "name": "role",
              "type": "bytes32"
            }
          ],
          "name": "getRoleAdmin",
          "outputs": [
            {
              "internalType": "bytes32",
              "name": "",
              "type": "bytes32"
            }
          ],
          "stateMutability": "view",
          "type": "function"
        },
        {
          "inputs": [],
          "name": "getUpdateWindow",
          "outputs": [
            {
              "internalType": "uint256",
              "name": "",
              "type": "uint256"
            },
            {
              "internalType": "uint256",
              "name": "",
              "type": "uint256"
            }
          ],
          "stateMutability": "view",
          "type": "function"
        },
        {
          "inputs": [
            {
              "internalType": "bytes32",
              "name": "role",
              "type": "bytes32"
            },
            {
              "internalType": "address",
              "name": "account",
              "type": "address"
            }
          ],
          "name": "grantRole",
          "outputs": [],
          "stateMutability": "nonpayable",
          "type": "function"
        },
        {
          "inputs": [
            {
              "internalType": "bytes32",
              "name": "role",
              "type": "bytes32"
            },
            {
              "internalType": "address",
              "name": "account",
              "type": "address"
            }
          ],
          "name": "hasRole",
          "outputs": [
            {
              "internalType": "bool",
              "name": "",
              "type": "bool"
            }
          ],
          "stateMutability": "view",
          "type": "function"
        },
        {
          "inputs": [],
          "name": "intervalSeconds",
          "outputs": [
            {
              "internalType": "uint256",
              "name": "",
              "type": "uint256"
            }
          ],
          "stateMutability": "view",
          "type": "function"
        },
        {
          "inputs": [
            {
              "internalType": "address",
              "name": "_holder",
              "type": "address"
            }
          ],
          "name": "isABeneficiary",
          "outputs": [
            {
              "internalType": "bool",
              "name": "",
              "type": "bool"
            }
          ],
          "stateMutability": "view",
          "type": "function"
        },
        {
          "inputs": [],
          "name": "lastEndOfIntervalTimestamp",
          "outputs": [
            {
              "internalType": "uint256",
              "name": "",
              "type": "uint256"
            }
          ],
          "stateMutability": "view",
          "type": "function"
        },
        {
          "inputs": [],
          "name": "pause",
          "outputs": [],
          "stateMutability": "nonpayable",
          "type": "function"
        },
        {
          "inputs": [],
          "name": "paused",
          "outputs": [
            {
              "internalType": "bool",
              "name": "",
              "type": "bool"
            }
          ],
          "stateMutability": "view",
          "type": "function"
        },
        {
          "inputs": [
            {
              "internalType": "bytes32",
              "name": "role",
              "type": "bytes32"
            },
            {
              "internalType": "address",
              "name": "account",
              "type": "address"
            }
          ],
          "name": "renounceRole",
          "outputs": [],
          "stateMutability": "nonpayable",
          "type": "function"
        },
        {
          "inputs": [
            {
              "internalType": "bytes32",
              "name": "role",
              "type": "bytes32"
            },
            {
              "internalType": "address",
              "name": "account",
              "type": "address"
            }
          ],
          "name": "revokeRole",
          "outputs": [],
          "stateMutability": "nonpayable",
          "type": "function"
        },
        {
          "inputs": [
            {
              "internalType": "address",
              "name": "_fund",
              "type": "address"
            }
          ],
          "name": "setCompanyTreasuryAddress",
          "outputs": [],
          "stateMutability": "nonpayable",
          "type": "function"
        },
        {
          "inputs": [
            {
              "internalType": "bytes4",
              "name": "interfaceId",
              "type": "bytes4"
            }
          ],
          "name": "supportsInterface",
          "outputs": [
            {
              "internalType": "bool",
              "name": "",
              "type": "bool"
            }
          ],
          "stateMutability": "view",
          "type": "function"
        },
        {
          "inputs": [],
          "name": "unpause",
          "outputs": [],
          "stateMutability": "nonpayable",
          "type": "function"
        },
        {
          "inputs": [
            {
              "internalType": "address",
              "name": "_holder",
              "type": "address"
            },
            {
              "internalType": "uint256",
              "name": "_stakeIncrease",
              "type": "uint256"
            }
          ],
          "name": "updateBeneficiariesStake",
          "outputs": [],
          "stateMutability": "nonpayable",
          "type": "function"
        },
        {
          "inputs": [],
          "name": "updateWindowSeconds",
          "outputs": [
            {
              "internalType": "uint256",
              "name": "",
              "type": "uint256"
            }
          ],
          "stateMutability": "view",
          "type": "function"
        },
        {
          "inputs": [],
          "name": "withinUpdateWindow",
          "outputs": [
            {
              "internalType": "bool",
              "name": "",
              "type": "bool"
            }
          ],
          "stateMutability": "view",
          "type": "function"
        },
        {
          "stateMutability": "payable",
          "type": "receive"
        }
      ],
      "devdoc": {
        "custom:security-contact": "abolaji.adedeji@gmail.com",
        "details": "There are a total of 1,000,000,000 unit of shares.",
        "kind": "dev",
        "methods": {
          "addBeneficiary(address,uint256)": {
            "params": {
              "_holder": "The address of the existing beneficiary",
              "_initialStake": "The amount to initialise the preportion of the stake"
            }
          },
          "getBeneficiariesAddresses()": {
            "returns": {
              "_equityTokens": "An array of equity tokens",
              "_holders": "An array of addresses of the beneficiaries"
            }
          },
          "getRoleAdmin(bytes32)": {
            "details": "Returns the admin role that controls `role`. See {grantRole} and {revokeRole}. To change a role's admin, use {_setRoleAdmin}."
          },
          "getUpdateWindow()": {
            "returns": {
              "_0": "openTimestamp The opening timestamp of the update window",
              "_1": "closeTimestamp The closing timestamp of the update window"
            }
          },
          "grantRole(bytes32,address)": {
            "details": "Grants `role` to `account`. If `account` had not been already granted `role`, emits a {RoleGranted} event. Requirements: - the caller must have ``role``'s admin role. May emit a {RoleGranted} event."
          },
          "hasRole(bytes32,address)": {
            "details": "Returns `true` if `account` has been granted `role`."
          },
          "isABeneficiary(address)": {
            "params": {
              "_holder": "The address to check"
            },
            "returns": {
              "_0": "isABeneficiary whether or not the address is a beneficiary"
            }
          },
          "paused()": {
            "details": "Returns true if the contract is paused, and false otherwise."
          },
          "renounceRole(bytes32,address)": {
            "details": "Revokes `role` from the calling account. Roles are often managed via {grantRole} and {revokeRole}: this function's purpose is to provide a mechanism for accounts to lose their privileges if they are compromised (such as when a trusted device is misplaced). If the calling account had been revoked `role`, emits a {RoleRevoked} event. Requirements: - the caller must be `account`. May emit a {RoleRevoked} event."
          },
          "revokeRole(bytes32,address)": {
            "details": "Revokes `role` from `account`. If `account` had been granted `role`, emits a {RoleRevoked} event. Requirements: - the caller must have ``role``'s admin role. May emit a {RoleRevoked} event."
          },
          "setCompanyTreasuryAddress(address)": {
            "params": {
              "_fund": "The new address of the Impact 3 fund"
            }
          },
          "supportsInterface(bytes4)": {
            "details": "See {IERC165-supportsInterface}."
          },
          "updateBeneficiariesStake(address,uint256)": {
            "params": {
              "_holder": "The address of the existing beneficiary",
              "_stakeIncrease": "The amount to increase the equity tokens by"
            }
          },
          "withinUpdateWindow()": {
            "returns": {
              "_0": "isOpen Whether the window to update or add new beneficiaries is open"
            }
          }
        },
        "title": "An Ethereum Token Purse to distribute funds to beneficiaries.",
        "version": 1
      },
      "evm": {
        "bytecode": {
          "linkReferences": {},
          "object": "60e0604052633b9aca0060c09081525060006007553480156200002157600080fd5b506040516200369b3803806200369b8339818101604052810190620000479190620006e5565b60008060006101000a81548160ff02191690831515021790555060016002819055506200007e6000801b336200012260201b60201c565b620000b07f65d7a28e3265b37a6474929f336521b332c1681b933f6cb9f3376673440d862a336200012260201b60201c565b620000e27f241ecf16d79d0f8dbfb92cbc07fe17840425976cf0667f022fe9877caa831b08336200012260201b60201c565b620000f3836200021360201b60201c565b81608081815250508060a081815250506080514262000113919062000770565b60068190555050505062000aec565b6200013482826200028a60201b60201c565b6200020f57600180600084815260200190815260200160002060000160008373ffffffffffffffffffffffffffffffffffffffff1673ffffffffffffffffffffffffffffffffffffffff16815260200190815260200160002060006101000a81548160ff021916908315150217905550620001b4620002f560201b60201c565b73ffffffffffffffffffffffffffffffffffffffff168173ffffffffffffffffffffffffffffffffffffffff16837f2f8788117e7eff1d82e926ec794901d17c78024a50270940304540a733656f0d60405160405180910390a45b5050565b7f241ecf16d79d0f8dbfb92cbc07fe17840425976cf0667f022fe9877caa831b086200024581620002fd60201b60201c565b81600560006101000a81548173ffffffffffffffffffffffffffffffffffffffff021916908373ffffffffffffffffffffffffffffffffffffffff1602179055505050565b60006001600084815260200190815260200160002060000160008373ffffffffffffffffffffffffffffffffffffffff1673ffffffffffffffffffffffffffffffffffffffff16815260200190815260200160002060009054906101000a900460ff16905092915050565b600033905090565b6200031e8162000312620002f560201b60201c565b6200032160201b60201c565b50565b6200033382826200028a60201b60201c565b620003e157620003668173ffffffffffffffffffffffffffffffffffffffff166014620003e560201b620017f11760201c565b620003818360001c6020620003e560201b620017f11760201c565b60405160200162000394929190620008c4565b6040516020818303038152906040526040517f08c379a0000000000000000000000000000000000000000000000000000000008152600401620003d8919062000969565b60405180910390fd5b5050565b606060006002836002620003fa91906200098d565b62000406919062000770565b67ffffffffffffffff811115620004225762000421620009ee565b5b6040519080825280601f01601f191660200182016040528015620004555781602001600182028036833780820191505090505b5090507f30000000000000000000000000000000000000000000000000000000000000008160008151811062000490576200048f62000a1d565b5b60200101907effffffffffffffffffffffffffffffffffffffffffffffffffffffffffffff1916908160001a9053507f780000000000000000000000000000000000000000000000000000000000000081600181518110620004f757620004f662000a1d565b5b60200101907effffffffffffffffffffffffffffffffffffffffffffffffffffffffffffff1916908160001a905350600060018460026200053991906200098d565b62000545919062000770565b90505b6001811115620005ef577f3031323334353637383961626364656600000000000000000000000000000000600f8616601081106200058b576200058a62000a1d565b5b1a60f81b828281518110620005a557620005a462000a1d565b5b60200101907effffffffffffffffffffffffffffffffffffffffffffffffffffffffffffff1916908160001a905350600485901c945080620005e79062000a4c565b905062000548565b506000841462000636576040517f08c379a00000000000000000000000000000000000000000000000000000000081526004016200062d9062000aca565b60405180910390fd5b8091505092915050565b600080fd5b600073ffffffffffffffffffffffffffffffffffffffff82169050919050565b6000620006728262000645565b9050919050565b620006848162000665565b81146200069057600080fd5b50565b600081519050620006a48162000679565b92915050565b6000819050919050565b620006bf81620006aa565b8114620006cb57600080fd5b50565b600081519050620006df81620006b4565b92915050565b60008060006060848603121562000701576200070062000640565b5b6000620007118682870162000693565b93505060206200072486828701620006ce565b92505060406200073786828701620006ce565b9150509250925092565b7f4e487b7100000000000000000000000000000000000000000000000000000000600052601160045260246000fd5b60006200077d82620006aa565b91506200078a83620006aa565b9250828201905080821115620007a557620007a462000741565b5b92915050565b600081905092915050565b7f416363657373436f6e74726f6c3a206163636f756e7420000000000000000000600082015250565b6000620007ee601783620007ab565b9150620007fb82620007b6565b601782019050919050565b600081519050919050565b60005b838110156200083157808201518184015260208101905062000814565b60008484015250505050565b60006200084a8262000806565b620008568185620007ab565b93506200086881856020860162000811565b80840191505092915050565b7f206973206d697373696e6720726f6c6520000000000000000000000000000000600082015250565b6000620008ac601183620007ab565b9150620008b98262000874565b601182019050919050565b6000620008d182620007df565b9150620008df82856200083d565b9150620008ec826200089d565b9150620008fa82846200083d565b91508190509392505050565b600082825260208201905092915050565b6000601f19601f8301169050919050565b6000620009358262000806565b62000941818562000906565b93506200095381856020860162000811565b6200095e8162000917565b840191505092915050565b6000602082019050818103600083015262000985818462000928565b905092915050565b60006200099a82620006aa565b9150620009a783620006aa565b9250817fffffffffffffffffffffffffffffffffffffffffffffffffffffffffffffffff0483118215151615620009e357620009e262000741565b5b828202905092915050565b7f4e487b7100000000000000000000000000000000000000000000000000000000600052604160045260246000fd5b7f4e487b7100000000000000000000000000000000000000000000000000000000600052603260045260246000fd5b600062000a5982620006aa565b91506000820362000a6f5762000a6e62000741565b5b600182039050919050565b7f537472696e67733a20686578206c656e67746820696e73756666696369656e74600082015250565b600062000ab260208362000906565b915062000abf8262000a7a565b602082019050919050565b6000602082019050818103600083015262000ae58162000aa3565b9050919050565b60805160a05160c051612b5562000b466000396000818161081401528181610cd40152611284015260008181610feb01526116c3015260008181610e8501528181610fb90152818161100c01526110680152612b556000f3fe6080604052600436106101a05760003560e01c806385d923ae116100ec578063c8f29b041161008a578063d547741f11610064578063d547741f146105ef578063d9724ffb14610618578063e63ab1e914610655578063ec87621c14610680576101f5565b8063c8f29b041461055c578063ce4843e914610587578063d2414958146105b2576101f5565b806396074e70116100c657806396074e70146104b1578063a128f355146104da578063a217fddf14610505578063be8431f914610530576101f5565b806385d923ae1461042057806391d14854146104495780639426d55514610486576101f5565b80633a6a4d2e11610159578063408a355011610133578063408a3550146103875780635c975abb146103b35780637d1cd04f146103de5780638456cb5914610409576101f5565b80633a6a4d2e1461032e5780633c915af7146103455780633f4ba83a14610370576101f5565b806301567739146101fa57806301ffc9a7146102395780630505a00f14610276578063248a9ca31461029f5780632f2ff15d146102dc57806336568abe14610305576101f5565b366101f5573373ffffffffffffffffffffffffffffffffffffffff167f8e47b87b0ef542cdfa1659c551d88bad38aa7f452d2bbb349ab7530dfec8be8f346040516101eb9190611fa6565b60405180910390a2005b600080fd5b34801561020657600080fd5b50610221600480360381019061021c9190612024565b6106ab565b60405161023093929190612051565b60405180910390f35b34801561024557600080fd5b50610260600480360381019061025b91906120e0565b6106d5565b60405161026d9190612128565b60405180910390f35b34801561028257600080fd5b5061029d6004803603810190610298919061216f565b61074f565b005b3480156102ab57600080fd5b506102c660048036038101906102c191906121e5565b610a3f565b6040516102d39190612221565b60405180910390f35b3480156102e857600080fd5b5061030360048036038101906102fe919061223c565b610a5f565b005b34801561031157600080fd5b5061032c6004803603810190610327919061223c565b610a80565b005b34801561033a57600080fd5b50610343610b03565b005b34801561035157600080fd5b5061035a610f77565b6040516103679190611fa6565b60405180910390f35b34801561037c57600080fd5b50610385610f7d565b005b34801561039357600080fd5b5061039c610fb2565b6040516103aa92919061227c565b60405180910390f35b3480156103bf57600080fd5b506103c8611050565b6040516103d59190612128565b60405180910390f35b3480156103ea57600080fd5b506103f3611066565b6040516104009190611fa6565b60405180910390f35b34801561041557600080fd5b5061041e61108a565b005b34801561042c57600080fd5b5061044760048036038101906104429190612024565b6110bf565b005b34801561045557600080fd5b50610470600480360381019061046b919061223c565b61112e565b60405161047d9190612128565b60405180910390f35b34801561049257600080fd5b5061049b611199565b6040516104a891906122c6565b60405180910390f35b3480156104bd57600080fd5b506104d860048036038101906104d3919061216f565b6111bf565b005b3480156104e657600080fd5b506104ef6114a5565b6040516104fc9190612128565b60405180910390f35b34801561051157600080fd5b5061051a6114f4565b6040516105279190612221565b60405180910390f35b34801561053c57600080fd5b506105456114fb565b60405161055392919061245d565b60405180910390f35b34801561056857600080fd5b506105716116c1565b60405161057e9190611fa6565b60405180910390f35b34801561059357600080fd5b5061059c6116e5565b6040516105a99190611fa6565b60405180910390f35b3480156105be57600080fd5b506105d960048036038101906105d49190612024565b6116eb565b6040516105e69190612128565b60405180910390f35b3480156105fb57600080fd5b506106166004803603810190610611919061223c565b611749565b005b34801561062457600080fd5b5061063f600480360381019061063a9190612494565b61176a565b60405161064c91906124d0565b60405180910390f35b34801561066157600080fd5b5061066a6117a9565b6040516106779190612221565b60405180910390f35b34801561068c57600080fd5b506106956117cd565b6040516106a29190612221565b60405180910390f35b60046020528060005260406000206000915090508060000154908060010154908060020154905083565b60007f7965db0b000000000000000000000000000000000000000000000000000000007bffffffffffffffffffffffffffffffffffffffffffffffffffffffff1916827bffffffffffffffffffffffffffffffffffffffffffffffffffffffff19161480610748575061074782611a2d565b5b9050919050565b610757611a97565b7f241ecf16d79d0f8dbfb92cbc07fe17840425976cf0667f022fe9877caa831b0861078181611ae1565b6107896114a5565b6107bf576040517f9389fad000000000000000000000000000000000000000000000000000000000815260040160405180910390fd5b600082116107f9576040517f1d4227f500000000000000000000000000000000000000000000000000000000815260040160405180910390fd5b600061081083600754611af590919063ffffffff16565b90507f000000000000000000000000000000000000000000000000000000000000000081111561086c576040517f80a4d17800000000000000000000000000000000000000000000000000000000815260040160405180910390fd5b6000600460008673ffffffffffffffffffffffffffffffffffffffff1673ffffffffffffffffffffffffffffffffffffffff16815260200190815260200160002060000154116108e8576040517fc8a988fc00000000000000000000000000000000000000000000000000000000815260040160405180910390fd5b600061093f84600460008873ffffffffffffffffffffffffffffffffffffffff1673ffffffffffffffffffffffffffffffffffffffff16815260200190815260200160002060000154611af590919063ffffffff16565b905080600460008773ffffffffffffffffffffffffffffffffffffffff1673ffffffffffffffffffffffffffffffffffffffff1681526020019081526020016000206000018190555042600460008773ffffffffffffffffffffffffffffffffffffffff1673ffffffffffffffffffffffffffffffffffffffff1681526020019081526020016000206002018190555083600760008282546109e1919061251a565b925050819055508473ffffffffffffffffffffffffffffffffffffffff167ff1b87f4a688417d87b0dd9c0569040438160e0cd40b36d472c0f65069682e9908542604051610a3092919061227c565b60405180910390a25050505050565b600060016000838152602001908152602001600020600101549050919050565b610a6882610a3f565b610a7181611ae1565b610a7b8383611b0b565b505050565b610a88611beb565b73ffffffffffffffffffffffffffffffffffffffff168173ffffffffffffffffffffffffffffffffffffffff1614610af5576040517f08c379a0000000000000000000000000000000000000000000000000000000008152600401610aec906125d1565b60405180910390fd5b610aff8282611bf3565b5050565b610b0b611a97565b6002805403610b4f576040517f08c379a0000000000000000000000000000000000000000000000000000000008152600401610b469061263d565b60405180910390fd5b60028081905550610b5e6114a5565b15610b95576040517f05d27f9800000000000000000000000000000000000000000000000000000000815260040160405180910390fd5b60004790506000808203610bd5576040517f4890cfae00000000000000000000000000000000000000000000000000000000815260040160405180910390fd5b60006003805480602002602001604051908101604052809291908181526020018280548015610c5957602002820191906000526020600020905b8160009054906101000a900473ffffffffffffffffffffffffffffffffffffffff1673ffffffffffffffffffffffffffffffffffffffff1681526020019060010190808311610c0f575b5050505050905060005b8151811015610e6e57600060046000848481518110610c8557610c8461265d565b5b602002602001015173ffffffffffffffffffffffffffffffffffffffff1673ffffffffffffffffffffffffffffffffffffffff1681526020019081526020016000206000015490506000610d147f0000000000000000000000000000000000000000000000000000000000000000610d068489611cd590919063ffffffff16565b611ceb90919063ffffffff16565b90504260046000868681518110610d2e57610d2d61265d565b5b602002602001015173ffffffffffffffffffffffffffffffffffffffff1673ffffffffffffffffffffffffffffffffffffffff168152602001908152602001600020600101819055508085610d83919061251a565b9450610dcd60038481548110610d9c57610d9b61265d565b5b9060005260206000200160009054906101000a900473ffffffffffffffffffffffffffffffffffffffff1682611d01565b60038381548110610de157610de061265d565b5b9060005260206000200160009054906101000a900473ffffffffffffffffffffffffffffffffffffffff1673ffffffffffffffffffffffffffffffffffffffff167f080babe757d4e5c7db3b7bd10606a7bf07a9857f660977ada6ca7a4d329376c88242604051610e5392919061227c565b60405180910390a2505080610e679061268c565b9050610c63565b506000610e79610fb2565b915050804210610ec1577f000000000000000000000000000000000000000000000000000000000000000060066000828254610eb5919061251a565b92505081905550610ecb565b6006546006819055505b610ef7600560009054906101000a900473ffffffffffffffffffffffffffffffffffffffff1647611d01565b600560009054906101000a900473ffffffffffffffffffffffffffffffffffffffff1673ffffffffffffffffffffffffffffffffffffffff167f080babe757d4e5c7db3b7bd10606a7bf07a9857f660977ada6ca7a4d329376c88442604051610f6192919061227c565b60405180910390a2505050506001600281905550565b60065481565b7f65d7a28e3265b37a6474929f336521b332c1681b933f6cb9f3376673440d862a610fa781611ae1565b610faf611de3565b50565b60008060007f0000000000000000000000000000000000000000000000000000000000000000600654610fe5919061251a565b905060007f00000000000000000000000000000000000000000000000000000000000000007f0000000000000000000000000000000000000000000000000000000000000000611035919061251a565b600654611042919061251a565b905081819350935050509091565b60008060009054906101000a900460ff16905090565b7f000000000000000000000000000000000000000000000000000000000000000081565b7f65d7a28e3265b37a6474929f336521b332c1681b933f6cb9f3376673440d862a6110b481611ae1565b6110bc611e45565b50565b7f241ecf16d79d0f8dbfb92cbc07fe17840425976cf0667f022fe9877caa831b086110e981611ae1565b81600560006101000a81548173ffffffffffffffffffffffffffffffffffffffff021916908373ffffffffffffffffffffffffffffffffffffffff1602179055505050565b60006001600084815260200190815260200160002060000160008373ffffffffffffffffffffffffffffffffffffffff1673ffffffffffffffffffffffffffffffffffffffff16815260200190815260200160002060009054906101000a900460ff16905092915050565b600560009054906101000a900473ffffffffffffffffffffffffffffffffffffffff1681565b6111c7611a97565b7f241ecf16d79d0f8dbfb92cbc07fe17840425976cf0667f022fe9877caa831b086111f181611ae1565b6111f96114a5565b61122f576040517f9389fad000000000000000000000000000000000000000000000000000000000815260040160405180910390fd5b60008211611269576040517f1d4227f500000000000000000000000000000000000000000000000000000000815260040160405180910390fd5b600061128083600754611af590919063ffffffff16565b90507f00000000000000000000000000000000000000000000000000000000000000008111156112dc576040517f80a4d17800000000000000000000000000000000000000000000000000000000815260040160405180910390fd5b6000600460008673ffffffffffffffffffffffffffffffffffffffff1673ffffffffffffffffffffffffffffffffffffffff1681526020019081526020016000206000015414611358576040517f2912360200000000000000000000000000000000000000000000000000000000815260040160405180910390fd5b604051806060016040528084815260200142815260200142815250600460008673ffffffffffffffffffffffffffffffffffffffff1673ffffffffffffffffffffffffffffffffffffffff1681526020019081526020016000206000820151816000015560208201518160010155604082015181600201559050506003849080600181540180825580915050600190039060005260206000200160009091909190916101000a81548173ffffffffffffffffffffffffffffffffffffffff021916908373ffffffffffffffffffffffffffffffffffffffff1602179055508260076000828254611448919061251a565b925050819055508373ffffffffffffffffffffffffffffffffffffffff167face1893c759fc46036b7fdd20805d2476c58b2e6d1e56aad3331ee5d2275393e844260405161149792919061227c565b60405180910390a250505050565b60008060006114b2610fb2565b915091508142101580156114c557508042105b156114d5576001925050506114f1565b6006544210156114ea576001925050506114f1565b6000925050505b90565b6000801b81565b60608060038054905067ffffffffffffffff81111561151d5761151c6126d4565b5b60405190808252806020026020018201604052801561154b5781602001602082028036833780820191505090505b50915060038054806020026020016040519081016040528092919081815260200182805480156115d057602002820191906000526020600020905b8160009054906101000a900473ffffffffffffffffffffffffffffffffffffffff1673ffffffffffffffffffffffffffffffffffffffff1681526020019060010190808311611586575b50505050509150815167ffffffffffffffff8111156115f2576115f16126d4565b5b6040519080825280602002602001820160405280156116205781602001602082028036833780820191505090505b50905060005b82518110156116bc57600460008483815181106116465761164561265d565b5b602002602001015173ffffffffffffffffffffffffffffffffffffffff1673ffffffffffffffffffffffffffffffffffffffff1681526020019081526020016000206000015482828151811061169f5761169e61265d565b5b602002602001018181525050806116b59061268c565b9050611626565b509091565b7f000000000000000000000000000000000000000000000000000000000000000081565b60075481565b600080600460008473ffffffffffffffffffffffffffffffffffffffff1673ffffffffffffffffffffffffffffffffffffffff168152602001908152602001600020600001541161173f5760009050611744565b600190505b919050565b61175282610a3f565b61175b81611ae1565b6117658383611bf3565b505050565b6003818154811061177a57600080fd5b906000526020600020016000915054906101000a900473ffffffffffffffffffffffffffffffffffffffff1681565b7f65d7a28e3265b37a6474929f336521b332c1681b933f6cb9f3376673440d862a81565b7f241ecf16d79d0f8dbfb92cbc07fe17840425976cf0667f022fe9877caa831b0881565b6060600060028360026118049190612703565b61180e919061251a565b67ffffffffffffffff811115611827576118266126d4565b5b6040519080825280601f01601f1916602001820160405280156118595781602001600182028036833780820191505090505b5090507f3000000000000000000000000000000000000000000000000000000000000000816000815181106118915761189061265d565b5b60200101907effffffffffffffffffffffffffffffffffffffffffffffffffffffffffffff1916908160001a9053507f7800000000000000000000000000000000000000000000000000000000000000816001815181106118f5576118f461265d565b5b60200101907effffffffffffffffffffffffffffffffffffffffffffffffffffffffffffff1916908160001a905350600060018460026119359190612703565b61193f919061251a565b90505b60018111156119df577f3031323334353637383961626364656600000000000000000000000000000000600f8616601081106119815761198061265d565b5b1a60f81b8282815181106119985761199761265d565b5b60200101907effffffffffffffffffffffffffffffffffffffffffffffffffffffffffffff1916908160001a905350600485901c9450806119d89061275d565b9050611942565b5060008414611a23576040517f08c379a0000000000000000000000000000000000000000000000000000000008152600401611a1a906127d2565b60405180910390fd5b8091505092915050565b60007f01ffc9a7000000000000000000000000000000000000000000000000000000007bffffffffffffffffffffffffffffffffffffffffffffffffffffffff1916827bffffffffffffffffffffffffffffffffffffffffffffffffffffffff1916149050919050565b611a9f611050565b15611adf576040517f08c379a0000000000000000000000000000000000000000000000000000000008152600401611ad69061283e565b60405180910390fd5b565b611af281611aed611beb565b611ea7565b50565b60008183611b03919061251a565b905092915050565b611b15828261112e565b611be757600180600084815260200190815260200160002060000160008373ffffffffffffffffffffffffffffffffffffffff1673ffffffffffffffffffffffffffffffffffffffff16815260200190815260200160002060006101000a81548160ff021916908315150217905550611b8c611beb565b73ffffffffffffffffffffffffffffffffffffffff168173ffffffffffffffffffffffffffffffffffffffff16837f2f8788117e7eff1d82e926ec794901d17c78024a50270940304540a733656f0d60405160405180910390a45b5050565b600033905090565b611bfd828261112e565b15611cd15760006001600084815260200190815260200160002060000160008373ffffffffffffffffffffffffffffffffffffffff1673ffffffffffffffffffffffffffffffffffffffff16815260200190815260200160002060006101000a81548160ff021916908315150217905550611c76611beb565b73ffffffffffffffffffffffffffffffffffffffff168173ffffffffffffffffffffffffffffffffffffffff16837ff6391f5c32d9c69d2a47ea670b442974b53935d1edc7fd64eb21e047a839171b60405160405180910390a45b5050565b60008183611ce39190612703565b905092915050565b60008183611cf9919061288d565b905092915050565b80471015611d3b576040517f4890cfae00000000000000000000000000000000000000000000000000000000815260040160405180910390fd5b60008273ffffffffffffffffffffffffffffffffffffffff1682604051611d61906128ef565b60006040518083038185875af1925050503d8060008114611d9e576040519150601f19603f3d011682016040523d82523d6000602084013e611da3565b606091505b5050905080611dde576040517f41f5ae4500000000000000000000000000000000000000000000000000000000815260040160405180910390fd5b505050565b611deb611f44565b60008060006101000a81548160ff0219169083151502179055507f5db9ee0a495bf2e6ff9c91a7834c1ba4fdd244a5e8aa4e537bd38aeae4b073aa611e2e611beb565b604051611e3b91906124d0565b60405180910390a1565b611e4d611a97565b60016000806101000a81548160ff0219169083151502179055507f62e78cea01bee320cd4e420270b5ea74000d11b0c9f74754ebdbfc544b05a258611e90611beb565b604051611e9d91906124d0565b60405180910390a1565b611eb1828261112e565b611f4057611ed68173ffffffffffffffffffffffffffffffffffffffff1660146117f1565b611ee48360001c60206117f1565b604051602001611ef5929190612a0d565b6040516020818303038152906040526040517f08c379a0000000000000000000000000000000000000000000000000000000008152600401611f379190612a91565b60405180910390fd5b5050565b611f4c611050565b611f8b576040517f08c379a0000000000000000000000000000000000000000000000000000000008152600401611f8290612aff565b60405180910390fd5b565b6000819050919050565b611fa081611f8d565b82525050565b6000602082019050611fbb6000830184611f97565b92915050565b600080fd5b600073ffffffffffffffffffffffffffffffffffffffff82169050919050565b6000611ff182611fc6565b9050919050565b61200181611fe6565b811461200c57600080fd5b50565b60008135905061201e81611ff8565b92915050565b60006020828403121561203a57612039611fc1565b5b60006120488482850161200f565b91505092915050565b60006060820190506120666000830186611f97565b6120736020830185611f97565b6120806040830184611f97565b949350505050565b60007fffffffff0000000000000000000000000000000000000000000000000000000082169050919050565b6120bd81612088565b81146120c857600080fd5b50565b6000813590506120da816120b4565b92915050565b6000602082840312156120f6576120f5611fc1565b5b6000612104848285016120cb565b91505092915050565b60008115159050919050565b6121228161210d565b82525050565b600060208201905061213d6000830184612119565b92915050565b61214c81611f8d565b811461215757600080fd5b50565b60008135905061216981612143565b92915050565b6000806040838503121561218657612185611fc1565b5b60006121948582860161200f565b92505060206121a58582860161215a565b9150509250929050565b6000819050919050565b6121c2816121af565b81146121cd57600080fd5b50565b6000813590506121df816121b9565b92915050565b6000602082840312156121fb576121fa611fc1565b5b6000612209848285016121d0565b91505092915050565b61221b816121af565b82525050565b60006020820190506122366000830184612212565b92915050565b6000806040838503121561225357612252611fc1565b5b6000612261858286016121d0565b92505060206122728582860161200f565b9150509250929050565b60006040820190506122916000830185611f97565b61229e6020830184611f97565b9392505050565b60006122b082611fc6565b9050919050565b6122c0816122a5565b82525050565b60006020820190506122db60008301846122b7565b92915050565b600081519050919050565b600082825260208201905092915050565b6000819050602082019050919050565b61231681611fe6565b82525050565b6000612328838361230d565b60208301905092915050565b6000602082019050919050565b600061234c826122e1565b61235681856122ec565b9350612361836122fd565b8060005b83811015612392578151612379888261231c565b975061238483612334565b925050600181019050612365565b5085935050505092915050565b600081519050919050565b600082825260208201905092915050565b6000819050602082019050919050565b6123d481611f8d565b82525050565b60006123e683836123cb565b60208301905092915050565b6000602082019050919050565b600061240a8261239f565b61241481856123aa565b935061241f836123bb565b8060005b8381101561245057815161243788826123da565b9750612442836123f2565b925050600181019050612423565b5085935050505092915050565b600060408201905081810360008301526124778185612341565b9050818103602083015261248b81846123ff565b90509392505050565b6000602082840312156124aa576124a9611fc1565b5b60006124b88482850161215a565b91505092915050565b6124ca81611fe6565b82525050565b60006020820190506124e560008301846124c1565b92915050565b7f4e487b7100000000000000000000000000000000000000000000000000000000600052601160045260246000fd5b600061252582611f8d565b915061253083611f8d565b9250828201905080821115612548576125476124eb565b5b92915050565b600082825260208201905092915050565b7f416363657373436f6e74726f6c3a2063616e206f6e6c792072656e6f756e636560008201527f20726f6c657320666f722073656c660000000000000000000000000000000000602082015250565b60006125bb602f8361254e565b91506125c68261255f565b604082019050919050565b600060208201905081810360008301526125ea816125ae565b9050919050565b7f5265656e7472616e637947756172643a207265656e7472616e742063616c6c00600082015250565b6000612627601f8361254e565b9150612632826125f1565b602082019050919050565b600060208201905081810360008301526126568161261a565b9050919050565b7f4e487b7100000000000000000000000000000000000000000000000000000000600052603260045260246000fd5b600061269782611f8d565b91507fffffffffffffffffffffffffffffffffffffffffffffffffffffffffffffffff82036126c9576126c86124eb565b5b600182019050919050565b7f4e487b7100000000000000000000000000000000000000000000000000000000600052604160045260246000fd5b600061270e82611f8d565b915061271983611f8d565b9250817fffffffffffffffffffffffffffffffffffffffffffffffffffffffffffffffff0483118215151615612752576127516124eb565b5b828202905092915050565b600061276882611f8d565b91506000820361277b5761277a6124eb565b5b600182039050919050565b7f537472696e67733a20686578206c656e67746820696e73756666696369656e74600082015250565b60006127bc60208361254e565b91506127c782612786565b602082019050919050565b600060208201905081810360008301526127eb816127af565b9050919050565b7f5061757361626c653a2070617573656400000000000000000000000000000000600082015250565b600061282860108361254e565b9150612833826127f2565b602082019050919050565b600060208201905081810360008301526128578161281b565b9050919050565b7f4e487b7100000000000000000000000000000000000000000000000000000000600052601260045260246000fd5b600061289882611f8d565b91506128a383611f8d565b9250826128b3576128b261285e565b5b828204905092915050565b600081905092915050565b50565b60006128d96000836128be565b91506128e4826128c9565b600082019050919050565b60006128fa826128cc565b9150819050919050565b600081905092915050565b7f416363657373436f6e74726f6c3a206163636f756e7420000000000000000000600082015250565b6000612945601783612904565b91506129508261290f565b601782019050919050565b600081519050919050565b60005b83811015612984578082015181840152602081019050612969565b60008484015250505050565b600061299b8261295b565b6129a58185612904565b93506129b5818560208601612966565b80840191505092915050565b7f206973206d697373696e6720726f6c6520000000000000000000000000000000600082015250565b60006129f7601183612904565b9150612a02826129c1565b601182019050919050565b6000612a1882612938565b9150612a248285612990565b9150612a2f826129ea565b9150612a3b8284612990565b91508190509392505050565b6000601f19601f8301169050919050565b6000612a638261295b565b612a6d818561254e565b9350612a7d818560208601612966565b612a8681612a47565b840191505092915050565b60006020820190508181036000830152612aab8184612a58565b905092915050565b7f5061757361626c653a206e6f7420706175736564000000000000000000000000600082015250565b6000612ae960148361254e565b9150612af482612ab3565b602082019050919050565b60006020820190508181036000830152612b1881612adc565b905091905056fea264697066735822122087a935c148a95399a4ae037a7fc492f0b96f8c9137e4473ad3858b180bf27e9364736f6c63430008100033",
          "opcodes": "PUSH1 0xE0 PUSH1 0x40 MSTORE PUSH4 0x3B9ACA00 PUSH1 0xC0 SWAP1 DUP2 MSTORE POP PUSH1 0x0 PUSH1 0x7 SSTORE CALLVALUE DUP1 ISZERO PUSH3 0x21 JUMPI PUSH1 0x0 DUP1 REVERT JUMPDEST POP PUSH1 0x40 MLOAD PUSH3 0x369B CODESIZE SUB DUP1 PUSH3 0x369B DUP4 CODECOPY DUP2 DUP2 ADD PUSH1 0x40 MSTORE DUP2 ADD SWAP1 PUSH3 0x47 SWAP2 SWAP1 PUSH3 0x6E5 JUMP JUMPDEST PUSH1 0x0 DUP1 PUSH1 0x0 PUSH2 0x100 EXP DUP2 SLOAD DUP2 PUSH1 0xFF MUL NOT AND SWAP1 DUP4 ISZERO ISZERO MUL OR SWAP1 SSTORE POP PUSH1 0x1 PUSH1 0x2 DUP2 SWAP1 SSTORE POP PUSH3 0x7E PUSH1 0x0 DUP1 SHL CALLER PUSH3 0x122 PUSH1 0x20 SHL PUSH1 0x20 SHR JUMP JUMPDEST PUSH3 0xB0 PUSH32 0x65D7A28E3265B37A6474929F336521B332C1681B933F6CB9F3376673440D862A CALLER PUSH3 0x122 PUSH1 0x20 SHL PUSH1 0x20 SHR JUMP JUMPDEST PUSH3 0xE2 PUSH32 0x241ECF16D79D0F8DBFB92CBC07FE17840425976CF0667F022FE9877CAA831B08 CALLER PUSH3 0x122 PUSH1 0x20 SHL PUSH1 0x20 SHR JUMP JUMPDEST PUSH3 0xF3 DUP4 PUSH3 0x213 PUSH1 0x20 SHL PUSH1 0x20 SHR JUMP JUMPDEST DUP2 PUSH1 0x80 DUP2 DUP2 MSTORE POP POP DUP1 PUSH1 0xA0 DUP2 DUP2 MSTORE POP POP PUSH1 0x80 MLOAD TIMESTAMP PUSH3 0x113 SWAP2 SWAP1 PUSH3 0x770 JUMP JUMPDEST PUSH1 0x6 DUP2 SWAP1 SSTORE POP POP POP POP PUSH3 0xAEC JUMP JUMPDEST PUSH3 0x134 DUP3 DUP3 PUSH3 0x28A PUSH1 0x20 SHL PUSH1 0x20 SHR JUMP JUMPDEST PUSH3 0x20F JUMPI PUSH1 0x1 DUP1 PUSH1 0x0 DUP5 DUP2 MSTORE PUSH1 0x20 ADD SWAP1 DUP2 MSTORE PUSH1 0x20 ADD PUSH1 0x0 KECCAK256 PUSH1 0x0 ADD PUSH1 0x0 DUP4 PUSH20 0xFFFFFFFFFFFFFFFFFFFFFFFFFFFFFFFFFFFFFFFF AND PUSH20 0xFFFFFFFFFFFFFFFFFFFFFFFFFFFFFFFFFFFFFFFF AND DUP2 MSTORE PUSH1 0x20 ADD SWAP1 DUP2 MSTORE PUSH1 0x20 ADD PUSH1 0x0 KECCAK256 PUSH1 0x0 PUSH2 0x100 EXP DUP2 SLOAD DUP2 PUSH1 0xFF MUL NOT AND SWAP1 DUP4 ISZERO ISZERO MUL OR SWAP1 SSTORE POP PUSH3 0x1B4 PUSH3 0x2F5 PUSH1 0x20 SHL PUSH1 0x20 SHR JUMP JUMPDEST PUSH20 0xFFFFFFFFFFFFFFFFFFFFFFFFFFFFFFFFFFFFFFFF AND DUP2 PUSH20 0xFFFFFFFFFFFFFFFFFFFFFFFFFFFFFFFFFFFFFFFF AND DUP4 PUSH32 0x2F8788117E7EFF1D82E926EC794901D17C78024A50270940304540A733656F0D PUSH1 0x40 MLOAD PUSH1 0x40 MLOAD DUP1 SWAP2 SUB SWAP1 LOG4 JUMPDEST POP POP JUMP JUMPDEST PUSH32 0x241ECF16D79D0F8DBFB92CBC07FE17840425976CF0667F022FE9877CAA831B08 PUSH3 0x245 DUP2 PUSH3 0x2FD PUSH1 0x20 SHL PUSH1 0x20 SHR JUMP JUMPDEST DUP2 PUSH1 0x5 PUSH1 0x0 PUSH2 0x100 EXP DUP2 SLOAD DUP2 PUSH20 0xFFFFFFFFFFFFFFFFFFFFFFFFFFFFFFFFFFFFFFFF MUL NOT AND SWAP1 DUP4 PUSH20 0xFFFFFFFFFFFFFFFFFFFFFFFFFFFFFFFFFFFFFFFF AND MUL OR SWAP1 SSTORE POP POP POP JUMP JUMPDEST PUSH1 0x0 PUSH1 0x1 PUSH1 0x0 DUP5 DUP2 MSTORE PUSH1 0x20 ADD SWAP1 DUP2 MSTORE PUSH1 0x20 ADD PUSH1 0x0 KECCAK256 PUSH1 0x0 ADD PUSH1 0x0 DUP4 PUSH20 0xFFFFFFFFFFFFFFFFFFFFFFFFFFFFFFFFFFFFFFFF AND PUSH20 0xFFFFFFFFFFFFFFFFFFFFFFFFFFFFFFFFFFFFFFFF AND DUP2 MSTORE PUSH1 0x20 ADD SWAP1 DUP2 MSTORE PUSH1 0x20 ADD PUSH1 0x0 KECCAK256 PUSH1 0x0 SWAP1 SLOAD SWAP1 PUSH2 0x100 EXP SWAP1 DIV PUSH1 0xFF AND SWAP1 POP SWAP3 SWAP2 POP POP JUMP JUMPDEST PUSH1 0x0 CALLER SWAP1 POP SWAP1 JUMP JUMPDEST PUSH3 0x31E DUP2 PUSH3 0x312 PUSH3 0x2F5 PUSH1 0x20 SHL PUSH1 0x20 SHR JUMP JUMPDEST PUSH3 0x321 PUSH1 0x20 SHL PUSH1 0x20 SHR JUMP JUMPDEST POP JUMP JUMPDEST PUSH3 0x333 DUP3 DUP3 PUSH3 0x28A PUSH1 0x20 SHL PUSH1 0x20 SHR JUMP JUMPDEST PUSH3 0x3E1 JUMPI PUSH3 0x366 DUP2 PUSH20 0xFFFFFFFFFFFFFFFFFFFFFFFFFFFFFFFFFFFFFFFF AND PUSH1 0x14 PUSH3 0x3E5 PUSH1 0x20 SHL PUSH3 0x17F1 OR PUSH1 0x20 SHR JUMP JUMPDEST PUSH3 0x381 DUP4 PUSH1 0x0 SHR PUSH1 0x20 PUSH3 0x3E5 PUSH1 0x20 SHL PUSH3 0x17F1 OR PUSH1 0x20 SHR JUMP JUMPDEST PUSH1 0x40 MLOAD PUSH1 0x20 ADD PUSH3 0x394 SWAP3 SWAP2 SWAP1 PUSH3 0x8C4 JUMP JUMPDEST PUSH1 0x40 MLOAD PUSH1 0x20 DUP2 DUP4 SUB SUB DUP2 MSTORE SWAP1 PUSH1 0x40 MSTORE PUSH1 0x40 MLOAD PUSH32 0x8C379A000000000000000000000000000000000000000000000000000000000 DUP2 MSTORE PUSH1 0x4 ADD PUSH3 0x3D8 SWAP2 SWAP1 PUSH3 0x969 JUMP JUMPDEST PUSH1 0x40 MLOAD DUP1 SWAP2 SUB SWAP1 REVERT JUMPDEST POP POP JUMP JUMPDEST PUSH1 0x60 PUSH1 0x0 PUSH1 0x2 DUP4 PUSH1 0x2 PUSH3 0x3FA SWAP2 SWAP1 PUSH3 0x98D JUMP JUMPDEST PUSH3 0x406 SWAP2 SWAP1 PUSH3 0x770 JUMP JUMPDEST PUSH8 0xFFFFFFFFFFFFFFFF DUP2 GT ISZERO PUSH3 0x422 JUMPI PUSH3 0x421 PUSH3 0x9EE JUMP JUMPDEST JUMPDEST PUSH1 0x40 MLOAD SWAP1 DUP1 DUP3 MSTORE DUP1 PUSH1 0x1F ADD PUSH1 0x1F NOT AND PUSH1 0x20 ADD DUP3 ADD PUSH1 0x40 MSTORE DUP1 ISZERO PUSH3 0x455 JUMPI DUP2 PUSH1 0x20 ADD PUSH1 0x1 DUP3 MUL DUP1 CALLDATASIZE DUP4 CALLDATACOPY DUP1 DUP3 ADD SWAP2 POP POP SWAP1 POP JUMPDEST POP SWAP1 POP PUSH32 0x3000000000000000000000000000000000000000000000000000000000000000 DUP2 PUSH1 0x0 DUP2 MLOAD DUP2 LT PUSH3 0x490 JUMPI PUSH3 0x48F PUSH3 0xA1D JUMP JUMPDEST JUMPDEST PUSH1 0x20 ADD ADD SWAP1 PUSH31 0xFFFFFFFFFFFFFFFFFFFFFFFFFFFFFFFFFFFFFFFFFFFFFFFFFFFFFFFFFFFFFF NOT AND SWAP1 DUP2 PUSH1 0x0 BYTE SWAP1 MSTORE8 POP PUSH32 0x7800000000000000000000000000000000000000000000000000000000000000 DUP2 PUSH1 0x1 DUP2 MLOAD DUP2 LT PUSH3 0x4F7 JUMPI PUSH3 0x4F6 PUSH3 0xA1D JUMP JUMPDEST JUMPDEST PUSH1 0x20 ADD ADD SWAP1 PUSH31 0xFFFFFFFFFFFFFFFFFFFFFFFFFFFFFFFFFFFFFFFFFFFFFFFFFFFFFFFFFFFFFF NOT AND SWAP1 DUP2 PUSH1 0x0 BYTE SWAP1 MSTORE8 POP PUSH1 0x0 PUSH1 0x1 DUP5 PUSH1 0x2 PUSH3 0x539 SWAP2 SWAP1 PUSH3 0x98D JUMP JUMPDEST PUSH3 0x545 SWAP2 SWAP1 PUSH3 0x770 JUMP JUMPDEST SWAP1 POP JUMPDEST PUSH1 0x1 DUP2 GT ISZERO PUSH3 0x5EF JUMPI PUSH32 0x3031323334353637383961626364656600000000000000000000000000000000 PUSH1 0xF DUP7 AND PUSH1 0x10 DUP2 LT PUSH3 0x58B JUMPI PUSH3 0x58A PUSH3 0xA1D JUMP JUMPDEST JUMPDEST BYTE PUSH1 0xF8 SHL DUP3 DUP3 DUP2 MLOAD DUP2 LT PUSH3 0x5A5 JUMPI PUSH3 0x5A4 PUSH3 0xA1D JUMP JUMPDEST JUMPDEST PUSH1 0x20 ADD ADD SWAP1 PUSH31 0xFFFFFFFFFFFFFFFFFFFFFFFFFFFFFFFFFFFFFFFFFFFFFFFFFFFFFFFFFFFFFF NOT AND SWAP1 DUP2 PUSH1 0x0 BYTE SWAP1 MSTORE8 POP PUSH1 0x4 DUP6 SWAP1 SHR SWAP5 POP DUP1 PUSH3 0x5E7 SWAP1 PUSH3 0xA4C JUMP JUMPDEST SWAP1 POP PUSH3 0x548 JUMP JUMPDEST POP PUSH1 0x0 DUP5 EQ PUSH3 0x636 JUMPI PUSH1 0x40 MLOAD PUSH32 0x8C379A000000000000000000000000000000000000000000000000000000000 DUP2 MSTORE PUSH1 0x4 ADD PUSH3 0x62D SWAP1 PUSH3 0xACA JUMP JUMPDEST PUSH1 0x40 MLOAD DUP1 SWAP2 SUB SWAP1 REVERT JUMPDEST DUP1 SWAP2 POP POP SWAP3 SWAP2 POP POP JUMP JUMPDEST PUSH1 0x0 DUP1 REVERT JUMPDEST PUSH1 0x0 PUSH20 0xFFFFFFFFFFFFFFFFFFFFFFFFFFFFFFFFFFFFFFFF DUP3 AND SWAP1 POP SWAP2 SWAP1 POP JUMP JUMPDEST PUSH1 0x0 PUSH3 0x672 DUP3 PUSH3 0x645 JUMP JUMPDEST SWAP1 POP SWAP2 SWAP1 POP JUMP JUMPDEST PUSH3 0x684 DUP2 PUSH3 0x665 JUMP JUMPDEST DUP2 EQ PUSH3 0x690 JUMPI PUSH1 0x0 DUP1 REVERT JUMPDEST POP JUMP JUMPDEST PUSH1 0x0 DUP2 MLOAD SWAP1 POP PUSH3 0x6A4 DUP2 PUSH3 0x679 JUMP JUMPDEST SWAP3 SWAP2 POP POP JUMP JUMPDEST PUSH1 0x0 DUP2 SWAP1 POP SWAP2 SWAP1 POP JUMP JUMPDEST PUSH3 0x6BF DUP2 PUSH3 0x6AA JUMP JUMPDEST DUP2 EQ PUSH3 0x6CB JUMPI PUSH1 0x0 DUP1 REVERT JUMPDEST POP JUMP JUMPDEST PUSH1 0x0 DUP2 MLOAD SWAP1 POP PUSH3 0x6DF DUP2 PUSH3 0x6B4 JUMP JUMPDEST SWAP3 SWAP2 POP POP JUMP JUMPDEST PUSH1 0x0 DUP1 PUSH1 0x0 PUSH1 0x60 DUP5 DUP7 SUB SLT ISZERO PUSH3 0x701 JUMPI PUSH3 0x700 PUSH3 0x640 JUMP JUMPDEST JUMPDEST PUSH1 0x0 PUSH3 0x711 DUP7 DUP3 DUP8 ADD PUSH3 0x693 JUMP JUMPDEST SWAP4 POP POP PUSH1 0x20 PUSH3 0x724 DUP7 DUP3 DUP8 ADD PUSH3 0x6CE JUMP JUMPDEST SWAP3 POP POP PUSH1 0x40 PUSH3 0x737 DUP7 DUP3 DUP8 ADD PUSH3 0x6CE JUMP JUMPDEST SWAP2 POP POP SWAP3 POP SWAP3 POP SWAP3 JUMP JUMPDEST PUSH32 0x4E487B7100000000000000000000000000000000000000000000000000000000 PUSH1 0x0 MSTORE PUSH1 0x11 PUSH1 0x4 MSTORE PUSH1 0x24 PUSH1 0x0 REVERT JUMPDEST PUSH1 0x0 PUSH3 0x77D DUP3 PUSH3 0x6AA JUMP JUMPDEST SWAP2 POP PUSH3 0x78A DUP4 PUSH3 0x6AA JUMP JUMPDEST SWAP3 POP DUP3 DUP3 ADD SWAP1 POP DUP1 DUP3 GT ISZERO PUSH3 0x7A5 JUMPI PUSH3 0x7A4 PUSH3 0x741 JUMP JUMPDEST JUMPDEST SWAP3 SWAP2 POP POP JUMP JUMPDEST PUSH1 0x0 DUP2 SWAP1 POP SWAP3 SWAP2 POP POP JUMP JUMPDEST PUSH32 0x416363657373436F6E74726F6C3A206163636F756E7420000000000000000000 PUSH1 0x0 DUP3 ADD MSTORE POP JUMP JUMPDEST PUSH1 0x0 PUSH3 0x7EE PUSH1 0x17 DUP4 PUSH3 0x7AB JUMP JUMPDEST SWAP2 POP PUSH3 0x7FB DUP3 PUSH3 0x7B6 JUMP JUMPDEST PUSH1 0x17 DUP3 ADD SWAP1 POP SWAP2 SWAP1 POP JUMP JUMPDEST PUSH1 0x0 DUP2 MLOAD SWAP1 POP SWAP2 SWAP1 POP JUMP JUMPDEST PUSH1 0x0 JUMPDEST DUP4 DUP2 LT ISZERO PUSH3 0x831 JUMPI DUP1 DUP3 ADD MLOAD DUP2 DUP5 ADD MSTORE PUSH1 0x20 DUP2 ADD SWAP1 POP PUSH3 0x814 JUMP JUMPDEST PUSH1 0x0 DUP5 DUP5 ADD MSTORE POP POP POP POP JUMP JUMPDEST PUSH1 0x0 PUSH3 0x84A DUP3 PUSH3 0x806 JUMP JUMPDEST PUSH3 0x856 DUP2 DUP6 PUSH3 0x7AB JUMP JUMPDEST SWAP4 POP PUSH3 0x868 DUP2 DUP6 PUSH1 0x20 DUP7 ADD PUSH3 0x811 JUMP JUMPDEST DUP1 DUP5 ADD SWAP2 POP POP SWAP3 SWAP2 POP POP JUMP JUMPDEST PUSH32 0x206973206D697373696E6720726F6C6520000000000000000000000000000000 PUSH1 0x0 DUP3 ADD MSTORE POP JUMP JUMPDEST PUSH1 0x0 PUSH3 0x8AC PUSH1 0x11 DUP4 PUSH3 0x7AB JUMP JUMPDEST SWAP2 POP PUSH3 0x8B9 DUP3 PUSH3 0x874 JUMP JUMPDEST PUSH1 0x11 DUP3 ADD SWAP1 POP SWAP2 SWAP1 POP JUMP JUMPDEST PUSH1 0x0 PUSH3 0x8D1 DUP3 PUSH3 0x7DF JUMP JUMPDEST SWAP2 POP PUSH3 0x8DF DUP3 DUP6 PUSH3 0x83D JUMP JUMPDEST SWAP2 POP PUSH3 0x8EC DUP3 PUSH3 0x89D JUMP JUMPDEST SWAP2 POP PUSH3 0x8FA DUP3 DUP5 PUSH3 0x83D JUMP JUMPDEST SWAP2 POP DUP2 SWAP1 POP SWAP4 SWAP3 POP POP POP JUMP JUMPDEST PUSH1 0x0 DUP3 DUP3 MSTORE PUSH1 0x20 DUP3 ADD SWAP1 POP SWAP3 SWAP2 POP POP JUMP JUMPDEST PUSH1 0x0 PUSH1 0x1F NOT PUSH1 0x1F DUP4 ADD AND SWAP1 POP SWAP2 SWAP1 POP JUMP JUMPDEST PUSH1 0x0 PUSH3 0x935 DUP3 PUSH3 0x806 JUMP JUMPDEST PUSH3 0x941 DUP2 DUP6 PUSH3 0x906 JUMP JUMPDEST SWAP4 POP PUSH3 0x953 DUP2 DUP6 PUSH1 0x20 DUP7 ADD PUSH3 0x811 JUMP JUMPDEST PUSH3 0x95E DUP2 PUSH3 0x917 JUMP JUMPDEST DUP5 ADD SWAP2 POP POP SWAP3 SWAP2 POP POP JUMP JUMPDEST PUSH1 0x0 PUSH1 0x20 DUP3 ADD SWAP1 POP DUP2 DUP2 SUB PUSH1 0x0 DUP4 ADD MSTORE PUSH3 0x985 DUP2 DUP5 PUSH3 0x928 JUMP JUMPDEST SWAP1 POP SWAP3 SWAP2 POP POP JUMP JUMPDEST PUSH1 0x0 PUSH3 0x99A DUP3 PUSH3 0x6AA JUMP JUMPDEST SWAP2 POP PUSH3 0x9A7 DUP4 PUSH3 0x6AA JUMP JUMPDEST SWAP3 POP DUP2 PUSH32 0xFFFFFFFFFFFFFFFFFFFFFFFFFFFFFFFFFFFFFFFFFFFFFFFFFFFFFFFFFFFFFFFF DIV DUP4 GT DUP3 ISZERO ISZERO AND ISZERO PUSH3 0x9E3 JUMPI PUSH3 0x9E2 PUSH3 0x741 JUMP JUMPDEST JUMPDEST DUP3 DUP3 MUL SWAP1 POP SWAP3 SWAP2 POP POP JUMP JUMPDEST PUSH32 0x4E487B7100000000000000000000000000000000000000000000000000000000 PUSH1 0x0 MSTORE PUSH1 0x41 PUSH1 0x4 MSTORE PUSH1 0x24 PUSH1 0x0 REVERT JUMPDEST PUSH32 0x4E487B7100000000000000000000000000000000000000000000000000000000 PUSH1 0x0 MSTORE PUSH1 0x32 PUSH1 0x4 MSTORE PUSH1 0x24 PUSH1 0x0 REVERT JUMPDEST PUSH1 0x0 PUSH3 0xA59 DUP3 PUSH3 0x6AA JUMP JUMPDEST SWAP2 POP PUSH1 0x0 DUP3 SUB PUSH3 0xA6F JUMPI PUSH3 0xA6E PUSH3 0x741 JUMP JUMPDEST JUMPDEST PUSH1 0x1 DUP3 SUB SWAP1 POP SWAP2 SWAP1 POP JUMP JUMPDEST PUSH32 0x537472696E67733A20686578206C656E67746820696E73756666696369656E74 PUSH1 0x0 DUP3 ADD MSTORE POP JUMP JUMPDEST PUSH1 0x0 PUSH3 0xAB2 PUSH1 0x20 DUP4 PUSH3 0x906 JUMP JUMPDEST SWAP2 POP PUSH3 0xABF DUP3 PUSH3 0xA7A JUMP JUMPDEST PUSH1 0x20 DUP3 ADD SWAP1 POP SWAP2 SWAP1 POP JUMP JUMPDEST PUSH1 0x0 PUSH1 0x20 DUP3 ADD SWAP1 POP DUP2 DUP2 SUB PUSH1 0x0 DUP4 ADD MSTORE PUSH3 0xAE5 DUP2 PUSH3 0xAA3 JUMP JUMPDEST SWAP1 POP SWAP2 SWAP1 POP JUMP JUMPDEST PUSH1 0x80 MLOAD PUSH1 0xA0 MLOAD PUSH1 0xC0 MLOAD PUSH2 0x2B55 PUSH3 0xB46 PUSH1 0x0 CODECOPY PUSH1 0x0 DUP2 DUP2 PUSH2 0x814 ADD MSTORE DUP2 DUP2 PUSH2 0xCD4 ADD MSTORE PUSH2 0x1284 ADD MSTORE PUSH1 0x0 DUP2 DUP2 PUSH2 0xFEB ADD MSTORE PUSH2 0x16C3 ADD MSTORE PUSH1 0x0 DUP2 DUP2 PUSH2 0xE85 ADD MSTORE DUP2 DUP2 PUSH2 0xFB9 ADD MSTORE DUP2 DUP2 PUSH2 0x100C ADD MSTORE PUSH2 0x1068 ADD MSTORE PUSH2 0x2B55 PUSH1 0x0 RETURN INVALID PUSH1 0x80 PUSH1 0x40 MSTORE PUSH1 0x4 CALLDATASIZE LT PUSH2 0x1A0 JUMPI PUSH1 0x0 CALLDATALOAD PUSH1 0xE0 SHR DUP1 PUSH4 0x85D923AE GT PUSH2 0xEC JUMPI DUP1 PUSH4 0xC8F29B04 GT PUSH2 0x8A JUMPI DUP1 PUSH4 0xD547741F GT PUSH2 0x64 JUMPI DUP1 PUSH4 0xD547741F EQ PUSH2 0x5EF JUMPI DUP1 PUSH4 0xD9724FFB EQ PUSH2 0x618 JUMPI DUP1 PUSH4 0xE63AB1E9 EQ PUSH2 0x655 JUMPI DUP1 PUSH4 0xEC87621C EQ PUSH2 0x680 JUMPI PUSH2 0x1F5 JUMP JUMPDEST DUP1 PUSH4 0xC8F29B04 EQ PUSH2 0x55C JUMPI DUP1 PUSH4 0xCE4843E9 EQ PUSH2 0x587 JUMPI DUP1 PUSH4 0xD2414958 EQ PUSH2 0x5B2 JUMPI PUSH2 0x1F5 JUMP JUMPDEST DUP1 PUSH4 0x96074E70 GT PUSH2 0xC6 JUMPI DUP1 PUSH4 0x96074E70 EQ PUSH2 0x4B1 JUMPI DUP1 PUSH4 0xA128F355 EQ PUSH2 0x4DA JUMPI DUP1 PUSH4 0xA217FDDF EQ PUSH2 0x505 JUMPI DUP1 PUSH4 0xBE8431F9 EQ PUSH2 0x530 JUMPI PUSH2 0x1F5 JUMP JUMPDEST DUP1 PUSH4 0x85D923AE EQ PUSH2 0x420 JUMPI DUP1 PUSH4 0x91D14854 EQ PUSH2 0x449 JUMPI DUP1 PUSH4 0x9426D555 EQ PUSH2 0x486 JUMPI PUSH2 0x1F5 JUMP JUMPDEST DUP1 PUSH4 0x3A6A4D2E GT PUSH2 0x159 JUMPI DUP1 PUSH4 0x408A3550 GT PUSH2 0x133 JUMPI DUP1 PUSH4 0x408A3550 EQ PUSH2 0x387 JUMPI DUP1 PUSH4 0x5C975ABB EQ PUSH2 0x3B3 JUMPI DUP1 PUSH4 0x7D1CD04F EQ PUSH2 0x3DE JUMPI DUP1 PUSH4 0x8456CB59 EQ PUSH2 0x409 JUMPI PUSH2 0x1F5 JUMP JUMPDEST DUP1 PUSH4 0x3A6A4D2E EQ PUSH2 0x32E JUMPI DUP1 PUSH4 0x3C915AF7 EQ PUSH2 0x345 JUMPI DUP1 PUSH4 0x3F4BA83A EQ PUSH2 0x370 JUMPI PUSH2 0x1F5 JUMP JUMPDEST DUP1 PUSH4 0x1567739 EQ PUSH2 0x1FA JUMPI DUP1 PUSH4 0x1FFC9A7 EQ PUSH2 0x239 JUMPI DUP1 PUSH4 0x505A00F EQ PUSH2 0x276 JUMPI DUP1 PUSH4 0x248A9CA3 EQ PUSH2 0x29F JUMPI DUP1 PUSH4 0x2F2FF15D EQ PUSH2 0x2DC JUMPI DUP1 PUSH4 0x36568ABE EQ PUSH2 0x305 JUMPI PUSH2 0x1F5 JUMP JUMPDEST CALLDATASIZE PUSH2 0x1F5 JUMPI CALLER PUSH20 0xFFFFFFFFFFFFFFFFFFFFFFFFFFFFFFFFFFFFFFFF AND PUSH32 0x8E47B87B0EF542CDFA1659C551D88BAD38AA7F452D2BBB349AB7530DFEC8BE8F CALLVALUE PUSH1 0x40 MLOAD PUSH2 0x1EB SWAP2 SWAP1 PUSH2 0x1FA6 JUMP JUMPDEST PUSH1 0x40 MLOAD DUP1 SWAP2 SUB SWAP1 LOG2 STOP JUMPDEST PUSH1 0x0 DUP1 REVERT JUMPDEST CALLVALUE DUP1 ISZERO PUSH2 0x206 JUMPI PUSH1 0x0 DUP1 REVERT JUMPDEST POP PUSH2 0x221 PUSH1 0x4 DUP1 CALLDATASIZE SUB DUP2 ADD SWAP1 PUSH2 0x21C SWAP2 SWAP1 PUSH2 0x2024 JUMP JUMPDEST PUSH2 0x6AB JUMP JUMPDEST PUSH1 0x40 MLOAD PUSH2 0x230 SWAP4 SWAP3 SWAP2 SWAP1 PUSH2 0x2051 JUMP JUMPDEST PUSH1 0x40 MLOAD DUP1 SWAP2 SUB SWAP1 RETURN JUMPDEST CALLVALUE DUP1 ISZERO PUSH2 0x245 JUMPI PUSH1 0x0 DUP1 REVERT JUMPDEST POP PUSH2 0x260 PUSH1 0x4 DUP1 CALLDATASIZE SUB DUP2 ADD SWAP1 PUSH2 0x25B SWAP2 SWAP1 PUSH2 0x20E0 JUMP JUMPDEST PUSH2 0x6D5 JUMP JUMPDEST PUSH1 0x40 MLOAD PUSH2 0x26D SWAP2 SWAP1 PUSH2 0x2128 JUMP JUMPDEST PUSH1 0x40 MLOAD DUP1 SWAP2 SUB SWAP1 RETURN JUMPDEST CALLVALUE DUP1 ISZERO PUSH2 0x282 JUMPI PUSH1 0x0 DUP1 REVERT JUMPDEST POP PUSH2 0x29D PUSH1 0x4 DUP1 CALLDATASIZE SUB DUP2 ADD SWAP1 PUSH2 0x298 SWAP2 SWAP1 PUSH2 0x216F JUMP JUMPDEST PUSH2 0x74F JUMP JUMPDEST STOP JUMPDEST CALLVALUE DUP1 ISZERO PUSH2 0x2AB JUMPI PUSH1 0x0 DUP1 REVERT JUMPDEST POP PUSH2 0x2C6 PUSH1 0x4 DUP1 CALLDATASIZE SUB DUP2 ADD SWAP1 PUSH2 0x2C1 SWAP2 SWAP1 PUSH2 0x21E5 JUMP JUMPDEST PUSH2 0xA3F JUMP JUMPDEST PUSH1 0x40 MLOAD PUSH2 0x2D3 SWAP2 SWAP1 PUSH2 0x2221 JUMP JUMPDEST PUSH1 0x40 MLOAD DUP1 SWAP2 SUB SWAP1 RETURN JUMPDEST CALLVALUE DUP1 ISZERO PUSH2 0x2E8 JUMPI PUSH1 0x0 DUP1 REVERT JUMPDEST POP PUSH2 0x303 PUSH1 0x4 DUP1 CALLDATASIZE SUB DUP2 ADD SWAP1 PUSH2 0x2FE SWAP2 SWAP1 PUSH2 0x223C JUMP JUMPDEST PUSH2 0xA5F JUMP JUMPDEST STOP JUMPDEST CALLVALUE DUP1 ISZERO PUSH2 0x311 JUMPI PUSH1 0x0 DUP1 REVERT JUMPDEST POP PUSH2 0x32C PUSH1 0x4 DUP1 CALLDATASIZE SUB DUP2 ADD SWAP1 PUSH2 0x327 SWAP2 SWAP1 PUSH2 0x223C JUMP JUMPDEST PUSH2 0xA80 JUMP JUMPDEST STOP JUMPDEST CALLVALUE DUP1 ISZERO PUSH2 0x33A JUMPI PUSH1 0x0 DUP1 REVERT JUMPDEST POP PUSH2 0x343 PUSH2 0xB03 JUMP JUMPDEST STOP JUMPDEST CALLVALUE DUP1 ISZERO PUSH2 0x351 JUMPI PUSH1 0x0 DUP1 REVERT JUMPDEST POP PUSH2 0x35A PUSH2 0xF77 JUMP JUMPDEST PUSH1 0x40 MLOAD PUSH2 0x367 SWAP2 SWAP1 PUSH2 0x1FA6 JUMP JUMPDEST PUSH1 0x40 MLOAD DUP1 SWAP2 SUB SWAP1 RETURN JUMPDEST CALLVALUE DUP1 ISZERO PUSH2 0x37C JUMPI PUSH1 0x0 DUP1 REVERT JUMPDEST POP PUSH2 0x385 PUSH2 0xF7D JUMP JUMPDEST STOP JUMPDEST CALLVALUE DUP1 ISZERO PUSH2 0x393 JUMPI PUSH1 0x0 DUP1 REVERT JUMPDEST POP PUSH2 0x39C PUSH2 0xFB2 JUMP JUMPDEST PUSH1 0x40 MLOAD PUSH2 0x3AA SWAP3 SWAP2 SWAP1 PUSH2 0x227C JUMP JUMPDEST PUSH1 0x40 MLOAD DUP1 SWAP2 SUB SWAP1 RETURN JUMPDEST CALLVALUE DUP1 ISZERO PUSH2 0x3BF JUMPI PUSH1 0x0 DUP1 REVERT JUMPDEST POP PUSH2 0x3C8 PUSH2 0x1050 JUMP JUMPDEST PUSH1 0x40 MLOAD PUSH2 0x3D5 SWAP2 SWAP1 PUSH2 0x2128 JUMP JUMPDEST PUSH1 0x40 MLOAD DUP1 SWAP2 SUB SWAP1 RETURN JUMPDEST CALLVALUE DUP1 ISZERO PUSH2 0x3EA JUMPI PUSH1 0x0 DUP1 REVERT JUMPDEST POP PUSH2 0x3F3 PUSH2 0x1066 JUMP JUMPDEST PUSH1 0x40 MLOAD PUSH2 0x400 SWAP2 SWAP1 PUSH2 0x1FA6 JUMP JUMPDEST PUSH1 0x40 MLOAD DUP1 SWAP2 SUB SWAP1 RETURN JUMPDEST CALLVALUE DUP1 ISZERO PUSH2 0x415 JUMPI PUSH1 0x0 DUP1 REVERT JUMPDEST POP PUSH2 0x41E PUSH2 0x108A JUMP JUMPDEST STOP JUMPDEST CALLVALUE DUP1 ISZERO PUSH2 0x42C JUMPI PUSH1 0x0 DUP1 REVERT JUMPDEST POP PUSH2 0x447 PUSH1 0x4 DUP1 CALLDATASIZE SUB DUP2 ADD SWAP1 PUSH2 0x442 SWAP2 SWAP1 PUSH2 0x2024 JUMP JUMPDEST PUSH2 0x10BF JUMP JUMPDEST STOP JUMPDEST CALLVALUE DUP1 ISZERO PUSH2 0x455 JUMPI PUSH1 0x0 DUP1 REVERT JUMPDEST POP PUSH2 0x470 PUSH1 0x4 DUP1 CALLDATASIZE SUB DUP2 ADD SWAP1 PUSH2 0x46B SWAP2 SWAP1 PUSH2 0x223C JUMP JUMPDEST PUSH2 0x112E JUMP JUMPDEST PUSH1 0x40 MLOAD PUSH2 0x47D SWAP2 SWAP1 PUSH2 0x2128 JUMP JUMPDEST PUSH1 0x40 MLOAD DUP1 SWAP2 SUB SWAP1 RETURN JUMPDEST CALLVALUE DUP1 ISZERO PUSH2 0x492 JUMPI PUSH1 0x0 DUP1 REVERT JUMPDEST POP PUSH2 0x49B PUSH2 0x1199 JUMP JUMPDEST PUSH1 0x40 MLOAD PUSH2 0x4A8 SWAP2 SWAP1 PUSH2 0x22C6 JUMP JUMPDEST PUSH1 0x40 MLOAD DUP1 SWAP2 SUB SWAP1 RETURN JUMPDEST CALLVALUE DUP1 ISZERO PUSH2 0x4BD JUMPI PUSH1 0x0 DUP1 REVERT JUMPDEST POP PUSH2 0x4D8 PUSH1 0x4 DUP1 CALLDATASIZE SUB DUP2 ADD SWAP1 PUSH2 0x4D3 SWAP2 SWAP1 PUSH2 0x216F JUMP JUMPDEST PUSH2 0x11BF JUMP JUMPDEST STOP JUMPDEST CALLVALUE DUP1 ISZERO PUSH2 0x4E6 JUMPI PUSH1 0x0 DUP1 REVERT JUMPDEST POP PUSH2 0x4EF PUSH2 0x14A5 JUMP JUMPDEST PUSH1 0x40 MLOAD PUSH2 0x4FC SWAP2 SWAP1 PUSH2 0x2128 JUMP JUMPDEST PUSH1 0x40 MLOAD DUP1 SWAP2 SUB SWAP1 RETURN JUMPDEST CALLVALUE DUP1 ISZERO PUSH2 0x511 JUMPI PUSH1 0x0 DUP1 REVERT JUMPDEST POP PUSH2 0x51A PUSH2 0x14F4 JUMP JUMPDEST PUSH1 0x40 MLOAD PUSH2 0x527 SWAP2 SWAP1 PUSH2 0x2221 JUMP JUMPDEST PUSH1 0x40 MLOAD DUP1 SWAP2 SUB SWAP1 RETURN JUMPDEST CALLVALUE DUP1 ISZERO PUSH2 0x53C JUMPI PUSH1 0x0 DUP1 REVERT JUMPDEST POP PUSH2 0x545 PUSH2 0x14FB JUMP JUMPDEST PUSH1 0x40 MLOAD PUSH2 0x553 SWAP3 SWAP2 SWAP1 PUSH2 0x245D JUMP JUMPDEST PUSH1 0x40 MLOAD DUP1 SWAP2 SUB SWAP1 RETURN JUMPDEST CALLVALUE DUP1 ISZERO PUSH2 0x568 JUMPI PUSH1 0x0 DUP1 REVERT JUMPDEST POP PUSH2 0x571 PUSH2 0x16C1 JUMP JUMPDEST PUSH1 0x40 MLOAD PUSH2 0x57E SWAP2 SWAP1 PUSH2 0x1FA6 JUMP JUMPDEST PUSH1 0x40 MLOAD DUP1 SWAP2 SUB SWAP1 RETURN JUMPDEST CALLVALUE DUP1 ISZERO PUSH2 0x593 JUMPI PUSH1 0x0 DUP1 REVERT JUMPDEST POP PUSH2 0x59C PUSH2 0x16E5 JUMP JUMPDEST PUSH1 0x40 MLOAD PUSH2 0x5A9 SWAP2 SWAP1 PUSH2 0x1FA6 JUMP JUMPDEST PUSH1 0x40 MLOAD DUP1 SWAP2 SUB SWAP1 RETURN JUMPDEST CALLVALUE DUP1 ISZERO PUSH2 0x5BE JUMPI PUSH1 0x0 DUP1 REVERT JUMPDEST POP PUSH2 0x5D9 PUSH1 0x4 DUP1 CALLDATASIZE SUB DUP2 ADD SWAP1 PUSH2 0x5D4 SWAP2 SWAP1 PUSH2 0x2024 JUMP JUMPDEST PUSH2 0x16EB JUMP JUMPDEST PUSH1 0x40 MLOAD PUSH2 0x5E6 SWAP2 SWAP1 PUSH2 0x2128 JUMP JUMPDEST PUSH1 0x40 MLOAD DUP1 SWAP2 SUB SWAP1 RETURN JUMPDEST CALLVALUE DUP1 ISZERO PUSH2 0x5FB JUMPI PUSH1 0x0 DUP1 REVERT JUMPDEST POP PUSH2 0x616 PUSH1 0x4 DUP1 CALLDATASIZE SUB DUP2 ADD SWAP1 PUSH2 0x611 SWAP2 SWAP1 PUSH2 0x223C JUMP JUMPDEST PUSH2 0x1749 JUMP JUMPDEST STOP JUMPDEST CALLVALUE DUP1 ISZERO PUSH2 0x624 JUMPI PUSH1 0x0 DUP1 REVERT JUMPDEST POP PUSH2 0x63F PUSH1 0x4 DUP1 CALLDATASIZE SUB DUP2 ADD SWAP1 PUSH2 0x63A SWAP2 SWAP1 PUSH2 0x2494 JUMP JUMPDEST PUSH2 0x176A JUMP JUMPDEST PUSH1 0x40 MLOAD PUSH2 0x64C SWAP2 SWAP1 PUSH2 0x24D0 JUMP JUMPDEST PUSH1 0x40 MLOAD DUP1 SWAP2 SUB SWAP1 RETURN JUMPDEST CALLVALUE DUP1 ISZERO PUSH2 0x661 JUMPI PUSH1 0x0 DUP1 REVERT JUMPDEST POP PUSH2 0x66A PUSH2 0x17A9 JUMP JUMPDEST PUSH1 0x40 MLOAD PUSH2 0x677 SWAP2 SWAP1 PUSH2 0x2221 JUMP JUMPDEST PUSH1 0x40 MLOAD DUP1 SWAP2 SUB SWAP1 RETURN JUMPDEST CALLVALUE DUP1 ISZERO PUSH2 0x68C JUMPI PUSH1 0x0 DUP1 REVERT JUMPDEST POP PUSH2 0x695 PUSH2 0x17CD JUMP JUMPDEST PUSH1 0x40 MLOAD PUSH2 0x6A2 SWAP2 SWAP1 PUSH2 0x2221 JUMP JUMPDEST PUSH1 0x40 MLOAD DUP1 SWAP2 SUB SWAP1 RETURN JUMPDEST PUSH1 0x4 PUSH1 0x20 MSTORE DUP1 PUSH1 0x0 MSTORE PUSH1 0x40 PUSH1 0x0 KECCAK256 PUSH1 0x0 SWAP2 POP SWAP1 POP DUP1 PUSH1 0x0 ADD SLOAD SWAP1 DUP1 PUSH1 0x1 ADD SLOAD SWAP1 DUP1 PUSH1 0x2 ADD SLOAD SWAP1 POP DUP4 JUMP JUMPDEST PUSH1 0x0 PUSH32 0x7965DB0B00000000000000000000000000000000000000000000000000000000 PUSH28 0xFFFFFFFFFFFFFFFFFFFFFFFFFFFFFFFFFFFFFFFFFFFFFFFFFFFFFFFF NOT AND DUP3 PUSH28 0xFFFFFFFFFFFFFFFFFFFFFFFFFFFFFFFFFFFFFFFFFFFFFFFFFFFFFFFF NOT AND EQ DUP1 PUSH2 0x748 JUMPI POP PUSH2 0x747 DUP3 PUSH2 0x1A2D JUMP JUMPDEST JUMPDEST SWAP1 POP SWAP2 SWAP1 POP JUMP JUMPDEST PUSH2 0x757 PUSH2 0x1A97 JUMP JUMPDEST PUSH32 0x241ECF16D79D0F8DBFB92CBC07FE17840425976CF0667F022FE9877CAA831B08 PUSH2 0x781 DUP2 PUSH2 0x1AE1 JUMP JUMPDEST PUSH2 0x789 PUSH2 0x14A5 JUMP JUMPDEST PUSH2 0x7BF JUMPI PUSH1 0x40 MLOAD PUSH32 0x9389FAD000000000000000000000000000000000000000000000000000000000 DUP2 MSTORE PUSH1 0x4 ADD PUSH1 0x40 MLOAD DUP1 SWAP2 SUB SWAP1 REVERT JUMPDEST PUSH1 0x0 DUP3 GT PUSH2 0x7F9 JUMPI PUSH1 0x40 MLOAD PUSH32 0x1D4227F500000000000000000000000000000000000000000000000000000000 DUP2 MSTORE PUSH1 0x4 ADD PUSH1 0x40 MLOAD DUP1 SWAP2 SUB SWAP1 REVERT JUMPDEST PUSH1 0x0 PUSH2 0x810 DUP4 PUSH1 0x7 SLOAD PUSH2 0x1AF5 SWAP1 SWAP2 SWAP1 PUSH4 0xFFFFFFFF AND JUMP JUMPDEST SWAP1 POP PUSH32 0x0 DUP2 GT ISZERO PUSH2 0x86C JUMPI PUSH1 0x40 MLOAD PUSH32 0x80A4D17800000000000000000000000000000000000000000000000000000000 DUP2 MSTORE PUSH1 0x4 ADD PUSH1 0x40 MLOAD DUP1 SWAP2 SUB SWAP1 REVERT JUMPDEST PUSH1 0x0 PUSH1 0x4 PUSH1 0x0 DUP7 PUSH20 0xFFFFFFFFFFFFFFFFFFFFFFFFFFFFFFFFFFFFFFFF AND PUSH20 0xFFFFFFFFFFFFFFFFFFFFFFFFFFFFFFFFFFFFFFFF AND DUP2 MSTORE PUSH1 0x20 ADD SWAP1 DUP2 MSTORE PUSH1 0x20 ADD PUSH1 0x0 KECCAK256 PUSH1 0x0 ADD SLOAD GT PUSH2 0x8E8 JUMPI PUSH1 0x40 MLOAD PUSH32 0xC8A988FC00000000000000000000000000000000000000000000000000000000 DUP2 MSTORE PUSH1 0x4 ADD PUSH1 0x40 MLOAD DUP1 SWAP2 SUB SWAP1 REVERT JUMPDEST PUSH1 0x0 PUSH2 0x93F DUP5 PUSH1 0x4 PUSH1 0x0 DUP9 PUSH20 0xFFFFFFFFFFFFFFFFFFFFFFFFFFFFFFFFFFFFFFFF AND PUSH20 0xFFFFFFFFFFFFFFFFFFFFFFFFFFFFFFFFFFFFFFFF AND DUP2 MSTORE PUSH1 0x20 ADD SWAP1 DUP2 MSTORE PUSH1 0x20 ADD PUSH1 0x0 KECCAK256 PUSH1 0x0 ADD SLOAD PUSH2 0x1AF5 SWAP1 SWAP2 SWAP1 PUSH4 0xFFFFFFFF AND JUMP JUMPDEST SWAP1 POP DUP1 PUSH1 0x4 PUSH1 0x0 DUP8 PUSH20 0xFFFFFFFFFFFFFFFFFFFFFFFFFFFFFFFFFFFFFFFF AND PUSH20 0xFFFFFFFFFFFFFFFFFFFFFFFFFFFFFFFFFFFFFFFF AND DUP2 MSTORE PUSH1 0x20 ADD SWAP1 DUP2 MSTORE PUSH1 0x20 ADD PUSH1 0x0 KECCAK256 PUSH1 0x0 ADD DUP2 SWAP1 SSTORE POP TIMESTAMP PUSH1 0x4 PUSH1 0x0 DUP8 PUSH20 0xFFFFFFFFFFFFFFFFFFFFFFFFFFFFFFFFFFFFFFFF AND PUSH20 0xFFFFFFFFFFFFFFFFFFFFFFFFFFFFFFFFFFFFFFFF AND DUP2 MSTORE PUSH1 0x20 ADD SWAP1 DUP2 MSTORE PUSH1 0x20 ADD PUSH1 0x0 KECCAK256 PUSH1 0x2 ADD DUP2 SWAP1 SSTORE POP DUP4 PUSH1 0x7 PUSH1 0x0 DUP3 DUP3 SLOAD PUSH2 0x9E1 SWAP2 SWAP1 PUSH2 0x251A JUMP JUMPDEST SWAP3 POP POP DUP2 SWAP1 SSTORE POP DUP5 PUSH20 0xFFFFFFFFFFFFFFFFFFFFFFFFFFFFFFFFFFFFFFFF AND PUSH32 0xF1B87F4A688417D87B0DD9C0569040438160E0CD40B36D472C0F65069682E990 DUP6 TIMESTAMP PUSH1 0x40 MLOAD PUSH2 0xA30 SWAP3 SWAP2 SWAP1 PUSH2 0x227C JUMP JUMPDEST PUSH1 0x40 MLOAD DUP1 SWAP2 SUB SWAP1 LOG2 POP POP POP POP POP JUMP JUMPDEST PUSH1 0x0 PUSH1 0x1 PUSH1 0x0 DUP4 DUP2 MSTORE PUSH1 0x20 ADD SWAP1 DUP2 MSTORE PUSH1 0x20 ADD PUSH1 0x0 KECCAK256 PUSH1 0x1 ADD SLOAD SWAP1 POP SWAP2 SWAP1 POP JUMP JUMPDEST PUSH2 0xA68 DUP3 PUSH2 0xA3F JUMP JUMPDEST PUSH2 0xA71 DUP2 PUSH2 0x1AE1 JUMP JUMPDEST PUSH2 0xA7B DUP4 DUP4 PUSH2 0x1B0B JUMP JUMPDEST POP POP POP JUMP JUMPDEST PUSH2 0xA88 PUSH2 0x1BEB JUMP JUMPDEST PUSH20 0xFFFFFFFFFFFFFFFFFFFFFFFFFFFFFFFFFFFFFFFF AND DUP2 PUSH20 0xFFFFFFFFFFFFFFFFFFFFFFFFFFFFFFFFFFFFFFFF AND EQ PUSH2 0xAF5 JUMPI PUSH1 0x40 MLOAD PUSH32 0x8C379A000000000000000000000000000000000000000000000000000000000 DUP2 MSTORE PUSH1 0x4 ADD PUSH2 0xAEC SWAP1 PUSH2 0x25D1 JUMP JUMPDEST PUSH1 0x40 MLOAD DUP1 SWAP2 SUB SWAP1 REVERT JUMPDEST PUSH2 0xAFF DUP3 DUP3 PUSH2 0x1BF3 JUMP JUMPDEST POP POP JUMP JUMPDEST PUSH2 0xB0B PUSH2 0x1A97 JUMP JUMPDEST PUSH1 0x2 DUP1 SLOAD SUB PUSH2 0xB4F JUMPI PUSH1 0x40 MLOAD PUSH32 0x8C379A000000000000000000000000000000000000000000000000000000000 DUP2 MSTORE PUSH1 0x4 ADD PUSH2 0xB46 SWAP1 PUSH2 0x263D JUMP JUMPDEST PUSH1 0x40 MLOAD DUP1 SWAP2 SUB SWAP1 REVERT JUMPDEST PUSH1 0x2 DUP1 DUP2 SWAP1 SSTORE POP PUSH2 0xB5E PUSH2 0x14A5 JUMP JUMPDEST ISZERO PUSH2 0xB95 JUMPI PUSH1 0x40 MLOAD PUSH32 0x5D27F9800000000000000000000000000000000000000000000000000000000 DUP2 MSTORE PUSH1 0x4 ADD PUSH1 0x40 MLOAD DUP1 SWAP2 SUB SWAP1 REVERT JUMPDEST PUSH1 0x0 SELFBALANCE SWAP1 POP PUSH1 0x0 DUP1 DUP3 SUB PUSH2 0xBD5 JUMPI PUSH1 0x40 MLOAD PUSH32 0x4890CFAE00000000000000000000000000000000000000000000000000000000 DUP2 MSTORE PUSH1 0x4 ADD PUSH1 0x40 MLOAD DUP1 SWAP2 SUB SWAP1 REVERT JUMPDEST PUSH1 0x0 PUSH1 0x3 DUP1 SLOAD DUP1 PUSH1 0x20 MUL PUSH1 0x20 ADD PUSH1 0x40 MLOAD SWAP1 DUP2 ADD PUSH1 0x40 MSTORE DUP1 SWAP3 SWAP2 SWAP1 DUP2 DUP2 MSTORE PUSH1 0x20 ADD DUP3 DUP1 SLOAD DUP1 ISZERO PUSH2 0xC59 JUMPI PUSH1 0x20 MUL DUP3 ADD SWAP2 SWAP1 PUSH1 0x0 MSTORE PUSH1 0x20 PUSH1 0x0 KECCAK256 SWAP1 JUMPDEST DUP2 PUSH1 0x0 SWAP1 SLOAD SWAP1 PUSH2 0x100 EXP SWAP1 DIV PUSH20 0xFFFFFFFFFFFFFFFFFFFFFFFFFFFFFFFFFFFFFFFF AND PUSH20 0xFFFFFFFFFFFFFFFFFFFFFFFFFFFFFFFFFFFFFFFF AND DUP2 MSTORE PUSH1 0x20 ADD SWAP1 PUSH1 0x1 ADD SWAP1 DUP1 DUP4 GT PUSH2 0xC0F JUMPI JUMPDEST POP POP POP POP POP SWAP1 POP PUSH1 0x0 JUMPDEST DUP2 MLOAD DUP2 LT ISZERO PUSH2 0xE6E JUMPI PUSH1 0x0 PUSH1 0x4 PUSH1 0x0 DUP5 DUP5 DUP2 MLOAD DUP2 LT PUSH2 0xC85 JUMPI PUSH2 0xC84 PUSH2 0x265D JUMP JUMPDEST JUMPDEST PUSH1 0x20 MUL PUSH1 0x20 ADD ADD MLOAD PUSH20 0xFFFFFFFFFFFFFFFFFFFFFFFFFFFFFFFFFFFFFFFF AND PUSH20 0xFFFFFFFFFFFFFFFFFFFFFFFFFFFFFFFFFFFFFFFF AND DUP2 MSTORE PUSH1 0x20 ADD SWAP1 DUP2 MSTORE PUSH1 0x20 ADD PUSH1 0x0 KECCAK256 PUSH1 0x0 ADD SLOAD SWAP1 POP PUSH1 0x0 PUSH2 0xD14 PUSH32 0x0 PUSH2 0xD06 DUP5 DUP10 PUSH2 0x1CD5 SWAP1 SWAP2 SWAP1 PUSH4 0xFFFFFFFF AND JUMP JUMPDEST PUSH2 0x1CEB SWAP1 SWAP2 SWAP1 PUSH4 0xFFFFFFFF AND JUMP JUMPDEST SWAP1 POP TIMESTAMP PUSH1 0x4 PUSH1 0x0 DUP7 DUP7 DUP2 MLOAD DUP2 LT PUSH2 0xD2E JUMPI PUSH2 0xD2D PUSH2 0x265D JUMP JUMPDEST JUMPDEST PUSH1 0x20 MUL PUSH1 0x20 ADD ADD MLOAD PUSH20 0xFFFFFFFFFFFFFFFFFFFFFFFFFFFFFFFFFFFFFFFF AND PUSH20 0xFFFFFFFFFFFFFFFFFFFFFFFFFFFFFFFFFFFFFFFF AND DUP2 MSTORE PUSH1 0x20 ADD SWAP1 DUP2 MSTORE PUSH1 0x20 ADD PUSH1 0x0 KECCAK256 PUSH1 0x1 ADD DUP2 SWAP1 SSTORE POP DUP1 DUP6 PUSH2 0xD83 SWAP2 SWAP1 PUSH2 0x251A JUMP JUMPDEST SWAP5 POP PUSH2 0xDCD PUSH1 0x3 DUP5 DUP2 SLOAD DUP2 LT PUSH2 0xD9C JUMPI PUSH2 0xD9B PUSH2 0x265D JUMP JUMPDEST JUMPDEST SWAP1 PUSH1 0x0 MSTORE PUSH1 0x20 PUSH1 0x0 KECCAK256 ADD PUSH1 0x0 SWAP1 SLOAD SWAP1 PUSH2 0x100 EXP SWAP1 DIV PUSH20 0xFFFFFFFFFFFFFFFFFFFFFFFFFFFFFFFFFFFFFFFF AND DUP3 PUSH2 0x1D01 JUMP JUMPDEST PUSH1 0x3 DUP4 DUP2 SLOAD DUP2 LT PUSH2 0xDE1 JUMPI PUSH2 0xDE0 PUSH2 0x265D JUMP JUMPDEST JUMPDEST SWAP1 PUSH1 0x0 MSTORE PUSH1 0x20 PUSH1 0x0 KECCAK256 ADD PUSH1 0x0 SWAP1 SLOAD SWAP1 PUSH2 0x100 EXP SWAP1 DIV PUSH20 0xFFFFFFFFFFFFFFFFFFFFFFFFFFFFFFFFFFFFFFFF AND PUSH20 0xFFFFFFFFFFFFFFFFFFFFFFFFFFFFFFFFFFFFFFFF AND PUSH32 0x80BABE757D4E5C7DB3B7BD10606A7BF07A9857F660977ADA6CA7A4D329376C8 DUP3 TIMESTAMP PUSH1 0x40 MLOAD PUSH2 0xE53 SWAP3 SWAP2 SWAP1 PUSH2 0x227C JUMP JUMPDEST PUSH1 0x40 MLOAD DUP1 SWAP2 SUB SWAP1 LOG2 POP POP DUP1 PUSH2 0xE67 SWAP1 PUSH2 0x268C JUMP JUMPDEST SWAP1 POP PUSH2 0xC63 JUMP JUMPDEST POP PUSH1 0x0 PUSH2 0xE79 PUSH2 0xFB2 JUMP JUMPDEST SWAP2 POP POP DUP1 TIMESTAMP LT PUSH2 0xEC1 JUMPI PUSH32 0x0 PUSH1 0x6 PUSH1 0x0 DUP3 DUP3 SLOAD PUSH2 0xEB5 SWAP2 SWAP1 PUSH2 0x251A JUMP JUMPDEST SWAP3 POP POP DUP2 SWAP1 SSTORE POP PUSH2 0xECB JUMP JUMPDEST PUSH1 0x6 SLOAD PUSH1 0x6 DUP2 SWAP1 SSTORE POP JUMPDEST PUSH2 0xEF7 PUSH1 0x5 PUSH1 0x0 SWAP1 SLOAD SWAP1 PUSH2 0x100 EXP SWAP1 DIV PUSH20 0xFFFFFFFFFFFFFFFFFFFFFFFFFFFFFFFFFFFFFFFF AND SELFBALANCE PUSH2 0x1D01 JUMP JUMPDEST PUSH1 0x5 PUSH1 0x0 SWAP1 SLOAD SWAP1 PUSH2 0x100 EXP SWAP1 DIV PUSH20 0xFFFFFFFFFFFFFFFFFFFFFFFFFFFFFFFFFFFFFFFF AND PUSH20 0xFFFFFFFFFFFFFFFFFFFFFFFFFFFFFFFFFFFFFFFF AND PUSH32 0x80BABE757D4E5C7DB3B7BD10606A7BF07A9857F660977ADA6CA7A4D329376C8 DUP5 TIMESTAMP PUSH1 0x40 MLOAD PUSH2 0xF61 SWAP3 SWAP2 SWAP1 PUSH2 0x227C JUMP JUMPDEST PUSH1 0x40 MLOAD DUP1 SWAP2 SUB SWAP1 LOG2 POP POP POP POP PUSH1 0x1 PUSH1 0x2 DUP2 SWAP1 SSTORE POP JUMP JUMPDEST PUSH1 0x6 SLOAD DUP2 JUMP JUMPDEST PUSH32 0x65D7A28E3265B37A6474929F336521B332C1681B933F6CB9F3376673440D862A PUSH2 0xFA7 DUP2 PUSH2 0x1AE1 JUMP JUMPDEST PUSH2 0xFAF PUSH2 0x1DE3 JUMP JUMPDEST POP JUMP JUMPDEST PUSH1 0x0 DUP1 PUSH1 0x0 PUSH32 0x0 PUSH1 0x6 SLOAD PUSH2 0xFE5 SWAP2 SWAP1 PUSH2 0x251A JUMP JUMPDEST SWAP1 POP PUSH1 0x0 PUSH32 0x0 PUSH32 0x0 PUSH2 0x1035 SWAP2 SWAP1 PUSH2 0x251A JUMP JUMPDEST PUSH1 0x6 SLOAD PUSH2 0x1042 SWAP2 SWAP1 PUSH2 0x251A JUMP JUMPDEST SWAP1 POP DUP2 DUP2 SWAP4 POP SWAP4 POP POP POP SWAP1 SWAP2 JUMP JUMPDEST PUSH1 0x0 DUP1 PUSH1 0x0 SWAP1 SLOAD SWAP1 PUSH2 0x100 EXP SWAP1 DIV PUSH1 0xFF AND SWAP1 POP SWAP1 JUMP JUMPDEST PUSH32 0x0 DUP2 JUMP JUMPDEST PUSH32 0x65D7A28E3265B37A6474929F336521B332C1681B933F6CB9F3376673440D862A PUSH2 0x10B4 DUP2 PUSH2 0x1AE1 JUMP JUMPDEST PUSH2 0x10BC PUSH2 0x1E45 JUMP JUMPDEST POP JUMP JUMPDEST PUSH32 0x241ECF16D79D0F8DBFB92CBC07FE17840425976CF0667F022FE9877CAA831B08 PUSH2 0x10E9 DUP2 PUSH2 0x1AE1 JUMP JUMPDEST DUP2 PUSH1 0x5 PUSH1 0x0 PUSH2 0x100 EXP DUP2 SLOAD DUP2 PUSH20 0xFFFFFFFFFFFFFFFFFFFFFFFFFFFFFFFFFFFFFFFF MUL NOT AND SWAP1 DUP4 PUSH20 0xFFFFFFFFFFFFFFFFFFFFFFFFFFFFFFFFFFFFFFFF AND MUL OR SWAP1 SSTORE POP POP POP JUMP JUMPDEST PUSH1 0x0 PUSH1 0x1 PUSH1 0x0 DUP5 DUP2 MSTORE PUSH1 0x20 ADD SWAP1 DUP2 MSTORE PUSH1 0x20 ADD PUSH1 0x0 KECCAK256 PUSH1 0x0 ADD PUSH1 0x0 DUP4 PUSH20 0xFFFFFFFFFFFFFFFFFFFFFFFFFFFFFFFFFFFFFFFF AND PUSH20 0xFFFFFFFFFFFFFFFFFFFFFFFFFFFFFFFFFFFFFFFF AND DUP2 MSTORE PUSH1 0x20 ADD SWAP1 DUP2 MSTORE PUSH1 0x20 ADD PUSH1 0x0 KECCAK256 PUSH1 0x0 SWAP1 SLOAD SWAP1 PUSH2 0x100 EXP SWAP1 DIV PUSH1 0xFF AND SWAP1 POP SWAP3 SWAP2 POP POP JUMP JUMPDEST PUSH1 0x5 PUSH1 0x0 SWAP1 SLOAD SWAP1 PUSH2 0x100 EXP SWAP1 DIV PUSH20 0xFFFFFFFFFFFFFFFFFFFFFFFFFFFFFFFFFFFFFFFF AND DUP2 JUMP JUMPDEST PUSH2 0x11C7 PUSH2 0x1A97 JUMP JUMPDEST PUSH32 0x241ECF16D79D0F8DBFB92CBC07FE17840425976CF0667F022FE9877CAA831B08 PUSH2 0x11F1 DUP2 PUSH2 0x1AE1 JUMP JUMPDEST PUSH2 0x11F9 PUSH2 0x14A5 JUMP JUMPDEST PUSH2 0x122F JUMPI PUSH1 0x40 MLOAD PUSH32 0x9389FAD000000000000000000000000000000000000000000000000000000000 DUP2 MSTORE PUSH1 0x4 ADD PUSH1 0x40 MLOAD DUP1 SWAP2 SUB SWAP1 REVERT JUMPDEST PUSH1 0x0 DUP3 GT PUSH2 0x1269 JUMPI PUSH1 0x40 MLOAD PUSH32 0x1D4227F500000000000000000000000000000000000000000000000000000000 DUP2 MSTORE PUSH1 0x4 ADD PUSH1 0x40 MLOAD DUP1 SWAP2 SUB SWAP1 REVERT JUMPDEST PUSH1 0x0 PUSH2 0x1280 DUP4 PUSH1 0x7 SLOAD PUSH2 0x1AF5 SWAP1 SWAP2 SWAP1 PUSH4 0xFFFFFFFF AND JUMP JUMPDEST SWAP1 POP PUSH32 0x0 DUP2 GT ISZERO PUSH2 0x12DC JUMPI PUSH1 0x40 MLOAD PUSH32 0x80A4D17800000000000000000000000000000000000000000000000000000000 DUP2 MSTORE PUSH1 0x4 ADD PUSH1 0x40 MLOAD DUP1 SWAP2 SUB SWAP1 REVERT JUMPDEST PUSH1 0x0 PUSH1 0x4 PUSH1 0x0 DUP7 PUSH20 0xFFFFFFFFFFFFFFFFFFFFFFFFFFFFFFFFFFFFFFFF AND PUSH20 0xFFFFFFFFFFFFFFFFFFFFFFFFFFFFFFFFFFFFFFFF AND DUP2 MSTORE PUSH1 0x20 ADD SWAP1 DUP2 MSTORE PUSH1 0x20 ADD PUSH1 0x0 KECCAK256 PUSH1 0x0 ADD SLOAD EQ PUSH2 0x1358 JUMPI PUSH1 0x40 MLOAD PUSH32 0x2912360200000000000000000000000000000000000000000000000000000000 DUP2 MSTORE PUSH1 0x4 ADD PUSH1 0x40 MLOAD DUP1 SWAP2 SUB SWAP1 REVERT JUMPDEST PUSH1 0x40 MLOAD DUP1 PUSH1 0x60 ADD PUSH1 0x40 MSTORE DUP1 DUP5 DUP2 MSTORE PUSH1 0x20 ADD TIMESTAMP DUP2 MSTORE PUSH1 0x20 ADD TIMESTAMP DUP2 MSTORE POP PUSH1 0x4 PUSH1 0x0 DUP7 PUSH20 0xFFFFFFFFFFFFFFFFFFFFFFFFFFFFFFFFFFFFFFFF AND PUSH20 0xFFFFFFFFFFFFFFFFFFFFFFFFFFFFFFFFFFFFFFFF AND DUP2 MSTORE PUSH1 0x20 ADD SWAP1 DUP2 MSTORE PUSH1 0x20 ADD PUSH1 0x0 KECCAK256 PUSH1 0x0 DUP3 ADD MLOAD DUP2 PUSH1 0x0 ADD SSTORE PUSH1 0x20 DUP3 ADD MLOAD DUP2 PUSH1 0x1 ADD SSTORE PUSH1 0x40 DUP3 ADD MLOAD DUP2 PUSH1 0x2 ADD SSTORE SWAP1 POP POP PUSH1 0x3 DUP5 SWAP1 DUP1 PUSH1 0x1 DUP2 SLOAD ADD DUP1 DUP3 SSTORE DUP1 SWAP2 POP POP PUSH1 0x1 SWAP1 SUB SWAP1 PUSH1 0x0 MSTORE PUSH1 0x20 PUSH1 0x0 KECCAK256 ADD PUSH1 0x0 SWAP1 SWAP2 SWAP1 SWAP2 SWAP1 SWAP2 PUSH2 0x100 EXP DUP2 SLOAD DUP2 PUSH20 0xFFFFFFFFFFFFFFFFFFFFFFFFFFFFFFFFFFFFFFFF MUL NOT AND SWAP1 DUP4 PUSH20 0xFFFFFFFFFFFFFFFFFFFFFFFFFFFFFFFFFFFFFFFF AND MUL OR SWAP1 SSTORE POP DUP3 PUSH1 0x7 PUSH1 0x0 DUP3 DUP3 SLOAD PUSH2 0x1448 SWAP2 SWAP1 PUSH2 0x251A JUMP JUMPDEST SWAP3 POP POP DUP2 SWAP1 SSTORE POP DUP4 PUSH20 0xFFFFFFFFFFFFFFFFFFFFFFFFFFFFFFFFFFFFFFFF AND PUSH32 0xACE1893C759FC46036B7FDD20805D2476C58B2E6D1E56AAD3331EE5D2275393E DUP5 TIMESTAMP PUSH1 0x40 MLOAD PUSH2 0x1497 SWAP3 SWAP2 SWAP1 PUSH2 0x227C JUMP JUMPDEST PUSH1 0x40 MLOAD DUP1 SWAP2 SUB SWAP1 LOG2 POP POP POP POP JUMP JUMPDEST PUSH1 0x0 DUP1 PUSH1 0x0 PUSH2 0x14B2 PUSH2 0xFB2 JUMP JUMPDEST SWAP2 POP SWAP2 POP DUP2 TIMESTAMP LT ISZERO DUP1 ISZERO PUSH2 0x14C5 JUMPI POP DUP1 TIMESTAMP LT JUMPDEST ISZERO PUSH2 0x14D5 JUMPI PUSH1 0x1 SWAP3 POP POP POP PUSH2 0x14F1 JUMP JUMPDEST PUSH1 0x6 SLOAD TIMESTAMP LT ISZERO PUSH2 0x14EA JUMPI PUSH1 0x1 SWAP3 POP POP POP PUSH2 0x14F1 JUMP JUMPDEST PUSH1 0x0 SWAP3 POP POP POP JUMPDEST SWAP1 JUMP JUMPDEST PUSH1 0x0 DUP1 SHL DUP2 JUMP JUMPDEST PUSH1 0x60 DUP1 PUSH1 0x3 DUP1 SLOAD SWAP1 POP PUSH8 0xFFFFFFFFFFFFFFFF DUP2 GT ISZERO PUSH2 0x151D JUMPI PUSH2 0x151C PUSH2 0x26D4 JUMP JUMPDEST JUMPDEST PUSH1 0x40 MLOAD SWAP1 DUP1 DUP3 MSTORE DUP1 PUSH1 0x20 MUL PUSH1 0x20 ADD DUP3 ADD PUSH1 0x40 MSTORE DUP1 ISZERO PUSH2 0x154B JUMPI DUP2 PUSH1 0x20 ADD PUSH1 0x20 DUP3 MUL DUP1 CALLDATASIZE DUP4 CALLDATACOPY DUP1 DUP3 ADD SWAP2 POP POP SWAP1 POP JUMPDEST POP SWAP2 POP PUSH1 0x3 DUP1 SLOAD DUP1 PUSH1 0x20 MUL PUSH1 0x20 ADD PUSH1 0x40 MLOAD SWAP1 DUP2 ADD PUSH1 0x40 MSTORE DUP1 SWAP3 SWAP2 SWAP1 DUP2 DUP2 MSTORE PUSH1 0x20 ADD DUP3 DUP1 SLOAD DUP1 ISZERO PUSH2 0x15D0 JUMPI PUSH1 0x20 MUL DUP3 ADD SWAP2 SWAP1 PUSH1 0x0 MSTORE PUSH1 0x20 PUSH1 0x0 KECCAK256 SWAP1 JUMPDEST DUP2 PUSH1 0x0 SWAP1 SLOAD SWAP1 PUSH2 0x100 EXP SWAP1 DIV PUSH20 0xFFFFFFFFFFFFFFFFFFFFFFFFFFFFFFFFFFFFFFFF AND PUSH20 0xFFFFFFFFFFFFFFFFFFFFFFFFFFFFFFFFFFFFFFFF AND DUP2 MSTORE PUSH1 0x20 ADD SWAP1 PUSH1 0x1 ADD SWAP1 DUP1 DUP4 GT PUSH2 0x1586 JUMPI JUMPDEST POP POP POP POP POP SWAP2 POP DUP2 MLOAD PUSH8 0xFFFFFFFFFFFFFFFF DUP2 GT ISZERO PUSH2 0x15F2 JUMPI PUSH2 0x15F1 PUSH2 0x26D4 JUMP JUMPDEST JUMPDEST PUSH1 0x40 MLOAD SWAP1 DUP1 DUP3 MSTORE DUP1 PUSH1 0x20 MUL PUSH1 0x20 ADD DUP3 ADD PUSH1 0x40 MSTORE DUP1 ISZERO PUSH2 0x1620 JUMPI DUP2 PUSH1 0x20 ADD PUSH1 0x20 DUP3 MUL DUP1 CALLDATASIZE DUP4 CALLDATACOPY DUP1 DUP3 ADD SWAP2 POP POP SWAP1 POP JUMPDEST POP SWAP1 POP PUSH1 0x0 JUMPDEST DUP3 MLOAD DUP2 LT ISZERO PUSH2 0x16BC JUMPI PUSH1 0x4 PUSH1 0x0 DUP5 DUP4 DUP2 MLOAD DUP2 LT PUSH2 0x1646 JUMPI PUSH2 0x1645 PUSH2 0x265D JUMP JUMPDEST JUMPDEST PUSH1 0x20 MUL PUSH1 0x20 ADD ADD MLOAD PUSH20 0xFFFFFFFFFFFFFFFFFFFFFFFFFFFFFFFFFFFFFFFF AND PUSH20 0xFFFFFFFFFFFFFFFFFFFFFFFFFFFFFFFFFFFFFFFF AND DUP2 MSTORE PUSH1 0x20 ADD SWAP1 DUP2 MSTORE PUSH1 0x20 ADD PUSH1 0x0 KECCAK256 PUSH1 0x0 ADD SLOAD DUP3 DUP3 DUP2 MLOAD DUP2 LT PUSH2 0x169F JUMPI PUSH2 0x169E PUSH2 0x265D JUMP JUMPDEST JUMPDEST PUSH1 0x20 MUL PUSH1 0x20 ADD ADD DUP2 DUP2 MSTORE POP POP DUP1 PUSH2 0x16B5 SWAP1 PUSH2 0x268C JUMP JUMPDEST SWAP1 POP PUSH2 0x1626 JUMP JUMPDEST POP SWAP1 SWAP2 JUMP JUMPDEST PUSH32 0x0 DUP2 JUMP JUMPDEST PUSH1 0x7 SLOAD DUP2 JUMP JUMPDEST PUSH1 0x0 DUP1 PUSH1 0x4 PUSH1 0x0 DUP5 PUSH20 0xFFFFFFFFFFFFFFFFFFFFFFFFFFFFFFFFFFFFFFFF AND PUSH20 0xFFFFFFFFFFFFFFFFFFFFFFFFFFFFFFFFFFFFFFFF AND DUP2 MSTORE PUSH1 0x20 ADD SWAP1 DUP2 MSTORE PUSH1 0x20 ADD PUSH1 0x0 KECCAK256 PUSH1 0x0 ADD SLOAD GT PUSH2 0x173F JUMPI PUSH1 0x0 SWAP1 POP PUSH2 0x1744 JUMP JUMPDEST PUSH1 0x1 SWAP1 POP JUMPDEST SWAP2 SWAP1 POP JUMP JUMPDEST PUSH2 0x1752 DUP3 PUSH2 0xA3F JUMP JUMPDEST PUSH2 0x175B DUP2 PUSH2 0x1AE1 JUMP JUMPDEST PUSH2 0x1765 DUP4 DUP4 PUSH2 0x1BF3 JUMP JUMPDEST POP POP POP JUMP JUMPDEST PUSH1 0x3 DUP2 DUP2 SLOAD DUP2 LT PUSH2 0x177A JUMPI PUSH1 0x0 DUP1 REVERT JUMPDEST SWAP1 PUSH1 0x0 MSTORE PUSH1 0x20 PUSH1 0x0 KECCAK256 ADD PUSH1 0x0 SWAP2 POP SLOAD SWAP1 PUSH2 0x100 EXP SWAP1 DIV PUSH20 0xFFFFFFFFFFFFFFFFFFFFFFFFFFFFFFFFFFFFFFFF AND DUP2 JUMP JUMPDEST PUSH32 0x65D7A28E3265B37A6474929F336521B332C1681B933F6CB9F3376673440D862A DUP2 JUMP JUMPDEST PUSH32 0x241ECF16D79D0F8DBFB92CBC07FE17840425976CF0667F022FE9877CAA831B08 DUP2 JUMP JUMPDEST PUSH1 0x60 PUSH1 0x0 PUSH1 0x2 DUP4 PUSH1 0x2 PUSH2 0x1804 SWAP2 SWAP1 PUSH2 0x2703 JUMP JUMPDEST PUSH2 0x180E SWAP2 SWAP1 PUSH2 0x251A JUMP JUMPDEST PUSH8 0xFFFFFFFFFFFFFFFF DUP2 GT ISZERO PUSH2 0x1827 JUMPI PUSH2 0x1826 PUSH2 0x26D4 JUMP JUMPDEST JUMPDEST PUSH1 0x40 MLOAD SWAP1 DUP1 DUP3 MSTORE DUP1 PUSH1 0x1F ADD PUSH1 0x1F NOT AND PUSH1 0x20 ADD DUP3 ADD PUSH1 0x40 MSTORE DUP1 ISZERO PUSH2 0x1859 JUMPI DUP2 PUSH1 0x20 ADD PUSH1 0x1 DUP3 MUL DUP1 CALLDATASIZE DUP4 CALLDATACOPY DUP1 DUP3 ADD SWAP2 POP POP SWAP1 POP JUMPDEST POP SWAP1 POP PUSH32 0x3000000000000000000000000000000000000000000000000000000000000000 DUP2 PUSH1 0x0 DUP2 MLOAD DUP2 LT PUSH2 0x1891 JUMPI PUSH2 0x1890 PUSH2 0x265D JUMP JUMPDEST JUMPDEST PUSH1 0x20 ADD ADD SWAP1 PUSH31 0xFFFFFFFFFFFFFFFFFFFFFFFFFFFFFFFFFFFFFFFFFFFFFFFFFFFFFFFFFFFFFF NOT AND SWAP1 DUP2 PUSH1 0x0 BYTE SWAP1 MSTORE8 POP PUSH32 0x7800000000000000000000000000000000000000000000000000000000000000 DUP2 PUSH1 0x1 DUP2 MLOAD DUP2 LT PUSH2 0x18F5 JUMPI PUSH2 0x18F4 PUSH2 0x265D JUMP JUMPDEST JUMPDEST PUSH1 0x20 ADD ADD SWAP1 PUSH31 0xFFFFFFFFFFFFFFFFFFFFFFFFFFFFFFFFFFFFFFFFFFFFFFFFFFFFFFFFFFFFFF NOT AND SWAP1 DUP2 PUSH1 0x0 BYTE SWAP1 MSTORE8 POP PUSH1 0x0 PUSH1 0x1 DUP5 PUSH1 0x2 PUSH2 0x1935 SWAP2 SWAP1 PUSH2 0x2703 JUMP JUMPDEST PUSH2 0x193F SWAP2 SWAP1 PUSH2 0x251A JUMP JUMPDEST SWAP1 POP JUMPDEST PUSH1 0x1 DUP2 GT ISZERO PUSH2 0x19DF JUMPI PUSH32 0x3031323334353637383961626364656600000000000000000000000000000000 PUSH1 0xF DUP7 AND PUSH1 0x10 DUP2 LT PUSH2 0x1981 JUMPI PUSH2 0x1980 PUSH2 0x265D JUMP JUMPDEST JUMPDEST BYTE PUSH1 0xF8 SHL DUP3 DUP3 DUP2 MLOAD DUP2 LT PUSH2 0x1998 JUMPI PUSH2 0x1997 PUSH2 0x265D JUMP JUMPDEST JUMPDEST PUSH1 0x20 ADD ADD SWAP1 PUSH31 0xFFFFFFFFFFFFFFFFFFFFFFFFFFFFFFFFFFFFFFFFFFFFFFFFFFFFFFFFFFFFFF NOT AND SWAP1 DUP2 PUSH1 0x0 BYTE SWAP1 MSTORE8 POP PUSH1 0x4 DUP6 SWAP1 SHR SWAP5 POP DUP1 PUSH2 0x19D8 SWAP1 PUSH2 0x275D JUMP JUMPDEST SWAP1 POP PUSH2 0x1942 JUMP JUMPDEST POP PUSH1 0x0 DUP5 EQ PUSH2 0x1A23 JUMPI PUSH1 0x40 MLOAD PUSH32 0x8C379A000000000000000000000000000000000000000000000000000000000 DUP2 MSTORE PUSH1 0x4 ADD PUSH2 0x1A1A SWAP1 PUSH2 0x27D2 JUMP JUMPDEST PUSH1 0x40 MLOAD DUP1 SWAP2 SUB SWAP1 REVERT JUMPDEST DUP1 SWAP2 POP POP SWAP3 SWAP2 POP POP JUMP JUMPDEST PUSH1 0x0 PUSH32 0x1FFC9A700000000000000000000000000000000000000000000000000000000 PUSH28 0xFFFFFFFFFFFFFFFFFFFFFFFFFFFFFFFFFFFFFFFFFFFFFFFFFFFFFFFF NOT AND DUP3 PUSH28 0xFFFFFFFFFFFFFFFFFFFFFFFFFFFFFFFFFFFFFFFFFFFFFFFFFFFFFFFF NOT AND EQ SWAP1 POP SWAP2 SWAP1 POP JUMP JUMPDEST PUSH2 0x1A9F PUSH2 0x1050 JUMP JUMPDEST ISZERO PUSH2 0x1ADF JUMPI PUSH1 0x40 MLOAD PUSH32 0x8C379A000000000000000000000000000000000000000000000000000000000 DUP2 MSTORE PUSH1 0x4 ADD PUSH2 0x1AD6 SWAP1 PUSH2 0x283E JUMP JUMPDEST PUSH1 0x40 MLOAD DUP1 SWAP2 SUB SWAP1 REVERT JUMPDEST JUMP JUMPDEST PUSH2 0x1AF2 DUP2 PUSH2 0x1AED PUSH2 0x1BEB JUMP JUMPDEST PUSH2 0x1EA7 JUMP JUMPDEST POP JUMP JUMPDEST PUSH1 0x0 DUP2 DUP4 PUSH2 0x1B03 SWAP2 SWAP1 PUSH2 0x251A JUMP JUMPDEST SWAP1 POP SWAP3 SWAP2 POP POP JUMP JUMPDEST PUSH2 0x1B15 DUP3 DUP3 PUSH2 0x112E JUMP JUMPDEST PUSH2 0x1BE7 JUMPI PUSH1 0x1 DUP1 PUSH1 0x0 DUP5 DUP2 MSTORE PUSH1 0x20 ADD SWAP1 DUP2 MSTORE PUSH1 0x20 ADD PUSH1 0x0 KECCAK256 PUSH1 0x0 ADD PUSH1 0x0 DUP4 PUSH20 0xFFFFFFFFFFFFFFFFFFFFFFFFFFFFFFFFFFFFFFFF AND PUSH20 0xFFFFFFFFFFFFFFFFFFFFFFFFFFFFFFFFFFFFFFFF AND DUP2 MSTORE PUSH1 0x20 ADD SWAP1 DUP2 MSTORE PUSH1 0x20 ADD PUSH1 0x0 KECCAK256 PUSH1 0x0 PUSH2 0x100 EXP DUP2 SLOAD DUP2 PUSH1 0xFF MUL NOT AND SWAP1 DUP4 ISZERO ISZERO MUL OR SWAP1 SSTORE POP PUSH2 0x1B8C PUSH2 0x1BEB JUMP JUMPDEST PUSH20 0xFFFFFFFFFFFFFFFFFFFFFFFFFFFFFFFFFFFFFFFF AND DUP2 PUSH20 0xFFFFFFFFFFFFFFFFFFFFFFFFFFFFFFFFFFFFFFFF AND DUP4 PUSH32 0x2F8788117E7EFF1D82E926EC794901D17C78024A50270940304540A733656F0D PUSH1 0x40 MLOAD PUSH1 0x40 MLOAD DUP1 SWAP2 SUB SWAP1 LOG4 JUMPDEST POP POP JUMP JUMPDEST PUSH1 0x0 CALLER SWAP1 POP SWAP1 JUMP JUMPDEST PUSH2 0x1BFD DUP3 DUP3 PUSH2 0x112E JUMP JUMPDEST ISZERO PUSH2 0x1CD1 JUMPI PUSH1 0x0 PUSH1 0x1 PUSH1 0x0 DUP5 DUP2 MSTORE PUSH1 0x20 ADD SWAP1 DUP2 MSTORE PUSH1 0x20 ADD PUSH1 0x0 KECCAK256 PUSH1 0x0 ADD PUSH1 0x0 DUP4 PUSH20 0xFFFFFFFFFFFFFFFFFFFFFFFFFFFFFFFFFFFFFFFF AND PUSH20 0xFFFFFFFFFFFFFFFFFFFFFFFFFFFFFFFFFFFFFFFF AND DUP2 MSTORE PUSH1 0x20 ADD SWAP1 DUP2 MSTORE PUSH1 0x20 ADD PUSH1 0x0 KECCAK256 PUSH1 0x0 PUSH2 0x100 EXP DUP2 SLOAD DUP2 PUSH1 0xFF MUL NOT AND SWAP1 DUP4 ISZERO ISZERO MUL OR SWAP1 SSTORE POP PUSH2 0x1C76 PUSH2 0x1BEB JUMP JUMPDEST PUSH20 0xFFFFFFFFFFFFFFFFFFFFFFFFFFFFFFFFFFFFFFFF AND DUP2 PUSH20 0xFFFFFFFFFFFFFFFFFFFFFFFFFFFFFFFFFFFFFFFF AND DUP4 PUSH32 0xF6391F5C32D9C69D2A47EA670B442974B53935D1EDC7FD64EB21E047A839171B PUSH1 0x40 MLOAD PUSH1 0x40 MLOAD DUP1 SWAP2 SUB SWAP1 LOG4 JUMPDEST POP POP JUMP JUMPDEST PUSH1 0x0 DUP2 DUP4 PUSH2 0x1CE3 SWAP2 SWAP1 PUSH2 0x2703 JUMP JUMPDEST SWAP1 POP SWAP3 SWAP2 POP POP JUMP JUMPDEST PUSH1 0x0 DUP2 DUP4 PUSH2 0x1CF9 SWAP2 SWAP1 PUSH2 0x288D JUMP JUMPDEST SWAP1 POP SWAP3 SWAP2 POP POP JUMP JUMPDEST DUP1 SELFBALANCE LT ISZERO PUSH2 0x1D3B JUMPI PUSH1 0x40 MLOAD PUSH32 0x4890CFAE00000000000000000000000000000000000000000000000000000000 DUP2 MSTORE PUSH1 0x4 ADD PUSH1 0x40 MLOAD DUP1 SWAP2 SUB SWAP1 REVERT JUMPDEST PUSH1 0x0 DUP3 PUSH20 0xFFFFFFFFFFFFFFFFFFFFFFFFFFFFFFFFFFFFFFFF AND DUP3 PUSH1 0x40 MLOAD PUSH2 0x1D61 SWAP1 PUSH2 0x28EF JUMP JUMPDEST PUSH1 0x0 PUSH1 0x40 MLOAD DUP1 DUP4 SUB DUP2 DUP6 DUP8 GAS CALL SWAP3 POP POP POP RETURNDATASIZE DUP1 PUSH1 0x0 DUP2 EQ PUSH2 0x1D9E JUMPI PUSH1 0x40 MLOAD SWAP2 POP PUSH1 0x1F NOT PUSH1 0x3F RETURNDATASIZE ADD AND DUP3 ADD PUSH1 0x40 MSTORE RETURNDATASIZE DUP3 MSTORE RETURNDATASIZE PUSH1 0x0 PUSH1 0x20 DUP5 ADD RETURNDATACOPY PUSH2 0x1DA3 JUMP JUMPDEST PUSH1 0x60 SWAP2 POP JUMPDEST POP POP SWAP1 POP DUP1 PUSH2 0x1DDE JUMPI PUSH1 0x40 MLOAD PUSH32 0x41F5AE4500000000000000000000000000000000000000000000000000000000 DUP2 MSTORE PUSH1 0x4 ADD PUSH1 0x40 MLOAD DUP1 SWAP2 SUB SWAP1 REVERT JUMPDEST POP POP POP JUMP JUMPDEST PUSH2 0x1DEB PUSH2 0x1F44 JUMP JUMPDEST PUSH1 0x0 DUP1 PUSH1 0x0 PUSH2 0x100 EXP DUP2 SLOAD DUP2 PUSH1 0xFF MUL NOT AND SWAP1 DUP4 ISZERO ISZERO MUL OR SWAP1 SSTORE POP PUSH32 0x5DB9EE0A495BF2E6FF9C91A7834C1BA4FDD244A5E8AA4E537BD38AEAE4B073AA PUSH2 0x1E2E PUSH2 0x1BEB JUMP JUMPDEST PUSH1 0x40 MLOAD PUSH2 0x1E3B SWAP2 SWAP1 PUSH2 0x24D0 JUMP JUMPDEST PUSH1 0x40 MLOAD DUP1 SWAP2 SUB SWAP1 LOG1 JUMP JUMPDEST PUSH2 0x1E4D PUSH2 0x1A97 JUMP JUMPDEST PUSH1 0x1 PUSH1 0x0 DUP1 PUSH2 0x100 EXP DUP2 SLOAD DUP2 PUSH1 0xFF MUL NOT AND SWAP1 DUP4 ISZERO ISZERO MUL OR SWAP1 SSTORE POP PUSH32 0x62E78CEA01BEE320CD4E420270B5EA74000D11B0C9F74754EBDBFC544B05A258 PUSH2 0x1E90 PUSH2 0x1BEB JUMP JUMPDEST PUSH1 0x40 MLOAD PUSH2 0x1E9D SWAP2 SWAP1 PUSH2 0x24D0 JUMP JUMPDEST PUSH1 0x40 MLOAD DUP1 SWAP2 SUB SWAP1 LOG1 JUMP JUMPDEST PUSH2 0x1EB1 DUP3 DUP3 PUSH2 0x112E JUMP JUMPDEST PUSH2 0x1F40 JUMPI PUSH2 0x1ED6 DUP2 PUSH20 0xFFFFFFFFFFFFFFFFFFFFFFFFFFFFFFFFFFFFFFFF AND PUSH1 0x14 PUSH2 0x17F1 JUMP JUMPDEST PUSH2 0x1EE4 DUP4 PUSH1 0x0 SHR PUSH1 0x20 PUSH2 0x17F1 JUMP JUMPDEST PUSH1 0x40 MLOAD PUSH1 0x20 ADD PUSH2 0x1EF5 SWAP3 SWAP2 SWAP1 PUSH2 0x2A0D JUMP JUMPDEST PUSH1 0x40 MLOAD PUSH1 0x20 DUP2 DUP4 SUB SUB DUP2 MSTORE SWAP1 PUSH1 0x40 MSTORE PUSH1 0x40 MLOAD PUSH32 0x8C379A000000000000000000000000000000000000000000000000000000000 DUP2 MSTORE PUSH1 0x4 ADD PUSH2 0x1F37 SWAP2 SWAP1 PUSH2 0x2A91 JUMP JUMPDEST PUSH1 0x40 MLOAD DUP1 SWAP2 SUB SWAP1 REVERT JUMPDEST POP POP JUMP JUMPDEST PUSH2 0x1F4C PUSH2 0x1050 JUMP JUMPDEST PUSH2 0x1F8B JUMPI PUSH1 0x40 MLOAD PUSH32 0x8C379A000000000000000000000000000000000000000000000000000000000 DUP2 MSTORE PUSH1 0x4 ADD PUSH2 0x1F82 SWAP1 PUSH2 0x2AFF JUMP JUMPDEST PUSH1 0x40 MLOAD DUP1 SWAP2 SUB SWAP1 REVERT JUMPDEST JUMP JUMPDEST PUSH1 0x0 DUP2 SWAP1 POP SWAP2 SWAP1 POP JUMP JUMPDEST PUSH2 0x1FA0 DUP2 PUSH2 0x1F8D JUMP JUMPDEST DUP3 MSTORE POP POP JUMP JUMPDEST PUSH1 0x0 PUSH1 0x20 DUP3 ADD SWAP1 POP PUSH2 0x1FBB PUSH1 0x0 DUP4 ADD DUP5 PUSH2 0x1F97 JUMP JUMPDEST SWAP3 SWAP2 POP POP JUMP JUMPDEST PUSH1 0x0 DUP1 REVERT JUMPDEST PUSH1 0x0 PUSH20 0xFFFFFFFFFFFFFFFFFFFFFFFFFFFFFFFFFFFFFFFF DUP3 AND SWAP1 POP SWAP2 SWAP1 POP JUMP JUMPDEST PUSH1 0x0 PUSH2 0x1FF1 DUP3 PUSH2 0x1FC6 JUMP JUMPDEST SWAP1 POP SWAP2 SWAP1 POP JUMP JUMPDEST PUSH2 0x2001 DUP2 PUSH2 0x1FE6 JUMP JUMPDEST DUP2 EQ PUSH2 0x200C JUMPI PUSH1 0x0 DUP1 REVERT JUMPDEST POP JUMP JUMPDEST PUSH1 0x0 DUP2 CALLDATALOAD SWAP1 POP PUSH2 0x201E DUP2 PUSH2 0x1FF8 JUMP JUMPDEST SWAP3 SWAP2 POP POP JUMP JUMPDEST PUSH1 0x0 PUSH1 0x20 DUP3 DUP5 SUB SLT ISZERO PUSH2 0x203A JUMPI PUSH2 0x2039 PUSH2 0x1FC1 JUMP JUMPDEST JUMPDEST PUSH1 0x0 PUSH2 0x2048 DUP5 DUP3 DUP6 ADD PUSH2 0x200F JUMP JUMPDEST SWAP2 POP POP SWAP3 SWAP2 POP POP JUMP JUMPDEST PUSH1 0x0 PUSH1 0x60 DUP3 ADD SWAP1 POP PUSH2 0x2066 PUSH1 0x0 DUP4 ADD DUP7 PUSH2 0x1F97 JUMP JUMPDEST PUSH2 0x2073 PUSH1 0x20 DUP4 ADD DUP6 PUSH2 0x1F97 JUMP JUMPDEST PUSH2 0x2080 PUSH1 0x40 DUP4 ADD DUP5 PUSH2 0x1F97 JUMP JUMPDEST SWAP5 SWAP4 POP POP POP POP JUMP JUMPDEST PUSH1 0x0 PUSH32 0xFFFFFFFF00000000000000000000000000000000000000000000000000000000 DUP3 AND SWAP1 POP SWAP2 SWAP1 POP JUMP JUMPDEST PUSH2 0x20BD DUP2 PUSH2 0x2088 JUMP JUMPDEST DUP2 EQ PUSH2 0x20C8 JUMPI PUSH1 0x0 DUP1 REVERT JUMPDEST POP JUMP JUMPDEST PUSH1 0x0 DUP2 CALLDATALOAD SWAP1 POP PUSH2 0x20DA DUP2 PUSH2 0x20B4 JUMP JUMPDEST SWAP3 SWAP2 POP POP JUMP JUMPDEST PUSH1 0x0 PUSH1 0x20 DUP3 DUP5 SUB SLT ISZERO PUSH2 0x20F6 JUMPI PUSH2 0x20F5 PUSH2 0x1FC1 JUMP JUMPDEST JUMPDEST PUSH1 0x0 PUSH2 0x2104 DUP5 DUP3 DUP6 ADD PUSH2 0x20CB JUMP JUMPDEST SWAP2 POP POP SWAP3 SWAP2 POP POP JUMP JUMPDEST PUSH1 0x0 DUP2 ISZERO ISZERO SWAP1 POP SWAP2 SWAP1 POP JUMP JUMPDEST PUSH2 0x2122 DUP2 PUSH2 0x210D JUMP JUMPDEST DUP3 MSTORE POP POP JUMP JUMPDEST PUSH1 0x0 PUSH1 0x20 DUP3 ADD SWAP1 POP PUSH2 0x213D PUSH1 0x0 DUP4 ADD DUP5 PUSH2 0x2119 JUMP JUMPDEST SWAP3 SWAP2 POP POP JUMP JUMPDEST PUSH2 0x214C DUP2 PUSH2 0x1F8D JUMP JUMPDEST DUP2 EQ PUSH2 0x2157 JUMPI PUSH1 0x0 DUP1 REVERT JUMPDEST POP JUMP JUMPDEST PUSH1 0x0 DUP2 CALLDATALOAD SWAP1 POP PUSH2 0x2169 DUP2 PUSH2 0x2143 JUMP JUMPDEST SWAP3 SWAP2 POP POP JUMP JUMPDEST PUSH1 0x0 DUP1 PUSH1 0x40 DUP4 DUP6 SUB SLT ISZERO PUSH2 0x2186 JUMPI PUSH2 0x2185 PUSH2 0x1FC1 JUMP JUMPDEST JUMPDEST PUSH1 0x0 PUSH2 0x2194 DUP6 DUP3 DUP7 ADD PUSH2 0x200F JUMP JUMPDEST SWAP3 POP POP PUSH1 0x20 PUSH2 0x21A5 DUP6 DUP3 DUP7 ADD PUSH2 0x215A JUMP JUMPDEST SWAP2 POP POP SWAP3 POP SWAP3 SWAP1 POP JUMP JUMPDEST PUSH1 0x0 DUP2 SWAP1 POP SWAP2 SWAP1 POP JUMP JUMPDEST PUSH2 0x21C2 DUP2 PUSH2 0x21AF JUMP JUMPDEST DUP2 EQ PUSH2 0x21CD JUMPI PUSH1 0x0 DUP1 REVERT JUMPDEST POP JUMP JUMPDEST PUSH1 0x0 DUP2 CALLDATALOAD SWAP1 POP PUSH2 0x21DF DUP2 PUSH2 0x21B9 JUMP JUMPDEST SWAP3 SWAP2 POP POP JUMP JUMPDEST PUSH1 0x0 PUSH1 0x20 DUP3 DUP5 SUB SLT ISZERO PUSH2 0x21FB JUMPI PUSH2 0x21FA PUSH2 0x1FC1 JUMP JUMPDEST JUMPDEST PUSH1 0x0 PUSH2 0x2209 DUP5 DUP3 DUP6 ADD PUSH2 0x21D0 JUMP JUMPDEST SWAP2 POP POP SWAP3 SWAP2 POP POP JUMP JUMPDEST PUSH2 0x221B DUP2 PUSH2 0x21AF JUMP JUMPDEST DUP3 MSTORE POP POP JUMP JUMPDEST PUSH1 0x0 PUSH1 0x20 DUP3 ADD SWAP1 POP PUSH2 0x2236 PUSH1 0x0 DUP4 ADD DUP5 PUSH2 0x2212 JUMP JUMPDEST SWAP3 SWAP2 POP POP JUMP JUMPDEST PUSH1 0x0 DUP1 PUSH1 0x40 DUP4 DUP6 SUB SLT ISZERO PUSH2 0x2253 JUMPI PUSH2 0x2252 PUSH2 0x1FC1 JUMP JUMPDEST JUMPDEST PUSH1 0x0 PUSH2 0x2261 DUP6 DUP3 DUP7 ADD PUSH2 0x21D0 JUMP JUMPDEST SWAP3 POP POP PUSH1 0x20 PUSH2 0x2272 DUP6 DUP3 DUP7 ADD PUSH2 0x200F JUMP JUMPDEST SWAP2 POP POP SWAP3 POP SWAP3 SWAP1 POP JUMP JUMPDEST PUSH1 0x0 PUSH1 0x40 DUP3 ADD SWAP1 POP PUSH2 0x2291 PUSH1 0x0 DUP4 ADD DUP6 PUSH2 0x1F97 JUMP JUMPDEST PUSH2 0x229E PUSH1 0x20 DUP4 ADD DUP5 PUSH2 0x1F97 JUMP JUMPDEST SWAP4 SWAP3 POP POP POP JUMP JUMPDEST PUSH1 0x0 PUSH2 0x22B0 DUP3 PUSH2 0x1FC6 JUMP JUMPDEST SWAP1 POP SWAP2 SWAP1 POP JUMP JUMPDEST PUSH2 0x22C0 DUP2 PUSH2 0x22A5 JUMP JUMPDEST DUP3 MSTORE POP POP JUMP JUMPDEST PUSH1 0x0 PUSH1 0x20 DUP3 ADD SWAP1 POP PUSH2 0x22DB PUSH1 0x0 DUP4 ADD DUP5 PUSH2 0x22B7 JUMP JUMPDEST SWAP3 SWAP2 POP POP JUMP JUMPDEST PUSH1 0x0 DUP2 MLOAD SWAP1 POP SWAP2 SWAP1 POP JUMP JUMPDEST PUSH1 0x0 DUP3 DUP3 MSTORE PUSH1 0x20 DUP3 ADD SWAP1 POP SWAP3 SWAP2 POP POP JUMP JUMPDEST PUSH1 0x0 DUP2 SWAP1 POP PUSH1 0x20 DUP3 ADD SWAP1 POP SWAP2 SWAP1 POP JUMP JUMPDEST PUSH2 0x2316 DUP2 PUSH2 0x1FE6 JUMP JUMPDEST DUP3 MSTORE POP POP JUMP JUMPDEST PUSH1 0x0 PUSH2 0x2328 DUP4 DUP4 PUSH2 0x230D JUMP JUMPDEST PUSH1 0x20 DUP4 ADD SWAP1 POP SWAP3 SWAP2 POP POP JUMP JUMPDEST PUSH1 0x0 PUSH1 0x20 DUP3 ADD SWAP1 POP SWAP2 SWAP1 POP JUMP JUMPDEST PUSH1 0x0 PUSH2 0x234C DUP3 PUSH2 0x22E1 JUMP JUMPDEST PUSH2 0x2356 DUP2 DUP6 PUSH2 0x22EC JUMP JUMPDEST SWAP4 POP PUSH2 0x2361 DUP4 PUSH2 0x22FD JUMP JUMPDEST DUP1 PUSH1 0x0 JUMPDEST DUP4 DUP2 LT ISZERO PUSH2 0x2392 JUMPI DUP2 MLOAD PUSH2 0x2379 DUP9 DUP3 PUSH2 0x231C JUMP JUMPDEST SWAP8 POP PUSH2 0x2384 DUP4 PUSH2 0x2334 JUMP JUMPDEST SWAP3 POP POP PUSH1 0x1 DUP2 ADD SWAP1 POP PUSH2 0x2365 JUMP JUMPDEST POP DUP6 SWAP4 POP POP POP POP SWAP3 SWAP2 POP POP JUMP JUMPDEST PUSH1 0x0 DUP2 MLOAD SWAP1 POP SWAP2 SWAP1 POP JUMP JUMPDEST PUSH1 0x0 DUP3 DUP3 MSTORE PUSH1 0x20 DUP3 ADD SWAP1 POP SWAP3 SWAP2 POP POP JUMP JUMPDEST PUSH1 0x0 DUP2 SWAP1 POP PUSH1 0x20 DUP3 ADD SWAP1 POP SWAP2 SWAP1 POP JUMP JUMPDEST PUSH2 0x23D4 DUP2 PUSH2 0x1F8D JUMP JUMPDEST DUP3 MSTORE POP POP JUMP JUMPDEST PUSH1 0x0 PUSH2 0x23E6 DUP4 DUP4 PUSH2 0x23CB JUMP JUMPDEST PUSH1 0x20 DUP4 ADD SWAP1 POP SWAP3 SWAP2 POP POP JUMP JUMPDEST PUSH1 0x0 PUSH1 0x20 DUP3 ADD SWAP1 POP SWAP2 SWAP1 POP JUMP JUMPDEST PUSH1 0x0 PUSH2 0x240A DUP3 PUSH2 0x239F JUMP JUMPDEST PUSH2 0x2414 DUP2 DUP6 PUSH2 0x23AA JUMP JUMPDEST SWAP4 POP PUSH2 0x241F DUP4 PUSH2 0x23BB JUMP JUMPDEST DUP1 PUSH1 0x0 JUMPDEST DUP4 DUP2 LT ISZERO PUSH2 0x2450 JUMPI DUP2 MLOAD PUSH2 0x2437 DUP9 DUP3 PUSH2 0x23DA JUMP JUMPDEST SWAP8 POP PUSH2 0x2442 DUP4 PUSH2 0x23F2 JUMP JUMPDEST SWAP3 POP POP PUSH1 0x1 DUP2 ADD SWAP1 POP PUSH2 0x2423 JUMP JUMPDEST POP DUP6 SWAP4 POP POP POP POP SWAP3 SWAP2 POP POP JUMP JUMPDEST PUSH1 0x0 PUSH1 0x40 DUP3 ADD SWAP1 POP DUP2 DUP2 SUB PUSH1 0x0 DUP4 ADD MSTORE PUSH2 0x2477 DUP2 DUP6 PUSH2 0x2341 JUMP JUMPDEST SWAP1 POP DUP2 DUP2 SUB PUSH1 0x20 DUP4 ADD MSTORE PUSH2 0x248B DUP2 DUP5 PUSH2 0x23FF JUMP JUMPDEST SWAP1 POP SWAP4 SWAP3 POP POP POP JUMP JUMPDEST PUSH1 0x0 PUSH1 0x20 DUP3 DUP5 SUB SLT ISZERO PUSH2 0x24AA JUMPI PUSH2 0x24A9 PUSH2 0x1FC1 JUMP JUMPDEST JUMPDEST PUSH1 0x0 PUSH2 0x24B8 DUP5 DUP3 DUP6 ADD PUSH2 0x215A JUMP JUMPDEST SWAP2 POP POP SWAP3 SWAP2 POP POP JUMP JUMPDEST PUSH2 0x24CA DUP2 PUSH2 0x1FE6 JUMP JUMPDEST DUP3 MSTORE POP POP JUMP JUMPDEST PUSH1 0x0 PUSH1 0x20 DUP3 ADD SWAP1 POP PUSH2 0x24E5 PUSH1 0x0 DUP4 ADD DUP5 PUSH2 0x24C1 JUMP JUMPDEST SWAP3 SWAP2 POP POP JUMP JUMPDEST PUSH32 0x4E487B7100000000000000000000000000000000000000000000000000000000 PUSH1 0x0 MSTORE PUSH1 0x11 PUSH1 0x4 MSTORE PUSH1 0x24 PUSH1 0x0 REVERT JUMPDEST PUSH1 0x0 PUSH2 0x2525 DUP3 PUSH2 0x1F8D JUMP JUMPDEST SWAP2 POP PUSH2 0x2530 DUP4 PUSH2 0x1F8D JUMP JUMPDEST SWAP3 POP DUP3 DUP3 ADD SWAP1 POP DUP1 DUP3 GT ISZERO PUSH2 0x2548 JUMPI PUSH2 0x2547 PUSH2 0x24EB JUMP JUMPDEST JUMPDEST SWAP3 SWAP2 POP POP JUMP JUMPDEST PUSH1 0x0 DUP3 DUP3 MSTORE PUSH1 0x20 DUP3 ADD SWAP1 POP SWAP3 SWAP2 POP POP JUMP JUMPDEST PUSH32 0x416363657373436F6E74726F6C3A2063616E206F6E6C792072656E6F756E6365 PUSH1 0x0 DUP3 ADD MSTORE PUSH32 0x20726F6C657320666F722073656C660000000000000000000000000000000000 PUSH1 0x20 DUP3 ADD MSTORE POP JUMP JUMPDEST PUSH1 0x0 PUSH2 0x25BB PUSH1 0x2F DUP4 PUSH2 0x254E JUMP JUMPDEST SWAP2 POP PUSH2 0x25C6 DUP3 PUSH2 0x255F JUMP JUMPDEST PUSH1 0x40 DUP3 ADD SWAP1 POP SWAP2 SWAP1 POP JUMP JUMPDEST PUSH1 0x0 PUSH1 0x20 DUP3 ADD SWAP1 POP DUP2 DUP2 SUB PUSH1 0x0 DUP4 ADD MSTORE PUSH2 0x25EA DUP2 PUSH2 0x25AE JUMP JUMPDEST SWAP1 POP SWAP2 SWAP1 POP JUMP JUMPDEST PUSH32 0x5265656E7472616E637947756172643A207265656E7472616E742063616C6C00 PUSH1 0x0 DUP3 ADD MSTORE POP JUMP JUMPDEST PUSH1 0x0 PUSH2 0x2627 PUSH1 0x1F DUP4 PUSH2 0x254E JUMP JUMPDEST SWAP2 POP PUSH2 0x2632 DUP3 PUSH2 0x25F1 JUMP JUMPDEST PUSH1 0x20 DUP3 ADD SWAP1 POP SWAP2 SWAP1 POP JUMP JUMPDEST PUSH1 0x0 PUSH1 0x20 DUP3 ADD SWAP1 POP DUP2 DUP2 SUB PUSH1 0x0 DUP4 ADD MSTORE PUSH2 0x2656 DUP2 PUSH2 0x261A JUMP JUMPDEST SWAP1 POP SWAP2 SWAP1 POP JUMP JUMPDEST PUSH32 0x4E487B7100000000000000000000000000000000000000000000000000000000 PUSH1 0x0 MSTORE PUSH1 0x32 PUSH1 0x4 MSTORE PUSH1 0x24 PUSH1 0x0 REVERT JUMPDEST PUSH1 0x0 PUSH2 0x2697 DUP3 PUSH2 0x1F8D JUMP JUMPDEST SWAP2 POP PUSH32 0xFFFFFFFFFFFFFFFFFFFFFFFFFFFFFFFFFFFFFFFFFFFFFFFFFFFFFFFFFFFFFFFF DUP3 SUB PUSH2 0x26C9 JUMPI PUSH2 0x26C8 PUSH2 0x24EB JUMP JUMPDEST JUMPDEST PUSH1 0x1 DUP3 ADD SWAP1 POP SWAP2 SWAP1 POP JUMP JUMPDEST PUSH32 0x4E487B7100000000000000000000000000000000000000000000000000000000 PUSH1 0x0 MSTORE PUSH1 0x41 PUSH1 0x4 MSTORE PUSH1 0x24 PUSH1 0x0 REVERT JUMPDEST PUSH1 0x0 PUSH2 0x270E DUP3 PUSH2 0x1F8D JUMP JUMPDEST SWAP2 POP PUSH2 0x2719 DUP4 PUSH2 0x1F8D JUMP JUMPDEST SWAP3 POP DUP2 PUSH32 0xFFFFFFFFFFFFFFFFFFFFFFFFFFFFFFFFFFFFFFFFFFFFFFFFFFFFFFFFFFFFFFFF DIV DUP4 GT DUP3 ISZERO ISZERO AND ISZERO PUSH2 0x2752 JUMPI PUSH2 0x2751 PUSH2 0x24EB JUMP JUMPDEST JUMPDEST DUP3 DUP3 MUL SWAP1 POP SWAP3 SWAP2 POP POP JUMP JUMPDEST PUSH1 0x0 PUSH2 0x2768 DUP3 PUSH2 0x1F8D JUMP JUMPDEST SWAP2 POP PUSH1 0x0 DUP3 SUB PUSH2 0x277B JUMPI PUSH2 0x277A PUSH2 0x24EB JUMP JUMPDEST JUMPDEST PUSH1 0x1 DUP3 SUB SWAP1 POP SWAP2 SWAP1 POP JUMP JUMPDEST PUSH32 0x537472696E67733A20686578206C656E67746820696E73756666696369656E74 PUSH1 0x0 DUP3 ADD MSTORE POP JUMP JUMPDEST PUSH1 0x0 PUSH2 0x27BC PUSH1 0x20 DUP4 PUSH2 0x254E JUMP JUMPDEST SWAP2 POP PUSH2 0x27C7 DUP3 PUSH2 0x2786 JUMP JUMPDEST PUSH1 0x20 DUP3 ADD SWAP1 POP SWAP2 SWAP1 POP JUMP JUMPDEST PUSH1 0x0 PUSH1 0x20 DUP3 ADD SWAP1 POP DUP2 DUP2 SUB PUSH1 0x0 DUP4 ADD MSTORE PUSH2 0x27EB DUP2 PUSH2 0x27AF JUMP JUMPDEST SWAP1 POP SWAP2 SWAP1 POP JUMP JUMPDEST PUSH32 0x5061757361626C653A2070617573656400000000000000000000000000000000 PUSH1 0x0 DUP3 ADD MSTORE POP JUMP JUMPDEST PUSH1 0x0 PUSH2 0x2828 PUSH1 0x10 DUP4 PUSH2 0x254E JUMP JUMPDEST SWAP2 POP PUSH2 0x2833 DUP3 PUSH2 0x27F2 JUMP JUMPDEST PUSH1 0x20 DUP3 ADD SWAP1 POP SWAP2 SWAP1 POP JUMP JUMPDEST PUSH1 0x0 PUSH1 0x20 DUP3 ADD SWAP1 POP DUP2 DUP2 SUB PUSH1 0x0 DUP4 ADD MSTORE PUSH2 0x2857 DUP2 PUSH2 0x281B JUMP JUMPDEST SWAP1 POP SWAP2 SWAP1 POP JUMP JUMPDEST PUSH32 0x4E487B7100000000000000000000000000000000000000000000000000000000 PUSH1 0x0 MSTORE PUSH1 0x12 PUSH1 0x4 MSTORE PUSH1 0x24 PUSH1 0x0 REVERT JUMPDEST PUSH1 0x0 PUSH2 0x2898 DUP3 PUSH2 0x1F8D JUMP JUMPDEST SWAP2 POP PUSH2 0x28A3 DUP4 PUSH2 0x1F8D JUMP JUMPDEST SWAP3 POP DUP3 PUSH2 0x28B3 JUMPI PUSH2 0x28B2 PUSH2 0x285E JUMP JUMPDEST JUMPDEST DUP3 DUP3 DIV SWAP1 POP SWAP3 SWAP2 POP POP JUMP JUMPDEST PUSH1 0x0 DUP2 SWAP1 POP SWAP3 SWAP2 POP POP JUMP JUMPDEST POP JUMP JUMPDEST PUSH1 0x0 PUSH2 0x28D9 PUSH1 0x0 DUP4 PUSH2 0x28BE JUMP JUMPDEST SWAP2 POP PUSH2 0x28E4 DUP3 PUSH2 0x28C9 JUMP JUMPDEST PUSH1 0x0 DUP3 ADD SWAP1 POP SWAP2 SWAP1 POP JUMP JUMPDEST PUSH1 0x0 PUSH2 0x28FA DUP3 PUSH2 0x28CC JUMP JUMPDEST SWAP2 POP DUP2 SWAP1 POP SWAP2 SWAP1 POP JUMP JUMPDEST PUSH1 0x0 DUP2 SWAP1 POP SWAP3 SWAP2 POP POP JUMP JUMPDEST PUSH32 0x416363657373436F6E74726F6C3A206163636F756E7420000000000000000000 PUSH1 0x0 DUP3 ADD MSTORE POP JUMP JUMPDEST PUSH1 0x0 PUSH2 0x2945 PUSH1 0x17 DUP4 PUSH2 0x2904 JUMP JUMPDEST SWAP2 POP PUSH2 0x2950 DUP3 PUSH2 0x290F JUMP JUMPDEST PUSH1 0x17 DUP3 ADD SWAP1 POP SWAP2 SWAP1 POP JUMP JUMPDEST PUSH1 0x0 DUP2 MLOAD SWAP1 POP SWAP2 SWAP1 POP JUMP JUMPDEST PUSH1 0x0 JUMPDEST DUP4 DUP2 LT ISZERO PUSH2 0x2984 JUMPI DUP1 DUP3 ADD MLOAD DUP2 DUP5 ADD MSTORE PUSH1 0x20 DUP2 ADD SWAP1 POP PUSH2 0x2969 JUMP JUMPDEST PUSH1 0x0 DUP5 DUP5 ADD MSTORE POP POP POP POP JUMP JUMPDEST PUSH1 0x0 PUSH2 0x299B DUP3 PUSH2 0x295B JUMP JUMPDEST PUSH2 0x29A5 DUP2 DUP6 PUSH2 0x2904 JUMP JUMPDEST SWAP4 POP PUSH2 0x29B5 DUP2 DUP6 PUSH1 0x20 DUP7 ADD PUSH2 0x2966 JUMP JUMPDEST DUP1 DUP5 ADD SWAP2 POP POP SWAP3 SWAP2 POP POP JUMP JUMPDEST PUSH32 0x206973206D697373696E6720726F6C6520000000000000000000000000000000 PUSH1 0x0 DUP3 ADD MSTORE POP JUMP JUMPDEST PUSH1 0x0 PUSH2 0x29F7 PUSH1 0x11 DUP4 PUSH2 0x2904 JUMP JUMPDEST SWAP2 POP PUSH2 0x2A02 DUP3 PUSH2 0x29C1 JUMP JUMPDEST PUSH1 0x11 DUP3 ADD SWAP1 POP SWAP2 SWAP1 POP JUMP JUMPDEST PUSH1 0x0 PUSH2 0x2A18 DUP3 PUSH2 0x2938 JUMP JUMPDEST SWAP2 POP PUSH2 0x2A24 DUP3 DUP6 PUSH2 0x2990 JUMP JUMPDEST SWAP2 POP PUSH2 0x2A2F DUP3 PUSH2 0x29EA JUMP JUMPDEST SWAP2 POP PUSH2 0x2A3B DUP3 DUP5 PUSH2 0x2990 JUMP JUMPDEST SWAP2 POP DUP2 SWAP1 POP SWAP4 SWAP3 POP POP POP JUMP JUMPDEST PUSH1 0x0 PUSH1 0x1F NOT PUSH1 0x1F DUP4 ADD AND SWAP1 POP SWAP2 SWAP1 POP JUMP JUMPDEST PUSH1 0x0 PUSH2 0x2A63 DUP3 PUSH2 0x295B JUMP JUMPDEST PUSH2 0x2A6D DUP2 DUP6 PUSH2 0x254E JUMP JUMPDEST SWAP4 POP PUSH2 0x2A7D DUP2 DUP6 PUSH1 0x20 DUP7 ADD PUSH2 0x2966 JUMP JUMPDEST PUSH2 0x2A86 DUP2 PUSH2 0x2A47 JUMP JUMPDEST DUP5 ADD SWAP2 POP POP SWAP3 SWAP2 POP POP JUMP JUMPDEST PUSH1 0x0 PUSH1 0x20 DUP3 ADD SWAP1 POP DUP2 DUP2 SUB PUSH1 0x0 DUP4 ADD MSTORE PUSH2 0x2AAB DUP2 DUP5 PUSH2 0x2A58 JUMP JUMPDEST SWAP1 POP SWAP3 SWAP2 POP POP JUMP JUMPDEST PUSH32 0x5061757361626C653A206E6F7420706175736564000000000000000000000000 PUSH1 0x0 DUP3 ADD MSTORE POP JUMP JUMPDEST PUSH1 0x0 PUSH2 0x2AE9 PUSH1 0x14 DUP4 PUSH2 0x254E JUMP JUMPDEST SWAP2 POP PUSH2 0x2AF4 DUP3 PUSH2 0x2AB3 JUMP JUMPDEST PUSH1 0x20 DUP3 ADD SWAP1 POP SWAP2 SWAP1 POP JUMP JUMPDEST PUSH1 0x0 PUSH1 0x20 DUP3 ADD SWAP1 POP DUP2 DUP2 SUB PUSH1 0x0 DUP4 ADD MSTORE PUSH2 0x2B18 DUP2 PUSH2 0x2ADC JUMP JUMPDEST SWAP1 POP SWAP2 SWAP1 POP JUMP INVALID LOG2 PUSH5 0x6970667358 0x22 SLT KECCAK256 DUP8 0xA9 CALLDATALOAD 0xC1 BASEFEE 0xA9 MSTORE8 SWAP10 LOG4 0xAE SUB PUSH27 0x7FC492F0B96F8C9137E4473AD3858B180BF27E9364736F6C634300 ADDMOD LT STOP CALLER "
        },
        "gasEstimates": {
          "creation": {
            "codeDepositCost": "2218600",
            "executionCost": "infinite",
            "totalCost": "infinite"
          },
          "external": {
            "DEFAULT_ADMIN_ROLE()": "424",
            "MANAGER_ROLE()": "439",
            "PAUSER_ROLE()": "417",
            "addBeneficiary(address,uint256)": "infinite",
            "beneficiaries(address)": "infinite",
            "beneficiariesAddresses(uint256)": "5022",
            "companyTreasuryAddress()": "2604",
            "currentTotalStake()": "2496",
            "distributeFunds()": "infinite",
            "getBeneficiariesAddresses()": "infinite",
            "getRoleAdmin(bytes32)": "infinite",
            "getUpdateWindow()": "infinite",
            "grantRole(bytes32,address)": "infinite",
            "hasRole(bytes32,address)": "3208",
            "intervalSeconds()": "infinite",
            "isABeneficiary(address)": "2976",
            "lastEndOfIntervalTimestamp()": "2497",
            "pause()": "infinite",
            "paused()": "2546",
            "renounceRole(bytes32,address)": "infinite",
            "revokeRole(bytes32,address)": "infinite",
            "setCompanyTreasuryAddress(address)": "infinite",
            "supportsInterface(bytes4)": "773",
            "unpause()": "infinite",
            "updateBeneficiariesStake(address,uint256)": "infinite",
            "updateWindowSeconds()": "infinite",
            "withinUpdateWindow()": "infinite"
          },
          "internal": {
            "sendValue(address payable,uint256)": "infinite"
          }
        },
        "methodIdentifiers": {
          "DEFAULT_ADMIN_ROLE()": "a217fddf",
          "MANAGER_ROLE()": "ec87621c",
          "PAUSER_ROLE()": "e63ab1e9",
          "addBeneficiary(address,uint256)": "96074e70",
          "beneficiaries(address)": "01567739",
          "beneficiariesAddresses(uint256)": "d9724ffb",
          "companyTreasuryAddress()": "9426d555",
          "currentTotalStake()": "ce4843e9",
          "distributeFunds()": "3a6a4d2e",
          "getBeneficiariesAddresses()": "be8431f9",
          "getRoleAdmin(bytes32)": "248a9ca3",
          "getUpdateWindow()": "408a3550",
          "grantRole(bytes32,address)": "2f2ff15d",
          "hasRole(bytes32,address)": "91d14854",
          "intervalSeconds()": "7d1cd04f",
          "isABeneficiary(address)": "d2414958",
          "lastEndOfIntervalTimestamp()": "3c915af7",
          "pause()": "8456cb59",
          "paused()": "5c975abb",
          "renounceRole(bytes32,address)": "36568abe",
          "revokeRole(bytes32,address)": "d547741f",
          "setCompanyTreasuryAddress(address)": "85d923ae",
          "supportsInterface(bytes4)": "01ffc9a7",
          "unpause()": "3f4ba83a",
          "updateBeneficiariesStake(address,uint256)": "0505a00f",
          "updateWindowSeconds()": "c8f29b04",
          "withinUpdateWindow()": "a128f355"
        }
      },
      "storageLayout": {
        "storage": [
          {
            "astId": 410,
            "contract": "contracts/StakeManager.sol:StakeManager",
            "label": "_paused",
            "offset": 0,
            "slot": "0",
            "type": "t_bool"
          },
          {
            "astId": 24,
            "contract": "contracts/StakeManager.sol:StakeManager",
            "label": "_roles",
            "offset": 0,
            "slot": "1",
            "type": "t_mapping(t_bytes32,t_struct(RoleData)19_storage)"
          },
          {
            "astId": 511,
            "contract": "contracts/StakeManager.sol:StakeManager",
            "label": "_status",
            "offset": 0,
            "slot": "2",
            "type": "t_uint256"
          },
          {
            "astId": 1218,
            "contract": "contracts/StakeManager.sol:StakeManager",
            "label": "beneficiariesAddresses",
            "offset": 0,
            "slot": "3",
            "type": "t_array(t_address)dyn_storage"
          },
          {
            "astId": 1223,
            "contract": "contracts/StakeManager.sol:StakeManager",
            "label": "beneficiaries",
            "offset": 0,
            "slot": "4",
            "type": "t_mapping(t_address,t_struct(Stake)1215_storage)"
          },
          {
            "astId": 1225,
            "contract": "contracts/StakeManager.sol:StakeManager",
            "label": "companyTreasuryAddress",
            "offset": 0,
            "slot": "5",
            "type": "t_address_payable"
          },
          {
            "astId": 1236,
            "contract": "contracts/StakeManager.sol:StakeManager",
            "label": "lastEndOfIntervalTimestamp",
            "offset": 0,
            "slot": "6",
            "type": "t_uint256"
          },
          {
            "astId": 1239,
            "contract": "contracts/StakeManager.sol:StakeManager",
            "label": "currentTotalStake",
            "offset": 0,
            "slot": "7",
            "type": "t_uint256"
          }
        ],
        "types": {
          "t_address": {
            "encoding": "inplace",
            "label": "address",
            "numberOfBytes": "20"
          },
          "t_address_payable": {
            "encoding": "inplace",
            "label": "address payable",
            "numberOfBytes": "20"
          },
          "t_array(t_address)dyn_storage": {
            "base": "t_address",
            "encoding": "dynamic_array",
            "label": "address[]",
            "numberOfBytes": "32"
          },
          "t_bool": {
            "encoding": "inplace",
            "label": "bool",
            "numberOfBytes": "1"
          },
          "t_bytes32": {
            "encoding": "inplace",
            "label": "bytes32",
            "numberOfBytes": "32"
          },
          "t_mapping(t_address,t_bool)": {
            "encoding": "mapping",
            "key": "t_address",
            "label": "mapping(address => bool)",
            "numberOfBytes": "32",
            "value": "t_bool"
          },
          "t_mapping(t_address,t_struct(Stake)1215_storage)": {
            "encoding": "mapping",
            "key": "t_address",
            "label": "mapping(address => struct StakeManager.Stake)",
            "numberOfBytes": "32",
            "value": "t_struct(Stake)1215_storage"
          },
          "t_mapping(t_bytes32,t_struct(RoleData)19_storage)": {
            "encoding": "mapping",
            "key": "t_bytes32",
            "label": "mapping(bytes32 => struct AccessControl.RoleData)",
            "numberOfBytes": "32",
            "value": "t_struct(RoleData)19_storage"
          },
          "t_struct(RoleData)19_storage": {
            "encoding": "inplace",
            "label": "struct AccessControl.RoleData",
            "members": [
              {
                "astId": 16,
                "contract": "contracts/StakeManager.sol:StakeManager",
                "label": "members",
                "offset": 0,
                "slot": "0",
                "type": "t_mapping(t_address,t_bool)"
              },
              {
                "astId": 18,
                "contract": "contracts/StakeManager.sol:StakeManager",
                "label": "adminRole",
                "offset": 0,
                "slot": "1",
                "type": "t_bytes32"
              }
            ],
            "numberOfBytes": "64"
          },
          "t_struct(Stake)1215_storage": {
            "encoding": "inplace",
            "label": "struct StakeManager.Stake",
            "members": [
              {
                "astId": 1210,
                "contract": "contracts/StakeManager.sol:StakeManager",
                "label": "equityTokens",
                "offset": 0,
                "slot": "0",
                "type": "t_uint256"
              },
              {
                "astId": 1212,
                "contract": "contracts/StakeManager.sol:StakeManager",
                "label": "fundsLastReceived",
                "offset": 0,
                "slot": "1",
                "type": "t_uint256"
              },
              {
                "astId": 1214,
                "contract": "contracts/StakeManager.sol:StakeManager",
                "label": "equityLastUpdated",
                "offset": 0,
                "slot": "2",
                "type": "t_uint256"
              }
            ],
            "numberOfBytes": "96"
          },
          "t_uint256": {
            "encoding": "inplace",
            "label": "uint256",
            "numberOfBytes": "32"
          }
        }
      },
      "userdoc": {
        "kind": "user",
        "methods": {
          "addBeneficiary(address,uint256)": {
            "notice": "Adds a new beneficiary with an initial stake"
          },
          "distributeFunds()": {
            "notice": "Distrbute funds to beneficiaries and remainder to Company Treasury"
          },
          "getBeneficiariesAddresses()": {
            "notice": "Gets all beneficiaries of the contract as well as their stake"
          },
          "getUpdateWindow()": {
            "notice": "Calculates the update window intervals"
          },
          "isABeneficiary(address)": {
            "notice": "Checks whether a specific address is a beneficiary of the contract"
          },
          "pause()": {
            "notice": "Pauses the contract so no interactions can be made"
          },
          "setCompanyTreasuryAddress(address)": {
            "notice": "Updates the Company Treasury address"
          },
          "unpause()": {
            "notice": "Unpauses the contract so interactions can be made"
          },
          "updateBeneficiariesStake(address,uint256)": {
            "notice": "Updates an existing beneficiary with a specific stake increase"
          },
          "withinUpdateWindow()": {
            "notice": "Returns whether we are within the update window"
          }
        },
        "version": 1
      }
    }
  }
}