{
  "address": "0x5FbDB2315678afecb367f032d93F642f64180aa3",
  "abi": [
    {
      "inputs": [
        {
          "internalType": "address",
          "name": "_i3Fund",
          "type": "address"
        },
        {
          "internalType": "uint256",
          "name": "_interval",
          "type": "uint256"
        }
      ],
      "stateMutability": "nonpayable",
      "type": "constructor"
    },
    {
      "inputs": [],
      "name": "EquityManager__InsufficientBalance",
      "type": "error"
    },
    {
      "inputs": [],
      "name": "EquityManager__StakeIsZero",
      "type": "error"
    },
    {
      "inputs": [],
      "name": "EquityManager__TotalValueGreaterThan100",
      "type": "error"
    },
    {
      "inputs": [],
      "name": "EquityManager__TransactionFailed",
      "type": "error"
    },
    {
      "anonymous": false,
      "inputs": [
        {
          "indexed": false,
          "internalType": "uint256",
          "name": "count",
          "type": "uint256"
        },
        {
          "indexed": false,
          "internalType": "uint256",
          "name": "timeUpdated",
          "type": "uint256"
        }
      ],
      "name": "EquityStakeUpdated",
      "type": "event"
    },
    {
      "anonymous": false,
      "inputs": [
        {
          "indexed": false,
          "internalType": "uint256",
          "name": "amount",
          "type": "uint256"
        }
      ],
      "name": "FundsDistributed",
      "type": "event"
    },
    {
      "anonymous": false,
      "inputs": [
        {
          "indexed": true,
          "internalType": "address",
          "name": "addr",
          "type": "address"
        },
        {
          "indexed": false,
          "internalType": "uint256",
          "name": "amount",
          "type": "uint256"
        }
      ],
      "name": "FundsReceived",
      "type": "event"
    },
    {
      "anonymous": false,
      "inputs": [
        {
          "indexed": false,
          "internalType": "address",
          "name": "holder",
          "type": "address"
        },
        {
          "indexed": false,
          "internalType": "uint256",
          "name": "stake",
          "type": "uint256"
        },
        {
          "indexed": false,
          "internalType": "uint256",
          "name": "stakeholderNum",
          "type": "uint256"
        },
        {
          "indexed": false,
          "internalType": "uint256",
          "name": "timeAdded",
          "type": "uint256"
        }
      ],
      "name": "NewStakeHolderAdded",
      "type": "event"
    },
    {
      "anonymous": false,
      "inputs": [
        {
          "indexed": false,
          "internalType": "address",
          "name": "account",
          "type": "address"
        }
      ],
      "name": "Paused",
      "type": "event"
    },
    {
      "anonymous": false,
      "inputs": [
        {
          "indexed": true,
          "internalType": "bytes32",
          "name": "role",
          "type": "bytes32"
        },
        {
          "indexed": true,
          "internalType": "bytes32",
          "name": "previousAdminRole",
          "type": "bytes32"
        },
        {
          "indexed": true,
          "internalType": "bytes32",
          "name": "newAdminRole",
          "type": "bytes32"
        }
      ],
      "name": "RoleAdminChanged",
      "type": "event"
    },
    {
      "anonymous": false,
      "inputs": [
        {
          "indexed": true,
          "internalType": "bytes32",
          "name": "role",
          "type": "bytes32"
        },
        {
          "indexed": true,
          "internalType": "address",
          "name": "account",
          "type": "address"
        },
        {
          "indexed": true,
          "internalType": "address",
          "name": "sender",
          "type": "address"
        }
      ],
      "name": "RoleGranted",
      "type": "event"
    },
    {
      "anonymous": false,
      "inputs": [
        {
          "indexed": true,
          "internalType": "bytes32",
          "name": "role",
          "type": "bytes32"
        },
        {
          "indexed": true,
          "internalType": "address",
          "name": "account",
          "type": "address"
        },
        {
          "indexed": true,
          "internalType": "address",
          "name": "sender",
          "type": "address"
        }
      ],
      "name": "RoleRevoked",
      "type": "event"
    },
    {
      "anonymous": false,
      "inputs": [
        {
          "indexed": false,
          "internalType": "address",
          "name": "account",
          "type": "address"
        }
      ],
      "name": "Unpaused",
      "type": "event"
    },
    {
      "inputs": [
        {
          "internalType": "uint256",
          "name": "",
          "type": "uint256"
        }
      ],
      "name": "Cstakeholders",
      "outputs": [
        {
          "internalType": "address",
          "name": "holder",
          "type": "address"
        },
        {
          "internalType": "uint256",
          "name": "stakePercentage",
          "type": "uint256"
        },
        {
          "internalType": "uint256",
          "name": "lastReceived",
          "type": "uint256"
        },
        {
          "internalType": "uint256",
          "name": "created",
          "type": "uint256"
        }
      ],
      "stateMutability": "view",
      "type": "function"
    },
    {
      "inputs": [],
      "name": "DEFAULT_ADMIN_ROLE",
      "outputs": [
        {
          "internalType": "bytes32",
          "name": "",
          "type": "bytes32"
        }
      ],
      "stateMutability": "view",
      "type": "function"
    },
    {
      "inputs": [],
      "name": "Impact3Account",
      "outputs": [
        {
          "internalType": "address",
          "name": "",
          "type": "address"
        }
      ],
      "stateMutability": "view",
      "type": "function"
    },
    {
      "inputs": [
        {
          "internalType": "uint256",
          "name": "",
          "type": "uint256"
        }
      ],
      "name": "Istakeholders",
      "outputs": [
        {
          "internalType": "address",
          "name": "holder",
          "type": "address"
        },
        {
          "internalType": "uint256",
          "name": "stakePercentage",
          "type": "uint256"
        },
        {
          "internalType": "uint256",
          "name": "lastReceived",
          "type": "uint256"
        },
        {
          "internalType": "uint256",
          "name": "created",
          "type": "uint256"
        }
      ],
      "stateMutability": "view",
      "type": "function"
    },
    {
      "inputs": [],
      "name": "MANAGER_ROLE",
      "outputs": [
        {
          "internalType": "bytes32",
          "name": "",
          "type": "bytes32"
        }
      ],
      "stateMutability": "view",
      "type": "function"
    },
    {
      "inputs": [],
      "name": "PAUSER_ROLE",
      "outputs": [
        {
          "internalType": "bytes32",
          "name": "",
          "type": "bytes32"
        }
      ],
      "stateMutability": "view",
      "type": "function"
    },
    {
      "inputs": [],
      "name": "PauserRole",
      "outputs": [
        {
          "internalType": "bytes32",
          "name": "",
          "type": "bytes32"
        }
      ],
      "stateMutability": "pure",
      "type": "function"
    },
    {
      "inputs": [
        {
          "internalType": "address",
          "name": "holder",
          "type": "address"
        },
        {
          "internalType": "uint256",
          "name": "stake",
          "type": "uint256"
        }
      ],
      "name": "addHolder",
      "outputs": [],
      "stateMutability": "nonpayable",
      "type": "function"
    },
    {
      "inputs": [],
      "name": "contractBalance",
      "outputs": [
        {
          "internalType": "uint256",
          "name": "",
          "type": "uint256"
        }
      ],
      "stateMutability": "view",
      "type": "function"
    },
    {
      "inputs": [],
      "name": "currentStakeHolders",
      "outputs": [
        {
          "internalType": "address[]",
          "name": "_holders",
          "type": "address[]"
        },
        {
          "internalType": "uint256[]",
          "name": "_stakesPercent",
          "type": "uint256[]"
        }
      ],
      "stateMutability": "view",
      "type": "function"
    },
    {
      "inputs": [],
      "name": "deposit",
      "outputs": [],
      "stateMutability": "payable",
      "type": "function"
    },
    {
      "inputs": [],
      "name": "distributeFunds",
      "outputs": [],
      "stateMutability": "nonpayable",
      "type": "function"
    },
    {
      "inputs": [],
      "name": "equityUpdateInterval",
      "outputs": [
        {
          "internalType": "uint256",
          "name": "",
          "type": "uint256"
        }
      ],
      "stateMutability": "view",
      "type": "function"
    },
    {
      "inputs": [],
      "name": "fundsDistributedToDate",
      "outputs": [
        {
          "internalType": "uint256",
          "name": "",
          "type": "uint256"
        }
      ],
      "stateMutability": "view",
      "type": "function"
    },
    {
      "inputs": [],
      "name": "fundsSentToI3",
      "outputs": [
        {
          "internalType": "uint256",
          "name": "",
          "type": "uint256"
        }
      ],
      "stateMutability": "view",
      "type": "function"
    },
    {
      "inputs": [
        {
          "internalType": "bytes32",
          "name": "role",
          "type": "bytes32"
        }
      ],
      "name": "getRoleAdmin",
      "outputs": [
        {
          "internalType": "bytes32",
          "name": "",
          "type": "bytes32"
        }
      ],
      "stateMutability": "view",
      "type": "function"
    },
    {
      "inputs": [
        {
          "internalType": "bytes32",
          "name": "role",
          "type": "bytes32"
        },
        {
          "internalType": "address",
          "name": "account",
          "type": "address"
        }
      ],
      "name": "grantRole",
      "outputs": [],
      "stateMutability": "nonpayable",
      "type": "function"
    },
    {
      "inputs": [
        {
          "internalType": "bytes32",
          "name": "role",
          "type": "bytes32"
        },
        {
          "internalType": "address",
          "name": "account",
          "type": "address"
        }
      ],
      "name": "hasRole",
      "outputs": [
        {
          "internalType": "bool",
          "name": "",
          "type": "bool"
        }
      ],
      "stateMutability": "view",
      "type": "function"
    },
    {
      "inputs": [],
      "name": "i3Fund",
      "outputs": [
        {
          "internalType": "address payable",
          "name": "",
          "type": "address"
        }
      ],
      "stateMutability": "view",
      "type": "function"
    },
    {
      "inputs": [],
      "name": "i_interval",
      "outputs": [
        {
          "internalType": "uint256",
          "name": "",
          "type": "uint256"
        }
      ],
      "stateMutability": "view",
      "type": "function"
    },
    {
      "inputs": [],
      "name": "pause",
      "outputs": [],
      "stateMutability": "nonpayable",
      "type": "function"
    },
    {
      "inputs": [],
      "name": "paused",
      "outputs": [
        {
          "internalType": "bool",
          "name": "",
          "type": "bool"
        }
      ],
      "stateMutability": "view",
      "type": "function"
    },
    {
      "inputs": [
        {
          "internalType": "bytes32",
          "name": "role",
          "type": "bytes32"
        },
        {
          "internalType": "address",
          "name": "account",
          "type": "address"
        }
      ],
      "name": "renounceRole",
      "outputs": [],
      "stateMutability": "nonpayable",
      "type": "function"
    },
    {
      "inputs": [
        {
          "internalType": "bytes32",
          "name": "role",
          "type": "bytes32"
        },
        {
          "internalType": "address",
          "name": "account",
          "type": "address"
        }
      ],
      "name": "revokeRole",
      "outputs": [],
      "stateMutability": "nonpayable",
      "type": "function"
    },
    {
      "inputs": [
        {
          "internalType": "address",
          "name": "fund",
          "type": "address"
        }
      ],
      "name": "setFund",
      "outputs": [],
      "stateMutability": "nonpayable",
      "type": "function"
    },
    {
      "inputs": [],
      "name": "stakeUpdatedXtimes",
      "outputs": [
        {
          "internalType": "uint256",
          "name": "",
          "type": "uint256"
        }
      ],
      "stateMutability": "view",
      "type": "function"
    },
    {
      "inputs": [],
      "name": "stakeholderCount",
      "outputs": [
        {
          "internalType": "uint256",
          "name": "",
          "type": "uint256"
        }
      ],
      "stateMutability": "view",
      "type": "function"
    },
    {
      "inputs": [
        {
          "internalType": "bytes4",
          "name": "interfaceId",
          "type": "bytes4"
        }
      ],
      "name": "supportsInterface",
      "outputs": [
        {
          "internalType": "bool",
          "name": "",
          "type": "bool"
        }
      ],
      "stateMutability": "view",
      "type": "function"
    },
    {
      "inputs": [
        {
          "components": [
            {
              "internalType": "address",
              "name": "holder",
              "type": "address"
            },
            {
              "internalType": "uint256",
              "name": "stakePercentage",
              "type": "uint256"
            },
            {
              "internalType": "uint256",
              "name": "lastReceived",
              "type": "uint256"
            },
            {
              "internalType": "uint256",
              "name": "created",
              "type": "uint256"
            }
          ],
          "internalType": "struct EquityManager.EquityStake[]",
          "name": "_stakeholders",
          "type": "tuple[]"
        }
      ],
      "name": "totalStake",
      "outputs": [
        {
          "internalType": "uint256",
          "name": "",
          "type": "uint256"
        }
      ],
      "stateMutability": "view",
      "type": "function"
    },
    {
      "inputs": [],
      "name": "unpause",
      "outputs": [],
      "stateMutability": "nonpayable",
      "type": "function"
    }
  ],
  "transactionHash": "0xb614c521736818a13d3a47d604778b7f42d40508efcf7ec373e708580b73144b",
  "args": [
    "0x70997970C51812dc3A010C7d01b50e0d17dc79C8",
    "1000"
  ],
  "numDeployments": 1,
  "solcInputHash": "328d2e1bd6663decf790f14e729a7250",
  "bytecode": "0x60a06040526000600655600060085560006009553480156200002057600080fd5b5060405162003af438038062003af48339818101604052810190620000469190620006ac565b60008060006101000a81548160ff02191690831515021790555060016002819055506200007d6000801b336200010960201b60201c565b620000af7f65d7a28e3265b37a6474929f336521b332c1681b933f6cb9f3376673440d862a336200010960201b60201c565b620000e17f241ecf16d79d0f8dbfb92cbc07fe17840425976cf0667f022fe9877caa831b08336200010960201b60201c565b620000f282620001fa60201b60201c565b806080818152505042600a81905550505062000bb4565b6200011b8282620002c860201b60201c565b620001f657600180600084815260200190815260200160002060000160008373ffffffffffffffffffffffffffffffffffffffff1673ffffffffffffffffffffffffffffffffffffffff16815260200190815260200160002060006101000a81548160ff0219169083151502179055506200019b6200033360201b60201c565b73ffffffffffffffffffffffffffffffffffffffff168173ffffffffffffffffffffffffffffffffffffffff16837f2f8788117e7eff1d82e926ec794901d17c78024a50270940304540a733656f0d60405160405180910390a45b5050565b7f241ecf16d79d0f8dbfb92cbc07fe17840425976cf0667f022fe9877caa831b086200022c816200033b60201b60201c565b60028054141562000274576040517f08c379a00000000000000000000000000000000000000000000000000000000081526004016200026b906200088f565b60405180910390fd5b6002808190555081600760006101000a81548173ffffffffffffffffffffffffffffffffffffffff021916908373ffffffffffffffffffffffffffffffffffffffff16021790555060016002819055505050565b60006001600084815260200190815260200160002060000160008373ffffffffffffffffffffffffffffffffffffffff1673ffffffffffffffffffffffffffffffffffffffff16815260200190815260200160002060009054906101000a900460ff16905092915050565b600033905090565b6200035c81620003506200033360201b60201c565b6200035f60201b60201c565b50565b620003718282620002c860201b60201c565b6200041f57620003a48173ffffffffffffffffffffffffffffffffffffffff1660146200042360201b620015161760201c565b620003bf8360001c60206200042360201b620015161760201c565b604051602001620003d292919062000807565b6040516020818303038152906040526040517f08c379a000000000000000000000000000000000000000000000000000000000815260040162000416919062000849565b60405180910390fd5b5050565b60606000600283600262000438919062000935565b620004449190620008d8565b67ffffffffffffffff81111562000460576200045f62000a97565b5b6040519080825280601f01601f191660200182016040528015620004935781602001600182028036833780820191505090505b5090507f300000000000000000000000000000000000000000000000000000000000000081600081518110620004ce57620004cd62000a68565b5b60200101907effffffffffffffffffffffffffffffffffffffffffffffffffffffffffffff1916908160001a9053507f78000000000000000000000000000000000000000000000000000000000000008160018151811062000535576200053462000a68565b5b60200101907effffffffffffffffffffffffffffffffffffffffffffffffffffffffffffff1916908160001a9053506000600184600262000577919062000935565b620005839190620008d8565b90505b60018111156200062d577f3031323334353637383961626364656600000000000000000000000000000000600f861660108110620005c957620005c862000a68565b5b1a60f81b828281518110620005e357620005e262000a68565b5b60200101907effffffffffffffffffffffffffffffffffffffffffffffffffffffffffffff1916908160001a905350600485901c945080620006259062000a0a565b905062000586565b506000841462000674576040517f08c379a00000000000000000000000000000000000000000000000000000000081526004016200066b906200086d565b60405180910390fd5b8091505092915050565b6000815190506200068f8162000b80565b92915050565b600081519050620006a68162000b9a565b92915050565b60008060408385031215620006c657620006c562000ac6565b5b6000620006d6858286016200067e565b9250506020620006e98582860162000695565b9150509250929050565b60006200070082620008b1565b6200070c8185620008bc565b93506200071e818560208601620009d4565b620007298162000acb565b840191505092915050565b60006200074182620008b1565b6200074d8185620008cd565b93506200075f818560208601620009d4565b80840191505092915050565b60006200077a602083620008bc565b9150620007878262000adc565b602082019050919050565b6000620007a1601783620008cd565b9150620007ae8262000b05565b601782019050919050565b6000620007c8601f83620008bc565b9150620007d58262000b2e565b602082019050919050565b6000620007ef601183620008cd565b9150620007fc8262000b57565b601182019050919050565b6000620008148262000792565b915062000822828562000734565b91506200082f82620007e0565b91506200083d828462000734565b91508190509392505050565b60006020820190508181036000830152620008658184620006f3565b905092915050565b6000602082019050818103600083015262000888816200076b565b9050919050565b60006020820190508181036000830152620008aa81620007b9565b9050919050565b600081519050919050565b600082825260208201905092915050565b600081905092915050565b6000620008e582620009ca565b9150620008f283620009ca565b9250827fffffffffffffffffffffffffffffffffffffffffffffffffffffffffffffffff038211156200092a576200092962000a39565b5b828201905092915050565b60006200094282620009ca565b91506200094f83620009ca565b9250817fffffffffffffffffffffffffffffffffffffffffffffffffffffffffffffffff04831182151516156200098b576200098a62000a39565b5b828202905092915050565b6000620009a382620009aa565b9050919050565b600073ffffffffffffffffffffffffffffffffffffffff82169050919050565b6000819050919050565b60005b83811015620009f4578082015181840152602081019050620009d7565b8381111562000a04576000848401525b50505050565b600062000a1782620009ca565b9150600082141562000a2e5762000a2d62000a39565b5b600182039050919050565b7f4e487b7100000000000000000000000000000000000000000000000000000000600052601160045260246000fd5b7f4e487b7100000000000000000000000000000000000000000000000000000000600052603260045260246000fd5b7f4e487b7100000000000000000000000000000000000000000000000000000000600052604160045260246000fd5b600080fd5b6000601f19601f8301169050919050565b7f537472696e67733a20686578206c656e67746820696e73756666696369656e74600082015250565b7f416363657373436f6e74726f6c3a206163636f756e7420000000000000000000600082015250565b7f5265656e7472616e637947756172643a207265656e7472616e742063616c6c00600082015250565b7f206973206d697373696e6720726f6c6520000000000000000000000000000000600082015250565b62000b8b8162000996565b811462000b9757600080fd5b50565b62000ba581620009ca565b811462000bb157600080fd5b50565b608051612f1662000bde60003960008181610fd1015281816110c501526119e90152612f166000f3fe6080604052600436106101cd5760003560e01c806394296a2f116100f7578063cd7531e511610095578063e63ab1e911610064578063e63ab1e91461063c578063ec87621c14610667578063f98fc53414610692578063faa97c8f146106bd576101cd565b8063cd7531e51461059e578063d0e30db0146105de578063d547741f146105e8578063d8319ef314610611576101cd565b8063a8e832b8116100d1578063a8e832b8146104df578063b98fc93b1461050b578063c55dc04c14610548578063c685a67d14610573576101cd565b806394296a2f1461045e5780639b2fdfd214610489578063a217fddf146104b4576101cd565b80633f4ba83a1161016f57806373a187e51161013e57806373a187e5146103b45780638456cb59146103df5780638b7afe2e146103f657806391d1485414610421576101cd565b80633f4ba83a1461031e5780635c975abb1461033557806361f15236146103605780636919207d14610389576101cd565b8063248a9ca3116101ab578063248a9ca3146102785780632f2ff15d146102b557806336568abe146102de5780633a6a4d2e14610307576101cd565b806301ffc9a7146101d25780630e21750f1461020f57806315a194e614610238575b600080fd5b3480156101de57600080fd5b506101f960048036038101906101f49190612377565b6106e8565b60405161020691906127a9565b60405180910390f35b34801561021b57600080fd5b5061023660048036038101906102319190612254565b610762565b005b34801561024457600080fd5b5061025f600480360381019061025a91906123a4565b610825565b60405161026f949392919061272d565b60405180910390f35b34801561028457600080fd5b5061029f600480360381019061029a919061230a565b610885565b6040516102ac91906127c4565b60405180910390f35b3480156102c157600080fd5b506102dc60048036038101906102d79190612337565b6108a5565b005b3480156102ea57600080fd5b5061030560048036038101906103009190612337565b6108c6565b005b34801561031357600080fd5b5061031c610949565b005b34801561032a57600080fd5b50610333610bfa565b005b34801561034157600080fd5b5061034a610c2f565b60405161035791906127a9565b60405180910390f35b34801561036c57600080fd5b5061038760048036038101906103829190612281565b610c45565b005b34801561039557600080fd5b5061039e610fcf565b6040516103ab91906128a1565b60405180910390f35b3480156103c057600080fd5b506103c9610ff3565b6040516103d69190612712565b60405180910390f35b3480156103eb57600080fd5b506103f4611019565b005b34801561040257600080fd5b5061040b61104e565b60405161041891906128a1565b60405180910390f35b34801561042d57600080fd5b5061044860048036038101906104439190612337565b611056565b60405161045591906127a9565b60405180910390f35b34801561046a57600080fd5b506104736110c1565b60405161048091906128a1565b60405180910390f35b34801561049557600080fd5b5061049e6110e9565b6040516104ab91906128a1565b60405180910390f35b3480156104c057600080fd5b506104c96110f3565b6040516104d691906127c4565b60405180910390f35b3480156104eb57600080fd5b506104f46110fa565b604051610502929190612772565b60405180910390f35b34801561051757600080fd5b50610532600480360381019061052d91906122c1565b611334565b60405161053f91906128a1565b60405180910390f35b34801561055457600080fd5b5061055d611391565b60405161056a91906128a1565b60405180910390f35b34801561057f57600080fd5b5061058861139b565b60405161059591906127c4565b60405180910390f35b3480156105aa57600080fd5b506105c560048036038101906105c091906123a4565b6113c3565b6040516105d5949392919061272d565b60405180910390f35b6105e6611423565b005b3480156105f457600080fd5b5061060f600480360381019061060a9190612337565b611473565b005b34801561061d57600080fd5b50610626611494565b60405161063391906128a1565b60405180910390f35b34801561064857600080fd5b5061065161149a565b60405161065e91906127c4565b60405180910390f35b34801561067357600080fd5b5061067c6114be565b60405161068991906127c4565b60405180910390f35b34801561069e57600080fd5b506106a76114e2565b6040516106b491906128a1565b60405180910390f35b3480156106c957600080fd5b506106d26114ec565b6040516106df91906126f7565b60405180910390f35b60007f7965db0b000000000000000000000000000000000000000000000000000000007bffffffffffffffffffffffffffffffffffffffffffffffffffffffff1916827bffffffffffffffffffffffffffffffffffffffffffffffffffffffff1916148061075b575061075a82611752565b5b9050919050565b7f241ecf16d79d0f8dbfb92cbc07fe17840425976cf0667f022fe9877caa831b0861078c816117bc565b6002805414156107d1576040517f08c379a00000000000000000000000000000000000000000000000000000000081526004016107c890612861565b60405180910390fd5b6002808190555081600760006101000a81548173ffffffffffffffffffffffffffffffffffffffff021916908373ffffffffffffffffffffffffffffffffffffffff16021790555060016002819055505050565b6003818154811061083557600080fd5b90600052602060002090600402016000915090508060000160009054906101000a900473ffffffffffffffffffffffffffffffffffffffff16908060010154908060020154908060030154905084565b600060016000838152602001908152602001600020600101549050919050565b6108ae82610885565b6108b7816117bc565b6108c183836117d0565b505050565b6108ce6118b0565b73ffffffffffffffffffffffffffffffffffffffff168173ffffffffffffffffffffffffffffffffffffffff161461093b576040517f08c379a000000000000000000000000000000000000000000000000000000000815260040161093290612881565b60405180910390fd5b61094582826118b8565b5050565b61095161199a565b600280541415610996576040517f08c379a000000000000000000000000000000000000000000000000000000000815260040161098d90612861565b60405180910390fd5b60028081905550600047905060006109ac6119e4565b90506109b781611a3a565b60049080546109c7929190611fb7565b5060006004805480602002602001604051908101604052809291908181526020016000905b82821015610a9257838290600052602060002090600402016040518060800160405290816000820160009054906101000a900473ffffffffffffffffffffffffffffffffffffffff1673ffffffffffffffffffffffffffffffffffffffff1673ffffffffffffffffffffffffffffffffffffffff1681526020016001820154815260200160028201548152602001600382015481525050815260200190600101906109ec565b50505050905060005b600554811015610b6e576000610af368056bc75e2d63100000610ae5858581518110610aca57610ac9612cb4565b5b60200260200101516020015188611ce990919063ffffffff16565b611cff90919063ffffffff16565b905042838381518110610b0957610b08612cb4565b5b602002602001015160400181815250508060086000828254610b2b91906129da565b92505081905550610b5a838381518110610b4857610b47612cb4565b5b60200260200101516000015182611d15565b508080610b6690612c0d565b915050610a9b565b504760096000828254610b8191906129da565b92505081905550610bb4600760009054906101000a900473ffffffffffffffffffffffffffffffffffffffff1647611d15565b7f8eecd6f35243e1875b7143b093766263953bc97e6e92213e4ae934c67e1fe0de600854604051610be591906128a1565b60405180910390a15050506001600281905550565b7f65d7a28e3265b37a6474929f336521b332c1681b933f6cb9f3376673440d862a610c24816117bc565b610c2c611df7565b50565b60008060009054906101000a900460ff16905090565b610c4d61199a565b7f241ecf16d79d0f8dbfb92cbc07fe17840425976cf0667f022fe9877caa831b08610c77816117bc565b68056bc75e2d63100000610d6f83610d61610c926000611a3a565b805480602002602001604051908101604052809291908181526020016000905b82821015610d5857838290600052602060002090600402016040518060800160405290816000820160009054906101000a900473ffffffffffffffffffffffffffffffffffffffff1673ffffffffffffffffffffffffffffffffffffffff1673ffffffffffffffffffffffffffffffffffffffff168152602001600182015481526020016002820154815260200160038201548152505081526020019060010190610cb2565b50505050611334565b611e5990919063ffffffff16565b1115610da7576040517ff7752b5600000000000000000000000000000000000000000000000000000000815260040160405180910390fd5b60008211610de1576040517f9bc4b81000000000000000000000000000000000000000000000000000000000815260040160405180910390fd5b600360405180608001604052808573ffffffffffffffffffffffffffffffffffffffff16815260200184815260200142815260200142815250908060018154018082558091505060019003906000526020600020906004020160009091909190915060008201518160000160006101000a81548173ffffffffffffffffffffffffffffffffffffffff021916908373ffffffffffffffffffffffffffffffffffffffff1602179055506020820151816001015560408201518160020155606082015181600301555050600460405180608001604052808573ffffffffffffffffffffffffffffffffffffffff16815260200184815260200142815260200142815250908060018154018082558091505060019003906000526020600020906004020160009091909190915060008201518160000160006101000a81548173ffffffffffffffffffffffffffffffffffffffff021916908373ffffffffffffffffffffffffffffffffffffffff160217905550602082015181600101556040820151816002015560608201518160030155505060056000815480929190610f8690612c0d565b91905055507f75005e1f7bc8f4d8c1a1a039ee3989a5d55fce924c3aca886ecc5a99feb433c3838360055442604051610fc2949392919061272d565b60405180910390a1505050565b7f000000000000000000000000000000000000000000000000000000000000000081565b600760009054906101000a900473ffffffffffffffffffffffffffffffffffffffff1681565b7f65d7a28e3265b37a6474929f336521b332c1681b933f6cb9f3376673440d862a611043816117bc565b61104b611e6f565b50565b600047905090565b60006001600084815260200190815260200160002060000160008373ffffffffffffffffffffffffffffffffffffffff1673ffffffffffffffffffffffffffffffffffffffff16815260200190815260200160002060009054906101000a900460ff16905092915050565b60007f0000000000000000000000000000000000000000000000000000000000000000905090565b6000600954905090565b6000801b81565b60608060006004805480602002602001604051908101604052809291908181526020016000905b828210156111c757838290600052602060002090600402016040518060800160405290816000820160009054906101000a900473ffffffffffffffffffffffffffffffffffffffff1673ffffffffffffffffffffffffffffffffffffffff1673ffffffffffffffffffffffffffffffffffffffff168152602001600182015481526020016002820154815260200160038201548152505081526020019060010190611121565b505050509050805167ffffffffffffffff8111156111e8576111e7612ce3565b5b6040519080825280602002602001820160405280156112165781602001602082028036833780820191505090505b509250805167ffffffffffffffff81111561123457611233612ce3565b5b6040519080825280602002602001820160405280156112625781602001602082028036833780820191505090505b50915060005b815181101561132e5781818151811061128457611283612cb4565b5b6020026020010151600001518482815181106112a3576112a2612cb4565b5b602002602001019073ffffffffffffffffffffffffffffffffffffffff16908173ffffffffffffffffffffffffffffffffffffffff16815250508181815181106112f0576112ef612cb4565b5b60200260200101516020015183828151811061130f5761130e612cb4565b5b602002602001018181525050808061132690612c0d565b915050611268565b50509091565b6000806000905060005b6005548110156113875783818151811061135b5761135a612cb4565b5b6020026020010151602001518261137291906129da565b9150808061137f90612c0d565b91505061133e565b5080915050919050565b6000600654905090565b60007f65d7a28e3265b37a6474929f336521b332c1681b933f6cb9f3376673440d862a905090565b600481815481106113d357600080fd5b90600052602060002090600402016000915090508060000160009054906101000a900473ffffffffffffffffffffffffffffffffffffffff16908060010154908060020154908060030154905084565b3373ffffffffffffffffffffffffffffffffffffffff167f8e47b87b0ef542cdfa1659c551d88bad38aa7f452d2bbb349ab7530dfec8be8f3460405161146991906128a1565b60405180910390a2565b61147c82610885565b611485816117bc565b61148f83836118b8565b505050565b60055481565b7f65d7a28e3265b37a6474929f336521b332c1681b933f6cb9f3376673440d862a81565b7f241ecf16d79d0f8dbfb92cbc07fe17840425976cf0667f022fe9877caa831b0881565b6000600854905090565b6000600760009054906101000a900473ffffffffffffffffffffffffffffffffffffffff16905090565b6060600060028360026115299190612a61565b61153391906129da565b67ffffffffffffffff81111561154c5761154b612ce3565b5b6040519080825280601f01601f19166020018201604052801561157e5781602001600182028036833780820191505090505b5090507f3000000000000000000000000000000000000000000000000000000000000000816000815181106115b6576115b5612cb4565b5b60200101907effffffffffffffffffffffffffffffffffffffffffffffffffffffffffffff1916908160001a9053507f78000000000000000000000000000000000000000000000000000000000000008160018151811061161a57611619612cb4565b5b60200101907effffffffffffffffffffffffffffffffffffffffffffffffffffffffffffff1916908160001a9053506000600184600261165a9190612a61565b61166491906129da565b90505b6001811115611704577f3031323334353637383961626364656600000000000000000000000000000000600f8616601081106116a6576116a5612cb4565b5b1a60f81b8282815181106116bd576116bc612cb4565b5b60200101907effffffffffffffffffffffffffffffffffffffffffffffffffffffffffffff1916908160001a905350600485901c9450806116fd90612bb2565b9050611667565b5060008414611748576040517f08c379a000000000000000000000000000000000000000000000000000000000815260040161173f90612801565b60405180910390fd5b8091505092915050565b60007f01ffc9a7000000000000000000000000000000000000000000000000000000007bffffffffffffffffffffffffffffffffffffffffffffffffffffffff1916827bffffffffffffffffffffffffffffffffffffffffffffffffffffffff1916149050919050565b6117cd816117c86118b0565b611ed1565b50565b6117da8282611056565b6118ac57600180600084815260200190815260200160002060000160008373ffffffffffffffffffffffffffffffffffffffff1673ffffffffffffffffffffffffffffffffffffffff16815260200190815260200160002060006101000a81548160ff0219169083151502179055506118516118b0565b73ffffffffffffffffffffffffffffffffffffffff168173ffffffffffffffffffffffffffffffffffffffff16837f2f8788117e7eff1d82e926ec794901d17c78024a50270940304540a733656f0d60405160405180910390a45b5050565b600033905090565b6118c28282611056565b156119965760006001600084815260200190815260200160002060000160008373ffffffffffffffffffffffffffffffffffffffff1673ffffffffffffffffffffffffffffffffffffffff16815260200190815260200160002060006101000a81548160ff02191690831515021790555061193b6118b0565b73ffffffffffffffffffffffffffffffffffffffff168173ffffffffffffffffffffffffffffffffffffffff16837ff6391f5c32d9c69d2a47ea670b442974b53935d1edc7fd64eb21e047a839171b60405160405180910390a45b5050565b6119a2610c2f565b156119e2576040517f08c379a00000000000000000000000000000000000000000000000000000000081526004016119d990612841565b60405180910390fd5b565b6000807f0000000000000000000000000000000000000000000000000000000000000000600a5442611a169190612abb565b101590508015611a315742600a819055506001915050611a37565b60009150505b90565b600080600490506000600490508315611cdd5760006003805480602002602001604051908101604052809291908181526020016000905b82821015611b1757838290600052602060002090600402016040518060800160405290816000820160009054906101000a900473ffffffffffffffffffffffffffffffffffffffff1673ffffffffffffffffffffffffffffffffffffffff1673ffffffffffffffffffffffffffffffffffffffff168152602001600182015481526020016002820154815260200160038201548152505081526020019060010190611a71565b50505050905060005b600480549050811015611b9957818181518110611b4057611b3f612cb4565b5b602002602001015160200151838281548110611b5f57611b5e612cb4565b5b90600052602060002090600402016001016000828254611b7f91906129da565b925050819055508080611b9190612c0d565b915050611b20565b506064611c6f83805480602002602001604051908101604052809291908181526020016000905b82821015611c6657838290600052602060002090600402016040518060800160405290816000820160009054906101000a900473ffffffffffffffffffffffffffffffffffffffff1673ffffffffffffffffffffffffffffffffffffffff1673ffffffffffffffffffffffffffffffffffffffff168152602001600182015481526020016002820154815260200160038201548152505081526020019060010190611bc0565b50505050611334565b11611cd25760066000815480929190611c8790612c0d565b91905055507f3c90b012a4880920f10250f2c2d7c5cb1064277a571254e00c1992d8fcb5f0f060065442604051611cbf9291906128bc565b60405180910390a1819350505050611ce4565b829350505050611ce4565b6004925050505b919050565b60008183611cf79190612a61565b905092915050565b60008183611d0d9190612a30565b905092915050565b80471015611d4f576040517f4034001800000000000000000000000000000000000000000000000000000000815260040160405180910390fd5b60008273ffffffffffffffffffffffffffffffffffffffff1682604051611d75906126a8565b60006040518083038185875af1925050503d8060008114611db2576040519150601f19603f3d011682016040523d82523d6000602084013e611db7565b606091505b5050905080611df2576040517ffbb12e0800000000000000000000000000000000000000000000000000000000815260040160405180910390fd5b505050565b611dff611f6e565b60008060006101000a81548160ff0219169083151502179055507f5db9ee0a495bf2e6ff9c91a7834c1ba4fdd244a5e8aa4e537bd38aeae4b073aa611e426118b0565b604051611e4f91906126f7565b60405180910390a1565b60008183611e6791906129da565b905092915050565b611e7761199a565b60016000806101000a81548160ff0219169083151502179055507f62e78cea01bee320cd4e420270b5ea74000d11b0c9f74754ebdbfc544b05a258611eba6118b0565b604051611ec791906126f7565b60405180910390a1565b611edb8282611056565b611f6a57611f008173ffffffffffffffffffffffffffffffffffffffff166014611516565b611f0e8360001c6020611516565b604051602001611f1f9291906126bd565b6040516020818303038152906040526040517f08c379a0000000000000000000000000000000000000000000000000000000008152600401611f6191906127df565b60405180910390fd5b5050565b611f76610c2f565b611fb5576040517f08c379a0000000000000000000000000000000000000000000000000000000008152600401611fac90612821565b60405180910390fd5b565b8280548282559060005260206000209060040281019282156120835760005260206000209160040282015b828111156120825782826000820160009054906101000a900473ffffffffffffffffffffffffffffffffffffffff168160000160006101000a81548173ffffffffffffffffffffffffffffffffffffffff021916908373ffffffffffffffffffffffffffffffffffffffff160217905550600182015481600101556002820154816002015560038201548160030155505091600401919060040190611fe2565b5b5090506120909190612094565b5090565b5b808211156120e657600080820160006101000a81549073ffffffffffffffffffffffffffffffffffffffff021916905560018201600090556002820160009055600382016000905550600401612095565b5090565b60006120fd6120f88461290a565b6128e5565b905080838252602082019050828560808602820111156121205761211f612d1c565b5b60005b85811015612150578161213688826121c7565b845260208401935060808301925050600181019050612123565b5050509392505050565b60008135905061216981612e84565b92915050565b600082601f83011261218457612183612d12565b5b81356121948482602086016120ea565b91505092915050565b6000813590506121ac81612e9b565b92915050565b6000813590506121c181612eb2565b92915050565b6000608082840312156121dd576121dc612d17565b5b6121e760806128e5565b905060006121f78482850161215a565b600083015250602061220b8482850161223f565b602083015250604061221f8482850161223f565b60408301525060606122338482850161223f565b60608301525092915050565b60008135905061224e81612ec9565b92915050565b60006020828403121561226a57612269612d26565b5b60006122788482850161215a565b91505092915050565b6000806040838503121561229857612297612d26565b5b60006122a68582860161215a565b92505060206122b78582860161223f565b9150509250929050565b6000602082840312156122d7576122d6612d26565b5b600082013567ffffffffffffffff8111156122f5576122f4612d21565b5b6123018482850161216f565b91505092915050565b6000602082840312156123205761231f612d26565b5b600061232e8482850161219d565b91505092915050565b6000806040838503121561234e5761234d612d26565b5b600061235c8582860161219d565b925050602061236d8582860161215a565b9150509250929050565b60006020828403121561238d5761238c612d26565b5b600061239b848285016121b2565b91505092915050565b6000602082840312156123ba576123b9612d26565b5b60006123c88482850161223f565b91505092915050565b60006123dd8383612410565b60208301905092915050565b60006123f5838361268a565b60208301905092915050565b61240a81612b01565b82525050565b61241981612aef565b82525050565b61242881612aef565b82525050565b600061243982612956565b6124438185612991565b935061244e83612936565b8060005b8381101561247f57815161246688826123d1565b975061247183612977565b925050600181019050612452565b5085935050505092915050565b600061249782612961565b6124a181856129a2565b93506124ac83612946565b8060005b838110156124dd5781516124c488826123e9565b97506124cf83612984565b9250506001810190506124b0565b5085935050505092915050565b6124f381612b13565b82525050565b61250281612b1f565b82525050565b60006125138261296c565b61251d81856129be565b935061252d818560208601612b7f565b61253681612d2b565b840191505092915050565b600061254c8261296c565b61255681856129cf565b9350612566818560208601612b7f565b80840191505092915050565b600061257f6020836129be565b915061258a82612d3c565b602082019050919050565b60006125a26014836129be565b91506125ad82612d65565b602082019050919050565b60006125c56010836129be565b91506125d082612d8e565b602082019050919050565b60006125e86000836129b3565b91506125f382612db7565b600082019050919050565b600061260b6017836129cf565b915061261682612dba565b601782019050919050565b600061262e601f836129be565b915061263982612de3565b602082019050919050565b60006126516011836129cf565b915061265c82612e0c565b601182019050919050565b6000612674602f836129be565b915061267f82612e35565b604082019050919050565b61269381612b75565b82525050565b6126a281612b75565b82525050565b60006126b3826125db565b9150819050919050565b60006126c8826125fe565b91506126d48285612541565b91506126df82612644565b91506126eb8284612541565b91508190509392505050565b600060208201905061270c600083018461241f565b92915050565b60006020820190506127276000830184612401565b92915050565b6000608082019050612742600083018761241f565b61274f6020830186612699565b61275c6040830185612699565b6127696060830184612699565b95945050505050565b6000604082019050818103600083015261278c818561242e565b905081810360208301526127a0818461248c565b90509392505050565b60006020820190506127be60008301846124ea565b92915050565b60006020820190506127d960008301846124f9565b92915050565b600060208201905081810360008301526127f98184612508565b905092915050565b6000602082019050818103600083015261281a81612572565b9050919050565b6000602082019050818103600083015261283a81612595565b9050919050565b6000602082019050818103600083015261285a816125b8565b9050919050565b6000602082019050818103600083015261287a81612621565b9050919050565b6000602082019050818103600083015261289a81612667565b9050919050565b60006020820190506128b66000830184612699565b92915050565b60006040820190506128d16000830185612699565b6128de6020830184612699565b9392505050565b60006128ef612900565b90506128fb8282612bdc565b919050565b6000604051905090565b600067ffffffffffffffff82111561292557612924612ce3565b5b602082029050602081019050919050565b6000819050602082019050919050565b6000819050602082019050919050565b600081519050919050565b600081519050919050565b600081519050919050565b6000602082019050919050565b6000602082019050919050565b600082825260208201905092915050565b600082825260208201905092915050565b600081905092915050565b600082825260208201905092915050565b600081905092915050565b60006129e582612b75565b91506129f083612b75565b9250827fffffffffffffffffffffffffffffffffffffffffffffffffffffffffffffffff03821115612a2557612a24612c56565b5b828201905092915050565b6000612a3b82612b75565b9150612a4683612b75565b925082612a5657612a55612c85565b5b828204905092915050565b6000612a6c82612b75565b9150612a7783612b75565b9250817fffffffffffffffffffffffffffffffffffffffffffffffffffffffffffffffff0483118215151615612ab057612aaf612c56565b5b828202905092915050565b6000612ac682612b75565b9150612ad183612b75565b925082821015612ae457612ae3612c56565b5b828203905092915050565b6000612afa82612b55565b9050919050565b6000612b0c82612b55565b9050919050565b60008115159050919050565b6000819050919050565b60007fffffffff0000000000000000000000000000000000000000000000000000000082169050919050565b600073ffffffffffffffffffffffffffffffffffffffff82169050919050565b6000819050919050565b60005b83811015612b9d578082015181840152602081019050612b82565b83811115612bac576000848401525b50505050565b6000612bbd82612b75565b91506000821415612bd157612bd0612c56565b5b600182039050919050565b612be582612d2b565b810181811067ffffffffffffffff82111715612c0457612c03612ce3565b5b80604052505050565b6000612c1882612b75565b91507fffffffffffffffffffffffffffffffffffffffffffffffffffffffffffffffff821415612c4b57612c4a612c56565b5b600182019050919050565b7f4e487b7100000000000000000000000000000000000000000000000000000000600052601160045260246000fd5b7f4e487b7100000000000000000000000000000000000000000000000000000000600052601260045260246000fd5b7f4e487b7100000000000000000000000000000000000000000000000000000000600052603260045260246000fd5b7f4e487b7100000000000000000000000000000000000000000000000000000000600052604160045260246000fd5b600080fd5b600080fd5b600080fd5b600080fd5b600080fd5b6000601f19601f8301169050919050565b7f537472696e67733a20686578206c656e67746820696e73756666696369656e74600082015250565b7f5061757361626c653a206e6f7420706175736564000000000000000000000000600082015250565b7f5061757361626c653a2070617573656400000000000000000000000000000000600082015250565b50565b7f416363657373436f6e74726f6c3a206163636f756e7420000000000000000000600082015250565b7f5265656e7472616e637947756172643a207265656e7472616e742063616c6c00600082015250565b7f206973206d697373696e6720726f6c6520000000000000000000000000000000600082015250565b7f416363657373436f6e74726f6c3a2063616e206f6e6c792072656e6f756e636560008201527f20726f6c657320666f722073656c660000000000000000000000000000000000602082015250565b612e8d81612aef565b8114612e9857600080fd5b50565b612ea481612b1f565b8114612eaf57600080fd5b50565b612ebb81612b29565b8114612ec657600080fd5b50565b612ed281612b75565b8114612edd57600080fd5b5056fea2646970667358221220cdbeb1261f7ba5078d412de6b574e7fba6880005a43bc9d2458dac5120f36a7264736f6c63430008070033",
  "devdoc": {
    "custom:security-contact": "info@impact3.io",
    "kind": "dev",
    "methods": {
      "getRoleAdmin(bytes32)": {
        "details": "Returns the admin role that controls `role`. See {grantRole} and {revokeRole}. To change a role's admin, use {_setRoleAdmin}."
      },
      "grantRole(bytes32,address)": {
        "details": "Grants `role` to `account`. If `account` had not been already granted `role`, emits a {RoleGranted} event. Requirements: - the caller must have ``role``'s admin role. May emit a {RoleGranted} event."
      },
      "hasRole(bytes32,address)": {
        "details": "Returns `true` if `account` has been granted `role`."
      },
      "paused()": {
        "details": "Returns true if the contract is paused, and false otherwise."
      },
      "renounceRole(bytes32,address)": {
        "details": "Revokes `role` from the calling account. Roles are often managed via {grantRole} and {revokeRole}: this function's purpose is to provide a mechanism for accounts to lose their privileges if they are compromised (such as when a trusted device is misplaced). If the calling account had been revoked `role`, emits a {RoleRevoked} event. Requirements: - the caller must be `account`. May emit a {RoleRevoked} event."
      },
      "revokeRole(bytes32,address)": {
        "details": "Revokes `role` from `account`. If `account` had been granted `role`, emits a {RoleRevoked} event. Requirements: - the caller must have ``role``'s admin role. May emit a {RoleRevoked} event."
      },
      "supportsInterface(bytes4)": {
        "details": "See {IERC165-supportsInterface}."
      }
    },
    "version": 1
  },
  "userdoc": {
    "kind": "user",
    "methods": {},
    "version": 1
  },
  "storageLayout": {
    "storage": [
      {
        "astId": 410,
        "contract": "contracts/EquityManager.sol:EquityManager",
        "label": "_paused",
        "offset": 0,
        "slot": "0",
        "type": "t_bool"
      },
      {
        "astId": 24,
        "contract": "contracts/EquityManager.sol:EquityManager",
        "label": "_roles",
        "offset": 0,
        "slot": "1",
        "type": "t_mapping(t_bytes32,t_struct(RoleData)19_storage)"
      },
      {
        "astId": 511,
        "contract": "contracts/EquityManager.sol:EquityManager",
        "label": "_status",
        "offset": 0,
        "slot": "2",
        "type": "t_uint256"
      },
      {
        "astId": 1209,
        "contract": "contracts/EquityManager.sol:EquityManager",
        "label": "Istakeholders",
        "offset": 0,
        "slot": "3",
        "type": "t_array(t_struct(EquityStake)1205_storage)dyn_storage"
      },
      {
        "astId": 1213,
        "contract": "contracts/EquityManager.sol:EquityManager",
        "label": "Cstakeholders",
        "offset": 0,
        "slot": "4",
        "type": "t_array(t_struct(EquityStake)1205_storage)dyn_storage"
      },
      {
        "astId": 1215,
        "contract": "contracts/EquityManager.sol:EquityManager",
        "label": "stakeholderCount",
        "offset": 0,
        "slot": "5",
        "type": "t_uint256"
      },
      {
        "astId": 1218,
        "contract": "contracts/EquityManager.sol:EquityManager",
        "label": "counter",
        "offset": 0,
        "slot": "6",
        "type": "t_uint256"
      },
      {
        "astId": 1220,
        "contract": "contracts/EquityManager.sol:EquityManager",
        "label": "i3Fund",
        "offset": 0,
        "slot": "7",
        "type": "t_address_payable"
      },
      {
        "astId": 1223,
        "contract": "contracts/EquityManager.sol:EquityManager",
        "label": "cumfundsDistributed",
        "offset": 0,
        "slot": "8",
        "type": "t_uint256"
      },
      {
        "astId": 1226,
        "contract": "contracts/EquityManager.sol:EquityManager",
        "label": "cumfundsToI3",
        "offset": 0,
        "slot": "9",
        "type": "t_uint256"
      },
      {
        "astId": 1230,
        "contract": "contracts/EquityManager.sol:EquityManager",
        "label": "s_lastTimeStamp",
        "offset": 0,
        "slot": "10",
        "type": "t_uint256"
      }
    ],
    "types": {
      "t_address": {
        "encoding": "inplace",
        "label": "address",
        "numberOfBytes": "20"
      },
      "t_address_payable": {
        "encoding": "inplace",
        "label": "address payable",
        "numberOfBytes": "20"
      },
      "t_array(t_struct(EquityStake)1205_storage)dyn_storage": {
        "base": "t_struct(EquityStake)1205_storage",
        "encoding": "dynamic_array",
        "label": "struct EquityManager.EquityStake[]",
        "numberOfBytes": "32"
      },
      "t_bool": {
        "encoding": "inplace",
        "label": "bool",
        "numberOfBytes": "1"
      },
      "t_bytes32": {
        "encoding": "inplace",
        "label": "bytes32",
        "numberOfBytes": "32"
      },
      "t_mapping(t_address,t_bool)": {
        "encoding": "mapping",
        "key": "t_address",
        "label": "mapping(address => bool)",
        "numberOfBytes": "32",
        "value": "t_bool"
      },
      "t_mapping(t_bytes32,t_struct(RoleData)19_storage)": {
        "encoding": "mapping",
        "key": "t_bytes32",
        "label": "mapping(bytes32 => struct AccessControl.RoleData)",
        "numberOfBytes": "32",
        "value": "t_struct(RoleData)19_storage"
      },
      "t_struct(EquityStake)1205_storage": {
        "encoding": "inplace",
        "label": "struct EquityManager.EquityStake",
        "members": [
          {
            "astId": 1198,
            "contract": "contracts/EquityManager.sol:EquityManager",
            "label": "holder",
            "offset": 0,
            "slot": "0",
            "type": "t_address"
          },
          {
            "astId": 1200,
            "contract": "contracts/EquityManager.sol:EquityManager",
            "label": "stakePercentage",
            "offset": 0,
            "slot": "1",
            "type": "t_uint256"
          },
          {
            "astId": 1202,
            "contract": "contracts/EquityManager.sol:EquityManager",
            "label": "lastReceived",
            "offset": 0,
            "slot": "2",
            "type": "t_uint256"
          },
          {
            "astId": 1204,
            "contract": "contracts/EquityManager.sol:EquityManager",
            "label": "created",
            "offset": 0,
            "slot": "3",
            "type": "t_uint256"
          }
        ],
        "numberOfBytes": "128"
      },
      "t_struct(RoleData)19_storage": {
        "encoding": "inplace",
        "label": "struct AccessControl.RoleData",
        "members": [
          {
            "astId": 16,
            "contract": "contracts/EquityManager.sol:EquityManager",
            "label": "members",
            "offset": 0,
            "slot": "0",
            "type": "t_mapping(t_address,t_bool)"
          },
          {
            "astId": 18,
            "contract": "contracts/EquityManager.sol:EquityManager",
            "label": "adminRole",
            "offset": 0,
            "slot": "1",
            "type": "t_bytes32"
          }
        ],
        "numberOfBytes": "64"
      },
      "t_uint256": {
        "encoding": "inplace",
        "label": "uint256",
        "numberOfBytes": "32"
      }
    }
  }
}