{
  "_format": "hh-sol-artifact-1",
  "contractName": "EquityManager",
  "sourceName": "contracts/EquityManager.sol",
  "abi": [
    {
      "inputs": [
        {
          "internalType": "address",
          "name": "_i3Fund",
          "type": "address"
        },
        {
          "internalType": "uint256",
          "name": "_interval",
          "type": "uint256"
        },
        {
          "internalType": "uint256",
          "name": "_window",
          "type": "uint256"
        }
      ],
      "stateMutability": "nonpayable",
      "type": "constructor"
    },
    {
      "inputs": [],
      "name": "EquityManager__ContractUpdateWindowIsNotOpen",
      "type": "error"
    },
    {
      "inputs": [],
      "name": "EquityManager__ContractUpdateWindowIsOpen",
      "type": "error"
    },
    {
      "inputs": [],
      "name": "EquityManager__InsufficientBalance",
      "type": "error"
    },
    {
      "inputs": [],
      "name": "EquityManager__StakeHolderAlreadyExists",
      "type": "error"
    },
    {
      "inputs": [],
      "name": "EquityManager__StakeHolderDoesNotExist",
      "type": "error"
    },
    {
      "inputs": [],
      "name": "EquityManager__StakeIsZero",
      "type": "error"
    },
    {
      "inputs": [],
      "name": "EquityManager__TotalValueGreaterThan100",
      "type": "error"
    },
    {
      "inputs": [],
      "name": "EquityManager__TransactionFailed",
      "type": "error"
    },
    {
      "anonymous": false,
      "inputs": [
        {
          "indexed": false,
          "internalType": "address",
          "name": "stakeholder",
          "type": "address"
        },
        {
          "indexed": false,
          "internalType": "uint256",
          "name": "amount",
          "type": "uint256"
        },
        {
          "indexed": false,
          "internalType": "uint256",
          "name": "time_distributed",
          "type": "uint256"
        }
      ],
      "name": "FundsDistributed",
      "type": "event"
    },
    {
      "anonymous": false,
      "inputs": [
        {
          "indexed": true,
          "internalType": "address",
          "name": "addr",
          "type": "address"
        },
        {
          "indexed": false,
          "internalType": "uint256",
          "name": "amount",
          "type": "uint256"
        }
      ],
      "name": "FundsReceived",
      "type": "event"
    },
    {
      "anonymous": false,
      "inputs": [
        {
          "indexed": false,
          "internalType": "address",
          "name": "account",
          "type": "address"
        }
      ],
      "name": "Paused",
      "type": "event"
    },
    {
      "anonymous": false,
      "inputs": [
        {
          "indexed": true,
          "internalType": "bytes32",
          "name": "role",
          "type": "bytes32"
        },
        {
          "indexed": true,
          "internalType": "bytes32",
          "name": "previousAdminRole",
          "type": "bytes32"
        },
        {
          "indexed": true,
          "internalType": "bytes32",
          "name": "newAdminRole",
          "type": "bytes32"
        }
      ],
      "name": "RoleAdminChanged",
      "type": "event"
    },
    {
      "anonymous": false,
      "inputs": [
        {
          "indexed": true,
          "internalType": "bytes32",
          "name": "role",
          "type": "bytes32"
        },
        {
          "indexed": true,
          "internalType": "address",
          "name": "account",
          "type": "address"
        },
        {
          "indexed": true,
          "internalType": "address",
          "name": "sender",
          "type": "address"
        }
      ],
      "name": "RoleGranted",
      "type": "event"
    },
    {
      "anonymous": false,
      "inputs": [
        {
          "indexed": true,
          "internalType": "bytes32",
          "name": "role",
          "type": "bytes32"
        },
        {
          "indexed": true,
          "internalType": "address",
          "name": "account",
          "type": "address"
        },
        {
          "indexed": true,
          "internalType": "address",
          "name": "sender",
          "type": "address"
        }
      ],
      "name": "RoleRevoked",
      "type": "event"
    },
    {
      "anonymous": false,
      "inputs": [
        {
          "indexed": false,
          "internalType": "address",
          "name": "holder",
          "type": "address"
        },
        {
          "indexed": false,
          "internalType": "uint256",
          "name": "stake",
          "type": "uint256"
        },
        {
          "indexed": false,
          "internalType": "uint256",
          "name": "timeAdded",
          "type": "uint256"
        }
      ],
      "name": "StakeHolderAdded",
      "type": "event"
    },
    {
      "anonymous": false,
      "inputs": [
        {
          "indexed": false,
          "internalType": "address",
          "name": "holder",
          "type": "address"
        },
        {
          "indexed": false,
          "internalType": "uint256",
          "name": "stake",
          "type": "uint256"
        },
        {
          "indexed": false,
          "internalType": "uint256",
          "name": "timeAdded",
          "type": "uint256"
        }
      ],
      "name": "StakeHolderStakeIncreased",
      "type": "event"
    },
    {
      "anonymous": false,
      "inputs": [
        {
          "indexed": false,
          "internalType": "address",
          "name": "account",
          "type": "address"
        }
      ],
      "name": "Unpaused",
      "type": "event"
    },
    {
      "inputs": [],
      "name": "DEFAULT_ADMIN_ROLE",
      "outputs": [
        {
          "internalType": "bytes32",
          "name": "",
          "type": "bytes32"
        }
      ],
      "stateMutability": "view",
      "type": "function"
    },
    {
      "inputs": [],
      "name": "MANAGER_ROLE",
      "outputs": [
        {
          "internalType": "bytes32",
          "name": "",
          "type": "bytes32"
        }
      ],
      "stateMutability": "view",
      "type": "function"
    },
    {
      "inputs": [],
      "name": "PAUSER_ROLE",
      "outputs": [
        {
          "internalType": "bytes32",
          "name": "",
          "type": "bytes32"
        }
      ],
      "stateMutability": "view",
      "type": "function"
    },
    {
      "inputs": [
        {
          "internalType": "address",
          "name": "_holder",
          "type": "address"
        },
        {
          "internalType": "uint256",
          "name": "_initialStake",
          "type": "uint256"
        }
      ],
      "name": "addStakeHolder",
      "outputs": [],
      "stateMutability": "nonpayable",
      "type": "function"
    },
    {
      "inputs": [],
      "name": "distributeFunds",
      "outputs": [],
      "stateMutability": "nonpayable",
      "type": "function"
    },
    {
      "inputs": [
        {
          "internalType": "bytes32",
          "name": "role",
          "type": "bytes32"
        }
      ],
      "name": "getRoleAdmin",
      "outputs": [
        {
          "internalType": "bytes32",
          "name": "",
          "type": "bytes32"
        }
      ],
      "stateMutability": "view",
      "type": "function"
    },
    {
      "inputs": [],
      "name": "getStakeHolders",
      "outputs": [
        {
          "internalType": "address[]",
          "name": "_holders",
          "type": "address[]"
        },
        {
          "internalType": "uint256[]",
          "name": "_stakesPercent",
          "type": "uint256[]"
        }
      ],
      "stateMutability": "view",
      "type": "function"
    },
    {
      "inputs": [
        {
          "internalType": "bytes32",
          "name": "role",
          "type": "bytes32"
        },
        {
          "internalType": "address",
          "name": "account",
          "type": "address"
        }
      ],
      "name": "grantRole",
      "outputs": [],
      "stateMutability": "nonpayable",
      "type": "function"
    },
    {
      "inputs": [
        {
          "internalType": "bytes32",
          "name": "role",
          "type": "bytes32"
        },
        {
          "internalType": "address",
          "name": "account",
          "type": "address"
        }
      ],
      "name": "hasRole",
      "outputs": [
        {
          "internalType": "bool",
          "name": "",
          "type": "bool"
        }
      ],
      "stateMutability": "view",
      "type": "function"
    },
    {
      "inputs": [],
      "name": "impact3FundAddress",
      "outputs": [
        {
          "internalType": "address payable",
          "name": "",
          "type": "address"
        }
      ],
      "stateMutability": "view",
      "type": "function"
    },
    {
      "inputs": [],
      "name": "intervalMilliseconds",
      "outputs": [
        {
          "internalType": "uint256",
          "name": "",
          "type": "uint256"
        }
      ],
      "stateMutability": "view",
      "type": "function"
    },
    {
      "inputs": [],
      "name": "lastEndOfIntervalTimestamp",
      "outputs": [
        {
          "internalType": "uint256",
          "name": "",
          "type": "uint256"
        }
      ],
      "stateMutability": "view",
      "type": "function"
    },
    {
      "inputs": [],
      "name": "pause",
      "outputs": [],
      "stateMutability": "nonpayable",
      "type": "function"
    },
    {
      "inputs": [],
      "name": "paused",
      "outputs": [
        {
          "internalType": "bool",
          "name": "",
          "type": "bool"
        }
      ],
      "stateMutability": "view",
      "type": "function"
    },
    {
      "inputs": [
        {
          "internalType": "bytes32",
          "name": "role",
          "type": "bytes32"
        },
        {
          "internalType": "address",
          "name": "account",
          "type": "address"
        }
      ],
      "name": "renounceRole",
      "outputs": [],
      "stateMutability": "nonpayable",
      "type": "function"
    },
    {
      "inputs": [
        {
          "internalType": "bytes32",
          "name": "role",
          "type": "bytes32"
        },
        {
          "internalType": "address",
          "name": "account",
          "type": "address"
        }
      ],
      "name": "revokeRole",
      "outputs": [],
      "stateMutability": "nonpayable",
      "type": "function"
    },
    {
      "inputs": [
        {
          "internalType": "address",
          "name": "fund",
          "type": "address"
        }
      ],
      "name": "setImpact3FundAddress",
      "outputs": [],
      "stateMutability": "nonpayable",
      "type": "function"
    },
    {
      "inputs": [
        {
          "internalType": "uint256",
          "name": "",
          "type": "uint256"
        }
      ],
      "name": "stakeHolderAddresses",
      "outputs": [
        {
          "internalType": "address",
          "name": "",
          "type": "address"
        }
      ],
      "stateMutability": "view",
      "type": "function"
    },
    {
      "inputs": [
        {
          "internalType": "address",
          "name": "",
          "type": "address"
        }
      ],
      "name": "stakeHolders",
      "outputs": [
        {
          "internalType": "uint256",
          "name": "stakePercentage",
          "type": "uint256"
        },
        {
          "internalType": "uint256",
          "name": "fundsLastReceived",
          "type": "uint256"
        },
        {
          "internalType": "uint256",
          "name": "equityLastUpdated",
          "type": "uint256"
        }
      ],
      "stateMutability": "view",
      "type": "function"
    },
    {
      "inputs": [
        {
          "internalType": "bytes4",
          "name": "interfaceId",
          "type": "bytes4"
        }
      ],
      "name": "supportsInterface",
      "outputs": [
        {
          "internalType": "bool",
          "name": "",
          "type": "bool"
        }
      ],
      "stateMutability": "view",
      "type": "function"
    },
    {
      "inputs": [],
      "name": "unpause",
      "outputs": [],
      "stateMutability": "nonpayable",
      "type": "function"
    },
    {
      "inputs": [
        {
          "internalType": "address",
          "name": "_holder",
          "type": "address"
        },
        {
          "internalType": "uint256",
          "name": "_stakeIncrease",
          "type": "uint256"
        }
      ],
      "name": "updateStakeHolder",
      "outputs": [],
      "stateMutability": "nonpayable",
      "type": "function"
    },
    {
      "inputs": [],
      "name": "updateWindowMilliseconds",
      "outputs": [
        {
          "internalType": "uint256",
          "name": "",
          "type": "uint256"
        }
      ],
      "stateMutability": "view",
      "type": "function"
    },
    {
      "inputs": [],
      "name": "withinUpdateWindow",
      "outputs": [
        {
          "internalType": "bool",
          "name": "",
          "type": "bool"
        }
      ],
      "stateMutability": "view",
      "type": "function"
    },
    {
      "stateMutability": "payable",
      "type": "receive"
    }
  ],
  "bytecode": "0x60c06040523480156200001157600080fd5b50604051620036143803806200361483398181016040528101906200003791906200064f565b60008060006101000a81548160ff02191690831515021790555060016002819055506200006e6000801b336200010360201b60201c565b620000a07f65d7a28e3265b37a6474929f336521b332c1681b933f6cb9f3376673440d862a336200010360201b60201c565b620000d27f241ecf16d79d0f8dbfb92cbc07fe17840425976cf0667f022fe9877caa831b08336200010360201b60201c565b620000e383620001f460201b60201c565b81608081815250508060a081815250504260068190555050505062000afa565b6200011582826200026b60201b60201c565b620001f057600180600084815260200190815260200160002060000160008373ffffffffffffffffffffffffffffffffffffffff1673ffffffffffffffffffffffffffffffffffffffff16815260200190815260200160002060006101000a81548160ff02191690831515021790555062000195620002d660201b60201c565b73ffffffffffffffffffffffffffffffffffffffff168173ffffffffffffffffffffffffffffffffffffffff16837f2f8788117e7eff1d82e926ec794901d17c78024a50270940304540a733656f0d60405160405180910390a45b5050565b7f241ecf16d79d0f8dbfb92cbc07fe17840425976cf0667f022fe9877caa831b086200022681620002de60201b60201c565b81600560006101000a81548173ffffffffffffffffffffffffffffffffffffffff021916908373ffffffffffffffffffffffffffffffffffffffff1602179055505050565b60006001600084815260200190815260200160002060000160008373ffffffffffffffffffffffffffffffffffffffff1673ffffffffffffffffffffffffffffffffffffffff16815260200190815260200160002060009054906101000a900460ff16905092915050565b600033905090565b620002ff81620002f3620002d660201b60201c565b6200030260201b60201c565b50565b6200031482826200026b60201b60201c565b620003c257620003478173ffffffffffffffffffffffffffffffffffffffff166014620003c660201b620015851760201c565b620003628360001c6020620003c660201b620015851760201c565b6040516020016200037592919062000798565b6040516020818303038152906040526040517f08c379a0000000000000000000000000000000000000000000000000000000008152600401620003b99190620007da565b60405180910390fd5b5050565b606060006002836002620003db9190620008a4565b620003e7919062000847565b67ffffffffffffffff81111562000403576200040262000a06565b5b6040519080825280601f01601f191660200182016040528015620004365781602001600182028036833780820191505090505b5090507f300000000000000000000000000000000000000000000000000000000000000081600081518110620004715762000470620009d7565b5b60200101907effffffffffffffffffffffffffffffffffffffffffffffffffffffffffffff1916908160001a9053507f780000000000000000000000000000000000000000000000000000000000000081600181518110620004d857620004d7620009d7565b5b60200101907effffffffffffffffffffffffffffffffffffffffffffffffffffffffffffff1916908160001a905350600060018460026200051a9190620008a4565b62000526919062000847565b90505b6001811115620005d0577f3031323334353637383961626364656600000000000000000000000000000000600f8616601081106200056c576200056b620009d7565b5b1a60f81b828281518110620005865762000585620009d7565b5b60200101907effffffffffffffffffffffffffffffffffffffffffffffffffffffffffffff1916908160001a905350600485901c945080620005c89062000979565b905062000529565b506000841462000617576040517f08c379a00000000000000000000000000000000000000000000000000000000081526004016200060e90620007fe565b60405180910390fd5b8091505092915050565b600081519050620006328162000ac6565b92915050565b600081519050620006498162000ae0565b92915050565b6000806000606084860312156200066b576200066a62000a35565b5b60006200067b8682870162000621565b93505060206200068e8682870162000638565b9250506040620006a18682870162000638565b9150509250925092565b6000620006b88262000820565b620006c481856200082b565b9350620006d681856020860162000943565b620006e18162000a3a565b840191505092915050565b6000620006f98262000820565b6200070581856200083c565b93506200071781856020860162000943565b80840191505092915050565b6000620007326020836200082b565b91506200073f8262000a4b565b602082019050919050565b6000620007596017836200083c565b9150620007668262000a74565b601782019050919050565b6000620007806011836200083c565b91506200078d8262000a9d565b601182019050919050565b6000620007a5826200074a565b9150620007b38285620006ec565b9150620007c08262000771565b9150620007ce8284620006ec565b91508190509392505050565b60006020820190508181036000830152620007f68184620006ab565b905092915050565b60006020820190508181036000830152620008198162000723565b9050919050565b600081519050919050565b600082825260208201905092915050565b600081905092915050565b6000620008548262000939565b9150620008618362000939565b9250827fffffffffffffffffffffffffffffffffffffffffffffffffffffffffffffffff03821115620008995762000898620009a8565b5b828201905092915050565b6000620008b18262000939565b9150620008be8362000939565b9250817fffffffffffffffffffffffffffffffffffffffffffffffffffffffffffffffff0483118215151615620008fa57620008f9620009a8565b5b828202905092915050565b6000620009128262000919565b9050919050565b600073ffffffffffffffffffffffffffffffffffffffff82169050919050565b6000819050919050565b60005b838110156200096357808201518184015260208101905062000946565b8381111562000973576000848401525b50505050565b6000620009868262000939565b915060008214156200099d576200099c620009a8565b5b600182039050919050565b7f4e487b7100000000000000000000000000000000000000000000000000000000600052601160045260246000fd5b7f4e487b7100000000000000000000000000000000000000000000000000000000600052603260045260246000fd5b7f4e487b7100000000000000000000000000000000000000000000000000000000600052604160045260246000fd5b600080fd5b6000601f19601f8301169050919050565b7f537472696e67733a20686578206c656e67746820696e73756666696369656e74600082015250565b7f416363657373436f6e74726f6c3a206163636f756e7420000000000000000000600082015250565b7f206973206d697373696e6720726f6c6520000000000000000000000000000000600082015250565b62000ad18162000905565b811462000add57600080fd5b50565b62000aeb8162000939565b811462000af757600080fd5b50565b60805160a051612ad862000b3c600039600081816106420152611b9a015260008181610ac801528181610d6101528181611b680152611bbb0152612ad86000f3fe60806040526004361061014f5760003560e01c8063a010fd70116100b6578063e48655f91161006f578063e48655f9146104c7578063e499e2e5146104f2578063e63ab1e91461051b578063ec87621c14610546578063f7fecc2714610571578063fabf0b0b1461059d576101a4565b8063a010fd70146103a3578063a128f355146103e0578063a217fddf1461040b578063d547741f14610436578063e26ff10a1461045f578063e2adb0981461049e576101a4565b80633be68630116101085780633be68630146102b75780633c915af7146102e25780633f4ba83a1461030d5780635c975abb146103245780638456cb591461034f57806391d1485414610366576101a4565b806301ffc9a7146101a957806321180645146101e6578063248a9ca3146102115780632f2ff15d1461024e57806336568abe146102775780633a6a4d2e146102a0576101a4565b366101a4573373ffffffffffffffffffffffffffffffffffffffff167f8e47b87b0ef542cdfa1659c551d88bad38aa7f452d2bbb349ab7530dfec8be8f3460405161019a91906124e9565b60405180910390a2005b600080fd5b3480156101b557600080fd5b506101d060048036038101906101cb9190611f87565b6105c6565b6040516101dd91906123f1565b60405180910390f35b3480156101f257600080fd5b506101fb610640565b60405161020891906124e9565b60405180910390f35b34801561021d57600080fd5b5061023860048036038101906102339190611f1a565b610664565b604051610245919061240c565b60405180910390f35b34801561025a57600080fd5b5061027560048036038101906102709190611f47565b610684565b005b34801561028357600080fd5b5061029e60048036038101906102999190611f47565b6106a5565b005b3480156102ac57600080fd5b506102b5610728565b005b3480156102c357600080fd5b506102cc610b0e565b6040516102d99190612331565b60405180910390f35b3480156102ee57600080fd5b506102f7610b34565b60405161030491906124e9565b60405180910390f35b34801561031957600080fd5b50610322610b3a565b005b34801561033057600080fd5b50610339610b6f565b60405161034691906123f1565b60405180910390f35b34801561035b57600080fd5b50610364610b85565b005b34801561037257600080fd5b5061038d60048036038101906103889190611f47565b610bba565b60405161039a91906123f1565b60405180910390f35b3480156103af57600080fd5b506103ca60048036038101906103c59190611fb4565b610c25565b6040516103d79190612316565b60405180910390f35b3480156103ec57600080fd5b506103f5610c64565b60405161040291906123f1565b60405180910390f35b34801561041757600080fd5b50610420610c9e565b60405161042d919061240c565b60405180910390f35b34801561044257600080fd5b5061045d60048036038101906104589190611f47565b610ca5565b005b34801561046b57600080fd5b5061048660048036038101906104819190611ead565b610cc6565b60405161049593929190612504565b60405180910390f35b3480156104aa57600080fd5b506104c560048036038101906104c09190611ead565b610cf0565b005b3480156104d357600080fd5b506104dc610d5f565b6040516104e991906124e9565b60405180910390f35b3480156104fe57600080fd5b5061051960048036038101906105149190611eda565b610d83565b005b34801561052757600080fd5b50610530611045565b60405161053d919061240c565b60405180910390f35b34801561055257600080fd5b5061055b611069565b604051610568919061240c565b60405180910390f35b34801561057d57600080fd5b5061058661108d565b6040516105949291906123ba565b60405180910390f35b3480156105a957600080fd5b506105c460048036038101906105bf9190611eda565b611255565b005b60007f7965db0b000000000000000000000000000000000000000000000000000000007bffffffffffffffffffffffffffffffffffffffffffffffffffffffff1916827bffffffffffffffffffffffffffffffffffffffffffffffffffffffff191614806106395750610638826117c1565b5b9050919050565b7f000000000000000000000000000000000000000000000000000000000000000081565b600060016000838152602001908152602001600020600101549050919050565b61068d82610664565b6106968161182b565b6106a0838361183f565b505050565b6106ad61191f565b73ffffffffffffffffffffffffffffffffffffffff168173ffffffffffffffffffffffffffffffffffffffff161461071a576040517f08c379a0000000000000000000000000000000000000000000000000000000008152600401610711906124c9565b60405180910390fd5b6107248282611927565b5050565b610730611a09565b600280541415610775576040517f08c379a000000000000000000000000000000000000000000000000000000000815260040161076c906124a9565b60405180910390fd5b60028081905550610784610c64565b156107bb576040517f5c4f151a00000000000000000000000000000000000000000000000000000000815260040160405180910390fd5b6000479050600080600380548060200260200160405190810160405280929190818152602001828054801561084557602002820191906000526020600020905b8160009054906101000a900473ffffffffffffffffffffffffffffffffffffffff1673ffffffffffffffffffffffffffffffffffffffff16815260200190600101908083116107fb575b5050505050905060005b8151811015610a28576000600460008484815181106108715761087061288a565b5b602002602001015173ffffffffffffffffffffffffffffffffffffffff1673ffffffffffffffffffffffffffffffffffffffff16815260200190815260200160002060000154905060006108e160646108d38489611a5390919063ffffffff16565b611a6990919063ffffffff16565b905042600460008686815181106108fb576108fa61288a565b5b602002602001015173ffffffffffffffffffffffffffffffffffffffff1673ffffffffffffffffffffffffffffffffffffffff16815260200190815260200160002060010181905550808561095091906125df565b945061099a600384815481106109695761096861288a565b5b9060005260206000200160009054906101000a900473ffffffffffffffffffffffffffffffffffffffff1682611a7f565b7f080babe757d4e5c7db3b7bd10606a7bf07a9857f660977ada6ca7a4d329376c8600384815481106109cf576109ce61288a565b5b9060005260206000200160009054906101000a900473ffffffffffffffffffffffffffffffffffffffff168242604051610a0b93929190612383565b60405180910390a150508080610a20906127e3565b91505061084f565b50610a55600560009054906101000a900473ffffffffffffffffffffffffffffffffffffffff1647611a7f565b7f080babe757d4e5c7db3b7bd10606a7bf07a9857f660977ada6ca7a4d329376c8600560009054906101000a900473ffffffffffffffffffffffffffffffffffffffff168342604051610aaa9392919061234c565b60405180910390a16000610abc611b61565b915050804210610b00577f000000000000000000000000000000000000000000000000000000000000000060066000828254610af891906125df565b925050819055505b505050506001600281905550565b600560009054906101000a900473ffffffffffffffffffffffffffffffffffffffff1681565b60065481565b7f65d7a28e3265b37a6474929f336521b332c1681b933f6cb9f3376673440d862a610b648161182b565b610b6c611bff565b50565b60008060009054906101000a900460ff16905090565b7f65d7a28e3265b37a6474929f336521b332c1681b933f6cb9f3376673440d862a610baf8161182b565b610bb7611c61565b50565b60006001600084815260200190815260200160002060000160008373ffffffffffffffffffffffffffffffffffffffff1673ffffffffffffffffffffffffffffffffffffffff16815260200190815260200160002060009054906101000a900460ff16905092915050565b60038181548110610c3557600080fd5b906000526020600020016000915054906101000a900473ffffffffffffffffffffffffffffffffffffffff1681565b6000806000610c71611b61565b91509150814210158015610c8457508042105b15610c9457600192505050610c9b565b6000925050505b90565b6000801b81565b610cae82610664565b610cb78161182b565b610cc18383611927565b505050565b60046020528060005260406000206000915090508060000154908060010154908060020154905083565b7f241ecf16d79d0f8dbfb92cbc07fe17840425976cf0667f022fe9877caa831b08610d1a8161182b565b81600560006101000a81548173ffffffffffffffffffffffffffffffffffffffff021916908373ffffffffffffffffffffffffffffffffffffffff1602179055505050565b7f000000000000000000000000000000000000000000000000000000000000000081565b610d8b611a09565b7f241ecf16d79d0f8dbfb92cbc07fe17840425976cf0667f022fe9877caa831b08610db58161182b565b610dbd610c64565b610df3576040517f0695e99f00000000000000000000000000000000000000000000000000000000815260040160405180910390fd5b60008211610e2d576040517f9bc4b81000000000000000000000000000000000000000000000000000000000815260040160405180910390fd5b6000610ed083610ec26003805480602002602001604051908101604052809291908181526020018280548015610eb857602002820191906000526020600020905b8160009054906101000a900473ffffffffffffffffffffffffffffffffffffffff1673ffffffffffffffffffffffffffffffffffffffff1681526020019060010190808311610e6e575b5050505050611cc3565b611d5d90919063ffffffff16565b90506064811115610f0d576040517ff7752b5600000000000000000000000000000000000000000000000000000000815260040160405180910390fd5b6000600460008673ffffffffffffffffffffffffffffffffffffffff1673ffffffffffffffffffffffffffffffffffffffff1681526020019081526020016000206000015414610f89576040517f9d7c730100000000000000000000000000000000000000000000000000000000815260040160405180910390fd5b604051806060016040528084815260200142815260200142815250600460008673ffffffffffffffffffffffffffffffffffffffff1673ffffffffffffffffffffffffffffffffffffffff1681526020019081526020016000206000820151816000015560208201518160010155604082015181600201559050507f984350119ecf7f58ff768fba0125b1ea5f84b5c79130116ac67e295294feec7c84844260405161103793929190612383565b60405180910390a150505050565b7f65d7a28e3265b37a6474929f336521b332c1681b933f6cb9f3376673440d862a81565b7f241ecf16d79d0f8dbfb92cbc07fe17840425976cf0667f022fe9877caa831b0881565b60608060038054905067ffffffffffffffff8111156110af576110ae6128b9565b5b6040519080825280602002602001820160405280156110dd5781602001602082028036833780820191505090505b509150600380548060200260200160405190810160405280929190818152602001828054801561116257602002820191906000526020600020905b8160009054906101000a900473ffffffffffffffffffffffffffffffffffffffff1673ffffffffffffffffffffffffffffffffffffffff1681526020019060010190808311611118575b50505050509150815167ffffffffffffffff811115611184576111836128b9565b5b6040519080825280602002602001820160405280156111b25781602001602082028036833780820191505090505b50905060005b825181101561125057600460008483815181106111d8576111d761288a565b5b602002602001015173ffffffffffffffffffffffffffffffffffffffff1673ffffffffffffffffffffffffffffffffffffffff168152602001908152602001600020600001548282815181106112315761123061288a565b5b6020026020010181815250508080611248906127e3565b9150506111b8565b509091565b61125d611a09565b7f241ecf16d79d0f8dbfb92cbc07fe17840425976cf0667f022fe9877caa831b086112878161182b565b61128f610c64565b6112c5576040517f0695e99f00000000000000000000000000000000000000000000000000000000815260040160405180910390fd5b600082116112ff576040517f9bc4b81000000000000000000000000000000000000000000000000000000000815260040160405180910390fd5b60006113a283611394600380548060200260200160405190810160405280929190818152602001828054801561138a57602002820191906000526020600020905b8160009054906101000a900473ffffffffffffffffffffffffffffffffffffffff1673ffffffffffffffffffffffffffffffffffffffff1681526020019060010190808311611340575b5050505050611cc3565b611d5d90919063ffffffff16565b905060648111156113df576040517ff7752b5600000000000000000000000000000000000000000000000000000000815260040160405180910390fd5b6000600460008673ffffffffffffffffffffffffffffffffffffffff1673ffffffffffffffffffffffffffffffffffffffff16815260200190815260200160002060000154141561145c576040517f0f5708a500000000000000000000000000000000000000000000000000000000815260040160405180910390fd5b60006114b384600460008873ffffffffffffffffffffffffffffffffffffffff1673ffffffffffffffffffffffffffffffffffffffff16815260200190815260200160002060000154611d5d90919063ffffffff16565b905080600460008773ffffffffffffffffffffffffffffffffffffffff1673ffffffffffffffffffffffffffffffffffffffff1681526020019081526020016000206000018190555042600460008773ffffffffffffffffffffffffffffffffffffffff1673ffffffffffffffffffffffffffffffffffffffff168152602001908152602001600020600201819055507fb1c069c2b2a0fbf8648b344b6d632ee6503befa49d2719a79c9dee2a47ab63c885854260405161157693929190612383565b60405180910390a15050505050565b6060600060028360026115989190612666565b6115a291906125df565b67ffffffffffffffff8111156115bb576115ba6128b9565b5b6040519080825280601f01601f1916602001820160405280156115ed5781602001600182028036833780820191505090505b5090507f3000000000000000000000000000000000000000000000000000000000000000816000815181106116255761162461288a565b5b60200101907effffffffffffffffffffffffffffffffffffffffffffffffffffffffffffff1916908160001a9053507f7800000000000000000000000000000000000000000000000000000000000000816001815181106116895761168861288a565b5b60200101907effffffffffffffffffffffffffffffffffffffffffffffffffffffffffffff1916908160001a905350600060018460026116c99190612666565b6116d391906125df565b90505b6001811115611773577f3031323334353637383961626364656600000000000000000000000000000000600f8616601081106117155761171461288a565b5b1a60f81b82828151811061172c5761172b61288a565b5b60200101907effffffffffffffffffffffffffffffffffffffffffffffffffffffffffffff1916908160001a905350600485901c94508061176c906127b9565b90506116d6565b50600084146117b7576040517f08c379a00000000000000000000000000000000000000000000000000000000081526004016117ae90612449565b60405180910390fd5b8091505092915050565b60007f01ffc9a7000000000000000000000000000000000000000000000000000000007bffffffffffffffffffffffffffffffffffffffffffffffffffffffff1916827bffffffffffffffffffffffffffffffffffffffffffffffffffffffff1916149050919050565b61183c8161183761191f565b611d73565b50565b6118498282610bba565b61191b57600180600084815260200190815260200160002060000160008373ffffffffffffffffffffffffffffffffffffffff1673ffffffffffffffffffffffffffffffffffffffff16815260200190815260200160002060006101000a81548160ff0219169083151502179055506118c061191f565b73ffffffffffffffffffffffffffffffffffffffff168173ffffffffffffffffffffffffffffffffffffffff16837f2f8788117e7eff1d82e926ec794901d17c78024a50270940304540a733656f0d60405160405180910390a45b5050565b600033905090565b6119318282610bba565b15611a055760006001600084815260200190815260200160002060000160008373ffffffffffffffffffffffffffffffffffffffff1673ffffffffffffffffffffffffffffffffffffffff16815260200190815260200160002060006101000a81548160ff0219169083151502179055506119aa61191f565b73ffffffffffffffffffffffffffffffffffffffff168173ffffffffffffffffffffffffffffffffffffffff16837ff6391f5c32d9c69d2a47ea670b442974b53935d1edc7fd64eb21e047a839171b60405160405180910390a45b5050565b611a11610b6f565b15611a51576040517f08c379a0000000000000000000000000000000000000000000000000000000008152600401611a4890612489565b60405180910390fd5b565b60008183611a619190612666565b905092915050565b60008183611a779190612635565b905092915050565b80471015611ab9576040517f4034001800000000000000000000000000000000000000000000000000000000815260040160405180910390fd5b60008273ffffffffffffffffffffffffffffffffffffffff1682604051611adf906122c7565b60006040518083038185875af1925050503d8060008114611b1c576040519150601f19603f3d011682016040523d82523d6000602084013e611b21565b606091505b5050905080611b5c576040517ffbb12e0800000000000000000000000000000000000000000000000000000000815260040160405180910390fd5b505050565b60008060007f0000000000000000000000000000000000000000000000000000000000000000600654611b9491906125df565b905060007f00000000000000000000000000000000000000000000000000000000000000007f0000000000000000000000000000000000000000000000000000000000000000611be491906125df565b600654611bf191906125df565b905081819350935050509091565b611c07611e10565b60008060006101000a81548160ff0219169083151502179055507f5db9ee0a495bf2e6ff9c91a7834c1ba4fdd244a5e8aa4e537bd38aeae4b073aa611c4a61191f565b604051611c579190612316565b60405180910390a1565b611c69611a09565b60016000806101000a81548160ff0219169083151502179055507f62e78cea01bee320cd4e420270b5ea74000d11b0c9f74754ebdbfc544b05a258611cac61191f565b604051611cb99190612316565b60405180910390a1565b6000806000905060005b8351811015611d535760046000858381518110611ced57611cec61288a565b5b602002602001015173ffffffffffffffffffffffffffffffffffffffff1673ffffffffffffffffffffffffffffffffffffffff1681526020019081526020016000206000015482611d3e91906125df565b91508080611d4b906127e3565b915050611ccd565b5080915050919050565b60008183611d6b91906125df565b905092915050565b611d7d8282610bba565b611e0c57611da28173ffffffffffffffffffffffffffffffffffffffff166014611585565b611db08360001c6020611585565b604051602001611dc19291906122dc565b6040516020818303038152906040526040517f08c379a0000000000000000000000000000000000000000000000000000000008152600401611e039190612427565b60405180910390fd5b5050565b611e18610b6f565b611e57576040517f08c379a0000000000000000000000000000000000000000000000000000000008152600401611e4e90612469565b60405180910390fd5b565b600081359050611e6881612a46565b92915050565b600081359050611e7d81612a5d565b92915050565b600081359050611e9281612a74565b92915050565b600081359050611ea781612a8b565b92915050565b600060208284031215611ec357611ec26128e8565b5b6000611ed184828501611e59565b91505092915050565b60008060408385031215611ef157611ef06128e8565b5b6000611eff85828601611e59565b9250506020611f1085828601611e98565b9150509250929050565b600060208284031215611f3057611f2f6128e8565b5b6000611f3e84828501611e6e565b91505092915050565b60008060408385031215611f5e57611f5d6128e8565b5b6000611f6c85828601611e6e565b9250506020611f7d85828601611e59565b9150509250929050565b600060208284031215611f9d57611f9c6128e8565b5b6000611fab84828501611e83565b91505092915050565b600060208284031215611fca57611fc96128e8565b5b6000611fd884828501611e98565b91505092915050565b6000611fed838361202f565b60208301905092915050565b600061200583836122a9565b60208301905092915050565b61201a81612750565b82525050565b612029816126d2565b82525050565b612038816126c0565b82525050565b612047816126c0565b82525050565b60006120588261255b565b6120628185612596565b935061206d8361253b565b8060005b8381101561209e5781516120858882611fe1565b97506120908361257c565b925050600181019050612071565b5085935050505092915050565b60006120b682612566565b6120c081856125a7565b93506120cb8361254b565b8060005b838110156120fc5781516120e38882611ff9565b97506120ee83612589565b9250506001810190506120cf565b5085935050505092915050565b612112816126e4565b82525050565b612121816126f0565b82525050565b600061213282612571565b61213c81856125c3565b935061214c818560208601612786565b612155816128ed565b840191505092915050565b600061216b82612571565b61217581856125d4565b9350612185818560208601612786565b80840191505092915050565b600061219e6020836125c3565b91506121a9826128fe565b602082019050919050565b60006121c16014836125c3565b91506121cc82612927565b602082019050919050565b60006121e46010836125c3565b91506121ef82612950565b602082019050919050565b60006122076000836125b8565b915061221282612979565b600082019050919050565b600061222a6017836125d4565b91506122358261297c565b601782019050919050565b600061224d601f836125c3565b9150612258826129a5565b602082019050919050565b60006122706011836125d4565b915061227b826129ce565b601182019050919050565b6000612293602f836125c3565b915061229e826129f7565b604082019050919050565b6122b281612746565b82525050565b6122c181612746565b82525050565b60006122d2826121fa565b9150819050919050565b60006122e78261221d565b91506122f38285612160565b91506122fe82612263565b915061230a8284612160565b91508190509392505050565b600060208201905061232b600083018461203e565b92915050565b60006020820190506123466000830184612020565b92915050565b60006060820190506123616000830186612011565b61236e60208301856122b8565b61237b60408301846122b8565b949350505050565b6000606082019050612398600083018661203e565b6123a560208301856122b8565b6123b260408301846122b8565b949350505050565b600060408201905081810360008301526123d4818561204d565b905081810360208301526123e881846120ab565b90509392505050565b60006020820190506124066000830184612109565b92915050565b60006020820190506124216000830184612118565b92915050565b600060208201905081810360008301526124418184612127565b905092915050565b6000602082019050818103600083015261246281612191565b9050919050565b60006020820190508181036000830152612482816121b4565b9050919050565b600060208201905081810360008301526124a2816121d7565b9050919050565b600060208201905081810360008301526124c281612240565b9050919050565b600060208201905081810360008301526124e281612286565b9050919050565b60006020820190506124fe60008301846122b8565b92915050565b600060608201905061251960008301866122b8565b61252660208301856122b8565b61253360408301846122b8565b949350505050565b6000819050602082019050919050565b6000819050602082019050919050565b600081519050919050565b600081519050919050565b600081519050919050565b6000602082019050919050565b6000602082019050919050565b600082825260208201905092915050565b600082825260208201905092915050565b600081905092915050565b600082825260208201905092915050565b600081905092915050565b60006125ea82612746565b91506125f583612746565b9250827fffffffffffffffffffffffffffffffffffffffffffffffffffffffffffffffff0382111561262a5761262961282c565b5b828201905092915050565b600061264082612746565b915061264b83612746565b92508261265b5761265a61285b565b5b828204905092915050565b600061267182612746565b915061267c83612746565b9250817fffffffffffffffffffffffffffffffffffffffffffffffffffffffffffffffff04831182151516156126b5576126b461282c565b5b828202905092915050565b60006126cb82612726565b9050919050565b60006126dd82612726565b9050919050565b60008115159050919050565b6000819050919050565b60007fffffffff0000000000000000000000000000000000000000000000000000000082169050919050565b600073ffffffffffffffffffffffffffffffffffffffff82169050919050565b6000819050919050565b600061275b82612762565b9050919050565b600061276d82612774565b9050919050565b600061277f82612726565b9050919050565b60005b838110156127a4578082015181840152602081019050612789565b838111156127b3576000848401525b50505050565b60006127c482612746565b915060008214156127d8576127d761282c565b5b600182039050919050565b60006127ee82612746565b91507fffffffffffffffffffffffffffffffffffffffffffffffffffffffffffffffff8214156128215761282061282c565b5b600182019050919050565b7f4e487b7100000000000000000000000000000000000000000000000000000000600052601160045260246000fd5b7f4e487b7100000000000000000000000000000000000000000000000000000000600052601260045260246000fd5b7f4e487b7100000000000000000000000000000000000000000000000000000000600052603260045260246000fd5b7f4e487b7100000000000000000000000000000000000000000000000000000000600052604160045260246000fd5b600080fd5b6000601f19601f8301169050919050565b7f537472696e67733a20686578206c656e67746820696e73756666696369656e74600082015250565b7f5061757361626c653a206e6f7420706175736564000000000000000000000000600082015250565b7f5061757361626c653a2070617573656400000000000000000000000000000000600082015250565b50565b7f416363657373436f6e74726f6c3a206163636f756e7420000000000000000000600082015250565b7f5265656e7472616e637947756172643a207265656e7472616e742063616c6c00600082015250565b7f206973206d697373696e6720726f6c6520000000000000000000000000000000600082015250565b7f416363657373436f6e74726f6c3a2063616e206f6e6c792072656e6f756e636560008201527f20726f6c657320666f722073656c660000000000000000000000000000000000602082015250565b612a4f816126c0565b8114612a5a57600080fd5b50565b612a66816126f0565b8114612a7157600080fd5b50565b612a7d816126fa565b8114612a8857600080fd5b50565b612a9481612746565b8114612a9f57600080fd5b5056fea2646970667358221220dcede00a774e7f3edc9441be9efb4c5edaf5b553e1ec52cebab10ba13364fb7264736f6c63430008070033",
  "linkReferences": {},
  "deployedLinkReferences": {}
}