{
  "_format": "hh-sol-artifact-1",
  "contractName": "StakeManager",
  "sourceName": "contracts/StakeManager.sol",
  "abi": [
    {
      "inputs": [
        {
          "internalType": "address",
          "name": "_companyTreasury",
          "type": "address"
        },
        {
          "internalType": "uint256",
          "name": "_interval",
          "type": "uint256"
        },
        {
          "internalType": "uint256",
          "name": "_window",
          "type": "uint256"
        }
      ],
      "stateMutability": "nonpayable",
      "type": "constructor"
    },
    {
      "inputs": [],
      "name": "StakeManager__ContractUpdateWindowIsNotOpen",
      "type": "error"
    },
    {
      "inputs": [],
      "name": "StakeManager__ContractUpdateWindowIsOpen",
      "type": "error"
    },
    {
      "inputs": [],
      "name": "StakeManager__InsufficientBalance",
      "type": "error"
    },
    {
      "inputs": [],
      "name": "StakeManager__StakeHolderAlreadyExists",
      "type": "error"
    },
    {
      "inputs": [],
      "name": "StakeManager__StakeHolderDoesNotExist",
      "type": "error"
    },
    {
      "inputs": [],
      "name": "StakeManager__StakeIsZero",
      "type": "error"
    },
    {
      "inputs": [],
      "name": "StakeManager__StakeLimitExceeded",
      "type": "error"
    },
    {
      "inputs": [],
      "name": "StakeManager__TransactionFailed",
      "type": "error"
    },
    {
      "anonymous": false,
      "inputs": [
        {
          "indexed": true,
          "internalType": "address",
          "name": "holder",
          "type": "address"
        },
        {
          "indexed": false,
          "internalType": "uint256",
          "name": "equityTokens",
          "type": "uint256"
        },
        {
          "indexed": false,
          "internalType": "uint256",
          "name": "timeAdded",
          "type": "uint256"
        }
      ],
      "name": "BeneficiariesAdded",
      "type": "event"
    },
    {
      "anonymous": false,
      "inputs": [
        {
          "indexed": true,
          "internalType": "address",
          "name": "holder",
          "type": "address"
        },
        {
          "indexed": false,
          "internalType": "uint256",
          "name": "equityTokens",
          "type": "uint256"
        },
        {
          "indexed": false,
          "internalType": "uint256",
          "name": "timeAdded",
          "type": "uint256"
        }
      ],
      "name": "BeneficiaryStakeIncreased",
      "type": "event"
    },
    {
      "anonymous": false,
      "inputs": [
        {
          "indexed": true,
          "internalType": "address",
          "name": "beneficiary",
          "type": "address"
        },
        {
          "indexed": false,
          "internalType": "uint256",
          "name": "amount",
          "type": "uint256"
        },
        {
          "indexed": false,
          "internalType": "uint256",
          "name": "time_distributed",
          "type": "uint256"
        }
      ],
      "name": "FundsDistributed",
      "type": "event"
    },
    {
      "anonymous": false,
      "inputs": [
        {
          "indexed": true,
          "internalType": "address",
          "name": "addr",
          "type": "address"
        },
        {
          "indexed": false,
          "internalType": "uint256",
          "name": "amount",
          "type": "uint256"
        }
      ],
      "name": "FundsReceived",
      "type": "event"
    },
    {
      "anonymous": false,
      "inputs": [
        {
          "indexed": false,
          "internalType": "address",
          "name": "account",
          "type": "address"
        }
      ],
      "name": "Paused",
      "type": "event"
    },
    {
      "anonymous": false,
      "inputs": [
        {
          "indexed": true,
          "internalType": "bytes32",
          "name": "role",
          "type": "bytes32"
        },
        {
          "indexed": true,
          "internalType": "bytes32",
          "name": "previousAdminRole",
          "type": "bytes32"
        },
        {
          "indexed": true,
          "internalType": "bytes32",
          "name": "newAdminRole",
          "type": "bytes32"
        }
      ],
      "name": "RoleAdminChanged",
      "type": "event"
    },
    {
      "anonymous": false,
      "inputs": [
        {
          "indexed": true,
          "internalType": "bytes32",
          "name": "role",
          "type": "bytes32"
        },
        {
          "indexed": true,
          "internalType": "address",
          "name": "account",
          "type": "address"
        },
        {
          "indexed": true,
          "internalType": "address",
          "name": "sender",
          "type": "address"
        }
      ],
      "name": "RoleGranted",
      "type": "event"
    },
    {
      "anonymous": false,
      "inputs": [
        {
          "indexed": true,
          "internalType": "bytes32",
          "name": "role",
          "type": "bytes32"
        },
        {
          "indexed": true,
          "internalType": "address",
          "name": "account",
          "type": "address"
        },
        {
          "indexed": true,
          "internalType": "address",
          "name": "sender",
          "type": "address"
        }
      ],
      "name": "RoleRevoked",
      "type": "event"
    },
    {
      "anonymous": false,
      "inputs": [
        {
          "indexed": false,
          "internalType": "address",
          "name": "account",
          "type": "address"
        }
      ],
      "name": "Unpaused",
      "type": "event"
    },
    {
      "inputs": [],
      "name": "DEFAULT_ADMIN_ROLE",
      "outputs": [
        {
          "internalType": "bytes32",
          "name": "",
          "type": "bytes32"
        }
      ],
      "stateMutability": "view",
      "type": "function"
    },
    {
      "inputs": [],
      "name": "MANAGER_ROLE",
      "outputs": [
        {
          "internalType": "bytes32",
          "name": "",
          "type": "bytes32"
        }
      ],
      "stateMutability": "view",
      "type": "function"
    },
    {
      "inputs": [],
      "name": "PAUSER_ROLE",
      "outputs": [
        {
          "internalType": "bytes32",
          "name": "",
          "type": "bytes32"
        }
      ],
      "stateMutability": "view",
      "type": "function"
    },
    {
      "inputs": [
        {
          "internalType": "address",
          "name": "_holder",
          "type": "address"
        },
        {
          "internalType": "uint256",
          "name": "_initialStake",
          "type": "uint256"
        }
      ],
      "name": "addBeneficiary",
      "outputs": [],
      "stateMutability": "nonpayable",
      "type": "function"
    },
    {
      "inputs": [
        {
          "internalType": "address",
          "name": "",
          "type": "address"
        }
      ],
      "name": "beneficiaries",
      "outputs": [
        {
          "internalType": "uint256",
          "name": "equityTokens",
          "type": "uint256"
        },
        {
          "internalType": "uint256",
          "name": "fundsLastReceived",
          "type": "uint256"
        },
        {
          "internalType": "uint256",
          "name": "equityLastUpdated",
          "type": "uint256"
        }
      ],
      "stateMutability": "view",
      "type": "function"
    },
    {
      "inputs": [
        {
          "internalType": "uint256",
          "name": "",
          "type": "uint256"
        }
      ],
      "name": "beneficiariesAddresses",
      "outputs": [
        {
          "internalType": "address",
          "name": "",
          "type": "address"
        }
      ],
      "stateMutability": "view",
      "type": "function"
    },
    {
      "inputs": [],
      "name": "companyTreasuryAddress",
      "outputs": [
        {
          "internalType": "address payable",
          "name": "",
          "type": "address"
        }
      ],
      "stateMutability": "view",
      "type": "function"
    },
    {
      "inputs": [],
      "name": "currentTotalStake",
      "outputs": [
        {
          "internalType": "uint256",
          "name": "",
          "type": "uint256"
        }
      ],
      "stateMutability": "view",
      "type": "function"
    },
    {
      "inputs": [],
      "name": "distributeFunds",
      "outputs": [],
      "stateMutability": "nonpayable",
      "type": "function"
    },
    {
      "inputs": [],
      "name": "getBeneficiariesAddresses",
      "outputs": [
        {
          "internalType": "address[]",
          "name": "_holders",
          "type": "address[]"
        },
        {
          "internalType": "uint256[]",
          "name": "_equityTokens",
          "type": "uint256[]"
        }
      ],
      "stateMutability": "view",
      "type": "function"
    },
    {
      "inputs": [
        {
          "internalType": "bytes32",
          "name": "role",
          "type": "bytes32"
        }
      ],
      "name": "getRoleAdmin",
      "outputs": [
        {
          "internalType": "bytes32",
          "name": "",
          "type": "bytes32"
        }
      ],
      "stateMutability": "view",
      "type": "function"
    },
    {
      "inputs": [],
      "name": "getUpdateWindow",
      "outputs": [
        {
          "internalType": "uint256",
          "name": "",
          "type": "uint256"
        },
        {
          "internalType": "uint256",
          "name": "",
          "type": "uint256"
        }
      ],
      "stateMutability": "view",
      "type": "function"
    },
    {
      "inputs": [
        {
          "internalType": "bytes32",
          "name": "role",
          "type": "bytes32"
        },
        {
          "internalType": "address",
          "name": "account",
          "type": "address"
        }
      ],
      "name": "grantRole",
      "outputs": [],
      "stateMutability": "nonpayable",
      "type": "function"
    },
    {
      "inputs": [
        {
          "internalType": "bytes32",
          "name": "role",
          "type": "bytes32"
        },
        {
          "internalType": "address",
          "name": "account",
          "type": "address"
        }
      ],
      "name": "hasRole",
      "outputs": [
        {
          "internalType": "bool",
          "name": "",
          "type": "bool"
        }
      ],
      "stateMutability": "view",
      "type": "function"
    },
    {
      "inputs": [],
      "name": "intervalSeconds",
      "outputs": [
        {
          "internalType": "uint256",
          "name": "",
          "type": "uint256"
        }
      ],
      "stateMutability": "view",
      "type": "function"
    },
    {
      "inputs": [
        {
          "internalType": "address",
          "name": "_holder",
          "type": "address"
        }
      ],
      "name": "isABeneficiary",
      "outputs": [
        {
          "internalType": "bool",
          "name": "",
          "type": "bool"
        }
      ],
      "stateMutability": "view",
      "type": "function"
    },
    {
      "inputs": [],
      "name": "lastEndOfIntervalTimestamp",
      "outputs": [
        {
          "internalType": "uint256",
          "name": "",
          "type": "uint256"
        }
      ],
      "stateMutability": "view",
      "type": "function"
    },
    {
      "inputs": [],
      "name": "pause",
      "outputs": [],
      "stateMutability": "nonpayable",
      "type": "function"
    },
    {
      "inputs": [],
      "name": "paused",
      "outputs": [
        {
          "internalType": "bool",
          "name": "",
          "type": "bool"
        }
      ],
      "stateMutability": "view",
      "type": "function"
    },
    {
      "inputs": [
        {
          "internalType": "bytes32",
          "name": "role",
          "type": "bytes32"
        },
        {
          "internalType": "address",
          "name": "account",
          "type": "address"
        }
      ],
      "name": "renounceRole",
      "outputs": [],
      "stateMutability": "nonpayable",
      "type": "function"
    },
    {
      "inputs": [
        {
          "internalType": "bytes32",
          "name": "role",
          "type": "bytes32"
        },
        {
          "internalType": "address",
          "name": "account",
          "type": "address"
        }
      ],
      "name": "revokeRole",
      "outputs": [],
      "stateMutability": "nonpayable",
      "type": "function"
    },
    {
      "inputs": [
        {
          "internalType": "address",
          "name": "_fund",
          "type": "address"
        }
      ],
      "name": "setCompanyTreasuryAddress",
      "outputs": [],
      "stateMutability": "nonpayable",
      "type": "function"
    },
    {
      "inputs": [
        {
          "internalType": "bytes4",
          "name": "interfaceId",
          "type": "bytes4"
        }
      ],
      "name": "supportsInterface",
      "outputs": [
        {
          "internalType": "bool",
          "name": "",
          "type": "bool"
        }
      ],
      "stateMutability": "view",
      "type": "function"
    },
    {
      "inputs": [],
      "name": "unpause",
      "outputs": [],
      "stateMutability": "nonpayable",
      "type": "function"
    },
    {
      "inputs": [
        {
          "internalType": "address",
          "name": "_holder",
          "type": "address"
        },
        {
          "internalType": "uint256",
          "name": "_stakeIncrease",
          "type": "uint256"
        }
      ],
      "name": "updateBeneficiariesStake",
      "outputs": [],
      "stateMutability": "nonpayable",
      "type": "function"
    },
    {
      "inputs": [],
      "name": "updateWindowSeconds",
      "outputs": [
        {
          "internalType": "uint256",
          "name": "",
          "type": "uint256"
        }
      ],
      "stateMutability": "view",
      "type": "function"
    },
    {
      "inputs": [],
      "name": "withinUpdateWindow",
      "outputs": [
        {
          "internalType": "bool",
          "name": "",
          "type": "bool"
        }
      ],
      "stateMutability": "view",
      "type": "function"
    },
    {
      "stateMutability": "payable",
      "type": "receive"
    }
  ],
  "bytecode": "0x60e0604052633b9aca0060c09081525060006007553480156200002157600080fd5b506040516200369b3803806200369b8339818101604052810190620000479190620006e5565b60008060006101000a81548160ff02191690831515021790555060016002819055506200007e6000801b336200012260201b60201c565b620000b07f65d7a28e3265b37a6474929f336521b332c1681b933f6cb9f3376673440d862a336200012260201b60201c565b620000e27f241ecf16d79d0f8dbfb92cbc07fe17840425976cf0667f022fe9877caa831b08336200012260201b60201c565b620000f3836200021360201b60201c565b81608081815250508060a081815250506080514262000113919062000770565b60068190555050505062000aec565b6200013482826200028a60201b60201c565b6200020f57600180600084815260200190815260200160002060000160008373ffffffffffffffffffffffffffffffffffffffff1673ffffffffffffffffffffffffffffffffffffffff16815260200190815260200160002060006101000a81548160ff021916908315150217905550620001b4620002f560201b60201c565b73ffffffffffffffffffffffffffffffffffffffff168173ffffffffffffffffffffffffffffffffffffffff16837f2f8788117e7eff1d82e926ec794901d17c78024a50270940304540a733656f0d60405160405180910390a45b5050565b7f241ecf16d79d0f8dbfb92cbc07fe17840425976cf0667f022fe9877caa831b086200024581620002fd60201b60201c565b81600560006101000a81548173ffffffffffffffffffffffffffffffffffffffff021916908373ffffffffffffffffffffffffffffffffffffffff1602179055505050565b60006001600084815260200190815260200160002060000160008373ffffffffffffffffffffffffffffffffffffffff1673ffffffffffffffffffffffffffffffffffffffff16815260200190815260200160002060009054906101000a900460ff16905092915050565b600033905090565b6200031e8162000312620002f560201b60201c565b6200032160201b60201c565b50565b6200033382826200028a60201b60201c565b620003e157620003668173ffffffffffffffffffffffffffffffffffffffff166014620003e560201b620017f11760201c565b620003818360001c6020620003e560201b620017f11760201c565b60405160200162000394929190620008c4565b6040516020818303038152906040526040517f08c379a0000000000000000000000000000000000000000000000000000000008152600401620003d8919062000969565b60405180910390fd5b5050565b606060006002836002620003fa91906200098d565b62000406919062000770565b67ffffffffffffffff811115620004225762000421620009ee565b5b6040519080825280601f01601f191660200182016040528015620004555781602001600182028036833780820191505090505b5090507f30000000000000000000000000000000000000000000000000000000000000008160008151811062000490576200048f62000a1d565b5b60200101907effffffffffffffffffffffffffffffffffffffffffffffffffffffffffffff1916908160001a9053507f780000000000000000000000000000000000000000000000000000000000000081600181518110620004f757620004f662000a1d565b5b60200101907effffffffffffffffffffffffffffffffffffffffffffffffffffffffffffff1916908160001a905350600060018460026200053991906200098d565b62000545919062000770565b90505b6001811115620005ef577f3031323334353637383961626364656600000000000000000000000000000000600f8616601081106200058b576200058a62000a1d565b5b1a60f81b828281518110620005a557620005a462000a1d565b5b60200101907effffffffffffffffffffffffffffffffffffffffffffffffffffffffffffff1916908160001a905350600485901c945080620005e79062000a4c565b905062000548565b506000841462000636576040517f08c379a00000000000000000000000000000000000000000000000000000000081526004016200062d9062000aca565b60405180910390fd5b8091505092915050565b600080fd5b600073ffffffffffffffffffffffffffffffffffffffff82169050919050565b6000620006728262000645565b9050919050565b620006848162000665565b81146200069057600080fd5b50565b600081519050620006a48162000679565b92915050565b6000819050919050565b620006bf81620006aa565b8114620006cb57600080fd5b50565b600081519050620006df81620006b4565b92915050565b60008060006060848603121562000701576200070062000640565b5b6000620007118682870162000693565b93505060206200072486828701620006ce565b92505060406200073786828701620006ce565b9150509250925092565b7f4e487b7100000000000000000000000000000000000000000000000000000000600052601160045260246000fd5b60006200077d82620006aa565b91506200078a83620006aa565b9250828201905080821115620007a557620007a462000741565b5b92915050565b600081905092915050565b7f416363657373436f6e74726f6c3a206163636f756e7420000000000000000000600082015250565b6000620007ee601783620007ab565b9150620007fb82620007b6565b601782019050919050565b600081519050919050565b60005b838110156200083157808201518184015260208101905062000814565b60008484015250505050565b60006200084a8262000806565b620008568185620007ab565b93506200086881856020860162000811565b80840191505092915050565b7f206973206d697373696e6720726f6c6520000000000000000000000000000000600082015250565b6000620008ac601183620007ab565b9150620008b98262000874565b601182019050919050565b6000620008d182620007df565b9150620008df82856200083d565b9150620008ec826200089d565b9150620008fa82846200083d565b91508190509392505050565b600082825260208201905092915050565b6000601f19601f8301169050919050565b6000620009358262000806565b62000941818562000906565b93506200095381856020860162000811565b6200095e8162000917565b840191505092915050565b6000602082019050818103600083015262000985818462000928565b905092915050565b60006200099a82620006aa565b9150620009a783620006aa565b9250817fffffffffffffffffffffffffffffffffffffffffffffffffffffffffffffffff0483118215151615620009e357620009e262000741565b5b828202905092915050565b7f4e487b7100000000000000000000000000000000000000000000000000000000600052604160045260246000fd5b7f4e487b7100000000000000000000000000000000000000000000000000000000600052603260045260246000fd5b600062000a5982620006aa565b91506000820362000a6f5762000a6e62000741565b5b600182039050919050565b7f537472696e67733a20686578206c656e67746820696e73756666696369656e74600082015250565b600062000ab260208362000906565b915062000abf8262000a7a565b602082019050919050565b6000602082019050818103600083015262000ae58162000aa3565b9050919050565b60805160a05160c051612b5562000b466000396000818161081401528181610cd40152611284015260008181610feb01526116c3015260008181610e8501528181610fb90152818161100c01526110680152612b556000f3fe6080604052600436106101a05760003560e01c806385d923ae116100ec578063c8f29b041161008a578063d547741f11610064578063d547741f146105ef578063d9724ffb14610618578063e63ab1e914610655578063ec87621c14610680576101f5565b8063c8f29b041461055c578063ce4843e914610587578063d2414958146105b2576101f5565b806396074e70116100c657806396074e70146104b1578063a128f355146104da578063a217fddf14610505578063be8431f914610530576101f5565b806385d923ae1461042057806391d14854146104495780639426d55514610486576101f5565b80633a6a4d2e11610159578063408a355011610133578063408a3550146103875780635c975abb146103b35780637d1cd04f146103de5780638456cb5914610409576101f5565b80633a6a4d2e1461032e5780633c915af7146103455780633f4ba83a14610370576101f5565b806301567739146101fa57806301ffc9a7146102395780630505a00f14610276578063248a9ca31461029f5780632f2ff15d146102dc57806336568abe14610305576101f5565b366101f5573373ffffffffffffffffffffffffffffffffffffffff167f8e47b87b0ef542cdfa1659c551d88bad38aa7f452d2bbb349ab7530dfec8be8f346040516101eb9190611fa6565b60405180910390a2005b600080fd5b34801561020657600080fd5b50610221600480360381019061021c9190612024565b6106ab565b60405161023093929190612051565b60405180910390f35b34801561024557600080fd5b50610260600480360381019061025b91906120e0565b6106d5565b60405161026d9190612128565b60405180910390f35b34801561028257600080fd5b5061029d6004803603810190610298919061216f565b61074f565b005b3480156102ab57600080fd5b506102c660048036038101906102c191906121e5565b610a3f565b6040516102d39190612221565b60405180910390f35b3480156102e857600080fd5b5061030360048036038101906102fe919061223c565b610a5f565b005b34801561031157600080fd5b5061032c6004803603810190610327919061223c565b610a80565b005b34801561033a57600080fd5b50610343610b03565b005b34801561035157600080fd5b5061035a610f77565b6040516103679190611fa6565b60405180910390f35b34801561037c57600080fd5b50610385610f7d565b005b34801561039357600080fd5b5061039c610fb2565b6040516103aa92919061227c565b60405180910390f35b3480156103bf57600080fd5b506103c8611050565b6040516103d59190612128565b60405180910390f35b3480156103ea57600080fd5b506103f3611066565b6040516104009190611fa6565b60405180910390f35b34801561041557600080fd5b5061041e61108a565b005b34801561042c57600080fd5b5061044760048036038101906104429190612024565b6110bf565b005b34801561045557600080fd5b50610470600480360381019061046b919061223c565b61112e565b60405161047d9190612128565b60405180910390f35b34801561049257600080fd5b5061049b611199565b6040516104a891906122c6565b60405180910390f35b3480156104bd57600080fd5b506104d860048036038101906104d3919061216f565b6111bf565b005b3480156104e657600080fd5b506104ef6114a5565b6040516104fc9190612128565b60405180910390f35b34801561051157600080fd5b5061051a6114f4565b6040516105279190612221565b60405180910390f35b34801561053c57600080fd5b506105456114fb565b60405161055392919061245d565b60405180910390f35b34801561056857600080fd5b506105716116c1565b60405161057e9190611fa6565b60405180910390f35b34801561059357600080fd5b5061059c6116e5565b6040516105a99190611fa6565b60405180910390f35b3480156105be57600080fd5b506105d960048036038101906105d49190612024565b6116eb565b6040516105e69190612128565b60405180910390f35b3480156105fb57600080fd5b506106166004803603810190610611919061223c565b611749565b005b34801561062457600080fd5b5061063f600480360381019061063a9190612494565b61176a565b60405161064c91906124d0565b60405180910390f35b34801561066157600080fd5b5061066a6117a9565b6040516106779190612221565b60405180910390f35b34801561068c57600080fd5b506106956117cd565b6040516106a29190612221565b60405180910390f35b60046020528060005260406000206000915090508060000154908060010154908060020154905083565b60007f7965db0b000000000000000000000000000000000000000000000000000000007bffffffffffffffffffffffffffffffffffffffffffffffffffffffff1916827bffffffffffffffffffffffffffffffffffffffffffffffffffffffff19161480610748575061074782611a2d565b5b9050919050565b610757611a97565b7f241ecf16d79d0f8dbfb92cbc07fe17840425976cf0667f022fe9877caa831b0861078181611ae1565b6107896114a5565b6107bf576040517f9389fad000000000000000000000000000000000000000000000000000000000815260040160405180910390fd5b600082116107f9576040517f1d4227f500000000000000000000000000000000000000000000000000000000815260040160405180910390fd5b600061081083600754611af590919063ffffffff16565b90507f000000000000000000000000000000000000000000000000000000000000000081111561086c576040517f80a4d17800000000000000000000000000000000000000000000000000000000815260040160405180910390fd5b6000600460008673ffffffffffffffffffffffffffffffffffffffff1673ffffffffffffffffffffffffffffffffffffffff16815260200190815260200160002060000154116108e8576040517fc8a988fc00000000000000000000000000000000000000000000000000000000815260040160405180910390fd5b600061093f84600460008873ffffffffffffffffffffffffffffffffffffffff1673ffffffffffffffffffffffffffffffffffffffff16815260200190815260200160002060000154611af590919063ffffffff16565b905080600460008773ffffffffffffffffffffffffffffffffffffffff1673ffffffffffffffffffffffffffffffffffffffff1681526020019081526020016000206000018190555042600460008773ffffffffffffffffffffffffffffffffffffffff1673ffffffffffffffffffffffffffffffffffffffff1681526020019081526020016000206002018190555083600760008282546109e1919061251a565b925050819055508473ffffffffffffffffffffffffffffffffffffffff167ff1b87f4a688417d87b0dd9c0569040438160e0cd40b36d472c0f65069682e9908542604051610a3092919061227c565b60405180910390a25050505050565b600060016000838152602001908152602001600020600101549050919050565b610a6882610a3f565b610a7181611ae1565b610a7b8383611b0b565b505050565b610a88611beb565b73ffffffffffffffffffffffffffffffffffffffff168173ffffffffffffffffffffffffffffffffffffffff1614610af5576040517f08c379a0000000000000000000000000000000000000000000000000000000008152600401610aec906125d1565b60405180910390fd5b610aff8282611bf3565b5050565b610b0b611a97565b6002805403610b4f576040517f08c379a0000000000000000000000000000000000000000000000000000000008152600401610b469061263d565b60405180910390fd5b60028081905550610b5e6114a5565b15610b95576040517f05d27f9800000000000000000000000000000000000000000000000000000000815260040160405180910390fd5b60004790506000808203610bd5576040517f4890cfae00000000000000000000000000000000000000000000000000000000815260040160405180910390fd5b60006003805480602002602001604051908101604052809291908181526020018280548015610c5957602002820191906000526020600020905b8160009054906101000a900473ffffffffffffffffffffffffffffffffffffffff1673ffffffffffffffffffffffffffffffffffffffff1681526020019060010190808311610c0f575b5050505050905060005b8151811015610e6e57600060046000848481518110610c8557610c8461265d565b5b602002602001015173ffffffffffffffffffffffffffffffffffffffff1673ffffffffffffffffffffffffffffffffffffffff1681526020019081526020016000206000015490506000610d147f0000000000000000000000000000000000000000000000000000000000000000610d068489611cd590919063ffffffff16565b611ceb90919063ffffffff16565b90504260046000868681518110610d2e57610d2d61265d565b5b602002602001015173ffffffffffffffffffffffffffffffffffffffff1673ffffffffffffffffffffffffffffffffffffffff168152602001908152602001600020600101819055508085610d83919061251a565b9450610dcd60038481548110610d9c57610d9b61265d565b5b9060005260206000200160009054906101000a900473ffffffffffffffffffffffffffffffffffffffff1682611d01565b60038381548110610de157610de061265d565b5b9060005260206000200160009054906101000a900473ffffffffffffffffffffffffffffffffffffffff1673ffffffffffffffffffffffffffffffffffffffff167f080babe757d4e5c7db3b7bd10606a7bf07a9857f660977ada6ca7a4d329376c88242604051610e5392919061227c565b60405180910390a2505080610e679061268c565b9050610c63565b506000610e79610fb2565b915050804210610ec1577f000000000000000000000000000000000000000000000000000000000000000060066000828254610eb5919061251a565b92505081905550610ecb565b6006546006819055505b610ef7600560009054906101000a900473ffffffffffffffffffffffffffffffffffffffff1647611d01565b600560009054906101000a900473ffffffffffffffffffffffffffffffffffffffff1673ffffffffffffffffffffffffffffffffffffffff167f080babe757d4e5c7db3b7bd10606a7bf07a9857f660977ada6ca7a4d329376c88442604051610f6192919061227c565b60405180910390a2505050506001600281905550565b60065481565b7f65d7a28e3265b37a6474929f336521b332c1681b933f6cb9f3376673440d862a610fa781611ae1565b610faf611de3565b50565b60008060007f0000000000000000000000000000000000000000000000000000000000000000600654610fe5919061251a565b905060007f00000000000000000000000000000000000000000000000000000000000000007f0000000000000000000000000000000000000000000000000000000000000000611035919061251a565b600654611042919061251a565b905081819350935050509091565b60008060009054906101000a900460ff16905090565b7f000000000000000000000000000000000000000000000000000000000000000081565b7f65d7a28e3265b37a6474929f336521b332c1681b933f6cb9f3376673440d862a6110b481611ae1565b6110bc611e45565b50565b7f241ecf16d79d0f8dbfb92cbc07fe17840425976cf0667f022fe9877caa831b086110e981611ae1565b81600560006101000a81548173ffffffffffffffffffffffffffffffffffffffff021916908373ffffffffffffffffffffffffffffffffffffffff1602179055505050565b60006001600084815260200190815260200160002060000160008373ffffffffffffffffffffffffffffffffffffffff1673ffffffffffffffffffffffffffffffffffffffff16815260200190815260200160002060009054906101000a900460ff16905092915050565b600560009054906101000a900473ffffffffffffffffffffffffffffffffffffffff1681565b6111c7611a97565b7f241ecf16d79d0f8dbfb92cbc07fe17840425976cf0667f022fe9877caa831b086111f181611ae1565b6111f96114a5565b61122f576040517f9389fad000000000000000000000000000000000000000000000000000000000815260040160405180910390fd5b60008211611269576040517f1d4227f500000000000000000000000000000000000000000000000000000000815260040160405180910390fd5b600061128083600754611af590919063ffffffff16565b90507f00000000000000000000000000000000000000000000000000000000000000008111156112dc576040517f80a4d17800000000000000000000000000000000000000000000000000000000815260040160405180910390fd5b6000600460008673ffffffffffffffffffffffffffffffffffffffff1673ffffffffffffffffffffffffffffffffffffffff1681526020019081526020016000206000015414611358576040517f2912360200000000000000000000000000000000000000000000000000000000815260040160405180910390fd5b604051806060016040528084815260200142815260200142815250600460008673ffffffffffffffffffffffffffffffffffffffff1673ffffffffffffffffffffffffffffffffffffffff1681526020019081526020016000206000820151816000015560208201518160010155604082015181600201559050506003849080600181540180825580915050600190039060005260206000200160009091909190916101000a81548173ffffffffffffffffffffffffffffffffffffffff021916908373ffffffffffffffffffffffffffffffffffffffff1602179055508260076000828254611448919061251a565b925050819055508373ffffffffffffffffffffffffffffffffffffffff167face1893c759fc46036b7fdd20805d2476c58b2e6d1e56aad3331ee5d2275393e844260405161149792919061227c565b60405180910390a250505050565b60008060006114b2610fb2565b915091508142101580156114c557508042105b156114d5576001925050506114f1565b6006544210156114ea576001925050506114f1565b6000925050505b90565b6000801b81565b60608060038054905067ffffffffffffffff81111561151d5761151c6126d4565b5b60405190808252806020026020018201604052801561154b5781602001602082028036833780820191505090505b50915060038054806020026020016040519081016040528092919081815260200182805480156115d057602002820191906000526020600020905b8160009054906101000a900473ffffffffffffffffffffffffffffffffffffffff1673ffffffffffffffffffffffffffffffffffffffff1681526020019060010190808311611586575b50505050509150815167ffffffffffffffff8111156115f2576115f16126d4565b5b6040519080825280602002602001820160405280156116205781602001602082028036833780820191505090505b50905060005b82518110156116bc57600460008483815181106116465761164561265d565b5b602002602001015173ffffffffffffffffffffffffffffffffffffffff1673ffffffffffffffffffffffffffffffffffffffff1681526020019081526020016000206000015482828151811061169f5761169e61265d565b5b602002602001018181525050806116b59061268c565b9050611626565b509091565b7f000000000000000000000000000000000000000000000000000000000000000081565b60075481565b600080600460008473ffffffffffffffffffffffffffffffffffffffff1673ffffffffffffffffffffffffffffffffffffffff168152602001908152602001600020600001541161173f5760009050611744565b600190505b919050565b61175282610a3f565b61175b81611ae1565b6117658383611bf3565b505050565b6003818154811061177a57600080fd5b906000526020600020016000915054906101000a900473ffffffffffffffffffffffffffffffffffffffff1681565b7f65d7a28e3265b37a6474929f336521b332c1681b933f6cb9f3376673440d862a81565b7f241ecf16d79d0f8dbfb92cbc07fe17840425976cf0667f022fe9877caa831b0881565b6060600060028360026118049190612703565b61180e919061251a565b67ffffffffffffffff811115611827576118266126d4565b5b6040519080825280601f01601f1916602001820160405280156118595781602001600182028036833780820191505090505b5090507f3000000000000000000000000000000000000000000000000000000000000000816000815181106118915761189061265d565b5b60200101907effffffffffffffffffffffffffffffffffffffffffffffffffffffffffffff1916908160001a9053507f7800000000000000000000000000000000000000000000000000000000000000816001815181106118f5576118f461265d565b5b60200101907effffffffffffffffffffffffffffffffffffffffffffffffffffffffffffff1916908160001a905350600060018460026119359190612703565b61193f919061251a565b90505b60018111156119df577f3031323334353637383961626364656600000000000000000000000000000000600f8616601081106119815761198061265d565b5b1a60f81b8282815181106119985761199761265d565b5b60200101907effffffffffffffffffffffffffffffffffffffffffffffffffffffffffffff1916908160001a905350600485901c9450806119d89061275d565b9050611942565b5060008414611a23576040517f08c379a0000000000000000000000000000000000000000000000000000000008152600401611a1a906127d2565b60405180910390fd5b8091505092915050565b60007f01ffc9a7000000000000000000000000000000000000000000000000000000007bffffffffffffffffffffffffffffffffffffffffffffffffffffffff1916827bffffffffffffffffffffffffffffffffffffffffffffffffffffffff1916149050919050565b611a9f611050565b15611adf576040517f08c379a0000000000000000000000000000000000000000000000000000000008152600401611ad69061283e565b60405180910390fd5b565b611af281611aed611beb565b611ea7565b50565b60008183611b03919061251a565b905092915050565b611b15828261112e565b611be757600180600084815260200190815260200160002060000160008373ffffffffffffffffffffffffffffffffffffffff1673ffffffffffffffffffffffffffffffffffffffff16815260200190815260200160002060006101000a81548160ff021916908315150217905550611b8c611beb565b73ffffffffffffffffffffffffffffffffffffffff168173ffffffffffffffffffffffffffffffffffffffff16837f2f8788117e7eff1d82e926ec794901d17c78024a50270940304540a733656f0d60405160405180910390a45b5050565b600033905090565b611bfd828261112e565b15611cd15760006001600084815260200190815260200160002060000160008373ffffffffffffffffffffffffffffffffffffffff1673ffffffffffffffffffffffffffffffffffffffff16815260200190815260200160002060006101000a81548160ff021916908315150217905550611c76611beb565b73ffffffffffffffffffffffffffffffffffffffff168173ffffffffffffffffffffffffffffffffffffffff16837ff6391f5c32d9c69d2a47ea670b442974b53935d1edc7fd64eb21e047a839171b60405160405180910390a45b5050565b60008183611ce39190612703565b905092915050565b60008183611cf9919061288d565b905092915050565b80471015611d3b576040517f4890cfae00000000000000000000000000000000000000000000000000000000815260040160405180910390fd5b60008273ffffffffffffffffffffffffffffffffffffffff1682604051611d61906128ef565b60006040518083038185875af1925050503d8060008114611d9e576040519150601f19603f3d011682016040523d82523d6000602084013e611da3565b606091505b5050905080611dde576040517f41f5ae4500000000000000000000000000000000000000000000000000000000815260040160405180910390fd5b505050565b611deb611f44565b60008060006101000a81548160ff0219169083151502179055507f5db9ee0a495bf2e6ff9c91a7834c1ba4fdd244a5e8aa4e537bd38aeae4b073aa611e2e611beb565b604051611e3b91906124d0565b60405180910390a1565b611e4d611a97565b60016000806101000a81548160ff0219169083151502179055507f62e78cea01bee320cd4e420270b5ea74000d11b0c9f74754ebdbfc544b05a258611e90611beb565b604051611e9d91906124d0565b60405180910390a1565b611eb1828261112e565b611f4057611ed68173ffffffffffffffffffffffffffffffffffffffff1660146117f1565b611ee48360001c60206117f1565b604051602001611ef5929190612a0d565b6040516020818303038152906040526040517f08c379a0000000000000000000000000000000000000000000000000000000008152600401611f379190612a91565b60405180910390fd5b5050565b611f4c611050565b611f8b576040517f08c379a0000000000000000000000000000000000000000000000000000000008152600401611f8290612aff565b60405180910390fd5b565b6000819050919050565b611fa081611f8d565b82525050565b6000602082019050611fbb6000830184611f97565b92915050565b600080fd5b600073ffffffffffffffffffffffffffffffffffffffff82169050919050565b6000611ff182611fc6565b9050919050565b61200181611fe6565b811461200c57600080fd5b50565b60008135905061201e81611ff8565b92915050565b60006020828403121561203a57612039611fc1565b5b60006120488482850161200f565b91505092915050565b60006060820190506120666000830186611f97565b6120736020830185611f97565b6120806040830184611f97565b949350505050565b60007fffffffff0000000000000000000000000000000000000000000000000000000082169050919050565b6120bd81612088565b81146120c857600080fd5b50565b6000813590506120da816120b4565b92915050565b6000602082840312156120f6576120f5611fc1565b5b6000612104848285016120cb565b91505092915050565b60008115159050919050565b6121228161210d565b82525050565b600060208201905061213d6000830184612119565b92915050565b61214c81611f8d565b811461215757600080fd5b50565b60008135905061216981612143565b92915050565b6000806040838503121561218657612185611fc1565b5b60006121948582860161200f565b92505060206121a58582860161215a565b9150509250929050565b6000819050919050565b6121c2816121af565b81146121cd57600080fd5b50565b6000813590506121df816121b9565b92915050565b6000602082840312156121fb576121fa611fc1565b5b6000612209848285016121d0565b91505092915050565b61221b816121af565b82525050565b60006020820190506122366000830184612212565b92915050565b6000806040838503121561225357612252611fc1565b5b6000612261858286016121d0565b92505060206122728582860161200f565b9150509250929050565b60006040820190506122916000830185611f97565b61229e6020830184611f97565b9392505050565b60006122b082611fc6565b9050919050565b6122c0816122a5565b82525050565b60006020820190506122db60008301846122b7565b92915050565b600081519050919050565b600082825260208201905092915050565b6000819050602082019050919050565b61231681611fe6565b82525050565b6000612328838361230d565b60208301905092915050565b6000602082019050919050565b600061234c826122e1565b61235681856122ec565b9350612361836122fd565b8060005b83811015612392578151612379888261231c565b975061238483612334565b925050600181019050612365565b5085935050505092915050565b600081519050919050565b600082825260208201905092915050565b6000819050602082019050919050565b6123d481611f8d565b82525050565b60006123e683836123cb565b60208301905092915050565b6000602082019050919050565b600061240a8261239f565b61241481856123aa565b935061241f836123bb565b8060005b8381101561245057815161243788826123da565b9750612442836123f2565b925050600181019050612423565b5085935050505092915050565b600060408201905081810360008301526124778185612341565b9050818103602083015261248b81846123ff565b90509392505050565b6000602082840312156124aa576124a9611fc1565b5b60006124b88482850161215a565b91505092915050565b6124ca81611fe6565b82525050565b60006020820190506124e560008301846124c1565b92915050565b7f4e487b7100000000000000000000000000000000000000000000000000000000600052601160045260246000fd5b600061252582611f8d565b915061253083611f8d565b9250828201905080821115612548576125476124eb565b5b92915050565b600082825260208201905092915050565b7f416363657373436f6e74726f6c3a2063616e206f6e6c792072656e6f756e636560008201527f20726f6c657320666f722073656c660000000000000000000000000000000000602082015250565b60006125bb602f8361254e565b91506125c68261255f565b604082019050919050565b600060208201905081810360008301526125ea816125ae565b9050919050565b7f5265656e7472616e637947756172643a207265656e7472616e742063616c6c00600082015250565b6000612627601f8361254e565b9150612632826125f1565b602082019050919050565b600060208201905081810360008301526126568161261a565b9050919050565b7f4e487b7100000000000000000000000000000000000000000000000000000000600052603260045260246000fd5b600061269782611f8d565b91507fffffffffffffffffffffffffffffffffffffffffffffffffffffffffffffffff82036126c9576126c86124eb565b5b600182019050919050565b7f4e487b7100000000000000000000000000000000000000000000000000000000600052604160045260246000fd5b600061270e82611f8d565b915061271983611f8d565b9250817fffffffffffffffffffffffffffffffffffffffffffffffffffffffffffffffff0483118215151615612752576127516124eb565b5b828202905092915050565b600061276882611f8d565b91506000820361277b5761277a6124eb565b5b600182039050919050565b7f537472696e67733a20686578206c656e67746820696e73756666696369656e74600082015250565b60006127bc60208361254e565b91506127c782612786565b602082019050919050565b600060208201905081810360008301526127eb816127af565b9050919050565b7f5061757361626c653a2070617573656400000000000000000000000000000000600082015250565b600061282860108361254e565b9150612833826127f2565b602082019050919050565b600060208201905081810360008301526128578161281b565b9050919050565b7f4e487b7100000000000000000000000000000000000000000000000000000000600052601260045260246000fd5b600061289882611f8d565b91506128a383611f8d565b9250826128b3576128b261285e565b5b828204905092915050565b600081905092915050565b50565b60006128d96000836128be565b91506128e4826128c9565b600082019050919050565b60006128fa826128cc565b9150819050919050565b600081905092915050565b7f416363657373436f6e74726f6c3a206163636f756e7420000000000000000000600082015250565b6000612945601783612904565b91506129508261290f565b601782019050919050565b600081519050919050565b60005b83811015612984578082015181840152602081019050612969565b60008484015250505050565b600061299b8261295b565b6129a58185612904565b93506129b5818560208601612966565b80840191505092915050565b7f206973206d697373696e6720726f6c6520000000000000000000000000000000600082015250565b60006129f7601183612904565b9150612a02826129c1565b601182019050919050565b6000612a1882612938565b9150612a248285612990565b9150612a2f826129ea565b9150612a3b8284612990565b91508190509392505050565b6000601f19601f8301169050919050565b6000612a638261295b565b612a6d818561254e565b9350612a7d818560208601612966565b612a8681612a47565b840191505092915050565b60006020820190508181036000830152612aab8184612a58565b905092915050565b7f5061757361626c653a206e6f7420706175736564000000000000000000000000600082015250565b6000612ae960148361254e565b9150612af482612ab3565b602082019050919050565b60006020820190508181036000830152612b1881612adc565b905091905056fea264697066735822122087a935c148a95399a4ae037a7fc492f0b96f8c9137e4473ad3858b180bf27e9364736f6c63430008100033",
  "linkReferences": {},
  "deployedLinkReferences": {}
}