{
  "_format": "hh-sol-artifact-1",
  "contractName": "StakeManager",
  "sourceName": "contracts/StakeManager.sol",
  "abi": [
    {
      "inputs": [
        {
          "internalType": "address",
          "name": "_companyTreasury",
          "type": "address"
        },
        {
          "internalType": "uint256",
          "name": "_interval",
          "type": "uint256"
        },
        {
          "internalType": "uint256",
          "name": "_window",
          "type": "uint256"
        }
      ],
      "stateMutability": "nonpayable",
      "type": "constructor"
    },
    {
      "inputs": [],
      "name": "StakeManager__ContractUpdateWindowIsNotOpen",
      "type": "error"
    },
    {
      "inputs": [],
      "name": "StakeManager__ContractUpdateWindowIsOpen",
      "type": "error"
    },
    {
      "inputs": [],
      "name": "StakeManager__InsufficientBalance",
      "type": "error"
    },
    {
      "inputs": [],
      "name": "StakeManager__StakeHolderAlreadyExists",
      "type": "error"
    },
    {
      "inputs": [],
      "name": "StakeManager__StakeHolderDoesNotExist",
      "type": "error"
    },
    {
      "inputs": [],
      "name": "StakeManager__StakeIsZero",
      "type": "error"
    },
    {
      "inputs": [],
      "name": "StakeManager__StakeLimitExceeded",
      "type": "error"
    },
    {
      "inputs": [],
      "name": "StakeManager__TransactionFailed",
      "type": "error"
    },
    {
      "anonymous": false,
      "inputs": [
        {
          "indexed": true,
          "internalType": "address",
          "name": "holder",
          "type": "address"
        },
        {
          "indexed": false,
          "internalType": "uint256",
          "name": "equityTokens",
          "type": "uint256"
        },
        {
          "indexed": false,
          "internalType": "uint256",
          "name": "timeAdded",
          "type": "uint256"
        }
      ],
      "name": "BeneficiariesAdded",
      "type": "event"
    },
    {
      "anonymous": false,
      "inputs": [
        {
          "indexed": true,
          "internalType": "address",
          "name": "holder",
          "type": "address"
        },
        {
          "indexed": false,
          "internalType": "uint256",
          "name": "equityTokens",
          "type": "uint256"
        },
        {
          "indexed": false,
          "internalType": "uint256",
          "name": "timeAdded",
          "type": "uint256"
        }
      ],
      "name": "BeneficiaryStakeIncreased",
      "type": "event"
    },
    {
      "anonymous": false,
      "inputs": [
        {
          "indexed": true,
          "internalType": "address",
          "name": "beneficiary",
          "type": "address"
        },
        {
          "indexed": false,
          "internalType": "uint256",
          "name": "amount",
          "type": "uint256"
        },
        {
          "indexed": false,
          "internalType": "uint256",
          "name": "time_distributed",
          "type": "uint256"
        }
      ],
      "name": "FundsDistributed",
      "type": "event"
    },
    {
      "anonymous": false,
      "inputs": [
        {
          "indexed": true,
          "internalType": "address",
          "name": "addr",
          "type": "address"
        },
        {
          "indexed": false,
          "internalType": "uint256",
          "name": "amount",
          "type": "uint256"
        }
      ],
      "name": "FundsReceived",
      "type": "event"
    },
    {
      "anonymous": false,
      "inputs": [
        {
          "indexed": false,
          "internalType": "address",
          "name": "account",
          "type": "address"
        }
      ],
      "name": "Paused",
      "type": "event"
    },
    {
      "anonymous": false,
      "inputs": [
        {
          "indexed": true,
          "internalType": "bytes32",
          "name": "role",
          "type": "bytes32"
        },
        {
          "indexed": true,
          "internalType": "bytes32",
          "name": "previousAdminRole",
          "type": "bytes32"
        },
        {
          "indexed": true,
          "internalType": "bytes32",
          "name": "newAdminRole",
          "type": "bytes32"
        }
      ],
      "name": "RoleAdminChanged",
      "type": "event"
    },
    {
      "anonymous": false,
      "inputs": [
        {
          "indexed": true,
          "internalType": "bytes32",
          "name": "role",
          "type": "bytes32"
        },
        {
          "indexed": true,
          "internalType": "address",
          "name": "account",
          "type": "address"
        },
        {
          "indexed": true,
          "internalType": "address",
          "name": "sender",
          "type": "address"
        }
      ],
      "name": "RoleGranted",
      "type": "event"
    },
    {
      "anonymous": false,
      "inputs": [
        {
          "indexed": true,
          "internalType": "bytes32",
          "name": "role",
          "type": "bytes32"
        },
        {
          "indexed": true,
          "internalType": "address",
          "name": "account",
          "type": "address"
        },
        {
          "indexed": true,
          "internalType": "address",
          "name": "sender",
          "type": "address"
        }
      ],
      "name": "RoleRevoked",
      "type": "event"
    },
    {
      "anonymous": false,
      "inputs": [
        {
          "indexed": false,
          "internalType": "address",
          "name": "account",
          "type": "address"
        }
      ],
      "name": "Unpaused",
      "type": "event"
    },
    {
      "inputs": [],
      "name": "DEFAULT_ADMIN_ROLE",
      "outputs": [
        {
          "internalType": "bytes32",
          "name": "",
          "type": "bytes32"
        }
      ],
      "stateMutability": "view",
      "type": "function"
    },
    {
      "inputs": [],
      "name": "MANAGER_ROLE",
      "outputs": [
        {
          "internalType": "bytes32",
          "name": "",
          "type": "bytes32"
        }
      ],
      "stateMutability": "view",
      "type": "function"
    },
    {
      "inputs": [],
      "name": "PAUSER_ROLE",
      "outputs": [
        {
          "internalType": "bytes32",
          "name": "",
          "type": "bytes32"
        }
      ],
      "stateMutability": "view",
      "type": "function"
    },
    {
      "inputs": [
        {
          "internalType": "address",
          "name": "_holder",
          "type": "address"
        },
        {
          "internalType": "uint256",
          "name": "_initialStake",
          "type": "uint256"
        }
      ],
      "name": "addBeneficiary",
      "outputs": [],
      "stateMutability": "nonpayable",
      "type": "function"
    },
    {
      "inputs": [
        {
          "internalType": "address",
          "name": "",
          "type": "address"
        }
      ],
      "name": "beneficiaries",
      "outputs": [
        {
          "internalType": "uint256",
          "name": "equityTokens",
          "type": "uint256"
        },
        {
          "internalType": "uint256",
          "name": "fundsLastReceived",
          "type": "uint256"
        },
        {
          "internalType": "uint256",
          "name": "equityLastUpdated",
          "type": "uint256"
        }
      ],
      "stateMutability": "view",
      "type": "function"
    },
    {
      "inputs": [
        {
          "internalType": "uint256",
          "name": "",
          "type": "uint256"
        }
      ],
      "name": "beneficiariesAddresses",
      "outputs": [
        {
          "internalType": "address",
          "name": "",
          "type": "address"
        }
      ],
      "stateMutability": "view",
      "type": "function"
    },
    {
      "inputs": [],
      "name": "companyTreasuryAddress",
      "outputs": [
        {
          "internalType": "address payable",
          "name": "",
          "type": "address"
        }
      ],
      "stateMutability": "view",
      "type": "function"
    },
    {
      "inputs": [],
      "name": "currentTotalStake",
      "outputs": [
        {
          "internalType": "uint256",
          "name": "",
          "type": "uint256"
        }
      ],
      "stateMutability": "view",
      "type": "function"
    },
    {
      "inputs": [],
      "name": "distributeFunds",
      "outputs": [],
      "stateMutability": "nonpayable",
      "type": "function"
    },
    {
      "inputs": [],
      "name": "getBeneficiariesAddresses",
      "outputs": [
        {
          "internalType": "address[]",
          "name": "_holders",
          "type": "address[]"
        },
        {
          "internalType": "uint256[]",
          "name": "_equityTokens",
          "type": "uint256[]"
        }
      ],
      "stateMutability": "view",
      "type": "function"
    },
    {
      "inputs": [
        {
          "internalType": "bytes32",
          "name": "role",
          "type": "bytes32"
        }
      ],
      "name": "getRoleAdmin",
      "outputs": [
        {
          "internalType": "bytes32",
          "name": "",
          "type": "bytes32"
        }
      ],
      "stateMutability": "view",
      "type": "function"
    },
    {
      "inputs": [],
      "name": "getUpdateWindow",
      "outputs": [
        {
          "internalType": "uint256",
          "name": "",
          "type": "uint256"
        },
        {
          "internalType": "uint256",
          "name": "",
          "type": "uint256"
        }
      ],
      "stateMutability": "view",
      "type": "function"
    },
    {
      "inputs": [
        {
          "internalType": "bytes32",
          "name": "role",
          "type": "bytes32"
        },
        {
          "internalType": "address",
          "name": "account",
          "type": "address"
        }
      ],
      "name": "grantRole",
      "outputs": [],
      "stateMutability": "nonpayable",
      "type": "function"
    },
    {
      "inputs": [
        {
          "internalType": "bytes32",
          "name": "role",
          "type": "bytes32"
        },
        {
          "internalType": "address",
          "name": "account",
          "type": "address"
        }
      ],
      "name": "hasRole",
      "outputs": [
        {
          "internalType": "bool",
          "name": "",
          "type": "bool"
        }
      ],
      "stateMutability": "view",
      "type": "function"
    },
    {
      "inputs": [],
      "name": "intervalSeconds",
      "outputs": [
        {
          "internalType": "uint256",
          "name": "",
          "type": "uint256"
        }
      ],
      "stateMutability": "view",
      "type": "function"
    },
    {
      "inputs": [
        {
          "internalType": "address",
          "name": "_holder",
          "type": "address"
        }
      ],
      "name": "isABeneficiary",
      "outputs": [
        {
          "internalType": "bool",
          "name": "",
          "type": "bool"
        }
      ],
      "stateMutability": "view",
      "type": "function"
    },
    {
      "inputs": [],
      "name": "lastEndOfIntervalTimestamp",
      "outputs": [
        {
          "internalType": "uint256",
          "name": "",
          "type": "uint256"
        }
      ],
      "stateMutability": "view",
      "type": "function"
    },
    {
      "inputs": [],
      "name": "pause",
      "outputs": [],
      "stateMutability": "nonpayable",
      "type": "function"
    },
    {
      "inputs": [],
      "name": "paused",
      "outputs": [
        {
          "internalType": "bool",
          "name": "",
          "type": "bool"
        }
      ],
      "stateMutability": "view",
      "type": "function"
    },
    {
      "inputs": [
        {
          "internalType": "bytes32",
          "name": "role",
          "type": "bytes32"
        },
        {
          "internalType": "address",
          "name": "account",
          "type": "address"
        }
      ],
      "name": "renounceRole",
      "outputs": [],
      "stateMutability": "nonpayable",
      "type": "function"
    },
    {
      "inputs": [
        {
          "internalType": "bytes32",
          "name": "role",
          "type": "bytes32"
        },
        {
          "internalType": "address",
          "name": "account",
          "type": "address"
        }
      ],
      "name": "revokeRole",
      "outputs": [],
      "stateMutability": "nonpayable",
      "type": "function"
    },
    {
      "inputs": [
        {
          "internalType": "address",
          "name": "fund",
          "type": "address"
        }
      ],
      "name": "setCompanyTreasuryAddress",
      "outputs": [],
      "stateMutability": "nonpayable",
      "type": "function"
    },
    {
      "inputs": [
        {
          "internalType": "bytes4",
          "name": "interfaceId",
          "type": "bytes4"
        }
      ],
      "name": "supportsInterface",
      "outputs": [
        {
          "internalType": "bool",
          "name": "",
          "type": "bool"
        }
      ],
      "stateMutability": "view",
      "type": "function"
    },
    {
      "inputs": [],
      "name": "unpause",
      "outputs": [],
      "stateMutability": "nonpayable",
      "type": "function"
    },
    {
      "inputs": [
        {
          "internalType": "address",
          "name": "_holder",
          "type": "address"
        },
        {
          "internalType": "uint256",
          "name": "_stakeIncrease",
          "type": "uint256"
        }
      ],
      "name": "updateBeneficiariesStake",
      "outputs": [],
      "stateMutability": "nonpayable",
      "type": "function"
    },
    {
      "inputs": [],
      "name": "updateWindowSeconds",
      "outputs": [
        {
          "internalType": "uint256",
          "name": "",
          "type": "uint256"
        }
      ],
      "stateMutability": "view",
      "type": "function"
    },
    {
      "inputs": [],
      "name": "withinUpdateWindow",
      "outputs": [
        {
          "internalType": "bool",
          "name": "",
          "type": "bool"
        }
      ],
      "stateMutability": "view",
      "type": "function"
    },
    {
      "stateMutability": "payable",
      "type": "receive"
    }
  ],
  "bytecode": "0x60e0604052633b9aca0060c09081525060006007553480156200002157600080fd5b50604051620057b6380380620057b6833981810160405281019062000047919062000a80565b60008060006101000a81548160ff02191690831515021790555060016002819055506200009d7ff182493db94e5653be3a2ffbb02fda67e9578c6e0e6aa3835173062875fcf3f160001b6200041e60201b60201c565b620000d17f2a771f2a1f972bf0dcb56d91b7287bfa4d5136688af905f961486b0049083cfd60001b6200041e60201b60201c565b620001057f60a8e4eeec738dd182f503d9166df0772d727beab4fe44c3cb801113b1830edb60001b6200041e60201b60201c565b6200011a6000801b336200042160201b60201c565b6200014e7f69a8c14090578493fc57bbf4e1b157c7c6d6ef1ddfbba1e8799a17b1f75ebbbe60001b6200041e60201b60201c565b620001827f5d3156010b0aa041e50c216b597d3b204ee63f284e20b412906f918c366c81be60001b6200041e60201b60201c565b620001b47f65d7a28e3265b37a6474929f336521b332c1681b933f6cb9f3376673440d862a336200042160201b60201c565b620001e87f94ed3334f5b3e19e87ee096c3e852228f55ade5b254a35593649b8d5204c289b60001b6200041e60201b60201c565b6200021c7fe4758eccc0aeab8597c42693fab131e81e2485f5cd0f0de929681d905bc3052760001b6200041e60201b60201c565b6200024e7f241ecf16d79d0f8dbfb92cbc07fe17840425976cf0667f022fe9877caa831b08336200042160201b60201c565b620002827f4c38067925a977f371f0c24469da966461ca89d07b76060ee37be4ae03c27d3c60001b6200041e60201b60201c565b620002b67fa3116f5e2e251ba5ab54a68d88b905edafabbcf527df9750396b901f8ede094760001b6200041e60201b60201c565b620002c7836200051260201b60201c565b620002fb7ff5e7551568c86059120a23ffc95f17b03604fd9ac55a44e5d7cb2409d4eaab6360001b6200041e60201b60201c565b6200032f7f7e6767e6d1fac8994ec49fa2636ba2fdf0feec7c216f305c99815cb1a03ae23560001b6200041e60201b60201c565b81608081815250506200036b7f573a565c96959a3e4528c13a04414d4dca86e44215396b4ad09d129f79b1456660001b6200041e60201b60201c565b6200039f7fe275632292a9e2f62d075700d2a1f3f858dc5521e02088400797c53e0cee607260001b6200041e60201b60201c565b8060a08181525050620003da7ee1cba2189c5d6bb46f328c654ea63cf75a9f5af47515831f54da0ce699fe8c60001b6200041e60201b60201c565b6200040e7fd94706aec6f987c449f7b1c40aaf414ae544a4abf2da51ee1ca4b954525bb94460001b6200041e60201b60201c565b4260068190555050505062000e87565b50565b6200043382826200062560201b60201c565b6200050e57600180600084815260200190815260200160002060000160008373ffffffffffffffffffffffffffffffffffffffff1673ffffffffffffffffffffffffffffffffffffffff16815260200190815260200160002060006101000a81548160ff021916908315150217905550620004b36200069060201b60201c565b73ffffffffffffffffffffffffffffffffffffffff168173ffffffffffffffffffffffffffffffffffffffff16837f2f8788117e7eff1d82e926ec794901d17c78024a50270940304540a733656f0d60405160405180910390a45b5050565b7f241ecf16d79d0f8dbfb92cbc07fe17840425976cf0667f022fe9877caa831b0862000544816200069860201b60201c565b620005787fa6fd0f9729002ce705e63217fcd3109fa687e688c6d647b956aef111d600478c60001b6200041e60201b60201c565b620005ac7f5df2a55776ab327fbe1590f6778ca126c8b91f2d49a19d1a6ae75ccd6039e1a060001b6200041e60201b60201c565b620005e07f8fc78b6d604111772ecd41f2bd6b2bcd7d56e21b64447a038bc488d9ea6c6beb60001b6200041e60201b60201c565b81600560006101000a81548173ffffffffffffffffffffffffffffffffffffffff021916908373ffffffffffffffffffffffffffffffffffffffff1602179055505050565b60006001600084815260200190815260200160002060000160008373ffffffffffffffffffffffffffffffffffffffff1673ffffffffffffffffffffffffffffffffffffffff16815260200190815260200160002060009054906101000a900460ff16905092915050565b600033905090565b620006b981620006ad6200069060201b60201c565b620006bc60201b60201c565b50565b620006ce82826200062560201b60201c565b6200077c57620007018173ffffffffffffffffffffffffffffffffffffffff1660146200078060201b620033351760201c565b6200071c8360001c60206200078060201b620033351760201c565b6040516020016200072f92919062000bf5565b6040516020818303038152906040526040517f08c379a000000000000000000000000000000000000000000000000000000000815260040162000773919062000c9a565b60405180910390fd5b5050565b60606000600283600262000795919062000ced565b620007a1919062000d4e565b67ffffffffffffffff811115620007bd57620007bc62000d89565b5b6040519080825280601f01601f191660200182016040528015620007f05781602001600182028036833780820191505090505b5090507f3000000000000000000000000000000000000000000000000000000000000000816000815181106200082b576200082a62000db8565b5b60200101907effffffffffffffffffffffffffffffffffffffffffffffffffffffffffffff1916908160001a9053507f78000000000000000000000000000000000000000000000000000000000000008160018151811062000892576200089162000db8565b5b60200101907effffffffffffffffffffffffffffffffffffffffffffffffffffffffffffff1916908160001a90535060006001846002620008d4919062000ced565b620008e0919062000d4e565b90505b60018111156200098a577f3031323334353637383961626364656600000000000000000000000000000000600f86166010811062000926576200092562000db8565b5b1a60f81b82828151811062000940576200093f62000db8565b5b60200101907effffffffffffffffffffffffffffffffffffffffffffffffffffffffffffff1916908160001a905350600485901c945080620009829062000de7565b9050620008e3565b5060008414620009d1576040517f08c379a0000000000000000000000000000000000000000000000000000000008152600401620009c89062000e65565b60405180910390fd5b8091505092915050565b600080fd5b600073ffffffffffffffffffffffffffffffffffffffff82169050919050565b600062000a0d82620009e0565b9050919050565b62000a1f8162000a00565b811462000a2b57600080fd5b50565b60008151905062000a3f8162000a14565b92915050565b6000819050919050565b62000a5a8162000a45565b811462000a6657600080fd5b50565b60008151905062000a7a8162000a4f565b92915050565b60008060006060848603121562000a9c5762000a9b620009db565b5b600062000aac8682870162000a2e565b935050602062000abf8682870162000a69565b925050604062000ad28682870162000a69565b9150509250925092565b600081905092915050565b7f416363657373436f6e74726f6c3a206163636f756e7420000000000000000000600082015250565b600062000b1f60178362000adc565b915062000b2c8262000ae7565b601782019050919050565b600081519050919050565b60005b8381101562000b6257808201518184015260208101905062000b45565b60008484015250505050565b600062000b7b8262000b37565b62000b87818562000adc565b935062000b9981856020860162000b42565b80840191505092915050565b7f206973206d697373696e6720726f6c6520000000000000000000000000000000600082015250565b600062000bdd60118362000adc565b915062000bea8262000ba5565b601182019050919050565b600062000c028262000b10565b915062000c10828562000b6e565b915062000c1d8262000bce565b915062000c2b828462000b6e565b91508190509392505050565b600082825260208201905092915050565b6000601f19601f8301169050919050565b600062000c668262000b37565b62000c72818562000c37565b935062000c8481856020860162000b42565b62000c8f8162000c48565b840191505092915050565b6000602082019050818103600083015262000cb6818462000c59565b905092915050565b7f4e487b7100000000000000000000000000000000000000000000000000000000600052601160045260246000fd5b600062000cfa8262000a45565b915062000d078362000a45565b9250817fffffffffffffffffffffffffffffffffffffffffffffffffffffffffffffffff048311821515161562000d435762000d4262000cbe565b5b828202905092915050565b600062000d5b8262000a45565b915062000d688362000a45565b925082820190508082111562000d835762000d8262000cbe565b5b92915050565b7f4e487b7100000000000000000000000000000000000000000000000000000000600052604160045260246000fd5b7f4e487b7100000000000000000000000000000000000000000000000000000000600052603260045260246000fd5b600062000df48262000a45565b91506000820362000e0a5762000e0962000cbe565b5b600182039050919050565b7f537472696e67733a20686578206c656e67746820696e73756666696369656e74600082015250565b600062000e4d60208362000c37565b915062000e5a8262000e15565b602082019050919050565b6000602082019050818103600083015262000e808162000e3e565b9050919050565b60805160a05160c0516148d562000ee160003960008181610ad7015281816116a40152612570015260008181611ee3015261307a015260008181611ae901528181611e5901528181611f040152611fb801526148d56000f3fe6080604052600436106101a05760003560e01c806385d923ae116100ec578063c8f29b041161008a578063d547741f11610064578063d547741f1461061b578063d9724ffb14610644578063e63ab1e914610681578063ec87621c146106ac57610221565b8063c8f29b0414610588578063ce4843e9146105b3578063d2414958146105de57610221565b806396074e70116100c657806396074e70146104dd578063a128f35514610506578063a217fddf14610531578063be8431f91461055c57610221565b806385d923ae1461044c57806391d14854146104755780639426d555146104b257610221565b80633a6a4d2e11610159578063408a355011610133578063408a3550146103b35780635c975abb146103df5780637d1cd04f1461040a5780638456cb591461043557610221565b80633a6a4d2e1461035a5780633c915af7146103715780633f4ba83a1461039c57610221565b8063015677391461022657806301ffc9a7146102655780630505a00f146102a2578063248a9ca3146102cb5780632f2ff15d1461030857806336568abe1461033157610221565b36610221576101d17f4540d8bae389d309ade9c3688b9d016a34934fd862753aa16b2ef0bbd7b79da060001b6106d7565b3373ffffffffffffffffffffffffffffffffffffffff167f8e47b87b0ef542cdfa1659c551d88bad38aa7f452d2bbb349ab7530dfec8be8f346040516102179190613d26565b60405180910390a2005b600080fd5b34801561023257600080fd5b5061024d60048036038101906102489190613da4565b6106da565b60405161025c93929190613dd1565b60405180910390f35b34801561027157600080fd5b5061028c60048036038101906102879190613e60565b610704565b6040516102999190613ea8565b60405180910390f35b3480156102ae57600080fd5b506102c960048036038101906102c49190613eef565b61077e565b005b3480156102d757600080fd5b506102f260048036038101906102ed9190613f65565b61101a565b6040516102ff9190613fa1565b60405180910390f35b34801561031457600080fd5b5061032f600480360381019061032a9190613fbc565b61103a565b005b34801561033d57600080fd5b5061035860048036038101906103539190613fbc565b61105b565b005b34801561036657600080fd5b5061036f6110de565b005b34801561037d57600080fd5b50610386611d0f565b6040516103939190613d26565b60405180910390f35b3480156103a857600080fd5b506103b1611d15565b005b3480156103bf57600080fd5b506103c8611dce565b6040516103d6929190613ffc565b60405180910390f35b3480156103eb57600080fd5b506103f4611fa0565b6040516104019190613ea8565b60405180910390f35b34801561041657600080fd5b5061041f611fb6565b60405161042c9190613d26565b60405180910390f35b34801561044157600080fd5b5061044a611fda565b005b34801561045857600080fd5b50610473600480360381019061046e9190613da4565b612093565b005b34801561048157600080fd5b5061049c60048036038101906104979190613fbc565b612186565b6040516104a99190613ea8565b60405180910390f35b3480156104be57600080fd5b506104c76121f1565b6040516104d49190614046565b60405180910390f35b3480156104e957600080fd5b5061050460048036038101906104ff9190613eef565b612217565b005b34801561051257600080fd5b5061051b612a51565b6040516105289190613ea8565b60405180910390f35b34801561053d57600080fd5b50610546612c6f565b6040516105539190613fa1565b60405180910390f35b34801561056857600080fd5b50610571612c76565b60405161057f9291906141dd565b60405180910390f35b34801561059457600080fd5b5061059d613078565b6040516105aa9190613d26565b60405180910390f35b3480156105bf57600080fd5b506105c861309c565b6040516105d59190613d26565b60405180910390f35b3480156105ea57600080fd5b5061060560048036038101906106009190613da4565b6130a2565b6040516106129190613ea8565b60405180910390f35b34801561062757600080fd5b50610642600480360381019061063d9190613fbc565b61328d565b005b34801561065057600080fd5b5061066b60048036038101906106669190614214565b6132ae565b6040516106789190614250565b60405180910390f35b34801561068d57600080fd5b506106966132ed565b6040516106a39190613fa1565b60405180910390f35b3480156106b857600080fd5b506106c1613311565b6040516106ce9190613fa1565b60405180910390f35b50565b60046020528060005260406000206000915090508060000154908060010154908060020154905083565b60007f7965db0b000000000000000000000000000000000000000000000000000000007bffffffffffffffffffffffffffffffffffffffffffffffffffffffff1916827bffffffffffffffffffffffffffffffffffffffffffffffffffffffff19161480610777575061077682613571565b5b9050919050565b6107866135db565b7f241ecf16d79d0f8dbfb92cbc07fe17840425976cf0667f022fe9877caa831b086107b081613625565b6107dc7fa862ea444d827995698c8fb7a17c618de368e62f2cf83836a035fc8f1e6acf9a60001b6106d7565b6108087fca580661de4ab28d4bb70b0500927aa19217997720cdfbf73b44d61b93677ec860001b6106d7565b6108347f0c0e68b8971ee97d89e35a53c0ab68bfb92a0adeaca0504db2d73e2e9e691eb960001b6106d7565b61083c612a51565b6108ca5761086c7f4d119d81d5e32cf5b00659924021368c06a5a143e49f9b3accfa865019c9acdb60001b6106d7565b6108987f7a9328c8cfa8d5a490c772bae7b0e31a5bf91b741dc272e54379707a96d3625460001b6106d7565b6040517f9389fad000000000000000000000000000000000000000000000000000000000815260040160405180910390fd5b6108f67f30142fb03f53b37adc115d480e34c5f6d08b269931dda8b1b87a639fd390dd8460001b6106d7565b6109227f020310a74746d54a2f84e2e544daaea7674ad70c66e011125733709d5f0505e160001b6106d7565b61094e7f3b4461bc67d455f0fcd62407213c97fcf563b4d4968fd4400a88ace2a6299f8e60001b6106d7565b600082116109e0576109827f0324ae18ec0878ea15b471b74bad14b040131b8a87134c1524b86b70b26f0de960001b6106d7565b6109ae7f534978e5ff2388beca36ee2bb0dcf60895596e73e6fa48ce11f429fef6794d5660001b6106d7565b6040517f1d4227f500000000000000000000000000000000000000000000000000000000815260040160405180910390fd5b610a0c7f6d314e3fca31a5a988c12ea167dd9cd05f93dabe2e0c8be40fbbd5c4f765773e60001b6106d7565b610a387ff9b6bdc1f03ce4e57c9c74ed727f3eedaf74e72a35104385c8a996cf7ad6d9a460001b6106d7565b610a647fa5c7a43eea3ccbec6beaf073a0afab591a00933a64c96c4fd1336bd642ea9d8560001b6106d7565b6000610a7b8360075461363990919063ffffffff16565b9050610aa97fa2eee087abfb748156727f2a53003a37fcbd3fbaf9b8a8b79f62bdd360f7d25c60001b6106d7565b610ad57f5415cfea7ebf834f5dbccc95170f0960eed93dbdea6a816f31c2d468d6336fed60001b6106d7565b7f0000000000000000000000000000000000000000000000000000000000000000811115610b8757610b297fdeb08287ccf32662977792d77dc6dc7437ff64eb5466056a0ccfe230d256579a60001b6106d7565b610b557f37c45c003d7721499c0c693068f83b5cc751a4fde6ca7e8008a9b5ecc8169c5960001b6106d7565b6040517f80a4d17800000000000000000000000000000000000000000000000000000000815260040160405180910390fd5b610bb37fa2752f8ce38bc778a9a5548c1eb070f67ee2f581262eeca46bc98ac27c7a4fd960001b6106d7565b610bdf7f6a5038d4baf8548fe30ce41dfad3778f0b7b4d777804422d8176a810cdfec67560001b6106d7565b610c0b7f874a24e5f717ddd99a9adbd1af5c5da3bc63a96b5c669179d46dfc279ae0050160001b6106d7565b6000600460008673ffffffffffffffffffffffffffffffffffffffff1673ffffffffffffffffffffffffffffffffffffffff1681526020019081526020016000206000015411610cdf57610c817f724e2847160c2c298425ad2c42170599faabcec2c72f27849dc9e2e75c1c0ca360001b6106d7565b610cad7f25fee7d1db0f0f9c479b8fb895ed86c932199ed2467e9100ad822ee64d856db560001b6106d7565b6040517fc8a988fc00000000000000000000000000000000000000000000000000000000815260040160405180910390fd5b610d0b7fd4a07cc078364b895a2fe95516ae6e170b586ac66a0faa2a0f062a103226e51960001b6106d7565b610d377fb0dd71e8605cb4402aa6ab3ec6c7f79de85a6e81a209fcc01b623f089adb342e60001b6106d7565b610d637f96deba15470e366304d5ab5d993b96d85c5d07c3adb5bb7cca2de86e13f4ce8b60001b6106d7565b6000610dba84600460008873ffffffffffffffffffffffffffffffffffffffff1673ffffffffffffffffffffffffffffffffffffffff1681526020019081526020016000206000015461363990919063ffffffff16565b9050610de87f68838f062eba4208f0dadc8e1b3e99c6a41fc3c692798e1d11c0c7b0384d496c60001b6106d7565b610e147f20ab0a33f10fd8d5a6966bcfc6fc3d127addd57a3d8d1a0e31e43ec092f6d95a60001b6106d7565b80600460008773ffffffffffffffffffffffffffffffffffffffff1673ffffffffffffffffffffffffffffffffffffffff16815260200190815260200160002060000181905550610e877f42410a0ede1f22cbdb4d3e7844920f8b1352893e194d6c79f9b9561a6640a26960001b6106d7565b610eb37fd33857ff2454c579dbfaf067db19f0d141cea19613a8475003bddfd74ebeda3960001b6106d7565b42600460008773ffffffffffffffffffffffffffffffffffffffff1673ffffffffffffffffffffffffffffffffffffffff16815260200190815260200160002060020181905550610f267fbc3fe3563337fda6f91476c9ed8188a622740fb8bfddabc36daca10ab572358760001b6106d7565b610f527f0ede37b386e61234d9a69fd898f4998507080fb70c1a08991092556489afb64f60001b6106d7565b8360076000828254610f64919061429a565b92505081905550610f977f942cb9d9cb351bc531a2a091c3acc9071347005b062d0f84c35bee939ab706f860001b6106d7565b610fc37fe4026a45ea5d545e9852e1b822e436d157f418b423c18634078a07544f70e2d460001b6106d7565b8473ffffffffffffffffffffffffffffffffffffffff167ff1b87f4a688417d87b0dd9c0569040438160e0cd40b36d472c0f65069682e990854260405161100b929190613ffc565b60405180910390a25050505050565b600060016000838152602001908152602001600020600101549050919050565b6110438261101a565b61104c81613625565b611056838361364f565b505050565b61106361372f565b73ffffffffffffffffffffffffffffffffffffffff168173ffffffffffffffffffffffffffffffffffffffff16146110d0576040517f08c379a00000000000000000000000000000000000000000000000000000000081526004016110c790614351565b60405180910390fd5b6110da8282613737565b5050565b6110e66135db565b600280540361112a576040517f08c379a0000000000000000000000000000000000000000000000000000000008152600401611121906143bd565b60405180910390fd5b6002808190555061115d7fd00cffef5c1f70270dda294d68c061023500fdc0ff21f189eeb48b4b20805aaa60001b6106d7565b6111897f93b7d139a0310d32bbd97278a31ff7a7d3bcf90ccf8d1a42fccd123ba3d12c4960001b6106d7565b6111b57f3273341d4f1cb9f590f42e30aaecf7a2c6867ba7ed738c230634b3d03809ae9260001b6106d7565b6111bd612a51565b1561124c576111ee7fc7260726d2bc3ce882416723870f5cb09f5e66d0ed92031c0d749d41d5b1123960001b6106d7565b61121a7fc4e3bb2546ce27a7f8867c3bf153a4e10c62b2635565960803cb05b9ddadbd5560001b6106d7565b6040517f05d27f9800000000000000000000000000000000000000000000000000000000815260040160405180910390fd5b6112787f2db8c7be0a908a98ac5bab4ead0871dc6e9618622c09eb9badd45fc673a78d7f60001b6106d7565b6112a47f97329f79d08e64eaeb88e83be078ce324b0a171ef0532917be14db2a101dfcab60001b6106d7565b6112d07f450cef2f6e8b70c25bd38683f77ed98df8ce826ff5e74241648bc84eb78b345e60001b6106d7565b60004790506113017ffb71c9710bda4fec3900cc607ec6425609525d51f35273f3b22e54e7f64c418760001b6106d7565b61132d7f48e9abc426cab93e13c849d97112c350c73d45fbc13411e6ba667527a956154260001b6106d7565b600061135b7f9be8337581352348043b1fba6dbb584bd6e84cf003dceaff26209edb7fdddb1560001b6106d7565b6113877f4db0691e5893af8c2a6fadfb3959ea6ca80abddc424bb91391644449f8a9df8060001b6106d7565b60008203611419576113bb7fce9bd06725908b5d3cdd0c398fc7e01d72db1644297767eea2d36b005d2d4f1960001b6106d7565b6113e77f98394025c34c87ebede8ff2db467f26cec95089f2d5e43ef5b339f96058e78f860001b6106d7565b6040517f4890cfae00000000000000000000000000000000000000000000000000000000815260040160405180910390fd5b6114457f318581a61df607f4ee082d391456ca225a953f282bef5c25ea612c127ca60cbd60001b6106d7565b6114717f3338d2197aa8b06bfd122f7a7e3db4701aa3078b5d6efb63baf93a6e2c40cfb560001b6106d7565b61149d7f9922b15aa235535da1888a51893b34e1b0908bcf876ba7bfd8c46944c1de80aa60001b6106d7565b6000600380548060200260200160405190810160405280929190818152602001828054801561152157602002820191906000526020600020905b8160009054906101000a900473ffffffffffffffffffffffffffffffffffffffff1673ffffffffffffffffffffffffffffffffffffffff16815260200190600101908083116114d7575b505050505090506115547f99fb0d2c85701f8103d43b00411bc052b20af321c01fc177a902e75b653c277560001b6106d7565b6115807fe0058f8fc304ff69ea181c7a5222520a7c241d5a824eb9d5760c1ea838c62c4f60001b6106d7565b60005b815181101561199e576115b87f41a4fbc3ef369a44f47f423bc6340705c1fe050feef0fffd248c9af72fbd1ac360001b6106d7565b6115e47fbb335f62c166bff72e430a97d9ccc7841016ce2c73f38a6d83b00a41222fc77860001b6106d7565b6000600460008484815181106115fd576115fc6143dd565b5b602002602001015173ffffffffffffffffffffffffffffffffffffffff1673ffffffffffffffffffffffffffffffffffffffff1681526020019081526020016000206000015490506116717f765646e3719c01c279757c4e4f5779272ef21cadd1b64015cfa0f1f89375945360001b6106d7565b61169d7f15efc734e9224448c740b4901b603fbf97d958af1bb1d6559e5bc053260782d160001b6106d7565b60006116e47f00000000000000000000000000000000000000000000000000000000000000006116d6848961381990919063ffffffff16565b61382f90919063ffffffff16565b90506117127fca2442f9246db06a997ed558b22b2a528ab6095ab937f02ec813cb287e37d4c660001b6106d7565b61173e7f198c9d5a367a53f68fccdc57fcf09b0ff141cba84dd0f7225abbf33357cdeb5660001b6106d7565b4260046000868681518110611756576117556143dd565b5b602002602001015173ffffffffffffffffffffffffffffffffffffffff1673ffffffffffffffffffffffffffffffffffffffff168152602001908152602001600020600101819055506117cb7fbf4a05190f8253f7b8dee7266abfe080c71c4a20f6f75dba1c87cfadb22e3fa960001b6106d7565b6117f77fdda0d9689094364df3ab5b0473e258ea5371dfb77134d61ca4c725f492154ece60001b6106d7565b8085611803919061429a565b94506118317f5cd58eb615e9c30ec83a1cc0112273475834120f8a8549250f3de478ea4a3c0d60001b6106d7565b61185d7f6956d18c7dae62e07c9b4817def1cf87125d1e05ce5ade1f8047746e1c2ec06a60001b6106d7565b6118a560038481548110611874576118736143dd565b5b9060005260206000200160009054906101000a900473ffffffffffffffffffffffffffffffffffffffff1682613845565b6118d17fca846dd27b4472ea0aa4ef4b9583f740dab1f9a566cba94f9011e13c66dc2d6d60001b6106d7565b6118fd7f2df154264bfafb23342f390645a0ef213d60f1ed78ca233a0e44dc45509d2c1760001b6106d7565b60038381548110611911576119106143dd565b5b9060005260206000200160009054906101000a900473ffffffffffffffffffffffffffffffffffffffff1673ffffffffffffffffffffffffffffffffffffffff167f080babe757d4e5c7db3b7bd10606a7bf07a9857f660977ada6ca7a4d329376c88242604051611983929190613ffc565b60405180910390a25050806119979061440c565b9050611583565b506119cb7f9fc6323c42b8880c425344c99e3287c8ae9a7db1c825e472215119bef965c7d160001b6106d7565b6119f77f68cfedd5d634144806685a48c87c7152b15d6fba396ae39c181003da5aa6c57d60001b6106d7565b6000611a01611dce565b915050611a307f6ffb62b470c567582df4e54faf521a8f1620e80c416db6a681b9fb457a74786a60001b6106d7565b611a5c7f3f7a862a7d40a99c674d11653331d3fc003529cf07250b30e21b3305e1a935ee60001b6106d7565b804210611b2557611a8f7ff1e92cf4bdefa48d5698ae31ff6783aaf6283b4ec20a4dca33967c9edcea2d6660001b6106d7565b611abb7fd4cfd8c762b7d88fc28518f644c1262e3b5d2dd658567b6cea08f68b3deeab8260001b6106d7565b611ae77f392ec167fa0f267175efe8e173acb38566c5a65d8a5f258237535a0e606fdacd60001b6106d7565b7f000000000000000000000000000000000000000000000000000000000000000060066000828254611b19919061429a565b92505081905550611bb3565b611b517f2ce105ed8d2641390f780e33872ec3168eca6df3539a8db5344131711e8264e260001b6106d7565b611b7d7fa93d8562c94dc865bef3d5acd85cceb23a144c5c65268f2fbe7df3f5ffe035b160001b6106d7565b611ba97f2430f54a248b3a33f2a55eb3a7a38e82d762f71b27ea8ac79e593ba00402fb3e60001b6106d7565b6006546006819055505b611bdf7fc24de1a0d690ed7db1bc0cd4d0d8be3f4d62b9d9602c0eab6b0cef4f658f649f60001b6106d7565b611c0b7ffe6035b161b8fb61a546e059e232a7dcdcd88b52e2870de18d3a8259b8e7494060001b6106d7565b611c37600560009054906101000a900473ffffffffffffffffffffffffffffffffffffffff1647613845565b611c637fe0e1a072d70fe9fb453c8948bdc610c6d0396a8d007cd60dc2e1414553b0ff6c60001b6106d7565b611c8f7f7567e13d64d2bfc38c78a34c5bb30642b09c80a4a0789fd92924135eb0f5fc9760001b6106d7565b600560009054906101000a900473ffffffffffffffffffffffffffffffffffffffff1673ffffffffffffffffffffffffffffffffffffffff167f080babe757d4e5c7db3b7bd10606a7bf07a9857f660977ada6ca7a4d329376c88442604051611cf9929190613ffc565b60405180910390a2505050506001600281905550565b60065481565b7f65d7a28e3265b37a6474929f336521b332c1681b933f6cb9f3376673440d862a611d3f81613625565b611d6b7f379b296a2ceb1228bb2976ae16e37ece01f78561bb6d8149d7fd546af9ebbf3c60001b6106d7565b611d977fc5f246b678fbc663fe041b90cf59e4f99e443656a59c4e2e0bde946a351ecdb060001b6106d7565b611dc37fcc827a9aeeedd919f62861a2a57335520c44cef791a9d1040340b60bd3ee56b860001b6106d7565b611dcb613b63565b50565b600080611dfd7fea606a20a47aecd1f9afbcf9e311ae8e695e6f5ab82e949680d9fa805d34186960001b6106d7565b611e297f17071b2a353bf5240c5b9bd3bb6e402c4725974ba61e3c5174a5f7c6e67a2a3160001b6106d7565b611e557f08f4d88e8b53740c5827b9a7455061198ee546bc4de2a1bfa3272b7d8895fd5260001b6106d7565b60007f0000000000000000000000000000000000000000000000000000000000000000600654611e85919061429a565b9050611eb37f0876a59f1bfaa4c64a1dd6c499071a70f478f8f5cc44937ea76389247115af5e60001b6106d7565b611edf7fdc9a01369407efc969119308cc7c8564605ce61129808bd4bf3d98c9d721a4a360001b6106d7565b60007f00000000000000000000000000000000000000000000000000000000000000007f0000000000000000000000000000000000000000000000000000000000000000611f2d919061429a565b600654611f3a919061429a565b9050611f687f3e8341cabe2cf234c193ea8d89784ed47960afae7856272e468f0b15b1da8c3a60001b6106d7565b611f947fa462d77a81de9339543166f7157031d1f23765312a1a5b0399a87e3c92357e1360001b6106d7565b81819350935050509091565b60008060009054906101000a900460ff16905090565b7f000000000000000000000000000000000000000000000000000000000000000081565b7f65d7a28e3265b37a6474929f336521b332c1681b933f6cb9f3376673440d862a61200481613625565b6120307fc5776c13de79d8bac540651e8389003a630862b705423718a3e1521efb91361960001b6106d7565b61205c7f2ba26f61c8a481d85b0d0455dd4ed006fbf68e59829634d50220eeaafa4fba8760001b6106d7565b6120887f80f622779cbb08a856a10ee81965a9fdf70233c7f1b98a4537a5e10cbff5fdf960001b6106d7565b612090613bc5565b50565b7f241ecf16d79d0f8dbfb92cbc07fe17840425976cf0667f022fe9877caa831b086120bd81613625565b6120e97fa6fd0f9729002ce705e63217fcd3109fa687e688c6d647b956aef111d600478c60001b6106d7565b6121157f5df2a55776ab327fbe1590f6778ca126c8b91f2d49a19d1a6ae75ccd6039e1a060001b6106d7565b6121417f8fc78b6d604111772ecd41f2bd6b2bcd7d56e21b64447a038bc488d9ea6c6beb60001b6106d7565b81600560006101000a81548173ffffffffffffffffffffffffffffffffffffffff021916908373ffffffffffffffffffffffffffffffffffffffff1602179055505050565b60006001600084815260200190815260200160002060000160008373ffffffffffffffffffffffffffffffffffffffff1673ffffffffffffffffffffffffffffffffffffffff16815260200190815260200160002060009054906101000a900460ff16905092915050565b600560009054906101000a900473ffffffffffffffffffffffffffffffffffffffff1681565b61221f6135db565b7f241ecf16d79d0f8dbfb92cbc07fe17840425976cf0667f022fe9877caa831b0861224981613625565b6122757f309ec37555f80cbf938d12d281052f3c55b28f55daea0c848f64dc7a7b9456d660001b6106d7565b6122a17ff9b73d92b9db368061a64e966cd6ba4c8ad5e972c66e90e5b09a1f6052d4321460001b6106d7565b6122cd7f06d7799a2ebd2dc3ca699a019206a9745bb33da82e11a1bbdd0df1f55c4f4e8860001b6106d7565b6122d5612a51565b612363576123057fa3c83972b0e84eda96ef9e1eb4790e8e495c1972249e30e3ea2e7a394dd02b2460001b6106d7565b6123317f6ac4f7e70496f48450c41ea7ec86e941b6c1824b7f3230ed7ca29fdeeaaadb4260001b6106d7565b6040517f9389fad000000000000000000000000000000000000000000000000000000000815260040160405180910390fd5b61238f7fd98ed6fd71b71a8756e480635be3135dcd6227cecc78783742a05392548bbfb660001b6106d7565b6123bb7f4394091534e261c7141c02af44693e4b9b4537b7c9e3b70572d1da2abdc5231960001b6106d7565b6123e77f3680fcdb7b8e27a3483b9dd86749603f401029e621ecffa45860e9216595e2ba60001b6106d7565b600082116124795761241b7f3f782200985efdc5d6db1182feeb2b56bd5e913945a73dc0241fad782c93f0cd60001b6106d7565b6124477f2862c1c38814484a8129f7a7010ebfd4de121dcca356ac702333398b0f24e13160001b6106d7565b6040517f1d4227f500000000000000000000000000000000000000000000000000000000815260040160405180910390fd5b6124a57f77c6f570d96165971d757833c60c3c0ea0d38ccc5ed7088fceba18b64f6af16a60001b6106d7565b6124d17f0c9c9f42ac00372dfb38a76f5bd8529423a61b9da2bc57453bf0de15d460e00d60001b6106d7565b6124fd7f2abc4200687b6ff27269334377aa8b4cd517148288f7db1920c4cdc319613f4b60001b6106d7565b60006125148360075461363990919063ffffffff16565b90506125427f99c0bfc5233fcb1ef24bee0ad3d4c33b7953a88563be1ff8d657efdeec64805d60001b6106d7565b61256e7f7ba90488f32379fd59f0f0bf42015774976fa206672806f1b4364a32de0aea5f60001b6106d7565b7f0000000000000000000000000000000000000000000000000000000000000000811115612620576125c27f54975ec29501293c43d396991d89d9c97d9d382b0053468c62dd86243253dfee60001b6106d7565b6125ee7f3583a0b05076c0d0d8827b09553fe91a6a0917ff32b72996ddb8c43cb8ec0c7360001b6106d7565b6040517f80a4d17800000000000000000000000000000000000000000000000000000000815260040160405180910390fd5b61264c7ffca9ba13e7d28164a35f34cab535d7446b324e9beebb51bf4fbdc00285ced59f60001b6106d7565b6126787fede2939f487e62389c5897ad99a5deb2c775c25eb84cc01b79df0ea9a158be6760001b6106d7565b6126a47fa302fbbbcee075dfe945ce4b2e6318dd49b282270923ed897ba96cca0334541b60001b6106d7565b6000600460008673ffffffffffffffffffffffffffffffffffffffff1673ffffffffffffffffffffffffffffffffffffffff16815260200190815260200160002060000154146127785761271a7f7e6c78c27b696d93f06d7f6d0ef6c0e06fd42bd193390b402a10b5c1bbe7738f60001b6106d7565b6127467f4643d7445b8f0b4c74f6a3d137ee0e01180c48f7a2256b80ad33187ef146834060001b6106d7565b6040517f2912360200000000000000000000000000000000000000000000000000000000815260040160405180910390fd5b6127a47f26b1b934762a61d00ce633ca292f9ed011cb1d1e6c38d11e34411ba8b24270cb60001b6106d7565b6127d07fa570cc251a1818a32ae3d7fb0e5eb3b23956407508c3da842a475a08226def3760001b6106d7565b6127fc7f8d507fc9763679665f7bf665289526983437a3b92c02db06fec5fd3462c4e3aa60001b6106d7565b604051806060016040528084815260200142815260200142815250600460008673ffffffffffffffffffffffffffffffffffffffff1673ffffffffffffffffffffffffffffffffffffffff1681526020019081526020016000206000820151816000015560208201518160010155604082015181600201559050506128a37f5658194faf87f00c9c8a12bf020f3e54b5dd462987a48e8f9cf7d5b225f8650b60001b6106d7565b6128cf7f7dee087be0d86f3f14dc3270d1da528b51714d38ac33ea272a029e56d2bd617b60001b6106d7565b6003849080600181540180825580915050600190039060005260206000200160009091909190916101000a81548173ffffffffffffffffffffffffffffffffffffffff021916908373ffffffffffffffffffffffffffffffffffffffff16021790555061295e7f8204cbbeba62679b0478ad7578ac16733208948830e7110db74b4b39dc736d3c60001b6106d7565b61298a7f530423b63913250411dab77b3a4bb25d575e00ebd4508cbec50ccf10a4faffa860001b6106d7565b826007600082825461299c919061429a565b925050819055506129cf7f62ea94b7ea039e6f7b1baeaecb3427caa8840c87bdd34dbe0d74c04d053efb3660001b6106d7565b6129fb7fa2965ea730e5a1f027720dc36f4e392f10df6356ca6c6bacf06359e2e386586f60001b6106d7565b8373ffffffffffffffffffffffffffffffffffffffff167face1893c759fc46036b7fdd20805d2476c58b2e6d1e56aad3331ee5d2275393e8442604051612a43929190613ffc565b60405180910390a250505050565b6000612a7f7fccae2e04a13e319fdc84a5f22e7784ff6b4f9cd8fc05d38189b377b5b911806260001b6106d7565b612aab7f9dcaefc502e93138f6e6c90c8f7321bd604d21462b2123a637642f8feb21d27460001b6106d7565b612ad77ffee543577f74d24e0397c4496a147df01c56b0d293dc540a9621e53e9fb0bb5660001b6106d7565b600080612ae2611dce565b91509150612b127f771f657356457e698978157b84630b04a3424281911856c4cc1ba2d850e1ce4760001b6106d7565b612b3e7ff3d2a52030730c48618214d2bf7733c554cd667933188d54527d4c953ed7dad260001b6106d7565b814210158015612b4d57508042105b15612be157612b7e7fae676d8afe0057846bd54afef70c81d01a1bdae37f3e18d3aa6e8536f00f6f0860001b6106d7565b612baa7fd801ca7d71353376eafbbe4e84a6e6205650e1edc531ceebb5e4f62f4bcaad0c60001b6106d7565b612bd67f871d4b7e84e4f36ffa28737a8fc146fb14d057ea50eb27383860308e4b7b3e9860001b6106d7565b600192505050612c6c565b612c0d7fcc6090fa565a1b2a38c07728706b58081412d90603b78017f92910d776df26f860001b6106d7565b612c397fe5959920d650002c0bbd8db117aaff63a34807f47f99fcdaf0ba10646ca8330160001b6106d7565b612c657f65876306df7a399d43e8f85c59eccd23151641bf997d1d94a0f520b80dd6c5f160001b6106d7565b6000925050505b90565b6000801b81565b606080612ca57fd6f99a98d4e4bb5fae30187278f73bcd28c514d637bdd7c32cfdb41dffaa7e7960001b6106d7565b612cd17f07dc4ea4edc839736ce935a63a76018a8c6e8ca1b1ed4bd1eb0e9472095a993160001b6106d7565b612cfd7f582165f0268c2a9f2d0e2c4706a7cb0d788784bab150231cb5fa74e79456355060001b6106d7565b60038054905067ffffffffffffffff811115612d1c57612d1b614454565b5b604051908082528060200260200182016040528015612d4a5781602001602082028036833780820191505090505b509150612d797fa2608d8fb8f4e96d30c599a10586d37e6171e6e689b709f25b6eb740f9eeb66a60001b6106d7565b612da57fe57c96d34cb8908206056b10c288065b70b3d451515ff23e17c410e9e1d5d76e60001b6106d7565b6003805480602002602001604051908101604052809291908181526020018280548015612e2757602002820191906000526020600020905b8160009054906101000a900473ffffffffffffffffffffffffffffffffffffffff1673ffffffffffffffffffffffffffffffffffffffff1681526020019060010190808311612ddd575b50505050509150612e5a7fd39a17765e991f78f4bff72084f50f80a5923e741197f1c8f73eb780db8cf95260001b6106d7565b612e867fae6f2bacade026c477f8bb99161d3fe8c41845c0e6eaeed1f4cd2ec1390bfb6d60001b6106d7565b815167ffffffffffffffff811115612ea157612ea0614454565b5b604051908082528060200260200182016040528015612ecf5781602001602082028036833780820191505090505b509050612efe7fc14fa2ade72ae5c538c233b4dbe4df45db797ac7b56c45e91d7b11d89abc3cf760001b6106d7565b612f2a7f713a5c92cc88cc60e799ff4021f264d6947e2721ff705612b573c49179feb49460001b6106d7565b60005b825181101561301b57612f627f77432218914346bbc075b99d008f58aa6ee1b955aafeb3102b3a3b2914deb30f60001b6106d7565b612f8e7f8b37c9d83310795a4d1fd17c2630793b48afdbff53b68f8be9bf3db93d3dd2ac60001b6106d7565b60046000848381518110612fa557612fa46143dd565b5b602002602001015173ffffffffffffffffffffffffffffffffffffffff1673ffffffffffffffffffffffffffffffffffffffff16815260200190815260200160002060000154828281518110612ffe57612ffd6143dd565b5b602002602001018181525050806130149061440c565b9050612f2d565b506130487fb3d76cfd39cf12b367d98cbcefafa1f76409c4695d700fac56357d65f13512ea60001b6106d7565b6130747f900773ac55ae9e972b574463296f25a1203d2028ba6321bba4732fd7e47da87a60001b6106d7565b9091565b7f000000000000000000000000000000000000000000000000000000000000000081565b60075481565b60006130d07fa27aa0d2a5f1c546efa9f8f4e51820a4bacb125cc0486cb377b05926ea4d5cec60001b6106d7565b6130fc7f6e0365ec188301412f6de699d08f325fdfb2eb259f9ff9567265b71bb8dabc7960001b6106d7565b6131287f2239f728bb3ac4d4f4a59cfc751c70cf6e3276d640f0c6ab7e30a69e02f47c4f60001b6106d7565b6000600460008473ffffffffffffffffffffffffffffffffffffffff1673ffffffffffffffffffffffffffffffffffffffff16815260200190815260200160002060000154116131ff5761319e7fb291e7a6884e42cdb4f6f0a0fdb7bed24d9c034ac5a264b4cdb3964af40e8eb860001b6106d7565b6131ca7fc2332326b1ac13f4b7ca6b808e694a10f7f8ff309aef9c070572c56d810e7e6a60001b6106d7565b6131f67f8aace9f38ec2d46155176c0aed73784d20491c1bf5c3e3a9d4af0a208ef2875c60001b6106d7565b60009050613288565b61322b7f806a3d65728b92d39d2201bbc18602746b2b8a58b37e1d1cc45a9664d2320bf660001b6106d7565b6132577fcec804cb37d0ec8f33b124d9e2fc992c7e67413644b5f1344cf94fd6462f50ff60001b6106d7565b6132837f5e9e3c5b965c72cc89e8ee1e2c34a1b7dcddd03f0a062c6ac0aaed1d33f2170960001b6106d7565b600190505b919050565b6132968261101a565b61329f81613625565b6132a98383613737565b505050565b600381815481106132be57600080fd5b906000526020600020016000915054906101000a900473ffffffffffffffffffffffffffffffffffffffff1681565b7f65d7a28e3265b37a6474929f336521b332c1681b933f6cb9f3376673440d862a81565b7f241ecf16d79d0f8dbfb92cbc07fe17840425976cf0667f022fe9877caa831b0881565b6060600060028360026133489190614483565b613352919061429a565b67ffffffffffffffff81111561336b5761336a614454565b5b6040519080825280601f01601f19166020018201604052801561339d5781602001600182028036833780820191505090505b5090507f3000000000000000000000000000000000000000000000000000000000000000816000815181106133d5576133d46143dd565b5b60200101907effffffffffffffffffffffffffffffffffffffffffffffffffffffffffffff1916908160001a9053507f780000000000000000000000000000000000000000000000000000000000000081600181518110613439576134386143dd565b5b60200101907effffffffffffffffffffffffffffffffffffffffffffffffffffffffffffff1916908160001a905350600060018460026134799190614483565b613483919061429a565b90505b6001811115613523577f3031323334353637383961626364656600000000000000000000000000000000600f8616601081106134c5576134c46143dd565b5b1a60f81b8282815181106134dc576134db6143dd565b5b60200101907effffffffffffffffffffffffffffffffffffffffffffffffffffffffffffff1916908160001a905350600485901c94508061351c906144dd565b9050613486565b5060008414613567576040517f08c379a000000000000000000000000000000000000000000000000000000000815260040161355e90614552565b60405180910390fd5b8091505092915050565b60007f01ffc9a7000000000000000000000000000000000000000000000000000000007bffffffffffffffffffffffffffffffffffffffffffffffffffffffff1916827bffffffffffffffffffffffffffffffffffffffffffffffffffffffff1916149050919050565b6135e3611fa0565b15613623576040517f08c379a000000000000000000000000000000000000000000000000000000000815260040161361a906145be565b60405180910390fd5b565b6136368161363161372f565b613c27565b50565b60008183613647919061429a565b905092915050565b6136598282612186565b61372b57600180600084815260200190815260200160002060000160008373ffffffffffffffffffffffffffffffffffffffff1673ffffffffffffffffffffffffffffffffffffffff16815260200190815260200160002060006101000a81548160ff0219169083151502179055506136d061372f565b73ffffffffffffffffffffffffffffffffffffffff168173ffffffffffffffffffffffffffffffffffffffff16837f2f8788117e7eff1d82e926ec794901d17c78024a50270940304540a733656f0d60405160405180910390a45b5050565b600033905090565b6137418282612186565b156138155760006001600084815260200190815260200160002060000160008373ffffffffffffffffffffffffffffffffffffffff1673ffffffffffffffffffffffffffffffffffffffff16815260200190815260200160002060006101000a81548160ff0219169083151502179055506137ba61372f565b73ffffffffffffffffffffffffffffffffffffffff168173ffffffffffffffffffffffffffffffffffffffff16837ff6391f5c32d9c69d2a47ea670b442974b53935d1edc7fd64eb21e047a839171b60405160405180910390a45b5050565b600081836138279190614483565b905092915050565b6000818361383d919061460d565b905092915050565b6138717fc592ba52d5da27a903014c3051b6fdf2555719ca2d5de537eba9ef741c036cd760001b6106d7565b61389d7ffad8cbc347211c0e2a550b9fef35a1881e67c538b61011881aadad37958bfd5a60001b6106d7565b6138c97f94bd925ed31eb44ebe615fd03445963746c72f5605f220dca735913662ff62f660001b6106d7565b8047101561395b576138fd7f272b6206f77293e9f493dc299a07c6354a8a660cab4198385d7b1a23964e43c960001b6106d7565b6139297ffc595db70645cd3ba724c0520ce4fbcf1d4673d9c3d44b03e6167a6d0fdcfc9c60001b6106d7565b6040517f4890cfae00000000000000000000000000000000000000000000000000000000815260040160405180910390fd5b6139877fad0eff4c2f85236bc41448615e80883edcf2755a8459d20ed2fea5907835356160001b6106d7565b6139b37fad0fc763a58e29df4bc20578692a2f28d71fa79bd5c8de363c6f10d11598c1b960001b6106d7565b6139df7f6b021219a827f7b7e772ca4e4936b073a7214e28b7395b26c5466fcf6511866e60001b6106d7565b60008273ffffffffffffffffffffffffffffffffffffffff1682604051613a059061466f565b60006040518083038185875af1925050503d8060008114613a42576040519150601f19603f3d011682016040523d82523d6000602084013e613a47565b606091505b50509050613a777ff83849d457a1423a3e7d0e4bdeb87455acb734d1aa05ae73f37557304ff8e87560001b6106d7565b613aa37f499b711cfe150066a536346ab042a107a58804d174aa62c32c962b7ca0ea80a460001b6106d7565b80613b3257613ad47faac80a156a8a218a991f0e4097c5093ba767cfe08dbce98b724c6ba611b378e260001b6106d7565b613b007fdee4383a0822ccd20aa1e6f1ec63a8dc9879b72a958d8adf64352301d12e254360001b6106d7565b6040517f41f5ae4500000000000000000000000000000000000000000000000000000000815260040160405180910390fd5b613b5e7f32131fc4e8ec8b3c9ec07d3bbf3c495740863ece0a879423033923c6cf87e87c60001b6106d7565b505050565b613b6b613cc4565b60008060006101000a81548160ff0219169083151502179055507f5db9ee0a495bf2e6ff9c91a7834c1ba4fdd244a5e8aa4e537bd38aeae4b073aa613bae61372f565b604051613bbb9190614250565b60405180910390a1565b613bcd6135db565b60016000806101000a81548160ff0219169083151502179055507f62e78cea01bee320cd4e420270b5ea74000d11b0c9f74754ebdbfc544b05a258613c1061372f565b604051613c1d9190614250565b60405180910390a1565b613c318282612186565b613cc057613c568173ffffffffffffffffffffffffffffffffffffffff166014613335565b613c648360001c6020613335565b604051602001613c7592919061478d565b6040516020818303038152906040526040517f08c379a0000000000000000000000000000000000000000000000000000000008152600401613cb79190614811565b60405180910390fd5b5050565b613ccc611fa0565b613d0b576040517f08c379a0000000000000000000000000000000000000000000000000000000008152600401613d029061487f565b60405180910390fd5b565b6000819050919050565b613d2081613d0d565b82525050565b6000602082019050613d3b6000830184613d17565b92915050565b600080fd5b600073ffffffffffffffffffffffffffffffffffffffff82169050919050565b6000613d7182613d46565b9050919050565b613d8181613d66565b8114613d8c57600080fd5b50565b600081359050613d9e81613d78565b92915050565b600060208284031215613dba57613db9613d41565b5b6000613dc884828501613d8f565b91505092915050565b6000606082019050613de66000830186613d17565b613df36020830185613d17565b613e006040830184613d17565b949350505050565b60007fffffffff0000000000000000000000000000000000000000000000000000000082169050919050565b613e3d81613e08565b8114613e4857600080fd5b50565b600081359050613e5a81613e34565b92915050565b600060208284031215613e7657613e75613d41565b5b6000613e8484828501613e4b565b91505092915050565b60008115159050919050565b613ea281613e8d565b82525050565b6000602082019050613ebd6000830184613e99565b92915050565b613ecc81613d0d565b8114613ed757600080fd5b50565b600081359050613ee981613ec3565b92915050565b60008060408385031215613f0657613f05613d41565b5b6000613f1485828601613d8f565b9250506020613f2585828601613eda565b9150509250929050565b6000819050919050565b613f4281613f2f565b8114613f4d57600080fd5b50565b600081359050613f5f81613f39565b92915050565b600060208284031215613f7b57613f7a613d41565b5b6000613f8984828501613f50565b91505092915050565b613f9b81613f2f565b82525050565b6000602082019050613fb66000830184613f92565b92915050565b60008060408385031215613fd357613fd2613d41565b5b6000613fe185828601613f50565b9250506020613ff285828601613d8f565b9150509250929050565b60006040820190506140116000830185613d17565b61401e6020830184613d17565b9392505050565b600061403082613d46565b9050919050565b61404081614025565b82525050565b600060208201905061405b6000830184614037565b92915050565b600081519050919050565b600082825260208201905092915050565b6000819050602082019050919050565b61409681613d66565b82525050565b60006140a8838361408d565b60208301905092915050565b6000602082019050919050565b60006140cc82614061565b6140d6818561406c565b93506140e18361407d565b8060005b838110156141125781516140f9888261409c565b9750614104836140b4565b9250506001810190506140e5565b5085935050505092915050565b600081519050919050565b600082825260208201905092915050565b6000819050602082019050919050565b61415481613d0d565b82525050565b6000614166838361414b565b60208301905092915050565b6000602082019050919050565b600061418a8261411f565b614194818561412a565b935061419f8361413b565b8060005b838110156141d05781516141b7888261415a565b97506141c283614172565b9250506001810190506141a3565b5085935050505092915050565b600060408201905081810360008301526141f781856140c1565b9050818103602083015261420b818461417f565b90509392505050565b60006020828403121561422a57614229613d41565b5b600061423884828501613eda565b91505092915050565b61424a81613d66565b82525050565b60006020820190506142656000830184614241565b92915050565b7f4e487b7100000000000000000000000000000000000000000000000000000000600052601160045260246000fd5b60006142a582613d0d565b91506142b083613d0d565b92508282019050808211156142c8576142c761426b565b5b92915050565b600082825260208201905092915050565b7f416363657373436f6e74726f6c3a2063616e206f6e6c792072656e6f756e636560008201527f20726f6c657320666f722073656c660000000000000000000000000000000000602082015250565b600061433b602f836142ce565b9150614346826142df565b604082019050919050565b6000602082019050818103600083015261436a8161432e565b9050919050565b7f5265656e7472616e637947756172643a207265656e7472616e742063616c6c00600082015250565b60006143a7601f836142ce565b91506143b282614371565b602082019050919050565b600060208201905081810360008301526143d68161439a565b9050919050565b7f4e487b7100000000000000000000000000000000000000000000000000000000600052603260045260246000fd5b600061441782613d0d565b91507fffffffffffffffffffffffffffffffffffffffffffffffffffffffffffffffff82036144495761444861426b565b5b600182019050919050565b7f4e487b7100000000000000000000000000000000000000000000000000000000600052604160045260246000fd5b600061448e82613d0d565b915061449983613d0d565b9250817fffffffffffffffffffffffffffffffffffffffffffffffffffffffffffffffff04831182151516156144d2576144d161426b565b5b828202905092915050565b60006144e882613d0d565b9150600082036144fb576144fa61426b565b5b600182039050919050565b7f537472696e67733a20686578206c656e67746820696e73756666696369656e74600082015250565b600061453c6020836142ce565b915061454782614506565b602082019050919050565b6000602082019050818103600083015261456b8161452f565b9050919050565b7f5061757361626c653a2070617573656400000000000000000000000000000000600082015250565b60006145a86010836142ce565b91506145b382614572565b602082019050919050565b600060208201905081810360008301526145d78161459b565b9050919050565b7f4e487b7100000000000000000000000000000000000000000000000000000000600052601260045260246000fd5b600061461882613d0d565b915061462383613d0d565b925082614633576146326145de565b5b828204905092915050565b600081905092915050565b50565b600061465960008361463e565b915061466482614649565b600082019050919050565b600061467a8261464c565b9150819050919050565b600081905092915050565b7f416363657373436f6e74726f6c3a206163636f756e7420000000000000000000600082015250565b60006146c5601783614684565b91506146d08261468f565b601782019050919050565b600081519050919050565b60005b838110156147045780820151818401526020810190506146e9565b60008484015250505050565b600061471b826146db565b6147258185614684565b93506147358185602086016146e6565b80840191505092915050565b7f206973206d697373696e6720726f6c6520000000000000000000000000000000600082015250565b6000614777601183614684565b915061478282614741565b601182019050919050565b6000614798826146b8565b91506147a48285614710565b91506147af8261476a565b91506147bb8284614710565b91508190509392505050565b6000601f19601f8301169050919050565b60006147e3826146db565b6147ed81856142ce565b93506147fd8185602086016146e6565b614806816147c7565b840191505092915050565b6000602082019050818103600083015261482b81846147d8565b905092915050565b7f5061757361626c653a206e6f7420706175736564000000000000000000000000600082015250565b60006148696014836142ce565b915061487482614833565b602082019050919050565b600060208201905081810360008301526148988161485c565b905091905056fea2646970667358221220d15a80a71c977bf603a65fe7d1738a323afa9ce0738c9ef8846ed0bb7808bd0064736f6c63430008100033",
  "linkReferences": {},
  "deployedLinkReferences": {}
}