{
  "address": "0x3188afDf36b01553761DB6C4C43d3aE808bb0599",
  "abi": [
    {
      "inputs": [
        {
          "internalType": "address",
          "name": "_i3Fund",
          "type": "address"
        },
        {
          "internalType": "uint256",
          "name": "_interval",
          "type": "uint256"
        },
        {
          "internalType": "uint256",
          "name": "_window",
          "type": "uint256"
        }
      ],
      "stateMutability": "nonpayable",
      "type": "constructor"
    },
    {
      "inputs": [],
      "name": "EquityManager__ContractUpdateWindowIsOpen",
      "type": "error"
    },
    {
      "inputs": [],
      "name": "EquityManager__InsufficientBalance",
      "type": "error"
    },
    {
      "inputs": [],
      "name": "EquityManager__StakeIsZero",
      "type": "error"
    },
    {
      "inputs": [],
      "name": "EquityManager__TotalValueGreaterThan100",
      "type": "error"
    },
    {
      "inputs": [],
      "name": "EquityManager__TransactionFailed",
      "type": "error"
    },
    {
      "anonymous": false,
      "inputs": [
        {
          "indexed": false,
          "internalType": "uint256",
          "name": "timeUpdated",
          "type": "uint256"
        }
      ],
      "name": "EquityStakeUpdated",
      "type": "event"
    },
    {
      "anonymous": false,
      "inputs": [
        {
          "indexed": false,
          "internalType": "address",
          "name": "holder",
          "type": "address"
        },
        {
          "indexed": false,
          "internalType": "uint256",
          "name": "stake",
          "type": "uint256"
        },
        {
          "indexed": false,
          "internalType": "uint256",
          "name": "timeAdded",
          "type": "uint256"
        }
      ],
      "name": "ExistingStakeHolderEquityIncrease",
      "type": "event"
    },
    {
      "anonymous": false,
      "inputs": [
        {
          "indexed": false,
          "internalType": "uint256",
          "name": "amount_sent_to_stakeholders",
          "type": "uint256"
        },
        {
          "indexed": false,
          "internalType": "uint256",
          "name": "time_distributed",
          "type": "uint256"
        }
      ],
      "name": "FundsDistributed",
      "type": "event"
    },
    {
      "anonymous": false,
      "inputs": [
        {
          "indexed": true,
          "internalType": "address",
          "name": "addr",
          "type": "address"
        },
        {
          "indexed": false,
          "internalType": "uint256",
          "name": "amount",
          "type": "uint256"
        }
      ],
      "name": "FundsReceived",
      "type": "event"
    },
    {
      "anonymous": false,
      "inputs": [
        {
          "indexed": false,
          "internalType": "address",
          "name": "holder",
          "type": "address"
        },
        {
          "indexed": false,
          "internalType": "uint256",
          "name": "stake",
          "type": "uint256"
        },
        {
          "indexed": false,
          "internalType": "uint256",
          "name": "timeAdded",
          "type": "uint256"
        }
      ],
      "name": "NewStakeHolderAdded",
      "type": "event"
    },
    {
      "anonymous": false,
      "inputs": [
        {
          "indexed": false,
          "internalType": "address",
          "name": "account",
          "type": "address"
        }
      ],
      "name": "Paused",
      "type": "event"
    },
    {
      "anonymous": false,
      "inputs": [
        {
          "indexed": true,
          "internalType": "bytes32",
          "name": "role",
          "type": "bytes32"
        },
        {
          "indexed": true,
          "internalType": "bytes32",
          "name": "previousAdminRole",
          "type": "bytes32"
        },
        {
          "indexed": true,
          "internalType": "bytes32",
          "name": "newAdminRole",
          "type": "bytes32"
        }
      ],
      "name": "RoleAdminChanged",
      "type": "event"
    },
    {
      "anonymous": false,
      "inputs": [
        {
          "indexed": true,
          "internalType": "bytes32",
          "name": "role",
          "type": "bytes32"
        },
        {
          "indexed": true,
          "internalType": "address",
          "name": "account",
          "type": "address"
        },
        {
          "indexed": true,
          "internalType": "address",
          "name": "sender",
          "type": "address"
        }
      ],
      "name": "RoleGranted",
      "type": "event"
    },
    {
      "anonymous": false,
      "inputs": [
        {
          "indexed": true,
          "internalType": "bytes32",
          "name": "role",
          "type": "bytes32"
        },
        {
          "indexed": true,
          "internalType": "address",
          "name": "account",
          "type": "address"
        },
        {
          "indexed": true,
          "internalType": "address",
          "name": "sender",
          "type": "address"
        }
      ],
      "name": "RoleRevoked",
      "type": "event"
    },
    {
      "anonymous": false,
      "inputs": [
        {
          "indexed": false,
          "internalType": "address",
          "name": "account",
          "type": "address"
        }
      ],
      "name": "Unpaused",
      "type": "event"
    },
    {
      "inputs": [],
      "name": "DEFAULT_ADMIN_ROLE",
      "outputs": [
        {
          "internalType": "bytes32",
          "name": "",
          "type": "bytes32"
        }
      ],
      "stateMutability": "view",
      "type": "function"
    },
    {
      "inputs": [],
      "name": "MANAGER_ROLE",
      "outputs": [
        {
          "internalType": "bytes32",
          "name": "",
          "type": "bytes32"
        }
      ],
      "stateMutability": "view",
      "type": "function"
    },
    {
      "inputs": [],
      "name": "PAUSER_ROLE",
      "outputs": [
        {
          "internalType": "bytes32",
          "name": "",
          "type": "bytes32"
        }
      ],
      "stateMutability": "view",
      "type": "function"
    },
    {
      "inputs": [],
      "name": "PauserRole",
      "outputs": [
        {
          "internalType": "bytes32",
          "name": "",
          "type": "bytes32"
        }
      ],
      "stateMutability": "pure",
      "type": "function"
    },
    {
      "inputs": [
        {
          "internalType": "address",
          "name": "_holder",
          "type": "address"
        },
        {
          "internalType": "uint256",
          "name": "_stake",
          "type": "uint256"
        }
      ],
      "name": "addHolderAndUpdateStake",
      "outputs": [],
      "stateMutability": "nonpayable",
      "type": "function"
    },
    {
      "inputs": [
        {
          "internalType": "uint256",
          "name": "",
          "type": "uint256"
        }
      ],
      "name": "current_stakeholders",
      "outputs": [
        {
          "internalType": "address",
          "name": "",
          "type": "address"
        }
      ],
      "stateMutability": "view",
      "type": "function"
    },
    {
      "inputs": [
        {
          "internalType": "address",
          "name": "",
          "type": "address"
        }
      ],
      "name": "current_stakes",
      "outputs": [
        {
          "internalType": "uint256",
          "name": "stakePercentage",
          "type": "uint256"
        },
        {
          "internalType": "uint256",
          "name": "fundsLastReceived",
          "type": "uint256"
        },
        {
          "internalType": "uint256",
          "name": "equityLastUpdated",
          "type": "uint256"
        }
      ],
      "stateMutability": "view",
      "type": "function"
    },
    {
      "inputs": [],
      "name": "deposit",
      "outputs": [],
      "stateMutability": "payable",
      "type": "function"
    },
    {
      "inputs": [],
      "name": "distributeFunds",
      "outputs": [],
      "stateMutability": "nonpayable",
      "type": "function"
    },
    {
      "inputs": [],
      "name": "getContractBalance",
      "outputs": [
        {
          "internalType": "uint256",
          "name": "",
          "type": "uint256"
        }
      ],
      "stateMutability": "view",
      "type": "function"
    },
    {
      "inputs": [],
      "name": "getHoldersAndEquities",
      "outputs": [
        {
          "internalType": "address[]",
          "name": "_holders",
          "type": "address[]"
        },
        {
          "internalType": "uint256[]",
          "name": "_stakesPercent",
          "type": "uint256[]"
        }
      ],
      "stateMutability": "view",
      "type": "function"
    },
    {
      "inputs": [],
      "name": "getImpact3Address",
      "outputs": [
        {
          "internalType": "address",
          "name": "",
          "type": "address"
        }
      ],
      "stateMutability": "view",
      "type": "function"
    },
    {
      "inputs": [
        {
          "internalType": "bytes32",
          "name": "role",
          "type": "bytes32"
        }
      ],
      "name": "getRoleAdmin",
      "outputs": [
        {
          "internalType": "bytes32",
          "name": "",
          "type": "bytes32"
        }
      ],
      "stateMutability": "view",
      "type": "function"
    },
    {
      "inputs": [],
      "name": "getUpdateIntervalAndWindow",
      "outputs": [
        {
          "internalType": "uint256",
          "name": "",
          "type": "uint256"
        },
        {
          "internalType": "uint256",
          "name": "",
          "type": "uint256"
        }
      ],
      "stateMutability": "view",
      "type": "function"
    },
    {
      "inputs": [
        {
          "internalType": "bytes32",
          "name": "role",
          "type": "bytes32"
        },
        {
          "internalType": "address",
          "name": "account",
          "type": "address"
        }
      ],
      "name": "grantRole",
      "outputs": [],
      "stateMutability": "nonpayable",
      "type": "function"
    },
    {
      "inputs": [
        {
          "internalType": "bytes32",
          "name": "role",
          "type": "bytes32"
        },
        {
          "internalType": "address",
          "name": "account",
          "type": "address"
        }
      ],
      "name": "hasRole",
      "outputs": [
        {
          "internalType": "bool",
          "name": "",
          "type": "bool"
        }
      ],
      "stateMutability": "view",
      "type": "function"
    },
    {
      "inputs": [],
      "name": "i3Fund",
      "outputs": [
        {
          "internalType": "address payable",
          "name": "",
          "type": "address"
        }
      ],
      "stateMutability": "view",
      "type": "function"
    },
    {
      "inputs": [],
      "name": "i_interval",
      "outputs": [
        {
          "internalType": "uint256",
          "name": "",
          "type": "uint256"
        }
      ],
      "stateMutability": "view",
      "type": "function"
    },
    {
      "inputs": [],
      "name": "i_window",
      "outputs": [
        {
          "internalType": "uint256",
          "name": "",
          "type": "uint256"
        }
      ],
      "stateMutability": "view",
      "type": "function"
    },
    {
      "inputs": [],
      "name": "pause",
      "outputs": [],
      "stateMutability": "nonpayable",
      "type": "function"
    },
    {
      "inputs": [],
      "name": "paused",
      "outputs": [
        {
          "internalType": "bool",
          "name": "",
          "type": "bool"
        }
      ],
      "stateMutability": "view",
      "type": "function"
    },
    {
      "inputs": [
        {
          "internalType": "bytes32",
          "name": "role",
          "type": "bytes32"
        },
        {
          "internalType": "address",
          "name": "account",
          "type": "address"
        }
      ],
      "name": "renounceRole",
      "outputs": [],
      "stateMutability": "nonpayable",
      "type": "function"
    },
    {
      "inputs": [
        {
          "internalType": "bytes32",
          "name": "role",
          "type": "bytes32"
        },
        {
          "internalType": "address",
          "name": "account",
          "type": "address"
        }
      ],
      "name": "revokeRole",
      "outputs": [],
      "stateMutability": "nonpayable",
      "type": "function"
    },
    {
      "inputs": [
        {
          "internalType": "address",
          "name": "fund",
          "type": "address"
        }
      ],
      "name": "setFund",
      "outputs": [],
      "stateMutability": "nonpayable",
      "type": "function"
    },
    {
      "inputs": [
        {
          "internalType": "bytes4",
          "name": "interfaceId",
          "type": "bytes4"
        }
      ],
      "name": "supportsInterface",
      "outputs": [
        {
          "internalType": "bool",
          "name": "",
          "type": "bool"
        }
      ],
      "stateMutability": "view",
      "type": "function"
    },
    {
      "inputs": [],
      "name": "unpause",
      "outputs": [],
      "stateMutability": "nonpayable",
      "type": "function"
    }
  ],
  "transactionHash": "0xa76aa872f6e62e51b1a6c01b8fb6820266f3aa4e8cf8d36ff6919f6b6cbde560",
  "args": [
    "0x0b9412DF2c8802E7fCc2D000392f16fD0df2bfEE",
    "2592000000",
    "604800000"
  ],
  "numDeployments": 2,
  "solcInputHash": "4dc3bf1ba36f85b21bd736239fbddb25",
  "bytecode": "0x60c06040523480156200001157600080fd5b506040516200345b3803806200345b83398181016040528101906200003791906200064f565b60008060006101000a81548160ff02191690831515021790555060016002819055506200006e6000801b336200010360201b60201c565b620000a07f65d7a28e3265b37a6474929f336521b332c1681b933f6cb9f3376673440d862a336200010360201b60201c565b620000d27f241ecf16d79d0f8dbfb92cbc07fe17840425976cf0667f022fe9877caa831b08336200010360201b60201c565b620000e383620001f460201b60201c565b81608081815250508060a081815250504260068190555050505062000afa565b6200011582826200026b60201b60201c565b620001f057600180600084815260200190815260200160002060000160008373ffffffffffffffffffffffffffffffffffffffff1673ffffffffffffffffffffffffffffffffffffffff16815260200190815260200160002060006101000a81548160ff02191690831515021790555062000195620002d660201b60201c565b73ffffffffffffffffffffffffffffffffffffffff168173ffffffffffffffffffffffffffffffffffffffff16837f2f8788117e7eff1d82e926ec794901d17c78024a50270940304540a733656f0d60405160405180910390a45b5050565b7f241ecf16d79d0f8dbfb92cbc07fe17840425976cf0667f022fe9877caa831b086200022681620002de60201b60201c565b81600560006101000a81548173ffffffffffffffffffffffffffffffffffffffff021916908373ffffffffffffffffffffffffffffffffffffffff1602179055505050565b60006001600084815260200190815260200160002060000160008373ffffffffffffffffffffffffffffffffffffffff1673ffffffffffffffffffffffffffffffffffffffff16815260200190815260200160002060009054906101000a900460ff16905092915050565b600033905090565b620002ff81620002f3620002d660201b60201c565b6200030260201b60201c565b50565b6200031482826200026b60201b60201c565b620003c257620003478173ffffffffffffffffffffffffffffffffffffffff166014620003c660201b6200137f1760201c565b620003628360001c6020620003c660201b6200137f1760201c565b6040516020016200037592919062000798565b6040516020818303038152906040526040517f08c379a0000000000000000000000000000000000000000000000000000000008152600401620003b99190620007da565b60405180910390fd5b5050565b606060006002836002620003db9190620008a4565b620003e7919062000847565b67ffffffffffffffff81111562000403576200040262000a06565b5b6040519080825280601f01601f191660200182016040528015620004365781602001600182028036833780820191505090505b5090507f300000000000000000000000000000000000000000000000000000000000000081600081518110620004715762000470620009d7565b5b60200101907effffffffffffffffffffffffffffffffffffffffffffffffffffffffffffff1916908160001a9053507f780000000000000000000000000000000000000000000000000000000000000081600181518110620004d857620004d7620009d7565b5b60200101907effffffffffffffffffffffffffffffffffffffffffffffffffffffffffffff1916908160001a905350600060018460026200051a9190620008a4565b62000526919062000847565b90505b6001811115620005d0577f3031323334353637383961626364656600000000000000000000000000000000600f8616601081106200056c576200056b620009d7565b5b1a60f81b828281518110620005865762000585620009d7565b5b60200101907effffffffffffffffffffffffffffffffffffffffffffffffffffffffffffff1916908160001a905350600485901c945080620005c89062000979565b905062000529565b506000841462000617576040517f08c379a00000000000000000000000000000000000000000000000000000000081526004016200060e90620007fe565b60405180910390fd5b8091505092915050565b600081519050620006328162000ac6565b92915050565b600081519050620006498162000ae0565b92915050565b6000806000606084860312156200066b576200066a62000a35565b5b60006200067b8682870162000621565b93505060206200068e8682870162000638565b9250506040620006a18682870162000638565b9150509250925092565b6000620006b88262000820565b620006c481856200082b565b9350620006d681856020860162000943565b620006e18162000a3a565b840191505092915050565b6000620006f98262000820565b6200070581856200083c565b93506200071781856020860162000943565b80840191505092915050565b6000620007326020836200082b565b91506200073f8262000a4b565b602082019050919050565b6000620007596017836200083c565b9150620007668262000a74565b601782019050919050565b6000620007806011836200083c565b91506200078d8262000a9d565b601182019050919050565b6000620007a5826200074a565b9150620007b38285620006ec565b9150620007c08262000771565b9150620007ce8284620006ec565b91508190509392505050565b60006020820190508181036000830152620007f68184620006ab565b905092915050565b60006020820190508181036000830152620008198162000723565b9050919050565b600081519050919050565b600082825260208201905092915050565b600081905092915050565b6000620008548262000939565b9150620008618362000939565b9250827fffffffffffffffffffffffffffffffffffffffffffffffffffffffffffffffff03821115620008995762000898620009a8565b5b828201905092915050565b6000620008b18262000939565b9150620008be8362000939565b9250817fffffffffffffffffffffffffffffffffffffffffffffffffffffffffffffffff0483118215151615620008fa57620008f9620009a8565b5b828202905092915050565b6000620009128262000919565b9050919050565b600073ffffffffffffffffffffffffffffffffffffffff82169050919050565b6000819050919050565b60005b838110156200096357808201518184015260208101905062000946565b8381111562000973576000848401525b50505050565b6000620009868262000939565b915060008214156200099d576200099c620009a8565b5b600182039050919050565b7f4e487b7100000000000000000000000000000000000000000000000000000000600052601160045260246000fd5b7f4e487b7100000000000000000000000000000000000000000000000000000000600052603260045260246000fd5b7f4e487b7100000000000000000000000000000000000000000000000000000000600052604160045260246000fd5b600080fd5b6000601f19601f8301169050919050565b7f537472696e67733a20686578206c656e67746820696e73756666696369656e74600082015250565b7f416363657373436f6e74726f6c3a206163636f756e7420000000000000000000600082015250565b7f206973206d697373696e6720726f6c6520000000000000000000000000000000600082015250565b62000ad18162000905565b811462000add57600080fd5b50565b62000aeb8162000939565b811462000af757600080fd5b50565b60805160a05161291162000b4a600039600081816108d201528181610d970152818161185401526118bd0152600081816108b101528181610d450152818161187f01526118e801526129116000f3fe6080604052600436106101815760003560e01c80636f9fb98a116100d1578063c685a67d1161008a578063e63ab1e911610064578063e63ab1e914610531578063ea8f82401461055c578063ec87621c14610585578063fe95c1ac146105b057610181565b8063c685a67d146104d3578063d0e30db0146104fe578063d547741f1461050857610181565b80636f9fb98a146103d357806373a187e5146103fe5780637be25115146104295780638456cb591461045457806391d148541461046b578063a217fddf146104a857610181565b80632f2ff15d1161013e5780633f4ba83a116101185780633f4ba83a146103275780635c549b0f1461033e5780635c975abb1461037d5780636919207d146103a857610181565b80632f2ff15d146102be57806336568abe146102e75780633a6a4d2e1461031057610181565b806301ffc9a7146101865780630e21750f146101c3578063222372f9146101ec578063248a9ca3146102185780632ada0640146102555780632b129b8b14610281575b600080fd5b34801561019257600080fd5b506101ad60048036038101906101a89190611ddf565b6105db565b6040516101ba9190612203565b60405180910390f35b3480156101cf57600080fd5b506101ea60048036038101906101e59190611d05565b610655565b005b3480156101f857600080fd5b506102016106c4565b60405161020f9291906121cc565b60405180910390f35b34801561022457600080fd5b5061023f600480360381019061023a9190611d72565b61088c565b60405161024c919061221e565b60405180910390f35b34801561026157600080fd5b5061026a6108ac565b604051610278929190612316565b60405180910390f35b34801561028d57600080fd5b506102a860048036038101906102a39190611e0c565b6108f9565b6040516102b5919061215f565b60405180910390f35b3480156102ca57600080fd5b506102e560048036038101906102e09190611d9f565b610938565b005b3480156102f357600080fd5b5061030e60048036038101906103099190611d9f565b610959565b005b34801561031c57600080fd5b506103256109dc565b005b34801561033357600080fd5b5061033c610cce565b005b34801561034a57600080fd5b5061036560048036038101906103609190611d05565b610d03565b6040516103749392919061233f565b60405180910390f35b34801561038957600080fd5b50610392610d2d565b60405161039f9190612203565b60405180910390f35b3480156103b457600080fd5b506103bd610d43565b6040516103ca91906122fb565b60405180910390f35b3480156103df57600080fd5b506103e8610d67565b6040516103f591906122fb565b60405180910390f35b34801561040a57600080fd5b50610413610d6f565b604051610420919061217a565b60405180910390f35b34801561043557600080fd5b5061043e610d95565b60405161044b91906122fb565b60405180910390f35b34801561046057600080fd5b50610469610db9565b005b34801561047757600080fd5b50610492600480360381019061048d9190611d9f565b610dee565b60405161049f9190612203565b60405180910390f35b3480156104b457600080fd5b506104bd610e59565b6040516104ca919061221e565b60405180910390f35b3480156104df57600080fd5b506104e8610e60565b6040516104f5919061221e565b60405180910390f35b610506610e88565b005b34801561051457600080fd5b5061052f600480360381019061052a9190611d9f565b610ed8565b005b34801561053d57600080fd5b50610546610ef9565b604051610553919061221e565b60405180910390f35b34801561056857600080fd5b50610583600480360381019061057e9190611d32565b610f1d565b005b34801561059157600080fd5b5061059a611331565b6040516105a7919061221e565b60405180910390f35b3480156105bc57600080fd5b506105c5611355565b6040516105d2919061215f565b60405180910390f35b60007f7965db0b000000000000000000000000000000000000000000000000000000007bffffffffffffffffffffffffffffffffffffffffffffffffffffffff1916827bffffffffffffffffffffffffffffffffffffffffffffffffffffffff1916148061064e575061064d826115bb565b5b9050919050565b7f241ecf16d79d0f8dbfb92cbc07fe17840425976cf0667f022fe9877caa831b0861067f81611625565b81600560006101000a81548173ffffffffffffffffffffffffffffffffffffffff021916908373ffffffffffffffffffffffffffffffffffffffff1602179055505050565b60608060038054905067ffffffffffffffff8111156106e6576106e56126f2565b5b6040519080825280602002602001820160405280156107145781602001602082028036833780820191505090505b509150600380548060200260200160405190810160405280929190818152602001828054801561079957602002820191906000526020600020905b8160009054906101000a900473ffffffffffffffffffffffffffffffffffffffff1673ffffffffffffffffffffffffffffffffffffffff168152602001906001019080831161074f575b50505050509150815167ffffffffffffffff8111156107bb576107ba6126f2565b5b6040519080825280602002602001820160405280156107e95781602001602082028036833780820191505090505b50905060005b8251811015610887576004600084838151811061080f5761080e6126c3565b5b602002602001015173ffffffffffffffffffffffffffffffffffffffff1673ffffffffffffffffffffffffffffffffffffffff16815260200190815260200160002060000154828281518110610868576108676126c3565b5b602002602001018181525050808061087f9061261c565b9150506107ef565b509091565b600060016000838152602001908152602001600020600101549050919050565b6000807f00000000000000000000000000000000000000000000000000000000000000007f0000000000000000000000000000000000000000000000000000000000000000915091509091565b6003818154811061090957600080fd5b906000526020600020016000915054906101000a900473ffffffffffffffffffffffffffffffffffffffff1681565b6109418261088c565b61094a81611625565b6109548383611639565b505050565b610961611719565b73ffffffffffffffffffffffffffffffffffffffff168173ffffffffffffffffffffffffffffffffffffffff16146109ce576040517f08c379a00000000000000000000000000000000000000000000000000000000081526004016109c5906122db565b60405180910390fd5b6109d88282611721565b5050565b6109e4611803565b600280541415610a29576040517f08c379a0000000000000000000000000000000000000000000000000000000008152600401610a20906122bb565b60405180910390fd5b60028081905550610a3861184d565b610c9c5760004790506000806003805480602002602001604051908101604052809291908181526020018280548015610ac657602002820191906000526020600020905b8160009054906101000a900473ffffffffffffffffffffffffffffffffffffffff1673ffffffffffffffffffffffffffffffffffffffff1681526020019060010190808311610a7c575b5050505050905060005b8151811015610c32576000610b6568056bc75e2d63100000610b5760046000878781518110610b0257610b016126c3565b5b602002602001015173ffffffffffffffffffffffffffffffffffffffff1673ffffffffffffffffffffffffffffffffffffffff168152602001908152602001600020600001548861194990919063ffffffff16565b61195f90919063ffffffff16565b90504260046000858581518110610b7f57610b7e6126c3565b5b602002602001015173ffffffffffffffffffffffffffffffffffffffff1673ffffffffffffffffffffffffffffffffffffffff168152602001908152602001600020600101819055508084610bd4919061241a565b9350610c1e60038381548110610bed57610bec6126c3565b5b9060005260206000200160009054906101000a900473ffffffffffffffffffffffffffffffffffffffff1682611975565b508080610c2a9061261c565b915050610ad0565b50610c5f600560009054906101000a900473ffffffffffffffffffffffffffffffffffffffff1647611975565b7f40d8c854b6d5329fd5fccae04f5a931d7529963fbab81aced7337394e737cb4d8242604051610c90929190612316565b60405180910390a15050505b6040517f5c4f151a00000000000000000000000000000000000000000000000000000000815260040160405180910390fd5b7f65d7a28e3265b37a6474929f336521b332c1681b933f6cb9f3376673440d862a610cf881611625565b610d00611a57565b50565b60046020528060005260406000206000915090508060000154908060010154908060020154905083565b60008060009054906101000a900460ff16905090565b7f000000000000000000000000000000000000000000000000000000000000000081565b600047905090565b600560009054906101000a900473ffffffffffffffffffffffffffffffffffffffff1681565b7f000000000000000000000000000000000000000000000000000000000000000081565b7f65d7a28e3265b37a6474929f336521b332c1681b933f6cb9f3376673440d862a610de381611625565b610deb611ab9565b50565b60006001600084815260200190815260200160002060000160008373ffffffffffffffffffffffffffffffffffffffff1673ffffffffffffffffffffffffffffffffffffffff16815260200190815260200160002060009054906101000a900460ff16905092915050565b6000801b81565b60007f65d7a28e3265b37a6474929f336521b332c1681b933f6cb9f3376673440d862a905090565b3373ffffffffffffffffffffffffffffffffffffffff167f8e47b87b0ef542cdfa1659c551d88bad38aa7f452d2bbb349ab7530dfec8be8f34604051610ece91906122fb565b60405180910390a2565b610ee18261088c565b610eea81611625565b610ef48383611721565b505050565b7f65d7a28e3265b37a6474929f336521b332c1681b933f6cb9f3376673440d862a81565b610f25611803565b7f241ecf16d79d0f8dbfb92cbc07fe17840425976cf0667f022fe9877caa831b08610f4f81611625565b610f5761184d565b610f8d576040517f5c4f151a00000000000000000000000000000000000000000000000000000000815260040160405180910390fd5b60008211610fc7576040517f9bc4b81000000000000000000000000000000000000000000000000000000000815260040160405180910390fd5b68056bc75e2d6310000061107283611064600380548060200260200160405190810160405280929190818152602001828054801561105a57602002820191906000526020600020905b8160009054906101000a900473ffffffffffffffffffffffffffffffffffffffff1673ffffffffffffffffffffffffffffffffffffffff1681526020019060010190808311611010575b5050505050611b1b565b611bb590919063ffffffff16565b11156110aa576040517ff7752b5600000000000000000000000000000000000000000000000000000000815260040160405180910390fd5b6000600460008573ffffffffffffffffffffffffffffffffffffffff1673ffffffffffffffffffffffffffffffffffffffff16815260200190815260200160002060000154141561120f576003839080600181540180825580915050600190039060005260206000200160009091909190916101000a81548173ffffffffffffffffffffffffffffffffffffffff021916908373ffffffffffffffffffffffffffffffffffffffff160217905550604051806060016040528083815260200142815260200142815250600460008573ffffffffffffffffffffffffffffffffffffffff1673ffffffffffffffffffffffffffffffffffffffff1681526020019081526020016000206000820151816000015560208201518160010155604082015181600201559050507fd28dcb07d53c12af29d1d43717104513759da09540a22817be666f889ca3c28983834260405161120693929190612195565b60405180910390a15b61126482600460008673ffffffffffffffffffffffffffffffffffffffff1673ffffffffffffffffffffffffffffffffffffffff16815260200190815260200160002060000154611bb590919063ffffffff16565b600460008573ffffffffffffffffffffffffffffffffffffffff1673ffffffffffffffffffffffffffffffffffffffff1681526020019081526020016000206000018190555042600460008573ffffffffffffffffffffffffffffffffffffffff1673ffffffffffffffffffffffffffffffffffffffff168152602001908152602001600020600201819055507fd1fca5b7ee7a3fde3795aba50a979a3dfdb87df744e291883cdd06c10dc08ccc83834260405161132493929190612195565b60405180910390a1505050565b7f241ecf16d79d0f8dbfb92cbc07fe17840425976cf0667f022fe9877caa831b0881565b6000600560009054906101000a900473ffffffffffffffffffffffffffffffffffffffff16905090565b60606000600283600261139291906124a1565b61139c919061241a565b67ffffffffffffffff8111156113b5576113b46126f2565b5b6040519080825280601f01601f1916602001820160405280156113e75781602001600182028036833780820191505090505b5090507f30000000000000000000000000000000000000000000000000000000000000008160008151811061141f5761141e6126c3565b5b60200101907effffffffffffffffffffffffffffffffffffffffffffffffffffffffffffff1916908160001a9053507f780000000000000000000000000000000000000000000000000000000000000081600181518110611483576114826126c3565b5b60200101907effffffffffffffffffffffffffffffffffffffffffffffffffffffffffffff1916908160001a905350600060018460026114c391906124a1565b6114cd919061241a565b90505b600181111561156d577f3031323334353637383961626364656600000000000000000000000000000000600f86166010811061150f5761150e6126c3565b5b1a60f81b828281518110611526576115256126c3565b5b60200101907effffffffffffffffffffffffffffffffffffffffffffffffffffffffffffff1916908160001a905350600485901c945080611566906125f2565b90506114d0565b50600084146115b1576040517f08c379a00000000000000000000000000000000000000000000000000000000081526004016115a89061225b565b60405180910390fd5b8091505092915050565b60007f01ffc9a7000000000000000000000000000000000000000000000000000000007bffffffffffffffffffffffffffffffffffffffffffffffffffffffff1916827bffffffffffffffffffffffffffffffffffffffffffffffffffffffff1916149050919050565b61163681611631611719565b611bcb565b50565b6116438282610dee565b61171557600180600084815260200190815260200160002060000160008373ffffffffffffffffffffffffffffffffffffffff1673ffffffffffffffffffffffffffffffffffffffff16815260200190815260200160002060006101000a81548160ff0219169083151502179055506116ba611719565b73ffffffffffffffffffffffffffffffffffffffff168173ffffffffffffffffffffffffffffffffffffffff16837f2f8788117e7eff1d82e926ec794901d17c78024a50270940304540a733656f0d60405160405180910390a45b5050565b600033905090565b61172b8282610dee565b156117ff5760006001600084815260200190815260200160002060000160008373ffffffffffffffffffffffffffffffffffffffff1673ffffffffffffffffffffffffffffffffffffffff16815260200190815260200160002060006101000a81548160ff0219169083151502179055506117a4611719565b73ffffffffffffffffffffffffffffffffffffffff168173ffffffffffffffffffffffffffffffffffffffff16837ff6391f5c32d9c69d2a47ea670b442974b53935d1edc7fd64eb21e047a839171b60405160405180910390a45b5050565b61180b610d2d565b1561184b576040517f08c379a00000000000000000000000000000000000000000000000000000000081526004016118429061229b565b60405180910390fd5b565b60008060027f000000000000000000000000000000000000000000000000000000000000000061187d9190612470565b7f00000000000000000000000000000000000000000000000000000000000000006118a891906124fb565b6006546118b5919061241a565b9050600060027f00000000000000000000000000000000000000000000000000000000000000006118e69190612470565b7f0000000000000000000000000000000000000000000000000000000000000000611911919061241a565b60065461191e919061241a565b905081421015801561192f57508042105b1561193f57600192505050611946565b6000925050505b90565b6000818361195791906124a1565b905092915050565b6000818361196d9190612470565b905092915050565b804710156119af576040517f4034001800000000000000000000000000000000000000000000000000000000815260040160405180910390fd5b60008273ffffffffffffffffffffffffffffffffffffffff16826040516119d590612110565b60006040518083038185875af1925050503d8060008114611a12576040519150601f19603f3d011682016040523d82523d6000602084013e611a17565b606091505b5050905080611a52576040517ffbb12e0800000000000000000000000000000000000000000000000000000000815260040160405180910390fd5b505050565b611a5f611c68565b60008060006101000a81548160ff0219169083151502179055507f5db9ee0a495bf2e6ff9c91a7834c1ba4fdd244a5e8aa4e537bd38aeae4b073aa611aa2611719565b604051611aaf919061215f565b60405180910390a1565b611ac1611803565b60016000806101000a81548160ff0219169083151502179055507f62e78cea01bee320cd4e420270b5ea74000d11b0c9f74754ebdbfc544b05a258611b04611719565b604051611b11919061215f565b60405180910390a1565b6000806000905060005b8351811015611bab5760046000858381518110611b4557611b446126c3565b5b602002602001015173ffffffffffffffffffffffffffffffffffffffff1673ffffffffffffffffffffffffffffffffffffffff1681526020019081526020016000206000015482611b96919061241a565b91508080611ba39061261c565b915050611b25565b5080915050919050565b60008183611bc3919061241a565b905092915050565b611bd58282610dee565b611c6457611bfa8173ffffffffffffffffffffffffffffffffffffffff16601461137f565b611c088360001c602061137f565b604051602001611c19929190612125565b6040516020818303038152906040526040517f08c379a0000000000000000000000000000000000000000000000000000000008152600401611c5b9190612239565b60405180910390fd5b5050565b611c70610d2d565b611caf576040517f08c379a0000000000000000000000000000000000000000000000000000000008152600401611ca69061227b565b60405180910390fd5b565b600081359050611cc08161287f565b92915050565b600081359050611cd581612896565b92915050565b600081359050611cea816128ad565b92915050565b600081359050611cff816128c4565b92915050565b600060208284031215611d1b57611d1a612721565b5b6000611d2984828501611cb1565b91505092915050565b60008060408385031215611d4957611d48612721565b5b6000611d5785828601611cb1565b9250506020611d6885828601611cf0565b9150509250929050565b600060208284031215611d8857611d87612721565b5b6000611d9684828501611cc6565b91505092915050565b60008060408385031215611db657611db5612721565b5b6000611dc485828601611cc6565b9250506020611dd585828601611cb1565b9150509250929050565b600060208284031215611df557611df4612721565b5b6000611e0384828501611cdb565b91505092915050565b600060208284031215611e2257611e21612721565b5b6000611e3084828501611cf0565b91505092915050565b6000611e458383611e78565b60208301905092915050565b6000611e5d83836120f2565b60208301905092915050565b611e7281612541565b82525050565b611e818161252f565b82525050565b611e908161252f565b82525050565b6000611ea182612396565b611eab81856123d1565b9350611eb683612376565b8060005b83811015611ee7578151611ece8882611e39565b9750611ed9836123b7565b925050600181019050611eba565b5085935050505092915050565b6000611eff826123a1565b611f0981856123e2565b9350611f1483612386565b8060005b83811015611f45578151611f2c8882611e51565b9750611f37836123c4565b925050600181019050611f18565b5085935050505092915050565b611f5b81612553565b82525050565b611f6a8161255f565b82525050565b6000611f7b826123ac565b611f8581856123fe565b9350611f958185602086016125bf565b611f9e81612726565b840191505092915050565b6000611fb4826123ac565b611fbe818561240f565b9350611fce8185602086016125bf565b80840191505092915050565b6000611fe76020836123fe565b9150611ff282612737565b602082019050919050565b600061200a6014836123fe565b915061201582612760565b602082019050919050565b600061202d6010836123fe565b915061203882612789565b602082019050919050565b60006120506000836123f3565b915061205b826127b2565b600082019050919050565b600061207360178361240f565b915061207e826127b5565b601782019050919050565b6000612096601f836123fe565b91506120a1826127de565b602082019050919050565b60006120b960118361240f565b91506120c482612807565b601182019050919050565b60006120dc602f836123fe565b91506120e782612830565b604082019050919050565b6120fb816125b5565b82525050565b61210a816125b5565b82525050565b600061211b82612043565b9150819050919050565b600061213082612066565b915061213c8285611fa9565b9150612147826120ac565b91506121538284611fa9565b91508190509392505050565b60006020820190506121746000830184611e87565b92915050565b600060208201905061218f6000830184611e69565b92915050565b60006060820190506121aa6000830186611e87565b6121b76020830185612101565b6121c46040830184612101565b949350505050565b600060408201905081810360008301526121e68185611e96565b905081810360208301526121fa8184611ef4565b90509392505050565b60006020820190506122186000830184611f52565b92915050565b60006020820190506122336000830184611f61565b92915050565b600060208201905081810360008301526122538184611f70565b905092915050565b6000602082019050818103600083015261227481611fda565b9050919050565b6000602082019050818103600083015261229481611ffd565b9050919050565b600060208201905081810360008301526122b481612020565b9050919050565b600060208201905081810360008301526122d481612089565b9050919050565b600060208201905081810360008301526122f4816120cf565b9050919050565b60006020820190506123106000830184612101565b92915050565b600060408201905061232b6000830185612101565b6123386020830184612101565b9392505050565b60006060820190506123546000830186612101565b6123616020830185612101565b61236e6040830184612101565b949350505050565b6000819050602082019050919050565b6000819050602082019050919050565b600081519050919050565b600081519050919050565b600081519050919050565b6000602082019050919050565b6000602082019050919050565b600082825260208201905092915050565b600082825260208201905092915050565b600081905092915050565b600082825260208201905092915050565b600081905092915050565b6000612425826125b5565b9150612430836125b5565b9250827fffffffffffffffffffffffffffffffffffffffffffffffffffffffffffffffff0382111561246557612464612665565b5b828201905092915050565b600061247b826125b5565b9150612486836125b5565b92508261249657612495612694565b5b828204905092915050565b60006124ac826125b5565b91506124b7836125b5565b9250817fffffffffffffffffffffffffffffffffffffffffffffffffffffffffffffffff04831182151516156124f0576124ef612665565b5b828202905092915050565b6000612506826125b5565b9150612511836125b5565b92508282101561252457612523612665565b5b828203905092915050565b600061253a82612595565b9050919050565b600061254c82612595565b9050919050565b60008115159050919050565b6000819050919050565b60007fffffffff0000000000000000000000000000000000000000000000000000000082169050919050565b600073ffffffffffffffffffffffffffffffffffffffff82169050919050565b6000819050919050565b60005b838110156125dd5780820151818401526020810190506125c2565b838111156125ec576000848401525b50505050565b60006125fd826125b5565b9150600082141561261157612610612665565b5b600182039050919050565b6000612627826125b5565b91507fffffffffffffffffffffffffffffffffffffffffffffffffffffffffffffffff82141561265a57612659612665565b5b600182019050919050565b7f4e487b7100000000000000000000000000000000000000000000000000000000600052601160045260246000fd5b7f4e487b7100000000000000000000000000000000000000000000000000000000600052601260045260246000fd5b7f4e487b7100000000000000000000000000000000000000000000000000000000600052603260045260246000fd5b7f4e487b7100000000000000000000000000000000000000000000000000000000600052604160045260246000fd5b600080fd5b6000601f19601f8301169050919050565b7f537472696e67733a20686578206c656e67746820696e73756666696369656e74600082015250565b7f5061757361626c653a206e6f7420706175736564000000000000000000000000600082015250565b7f5061757361626c653a2070617573656400000000000000000000000000000000600082015250565b50565b7f416363657373436f6e74726f6c3a206163636f756e7420000000000000000000600082015250565b7f5265656e7472616e637947756172643a207265656e7472616e742063616c6c00600082015250565b7f206973206d697373696e6720726f6c6520000000000000000000000000000000600082015250565b7f416363657373436f6e74726f6c3a2063616e206f6e6c792072656e6f756e636560008201527f20726f6c657320666f722073656c660000000000000000000000000000000000602082015250565b6128888161252f565b811461289357600080fd5b50565b61289f8161255f565b81146128aa57600080fd5b50565b6128b681612569565b81146128c157600080fd5b50565b6128cd816125b5565b81146128d857600080fd5b5056fea2646970667358221220cbcf1927c2f4144d0b9b242a0d8e2670d804eb4d4e8f5fba2fb75dd41946635464736f6c63430008070033",
  "devdoc": {
    "custom:security-contact": "info@impact3.io",
    "kind": "dev",
    "methods": {
      "getRoleAdmin(bytes32)": {
        "details": "Returns the admin role that controls `role`. See {grantRole} and {revokeRole}. To change a role's admin, use {_setRoleAdmin}."
      },
      "grantRole(bytes32,address)": {
        "details": "Grants `role` to `account`. If `account` had not been already granted `role`, emits a {RoleGranted} event. Requirements: - the caller must have ``role``'s admin role. May emit a {RoleGranted} event."
      },
      "hasRole(bytes32,address)": {
        "details": "Returns `true` if `account` has been granted `role`."
      },
      "paused()": {
        "details": "Returns true if the contract is paused, and false otherwise."
      },
      "renounceRole(bytes32,address)": {
        "details": "Revokes `role` from the calling account. Roles are often managed via {grantRole} and {revokeRole}: this function's purpose is to provide a mechanism for accounts to lose their privileges if they are compromised (such as when a trusted device is misplaced). If the calling account had been revoked `role`, emits a {RoleRevoked} event. Requirements: - the caller must be `account`. May emit a {RoleRevoked} event."
      },
      "revokeRole(bytes32,address)": {
        "details": "Revokes `role` from `account`. If `account` had been granted `role`, emits a {RoleRevoked} event. Requirements: - the caller must have ``role``'s admin role. May emit a {RoleRevoked} event."
      },
      "supportsInterface(bytes4)": {
        "details": "See {IERC165-supportsInterface}."
      }
    },
    "version": 1
  },
  "userdoc": {
    "kind": "user",
    "methods": {},
    "version": 1
  },
  "storageLayout": {
    "storage": [
      {
        "astId": 410,
        "contract": "contracts/EquityManager.sol:EquityManager",
        "label": "_paused",
        "offset": 0,
        "slot": "0",
        "type": "t_bool"
      },
      {
        "astId": 24,
        "contract": "contracts/EquityManager.sol:EquityManager",
        "label": "_roles",
        "offset": 0,
        "slot": "1",
        "type": "t_mapping(t_bytes32,t_struct(RoleData)19_storage)"
      },
      {
        "astId": 511,
        "contract": "contracts/EquityManager.sol:EquityManager",
        "label": "_status",
        "offset": 0,
        "slot": "2",
        "type": "t_uint256"
      },
      {
        "astId": 1214,
        "contract": "contracts/EquityManager.sol:EquityManager",
        "label": "current_stakeholders",
        "offset": 0,
        "slot": "3",
        "type": "t_array(t_address)dyn_storage"
      },
      {
        "astId": 1219,
        "contract": "contracts/EquityManager.sol:EquityManager",
        "label": "current_stakes",
        "offset": 0,
        "slot": "4",
        "type": "t_mapping(t_address,t_struct(EquityStake)1211_storage)"
      },
      {
        "astId": 1221,
        "contract": "contracts/EquityManager.sol:EquityManager",
        "label": "i3Fund",
        "offset": 0,
        "slot": "5",
        "type": "t_address_payable"
      },
      {
        "astId": 1227,
        "contract": "contracts/EquityManager.sol:EquityManager",
        "label": "s_lastTimeStamp",
        "offset": 0,
        "slot": "6",
        "type": "t_uint256"
      }
    ],
    "types": {
      "t_address": {
        "encoding": "inplace",
        "label": "address",
        "numberOfBytes": "20"
      },
      "t_address_payable": {
        "encoding": "inplace",
        "label": "address payable",
        "numberOfBytes": "20"
      },
      "t_array(t_address)dyn_storage": {
        "base": "t_address",
        "encoding": "dynamic_array",
        "label": "address[]",
        "numberOfBytes": "32"
      },
      "t_bool": {
        "encoding": "inplace",
        "label": "bool",
        "numberOfBytes": "1"
      },
      "t_bytes32": {
        "encoding": "inplace",
        "label": "bytes32",
        "numberOfBytes": "32"
      },
      "t_mapping(t_address,t_bool)": {
        "encoding": "mapping",
        "key": "t_address",
        "label": "mapping(address => bool)",
        "numberOfBytes": "32",
        "value": "t_bool"
      },
      "t_mapping(t_address,t_struct(EquityStake)1211_storage)": {
        "encoding": "mapping",
        "key": "t_address",
        "label": "mapping(address => struct EquityManager.EquityStake)",
        "numberOfBytes": "32",
        "value": "t_struct(EquityStake)1211_storage"
      },
      "t_mapping(t_bytes32,t_struct(RoleData)19_storage)": {
        "encoding": "mapping",
        "key": "t_bytes32",
        "label": "mapping(bytes32 => struct AccessControl.RoleData)",
        "numberOfBytes": "32",
        "value": "t_struct(RoleData)19_storage"
      },
      "t_struct(EquityStake)1211_storage": {
        "encoding": "inplace",
        "label": "struct EquityManager.EquityStake",
        "members": [
          {
            "astId": 1206,
            "contract": "contracts/EquityManager.sol:EquityManager",
            "label": "stakePercentage",
            "offset": 0,
            "slot": "0",
            "type": "t_uint256"
          },
          {
            "astId": 1208,
            "contract": "contracts/EquityManager.sol:EquityManager",
            "label": "fundsLastReceived",
            "offset": 0,
            "slot": "1",
            "type": "t_uint256"
          },
          {
            "astId": 1210,
            "contract": "contracts/EquityManager.sol:EquityManager",
            "label": "equityLastUpdated",
            "offset": 0,
            "slot": "2",
            "type": "t_uint256"
          }
        ],
        "numberOfBytes": "96"
      },
      "t_struct(RoleData)19_storage": {
        "encoding": "inplace",
        "label": "struct AccessControl.RoleData",
        "members": [
          {
            "astId": 16,
            "contract": "contracts/EquityManager.sol:EquityManager",
            "label": "members",
            "offset": 0,
            "slot": "0",
            "type": "t_mapping(t_address,t_bool)"
          },
          {
            "astId": 18,
            "contract": "contracts/EquityManager.sol:EquityManager",
            "label": "adminRole",
            "offset": 0,
            "slot": "1",
            "type": "t_bytes32"
          }
        ],
        "numberOfBytes": "64"
      },
      "t_uint256": {
        "encoding": "inplace",
        "label": "uint256",
        "numberOfBytes": "32"
      }
    }
  }
}